{"abi":[{"inputs":[{"internalType":"uint256","name":"","type":"uint256"}],"name":"allPatients","outputs":[{"internalType":"address payable","name":"","type":"address"}],"stateMutability":"view","type":"function"},{"inputs":[{"internalType":"string","name":"_username","type":"string"},{"internalType":"string","name":"_gender","type":"string"},{"internalType":"uint256","name":"_phone","type":"uint256"},{"internalType":"uint256","name":"_age","type":"uint256"},{"internalType":"uint256","name":"_sbp","type":"uint256"},{"internalType":"uint256","name":"_dbp","type":"uint256"},{"internalType":"uint256","name":"_pulse","type":"uint256"},{"internalType":"uint256","name":"_respiratoryRate","type":"uint256"},{"internalType":"uint256","name":"_temperature","type":"uint256"},{"internalType":"uint256","name":"_oxygenSaturation","type":"uint256"},{"internalType":"uint256","name":"_bloodGlucose","type":"uint256"}],"name":"createNewPatient","outputs":[{"internalType":"address","name":"","type":"address"}],"stateMutability":"nonpayable","type":"function"},{"inputs":[],"name":"getAllPatients","outputs":[{"internalType":"address payable[]","name":"","type":"address[]"}],"stateMutability":"view","type":"function"}],"devdoc":{"kind":"dev","methods":{},"version":1},"evm":{"assembly":"    /* \"hmsb.sol\":60:1082  contract Factory {... */\n  mstore(0x40, 0x80)\n  callvalue\n  dup1\n  iszero\n  tag_1\n  jumpi\n  0x00\n  dup1\n  revert\ntag_1:\n  pop\n  dataSize(sub_0)\n  dup1\n  dataOffset(sub_0)\n  0x00\n  codecopy\n  0x00\n  return\nstop\n\nsub_0: assembly {\n        /* \"hmsb.sol\":60:1082  contract Factory {... */\n      mstore(0x40, 0x80)\n      callvalue\n      dup1\n      iszero\n      tag_1\n      jumpi\n      0x00\n      dup1\n      revert\n    tag_1:\n      pop\n      jumpi(tag_2, lt(calldatasize, 0x04))\n      shr(0xe0, calldataload(0x00))\n      dup1\n      0x18a231a9\n      eq\n      tag_3\n      jumpi\n      dup1\n      0xd36da618\n      eq\n      tag_4\n      jumpi\n      dup1\n      0xd8f608df\n      eq\n      tag_5\n      jumpi\n    tag_2:\n      0x00\n      dup1\n      revert\n        /* \"hmsb.sol\":969:1079  function getAllPatients() public view returns (address payable[] memory) {... */\n    tag_3:\n      tag_6\n      tag_7\n      jump\t// in\n    tag_6:\n      mload(0x40)\n      tag_8\n      swap2\n      swap1\n      tag_9\n      jump\t// in\n    tag_8:\n      mload(0x40)\n      dup1\n      swap2\n      sub\n      swap1\n      return\n        /* \"hmsb.sol\":129:961  function createNewPatient(... */\n    tag_4:\n      tag_10\n      0x04\n      dup1\n      calldatasize\n      sub\n      dup2\n      add\n      swap1\n      tag_11\n      swap2\n      swap1\n      tag_12\n      jump\t// in\n    tag_11:\n      tag_13\n      jump\t// in\n    tag_10:\n      mload(0x40)\n      tag_14\n      swap2\n      swap1\n      tag_15\n      jump\t// in\n    tag_14:\n      mload(0x40)\n      dup1\n      swap2\n      sub\n      swap1\n      return\n        /* \"hmsb.sol\":84:120  address payable[] public allPatients */\n    tag_5:\n      tag_16\n      0x04\n      dup1\n      calldatasize\n      sub\n      dup2\n      add\n      swap1\n      tag_17\n      swap2\n      swap1\n      tag_18\n      jump\t// in\n    tag_17:\n      tag_19\n      jump\t// in\n    tag_16:\n      mload(0x40)\n      tag_20\n      swap2\n      swap1\n      tag_21\n      jump\t// in\n    tag_20:\n      mload(0x40)\n      dup1\n      swap2\n      sub\n      swap1\n      return\n        /* \"hmsb.sol\":969:1079  function getAllPatients() public view returns (address payable[] memory) {... */\n    tag_7:\n        /* \"hmsb.sol\":1016:1040  address payable[] memory */\n      0x60\n        /* \"hmsb.sol\":1060:1071  allPatients */\n      0x00\n        /* \"hmsb.sol\":1053:1071  return allPatients */\n      dup1\n      sload\n      dup1\n      0x20\n      mul\n      0x20\n      add\n      mload(0x40)\n      swap1\n      dup2\n      add\n      0x40\n      mstore\n      dup1\n      swap3\n      swap2\n      swap1\n      dup2\n      dup2\n      mstore\n      0x20\n      add\n      dup3\n      dup1\n      sload\n      dup1\n      iszero\n      tag_23\n      jumpi\n      0x20\n      mul\n      dup3\n      add\n      swap2\n      swap1\n      0x00\n      mstore\n      keccak256(0x00, 0x20)\n      swap1\n    tag_24:\n      dup2\n      0x00\n      swap1\n      sload\n      swap1\n      0x0100\n      exp\n      swap1\n      div\n      0xffffffffffffffffffffffffffffffffffffffff\n      and\n      0xffffffffffffffffffffffffffffffffffffffff\n      and\n      dup2\n      mstore\n      0x20\n      add\n      swap1\n      0x01\n      add\n      swap1\n      dup1\n      dup4\n      gt\n      tag_24\n      jumpi\n    tag_23:\n      pop\n      pop\n      pop\n      pop\n      pop\n      swap1\n      pop\n        /* \"hmsb.sol\":969:1079  function getAllPatients() public view returns (address payable[] memory) {... */\n      swap1\n      jump\t// out\n        /* \"hmsb.sol\":129:961  function createNewPatient(... */\n    tag_13:\n        /* \"hmsb.sol\":470:477  address */\n      0x00\n        /* \"hmsb.sol\":490:508  address newPatient */\n      dup1\n        /* \"hmsb.sol\":563:572  _username */\n      dup13\n        /* \"hmsb.sol\":591:598  _gender */\n      dup13\n        /* \"hmsb.sol\":617:623  _phone */\n      dup13\n        /* \"hmsb.sol\":642:646  _age */\n      dup13\n        /* \"hmsb.sol\":665:669  _sbp */\n      dup13\n        /* \"hmsb.sol\":688:692  _dbp */\n      dup13\n        /* \"hmsb.sol\":711:717  _pulse */\n      dup13\n        /* \"hmsb.sol\":736:752  _respiratoryRate */\n      dup13\n        /* \"hmsb.sol\":771:783  _temperature */\n      dup13\n        /* \"hmsb.sol\":802:819  _oxygenSaturation */\n      dup13\n        /* \"hmsb.sol\":838:851  _bloodGlucose */\n      dup13\n        /* \"hmsb.sol\":533:866  new Patient(... */\n      mload(0x40)\n      tag_26\n      swap1\n      tag_27\n      jump\t// in\n    tag_26:\n      tag_28\n      swap12\n      swap11\n      swap10\n      swap9\n      swap8\n      swap7\n      swap6\n      swap5\n      swap4\n      swap3\n      swap2\n      swap1\n      tag_29\n      jump\t// in\n    tag_28:\n      mload(0x40)\n      dup1\n      swap2\n      sub\n      swap1\n      0x00\n      create\n      dup1\n      iszero\n      dup1\n      iszero\n      tag_30\n      jumpi\n      returndatasize\n      0x00\n      dup1\n      returndatacopy\n      revert(0x00, returndatasize)\n    tag_30:\n      pop\n        /* \"hmsb.sol\":490:877  address newPatient = address(... */\n      swap1\n      pop\n        /* \"hmsb.sol\":888:899  allPatients */\n      0x00\n        /* \"hmsb.sol\":913:923  newPatient */\n      dup2\n        /* \"hmsb.sol\":888:925  allPatients.push(payable(newPatient)) */\n      swap1\n      dup1\n      0x01\n      dup2\n      sload\n      add\n      dup1\n      dup3\n      sstore\n      dup1\n      swap2\n      pop\n      pop\n      0x01\n      swap1\n      sub\n      swap1\n      0x00\n      mstore\n      keccak256(0x00, 0x20)\n      add\n      0x00\n      swap1\n      swap2\n      swap1\n      swap2\n      swap1\n      swap2\n      0x0100\n      exp\n      dup2\n      sload\n      dup2\n      0xffffffffffffffffffffffffffffffffffffffff\n      mul\n      not\n      and\n      swap1\n      dup4\n      0xffffffffffffffffffffffffffffffffffffffff\n      and\n      mul\n      or\n      swap1\n      sstore\n      pop\n        /* \"hmsb.sol\":943:953  newPatient */\n      dup1\n        /* \"hmsb.sol\":936:953  return newPatient */\n      swap2\n      pop\n      pop\n        /* \"hmsb.sol\":129:961  function createNewPatient(... */\n      swap12\n      swap11\n      pop\n      pop\n      pop\n      pop\n      pop\n      pop\n      pop\n      pop\n      pop\n      pop\n      pop\n      jump\t// out\n        /* \"hmsb.sol\":84:120  address payable[] public allPatients */\n    tag_19:\n      0x00\n      dup2\n      dup2\n      sload\n      dup2\n      lt\n      tag_32\n      jumpi\n      0x00\n      dup1\n      revert\n    tag_32:\n      swap1\n      0x00\n      mstore\n      keccak256(0x00, 0x20)\n      add\n      0x00\n      swap2\n      pop\n      sload\n      swap1\n      0x0100\n      exp\n      swap1\n      div\n      0xffffffffffffffffffffffffffffffffffffffff\n      and\n      dup2\n      jump\t// out\n    tag_27:\n      dataSize(sub_0)\n      dup1\n      dataOffset(sub_0)\n      dup4\n      codecopy\n      add\n      swap1\n      jump\t// out\n        /* \"#utility.yul\":7:129   */\n    tag_34:\n        /* \"#utility.yul\":82:88   */\n      0x00\n        /* \"#utility.yul\":116:121   */\n      dup2\n        /* \"#utility.yul\":110:122   */\n      mload\n        /* \"#utility.yul\":100:122   */\n      swap1\n      pop\n        /* \"#utility.yul\":7:129   */\n      swap2\n      swap1\n      pop\n      jump\t// out\n        /* \"#utility.yul\":135:327   */\n    tag_35:\n        /* \"#utility.yul\":242:253   */\n      0x00\n        /* \"#utility.yul\":276:282   */\n      dup3\n        /* \"#utility.yul\":271:274   */\n      dup3\n        /* \"#utility.yul\":264:283   */\n      mstore\n        /* \"#utility.yul\":316:320   */\n      0x20\n        /* \"#utility.yul\":311:314   */\n      dup3\n        /* \"#utility.yul\":307:321   */\n      add\n        /* \"#utility.yul\":292:321   */\n      swap1\n      pop\n        /* \"#utility.yul\":135:327   */\n      swap3\n      swap2\n      pop\n      pop\n      jump\t// out\n        /* \"#utility.yul\":333:473   */\n    tag_36:\n        /* \"#utility.yul\":408:412   */\n      0x00\n        /* \"#utility.yul\":431:434   */\n      dup2\n        /* \"#utility.yul\":423:434   */\n      swap1\n      pop\n        /* \"#utility.yul\":461:465   */\n      0x20\n        /* \"#utility.yul\":456:459   */\n      dup3\n        /* \"#utility.yul\":452:466   */\n      add\n        /* \"#utility.yul\":444:466   */\n      swap1\n      pop\n        /* \"#utility.yul\":333:473   */\n      swap2\n      swap1\n      pop\n      jump\t// out\n        /* \"#utility.yul\":479:605   */\n    tag_37:\n        /* \"#utility.yul\":516:523   */\n      0x00\n        /* \"#utility.yul\":556:598   */\n      0xffffffffffffffffffffffffffffffffffffffff\n        /* \"#utility.yul\":549:554   */\n      dup3\n        /* \"#utility.yul\":545:599   */\n      and\n        /* \"#utility.yul\":534:599   */\n      swap1\n      pop\n        /* \"#utility.yul\":479:605   */\n      swap2\n      swap1\n      pop\n      jump\t// out\n        /* \"#utility.yul\":611:715   */\n    tag_38:\n        /* \"#utility.yul\":656:663   */\n      0x00\n        /* \"#utility.yul\":685:709   */\n      tag_73\n        /* \"#utility.yul\":703:708   */\n      dup3\n        /* \"#utility.yul\":685:709   */\n      tag_37\n      jump\t// in\n    tag_73:\n        /* \"#utility.yul\":674:709   */\n      swap1\n      pop\n        /* \"#utility.yul\":611:715   */\n      swap2\n      swap1\n      pop\n      jump\t// out\n        /* \"#utility.yul\":721:853   */\n    tag_39:\n        /* \"#utility.yul\":814:846   */\n      tag_75\n        /* \"#utility.yul\":840:845   */\n      dup2\n        /* \"#utility.yul\":814:846   */\n      tag_38\n      jump\t// in\n    tag_75:\n        /* \"#utility.yul\":809:812   */\n      dup3\n        /* \"#utility.yul\":802:847   */\n      mstore\n        /* \"#utility.yul\":721:853   */\n      pop\n      pop\n      jump\t// out\n        /* \"#utility.yul\":859:1070   */\n    tag_40:\n        /* \"#utility.yul\":944:954   */\n      0x00\n        /* \"#utility.yul\":965:1027   */\n      tag_77\n        /* \"#utility.yul\":1023:1026   */\n      dup4\n        /* \"#utility.yul\":1015:1021   */\n      dup4\n        /* \"#utility.yul\":965:1027   */\n      tag_39\n      jump\t// in\n    tag_77:\n        /* \"#utility.yul\":1059:1063   */\n      0x20\n        /* \"#utility.yul\":1054:1057   */\n      dup4\n        /* \"#utility.yul\":1050:1064   */\n      add\n        /* \"#utility.yul\":1036:1064   */\n      swap1\n      pop\n        /* \"#utility.yul\":859:1070   */\n      swap3\n      swap2\n      pop\n      pop\n      jump\t// out\n        /* \"#utility.yul\":1076:1197   */\n    tag_41:\n        /* \"#utility.yul\":1154:1158   */\n      0x00\n        /* \"#utility.yul\":1186:1190   */\n      0x20\n        /* \"#utility.yul\":1181:1184   */\n      dup3\n        /* \"#utility.yul\":1177:1191   */\n      add\n        /* \"#utility.yul\":1169:1191   */\n      swap1\n      pop\n        /* \"#utility.yul\":1076:1197   */\n      swap2\n      swap1\n      pop\n      jump\t// out\n        /* \"#utility.yul\":1249:2045   */\n    tag_42:\n        /* \"#utility.yul\":1384:1387   */\n      0x00\n        /* \"#utility.yul\":1413:1475   */\n      tag_80\n        /* \"#utility.yul\":1469:1474   */\n      dup3\n        /* \"#utility.yul\":1413:1475   */\n      tag_34\n      jump\t// in\n    tag_80:\n        /* \"#utility.yul\":1491:1585   */\n      tag_81\n        /* \"#utility.yul\":1578:1584   */\n      dup2\n        /* \"#utility.yul\":1573:1576   */\n      dup6\n        /* \"#utility.yul\":1491:1585   */\n      tag_35\n      jump\t// in\n    tag_81:\n        /* \"#utility.yul\":1484:1585   */\n      swap4\n      pop\n        /* \"#utility.yul\":1609:1673   */\n      tag_82\n        /* \"#utility.yul\":1667:1672   */\n      dup4\n        /* \"#utility.yul\":1609:1673   */\n      tag_36\n      jump\t// in\n    tag_82:\n        /* \"#utility.yul\":1696:1703   */\n      dup1\n        /* \"#utility.yul\":1727:1728   */\n      0x00\n        /* \"#utility.yul\":1712:2020   */\n    tag_83:\n        /* \"#utility.yul\":1737:1743   */\n      dup4\n        /* \"#utility.yul\":1734:1735   */\n      dup2\n        /* \"#utility.yul\":1731:1744   */\n      lt\n        /* \"#utility.yul\":1712:2020   */\n      iszero\n      tag_85\n      jumpi\n        /* \"#utility.yul\":1813:1819   */\n      dup2\n        /* \"#utility.yul\":1807:1820   */\n      mload\n        /* \"#utility.yul\":1840:1919   */\n      tag_86\n        /* \"#utility.yul\":1915:1918   */\n      dup9\n        /* \"#utility.yul\":1900:1913   */\n      dup3\n        /* \"#utility.yul\":1840:1919   */\n      tag_40\n      jump\t// in\n    tag_86:\n        /* \"#utility.yul\":1833:1919   */\n      swap8\n      pop\n        /* \"#utility.yul\":1942:2010   */\n      tag_87\n        /* \"#utility.yul\":2003:2009   */\n      dup4\n        /* \"#utility.yul\":1942:2010   */\n      tag_41\n      jump\t// in\n    tag_87:\n        /* \"#utility.yul\":1932:2010   */\n      swap3\n      pop\n        /* \"#utility.yul\":1772:2020   */\n      pop\n        /* \"#utility.yul\":1759:1760   */\n      0x01\n        /* \"#utility.yul\":1756:1757   */\n      dup2\n        /* \"#utility.yul\":1752:1761   */\n      add\n        /* \"#utility.yul\":1747:1761   */\n      swap1\n      pop\n        /* \"#utility.yul\":1712:2020   */\n      jump(tag_83)\n    tag_85:\n        /* \"#utility.yul\":1716:1730   */\n      pop\n        /* \"#utility.yul\":2036:2039   */\n      dup6\n        /* \"#utility.yul\":2029:2039   */\n      swap4\n      pop\n        /* \"#utility.yul\":1389:2045   */\n      pop\n      pop\n      pop\n        /* \"#utility.yul\":1249:2045   */\n      swap3\n      swap2\n      pop\n      pop\n      jump\t// out\n        /* \"#utility.yul\":2051:2456   */\n    tag_9:\n        /* \"#utility.yul\":2210:2214   */\n      0x00\n        /* \"#utility.yul\":2248:2250   */\n      0x20\n        /* \"#utility.yul\":2237:2246   */\n      dup3\n        /* \"#utility.yul\":2233:2251   */\n      add\n        /* \"#utility.yul\":2225:2251   */\n      swap1\n      pop\n        /* \"#utility.yul\":2297:2306   */\n      dup2\n        /* \"#utility.yul\":2291:2295   */\n      dup2\n        /* \"#utility.yul\":2287:2307   */\n      sub\n        /* \"#utility.yul\":2283:2284   */\n      0x00\n        /* \"#utility.yul\":2272:2281   */\n      dup4\n        /* \"#utility.yul\":2268:2285   */\n      add\n        /* \"#utility.yul\":2261:2308   */\n      mstore\n        /* \"#utility.yul\":2325:2449   */\n      tag_89\n        /* \"#utility.yul\":2444:2448   */\n      dup2\n        /* \"#utility.yul\":2435:2441   */\n      dup5\n        /* \"#utility.yul\":2325:2449   */\n      tag_42\n      jump\t// in\n    tag_89:\n        /* \"#utility.yul\":2317:2449   */\n      swap1\n      pop\n        /* \"#utility.yul\":2051:2456   */\n      swap3\n      swap2\n      pop\n      pop\n      jump\t// out\n        /* \"#utility.yul\":2462:2537   */\n    tag_43:\n        /* \"#utility.yul\":2495:2501   */\n      0x00\n        /* \"#utility.yul\":2528:2530   */\n      0x40\n        /* \"#utility.yul\":2522:2531   */\n      mload\n        /* \"#utility.yul\":2512:2531   */\n      swap1\n      pop\n        /* \"#utility.yul\":2462:2537   */\n      swap1\n      jump\t// out\n        /* \"#utility.yul\":2543:2660   */\n    tag_44:\n        /* \"#utility.yul\":2652:2653   */\n      0x00\n        /* \"#utility.yul\":2649:2650   */\n      dup1\n        /* \"#utility.yul\":2642:2654   */\n      revert\n        /* \"#utility.yul\":2666:2783   */\n    tag_45:\n        /* \"#utility.yul\":2775:2776   */\n      0x00\n        /* \"#utility.yul\":2772:2773   */\n      dup1\n        /* \"#utility.yul\":2765:2777   */\n      revert\n        /* \"#utility.yul\":2789:2906   */\n    tag_46:\n        /* \"#utility.yul\":2898:2899   */\n      0x00\n        /* \"#utility.yul\":2895:2896   */\n      dup1\n        /* \"#utility.yul\":2888:2900   */\n      revert\n        /* \"#utility.yul\":2912:3029   */\n    tag_47:\n        /* \"#utility.yul\":3021:3022   */\n      0x00\n        /* \"#utility.yul\":3018:3019   */\n      dup1\n        /* \"#utility.yul\":3011:3023   */\n      revert\n        /* \"#utility.yul\":3035:3137   */\n    tag_48:\n        /* \"#utility.yul\":3076:3082   */\n      0x00\n        /* \"#utility.yul\":3127:3129   */\n      0x1f\n        /* \"#utility.yul\":3123:3130   */\n      not\n        /* \"#utility.yul\":3118:3120   */\n      0x1f\n        /* \"#utility.yul\":3111:3116   */\n      dup4\n        /* \"#utility.yul\":3107:3121   */\n      add\n        /* \"#utility.yul\":3103:3131   */\n      and\n        /* \"#utility.yul\":3093:3131   */\n      swap1\n      pop\n        /* \"#utility.yul\":3035:3137   */\n      swap2\n      swap1\n      pop\n      jump\t// out\n        /* \"#utility.yul\":3143:3323   */\n    tag_49:\n        /* \"#utility.yul\":3191:3268   */\n      0x4e487b7100000000000000000000000000000000000000000000000000000000\n        /* \"#utility.yul\":3188:3189   */\n      0x00\n        /* \"#utility.yul\":3181:3269   */\n      mstore\n        /* \"#utility.yul\":3288:3292   */\n      0x41\n        /* \"#utility.yul\":3285:3286   */\n      0x04\n        /* \"#utility.yul\":3278:3293   */\n      mstore\n        /* \"#utility.yul\":3312:3316   */\n      0x24\n        /* \"#utility.yul\":3309:3310   */\n      0x00\n        /* \"#utility.yul\":3302:3317   */\n      revert\n        /* \"#utility.yul\":3329:3610   */\n    tag_50:\n        /* \"#utility.yul\":3412:3439   */\n      tag_98\n        /* \"#utility.yul\":3434:3438   */\n      dup3\n        /* \"#utility.yul\":3412:3439   */\n      tag_48\n      jump\t// in\n    tag_98:\n        /* \"#utility.yul\":3404:3410   */\n      dup2\n        /* \"#utility.yul\":3400:3440   */\n      add\n        /* \"#utility.yul\":3542:3548   */\n      dup2\n        /* \"#utility.yul\":3530:3540   */\n      dup2\n        /* \"#utility.yul\":3527:3549   */\n      lt\n        /* \"#utility.yul\":3506:3524   */\n      0xffffffffffffffff\n        /* \"#utility.yul\":3494:3504   */\n      dup3\n        /* \"#utility.yul\":3491:3525   */\n      gt\n        /* \"#utility.yul\":3488:3550   */\n      or\n        /* \"#utility.yul\":3485:3573   */\n      iszero\n      tag_99\n      jumpi\n        /* \"#utility.yul\":3553:3571   */\n      tag_100\n      tag_49\n      jump\t// in\n    tag_100:\n        /* \"#utility.yul\":3485:3573   */\n    tag_99:\n        /* \"#utility.yul\":3593:3603   */\n      dup1\n        /* \"#utility.yul\":3589:3591   */\n      0x40\n        /* \"#utility.yul\":3582:3604   */\n      mstore\n        /* \"#utility.yul\":3372:3610   */\n      pop\n        /* \"#utility.yul\":3329:3610   */\n      pop\n      pop\n      jump\t// out\n        /* \"#utility.yul\":3616:3745   */\n    tag_51:\n        /* \"#utility.yul\":3650:3656   */\n      0x00\n        /* \"#utility.yul\":3677:3697   */\n      tag_102\n      tag_43\n      jump\t// in\n    tag_102:\n        /* \"#utility.yul\":3667:3697   */\n      swap1\n      pop\n        /* \"#utility.yul\":3706:3739   */\n      tag_103\n        /* \"#utility.yul\":3734:3738   */\n      dup3\n        /* \"#utility.yul\":3726:3732   */\n      dup3\n        /* \"#utility.yul\":3706:3739   */\n      tag_50\n      jump\t// in\n    tag_103:\n        /* \"#utility.yul\":3616:3745   */\n      swap2\n      swap1\n      pop\n      jump\t// out\n        /* \"#utility.yul\":3751:4059   */\n    tag_52:\n        /* \"#utility.yul\":3813:3817   */\n      0x00\n        /* \"#utility.yul\":3903:3921   */\n      0xffffffffffffffff\n        /* \"#utility.yul\":3895:3901   */\n      dup3\n        /* \"#utility.yul\":3892:3922   */\n      gt\n        /* \"#utility.yul\":3889:3945   */\n      iszero\n      tag_105\n      jumpi\n        /* \"#utility.yul\":3925:3943   */\n      tag_106\n      tag_49\n      jump\t// in\n    tag_106:\n        /* \"#utility.yul\":3889:3945   */\n    tag_105:\n        /* \"#utility.yul\":3963:3992   */\n      tag_107\n        /* \"#utility.yul\":3985:3991   */\n      dup3\n        /* \"#utility.yul\":3963:3992   */\n      tag_48\n      jump\t// in\n    tag_107:\n        /* \"#utility.yul\":3955:3992   */\n      swap1\n      pop\n        /* \"#utility.yul\":4047:4051   */\n      0x20\n        /* \"#utility.yul\":4041:4045   */\n      dup2\n        /* \"#utility.yul\":4037:4052   */\n      add\n        /* \"#utility.yul\":4029:4052   */\n      swap1\n      pop\n        /* \"#utility.yul\":3751:4059   */\n      swap2\n      swap1\n      pop\n      jump\t// out\n        /* \"#utility.yul\":4065:4211   */\n    tag_53:\n        /* \"#utility.yul\":4162:4168   */\n      dup3\n        /* \"#utility.yul\":4157:4160   */\n      dup2\n        /* \"#utility.yul\":4152:4155   */\n      dup4\n        /* \"#utility.yul\":4139:4169   */\n      calldatacopy\n        /* \"#utility.yul\":4203:4204   */\n      0x00\n        /* \"#utility.yul\":4194:4200   */\n      dup4\n        /* \"#utility.yul\":4189:4192   */\n      dup4\n        /* \"#utility.yul\":4185:4201   */\n      add\n        /* \"#utility.yul\":4178:4205   */\n      mstore\n        /* \"#utility.yul\":4065:4211   */\n      pop\n      pop\n      pop\n      jump\t// out\n        /* \"#utility.yul\":4217:4642   */\n    tag_54:\n        /* \"#utility.yul\":4295:4300   */\n      0x00\n        /* \"#utility.yul\":4320:4386   */\n      tag_110\n        /* \"#utility.yul\":4336:4385   */\n      tag_111\n        /* \"#utility.yul\":4378:4384   */\n      dup5\n        /* \"#utility.yul\":4336:4385   */\n      tag_52\n      jump\t// in\n    tag_111:\n        /* \"#utility.yul\":4320:4386   */\n      tag_51\n      jump\t// in\n    tag_110:\n        /* \"#utility.yul\":4311:4386   */\n      swap1\n      pop\n        /* \"#utility.yul\":4409:4415   */\n      dup3\n        /* \"#utility.yul\":4402:4407   */\n      dup2\n        /* \"#utility.yul\":4395:4416   */\n      mstore\n        /* \"#utility.yul\":4447:4451   */\n      0x20\n        /* \"#utility.yul\":4440:4445   */\n      dup2\n        /* \"#utility.yul\":4436:4452   */\n      add\n        /* \"#utility.yul\":4485:4488   */\n      dup5\n        /* \"#utility.yul\":4476:4482   */\n      dup5\n        /* \"#utility.yul\":4471:4474   */\n      dup5\n        /* \"#utility.yul\":4467:4483   */\n      add\n        /* \"#utility.yul\":4464:4489   */\n      gt\n        /* \"#utility.yul\":4461:4573   */\n      iszero\n      tag_112\n      jumpi\n        /* \"#utility.yul\":4492:4571   */\n      tag_113\n      tag_47\n      jump\t// in\n    tag_113:\n        /* \"#utility.yul\":4461:4573   */\n    tag_112:\n        /* \"#utility.yul\":4582:4636   */\n      tag_114\n        /* \"#utility.yul\":4629:4635   */\n      dup5\n        /* \"#utility.yul\":4624:4627   */\n      dup3\n        /* \"#utility.yul\":4619:4622   */\n      dup6\n        /* \"#utility.yul\":4582:4636   */\n      tag_53\n      jump\t// in\n    tag_114:\n        /* \"#utility.yul\":4301:4642   */\n      pop\n        /* \"#utility.yul\":4217:4642   */\n      swap4\n      swap3\n      pop\n      pop\n      pop\n      jump\t// out\n        /* \"#utility.yul\":4662:5002   */\n    tag_55:\n        /* \"#utility.yul\":4718:4723   */\n      0x00\n        /* \"#utility.yul\":4767:4770   */\n      dup3\n        /* \"#utility.yul\":4760:4764   */\n      0x1f\n        /* \"#utility.yul\":4752:4758   */\n      dup4\n        /* \"#utility.yul\":4748:4765   */\n      add\n        /* \"#utility.yul\":4744:4771   */\n      slt\n        /* \"#utility.yul\":4734:4856   */\n      tag_116\n      jumpi\n        /* \"#utility.yul\":4775:4854   */\n      tag_117\n      tag_46\n      jump\t// in\n    tag_117:\n        /* \"#utility.yul\":4734:4856   */\n    tag_116:\n        /* \"#utility.yul\":4892:4898   */\n      dup2\n        /* \"#utility.yul\":4879:4899   */\n      calldataload\n        /* \"#utility.yul\":4917:4996   */\n      tag_118\n        /* \"#utility.yul\":4992:4995   */\n      dup5\n        /* \"#utility.yul\":4984:4990   */\n      dup3\n        /* \"#utility.yul\":4977:4981   */\n      0x20\n        /* \"#utility.yul\":4969:4975   */\n      dup7\n        /* \"#utility.yul\":4965:4982   */\n      add\n        /* \"#utility.yul\":4917:4996   */\n      tag_54\n      jump\t// in\n    tag_118:\n        /* \"#utility.yul\":4908:4996   */\n      swap2\n      pop\n        /* \"#utility.yul\":4724:5002   */\n      pop\n        /* \"#utility.yul\":4662:5002   */\n      swap3\n      swap2\n      pop\n      pop\n      jump\t// out\n        /* \"#utility.yul\":5008:5085   */\n    tag_56:\n        /* \"#utility.yul\":5045:5052   */\n      0x00\n        /* \"#utility.yul\":5074:5079   */\n      dup2\n        /* \"#utility.yul\":5063:5079   */\n      swap1\n      pop\n        /* \"#utility.yul\":5008:5085   */\n      swap2\n      swap1\n      pop\n      jump\t// out\n        /* \"#utility.yul\":5091:5213   */\n    tag_57:\n        /* \"#utility.yul\":5164:5188   */\n      tag_121\n        /* \"#utility.yul\":5182:5187   */\n      dup2\n        /* \"#utility.yul\":5164:5188   */\n      tag_56\n      jump\t// in\n    tag_121:\n        /* \"#utility.yul\":5157:5162   */\n      dup2\n        /* \"#utility.yul\":5154:5189   */\n      eq\n        /* \"#utility.yul\":5144:5207   */\n      tag_122\n      jumpi\n        /* \"#utility.yul\":5203:5204   */\n      0x00\n        /* \"#utility.yul\":5200:5201   */\n      dup1\n        /* \"#utility.yul\":5193:5205   */\n      revert\n        /* \"#utility.yul\":5144:5207   */\n    tag_122:\n        /* \"#utility.yul\":5091:5213   */\n      pop\n      jump\t// out\n        /* \"#utility.yul\":5219:5358   */\n    tag_58:\n        /* \"#utility.yul\":5265:5270   */\n      0x00\n        /* \"#utility.yul\":5303:5309   */\n      dup2\n        /* \"#utility.yul\":5290:5310   */\n      calldataload\n        /* \"#utility.yul\":5281:5310   */\n      swap1\n      pop\n        /* \"#utility.yul\":5319:5352   */\n      tag_124\n        /* \"#utility.yul\":5346:5351   */\n      dup2\n        /* \"#utility.yul\":5319:5352   */\n      tag_57\n      jump\t// in\n    tag_124:\n        /* \"#utility.yul\":5219:5358   */\n      swap3\n      swap2\n      pop\n      pop\n      jump\t// out\n        /* \"#utility.yul\":5364:7513   */\n    tag_12:\n        /* \"#utility.yul\":5533:5539   */\n      0x00\n        /* \"#utility.yul\":5541:5547   */\n      dup1\n        /* \"#utility.yul\":5549:5555   */\n      0x00\n        /* \"#utility.yul\":5557:5563   */\n      dup1\n        /* \"#utility.yul\":5565:5571   */\n      0x00\n        /* \"#utility.yul\":5573:5579   */\n      dup1\n        /* \"#utility.yul\":5581:5587   */\n      0x00\n        /* \"#utility.yul\":5589:5595   */\n      dup1\n        /* \"#utility.yul\":5597:5603   */\n      0x00\n        /* \"#utility.yul\":5605:5611   */\n      dup1\n        /* \"#utility.yul\":5613:5620   */\n      0x00\n        /* \"#utility.yul\":5663:5666   */\n      0x0160\n        /* \"#utility.yul\":5651:5660   */\n      dup13\n        /* \"#utility.yul\":5642:5649   */\n      dup15\n        /* \"#utility.yul\":5638:5661   */\n      sub\n        /* \"#utility.yul\":5634:5667   */\n      slt\n        /* \"#utility.yul\":5631:5751   */\n      iszero\n      tag_126\n      jumpi\n        /* \"#utility.yul\":5670:5749   */\n      tag_127\n      tag_44\n      jump\t// in\n    tag_127:\n        /* \"#utility.yul\":5631:5751   */\n    tag_126:\n        /* \"#utility.yul\":5818:5819   */\n      0x00\n        /* \"#utility.yul\":5807:5816   */\n      dup13\n        /* \"#utility.yul\":5803:5820   */\n      add\n        /* \"#utility.yul\":5790:5821   */\n      calldataload\n        /* \"#utility.yul\":5848:5866   */\n      0xffffffffffffffff\n        /* \"#utility.yul\":5840:5846   */\n      dup2\n        /* \"#utility.yul\":5837:5867   */\n      gt\n        /* \"#utility.yul\":5834:5951   */\n      iszero\n      tag_128\n      jumpi\n        /* \"#utility.yul\":5870:5949   */\n      tag_129\n      tag_45\n      jump\t// in\n    tag_129:\n        /* \"#utility.yul\":5834:5951   */\n    tag_128:\n        /* \"#utility.yul\":5975:6038   */\n      tag_130\n        /* \"#utility.yul\":6030:6037   */\n      dup15\n        /* \"#utility.yul\":6021:6027   */\n      dup3\n        /* \"#utility.yul\":6010:6019   */\n      dup16\n        /* \"#utility.yul\":6006:6028   */\n      add\n        /* \"#utility.yul\":5975:6038   */\n      tag_55\n      jump\t// in\n    tag_130:\n        /* \"#utility.yul\":5965:6038   */\n      swap12\n      pop\n        /* \"#utility.yul\":5761:6048   */\n      pop\n        /* \"#utility.yul\":6115:6117   */\n      0x20\n        /* \"#utility.yul\":6104:6113   */\n      dup13\n        /* \"#utility.yul\":6100:6118   */\n      add\n        /* \"#utility.yul\":6087:6119   */\n      calldataload\n        /* \"#utility.yul\":6146:6164   */\n      0xffffffffffffffff\n        /* \"#utility.yul\":6138:6144   */\n      dup2\n        /* \"#utility.yul\":6135:6165   */\n      gt\n        /* \"#utility.yul\":6132:6249   */\n      iszero\n      tag_131\n      jumpi\n        /* \"#utility.yul\":6168:6247   */\n      tag_132\n      tag_45\n      jump\t// in\n    tag_132:\n        /* \"#utility.yul\":6132:6249   */\n    tag_131:\n        /* \"#utility.yul\":6273:6336   */\n      tag_133\n        /* \"#utility.yul\":6328:6335   */\n      dup15\n        /* \"#utility.yul\":6319:6325   */\n      dup3\n        /* \"#utility.yul\":6308:6317   */\n      dup16\n        /* \"#utility.yul\":6304:6326   */\n      add\n        /* \"#utility.yul\":6273:6336   */\n      tag_55\n      jump\t// in\n    tag_133:\n        /* \"#utility.yul\":6263:6336   */\n      swap11\n      pop\n        /* \"#utility.yul\":6058:6346   */\n      pop\n        /* \"#utility.yul\":6385:6387   */\n      0x40\n        /* \"#utility.yul\":6411:6464   */\n      tag_134\n        /* \"#utility.yul\":6456:6463   */\n      dup15\n        /* \"#utility.yul\":6447:6453   */\n      dup3\n        /* \"#utility.yul\":6436:6445   */\n      dup16\n        /* \"#utility.yul\":6432:6454   */\n      add\n        /* \"#utility.yul\":6411:6464   */\n      tag_58\n      jump\t// in\n    tag_134:\n        /* \"#utility.yul\":6401:6464   */\n      swap10\n      pop\n        /* \"#utility.yul\":6356:6474   */\n      pop\n        /* \"#utility.yul\":6513:6515   */\n      0x60\n        /* \"#utility.yul\":6539:6592   */\n      tag_135\n        /* \"#utility.yul\":6584:6591   */\n      dup15\n        /* \"#utility.yul\":6575:6581   */\n      dup3\n        /* \"#utility.yul\":6564:6573   */\n      dup16\n        /* \"#utility.yul\":6560:6582   */\n      add\n        /* \"#utility.yul\":6539:6592   */\n      tag_58\n      jump\t// in\n    tag_135:\n        /* \"#utility.yul\":6529:6592   */\n      swap9\n      pop\n        /* \"#utility.yul\":6484:6602   */\n      pop\n        /* \"#utility.yul\":6641:6644   */\n      0x80\n        /* \"#utility.yul\":6668:6721   */\n      tag_136\n        /* \"#utility.yul\":6713:6720   */\n      dup15\n        /* \"#utility.yul\":6704:6710   */\n      dup3\n        /* \"#utility.yul\":6693:6702   */\n      dup16\n        /* \"#utility.yul\":6689:6711   */\n      add\n        /* \"#utility.yul\":6668:6721   */\n      tag_58\n      jump\t// in\n    tag_136:\n        /* \"#utility.yul\":6658:6721   */\n      swap8\n      pop\n        /* \"#utility.yul\":6612:6731   */\n      pop\n        /* \"#utility.yul\":6770:6773   */\n      0xa0\n        /* \"#utility.yul\":6797:6850   */\n      tag_137\n        /* \"#utility.yul\":6842:6849   */\n      dup15\n        /* \"#utility.yul\":6833:6839   */\n      dup3\n        /* \"#utility.yul\":6822:6831   */\n      dup16\n        /* \"#utility.yul\":6818:6840   */\n      add\n        /* \"#utility.yul\":6797:6850   */\n      tag_58\n      jump\t// in\n    tag_137:\n        /* \"#utility.yul\":6787:6850   */\n      swap7\n      pop\n        /* \"#utility.yul\":6741:6860   */\n      pop\n        /* \"#utility.yul\":6899:6902   */\n      0xc0\n        /* \"#utility.yul\":6926:6979   */\n      tag_138\n        /* \"#utility.yul\":6971:6978   */\n      dup15\n        /* \"#utility.yul\":6962:6968   */\n      dup3\n        /* \"#utility.yul\":6951:6960   */\n      dup16\n        /* \"#utility.yul\":6947:6969   */\n      add\n        /* \"#utility.yul\":6926:6979   */\n      tag_58\n      jump\t// in\n    tag_138:\n        /* \"#utility.yul\":6916:6979   */\n      swap6\n      pop\n        /* \"#utility.yul\":6870:6989   */\n      pop\n        /* \"#utility.yul\":7028:7031   */\n      0xe0\n        /* \"#utility.yul\":7055:7108   */\n      tag_139\n        /* \"#utility.yul\":7100:7107   */\n      dup15\n        /* \"#utility.yul\":7091:7097   */\n      dup3\n        /* \"#utility.yul\":7080:7089   */\n      dup16\n        /* \"#utility.yul\":7076:7098   */\n      add\n        /* \"#utility.yul\":7055:7108   */\n      tag_58\n      jump\t// in\n    tag_139:\n        /* \"#utility.yul\":7045:7108   */\n      swap5\n      pop\n        /* \"#utility.yul\":6999:7118   */\n      pop\n        /* \"#utility.yul\":7157:7160   */\n      0x0100\n        /* \"#utility.yul\":7184:7237   */\n      tag_140\n        /* \"#utility.yul\":7229:7236   */\n      dup15\n        /* \"#utility.yul\":7220:7226   */\n      dup3\n        /* \"#utility.yul\":7209:7218   */\n      dup16\n        /* \"#utility.yul\":7205:7227   */\n      add\n        /* \"#utility.yul\":7184:7237   */\n      tag_58\n      jump\t// in\n    tag_140:\n        /* \"#utility.yul\":7174:7237   */\n      swap4\n      pop\n        /* \"#utility.yul\":7128:7247   */\n      pop\n        /* \"#utility.yul\":7286:7289   */\n      0x0120\n        /* \"#utility.yul\":7313:7366   */\n      tag_141\n        /* \"#utility.yul\":7358:7365   */\n      dup15\n        /* \"#utility.yul\":7349:7355   */\n      dup3\n        /* \"#utility.yul\":7338:7347   */\n      dup16\n        /* \"#utility.yul\":7334:7356   */\n      add\n        /* \"#utility.yul\":7313:7366   */\n      tag_58\n      jump\t// in\n    tag_141:\n        /* \"#utility.yul\":7303:7366   */\n      swap3\n      pop\n        /* \"#utility.yul\":7257:7376   */\n      pop\n        /* \"#utility.yul\":7415:7418   */\n      0x0140\n        /* \"#utility.yul\":7443:7496   */\n      tag_142\n        /* \"#utility.yul\":7488:7495   */\n      dup15\n        /* \"#utility.yul\":7479:7485   */\n      dup3\n        /* \"#utility.yul\":7468:7477   */\n      dup16\n        /* \"#utility.yul\":7464:7486   */\n      add\n        /* \"#utility.yul\":7443:7496   */\n      tag_58\n      jump\t// in\n    tag_142:\n        /* \"#utility.yul\":7432:7496   */\n      swap2\n      pop\n        /* \"#utility.yul\":7386:7506   */\n      pop\n        /* \"#utility.yul\":5364:7513   */\n      swap3\n      swap6\n      swap9\n      swap12\n      pop\n      swap3\n      swap6\n      swap9\n      swap12\n      swap1\n      swap4\n      swap7\n      swap10\n      pop\n      jump\t// out\n        /* \"#utility.yul\":7519:7615   */\n    tag_59:\n        /* \"#utility.yul\":7556:7563   */\n      0x00\n        /* \"#utility.yul\":7585:7609   */\n      tag_144\n        /* \"#utility.yul\":7603:7608   */\n      dup3\n        /* \"#utility.yul\":7585:7609   */\n      tag_37\n      jump\t// in\n    tag_144:\n        /* \"#utility.yul\":7574:7609   */\n      swap1\n      pop\n        /* \"#utility.yul\":7519:7615   */\n      swap2\n      swap1\n      pop\n      jump\t// out\n        /* \"#utility.yul\":7621:7739   */\n    tag_60:\n        /* \"#utility.yul\":7708:7732   */\n      tag_146\n        /* \"#utility.yul\":7726:7731   */\n      dup2\n        /* \"#utility.yul\":7708:7732   */\n      tag_59\n      jump\t// in\n    tag_146:\n        /* \"#utility.yul\":7703:7706   */\n      dup3\n        /* \"#utility.yul\":7696:7733   */\n      mstore\n        /* \"#utility.yul\":7621:7739   */\n      pop\n      pop\n      jump\t// out\n        /* \"#utility.yul\":7745:7967   */\n    tag_15:\n        /* \"#utility.yul\":7838:7842   */\n      0x00\n        /* \"#utility.yul\":7876:7878   */\n      0x20\n        /* \"#utility.yul\":7865:7874   */\n      dup3\n        /* \"#utility.yul\":7861:7879   */\n      add\n        /* \"#utility.yul\":7853:7879   */\n      swap1\n      pop\n        /* \"#utility.yul\":7889:7960   */\n      tag_148\n        /* \"#utility.yul\":7957:7958   */\n      0x00\n        /* \"#utility.yul\":7946:7955   */\n      dup4\n        /* \"#utility.yul\":7942:7959   */\n      add\n        /* \"#utility.yul\":7933:7939   */\n      dup5\n        /* \"#utility.yul\":7889:7960   */\n      tag_60\n      jump\t// in\n    tag_148:\n        /* \"#utility.yul\":7745:7967   */\n      swap3\n      swap2\n      pop\n      pop\n      jump\t// out\n        /* \"#utility.yul\":7973:8302   */\n    tag_18:\n        /* \"#utility.yul\":8032:8038   */\n      0x00\n        /* \"#utility.yul\":8081:8083   */\n      0x20\n        /* \"#utility.yul\":8069:8078   */\n      dup3\n        /* \"#utility.yul\":8060:8067   */\n      dup5\n        /* \"#utility.yul\":8056:8079   */\n      sub\n        /* \"#utility.yul\":8052:8084   */\n      slt\n        /* \"#utility.yul\":8049:8168   */\n      iszero\n      tag_150\n      jumpi\n        /* \"#utility.yul\":8087:8166   */\n      tag_151\n      tag_44\n      jump\t// in\n    tag_151:\n        /* \"#utility.yul\":8049:8168   */\n    tag_150:\n        /* \"#utility.yul\":8207:8208   */\n      0x00\n        /* \"#utility.yul\":8232:8285   */\n      tag_152\n        /* \"#utility.yul\":8277:8284   */\n      dup5\n        /* \"#utility.yul\":8268:8274   */\n      dup3\n        /* \"#utility.yul\":8257:8266   */\n      dup6\n        /* \"#utility.yul\":8253:8275   */\n      add\n        /* \"#utility.yul\":8232:8285   */\n      tag_58\n      jump\t// in\n    tag_152:\n        /* \"#utility.yul\":8222:8285   */\n      swap2\n      pop\n        /* \"#utility.yul\":8178:8295   */\n      pop\n        /* \"#utility.yul\":7973:8302   */\n      swap3\n      swap2\n      pop\n      pop\n      jump\t// out\n        /* \"#utility.yul\":8308:8450   */\n    tag_61:\n        /* \"#utility.yul\":8411:8443   */\n      tag_154\n        /* \"#utility.yul\":8437:8442   */\n      dup2\n        /* \"#utility.yul\":8411:8443   */\n      tag_38\n      jump\t// in\n    tag_154:\n        /* \"#utility.yul\":8406:8409   */\n      dup3\n        /* \"#utility.yul\":8399:8444   */\n      mstore\n        /* \"#utility.yul\":8308:8450   */\n      pop\n      pop\n      jump\t// out\n        /* \"#utility.yul\":8456:8710   */\n    tag_21:\n        /* \"#utility.yul\":8565:8569   */\n      0x00\n        /* \"#utility.yul\":8603:8605   */\n      0x20\n        /* \"#utility.yul\":8592:8601   */\n      dup3\n        /* \"#utility.yul\":8588:8606   */\n      add\n        /* \"#utility.yul\":8580:8606   */\n      swap1\n      pop\n        /* \"#utility.yul\":8616:8703   */\n      tag_156\n        /* \"#utility.yul\":8700:8701   */\n      0x00\n        /* \"#utility.yul\":8689:8698   */\n      dup4\n        /* \"#utility.yul\":8685:8702   */\n      add\n        /* \"#utility.yul\":8676:8682   */\n      dup5\n        /* \"#utility.yul\":8616:8703   */\n      tag_61\n      jump\t// in\n    tag_156:\n        /* \"#utility.yul\":8456:8710   */\n      swap3\n      swap2\n      pop\n      pop\n      jump\t// out\n        /* \"#utility.yul\":8716:8815   */\n    tag_62:\n        /* \"#utility.yul\":8768:8774   */\n      0x00\n        /* \"#utility.yul\":8802:8807   */\n      dup2\n        /* \"#utility.yul\":8796:8808   */\n      mload\n        /* \"#utility.yul\":8786:8808   */\n      swap1\n      pop\n        /* \"#utility.yul\":8716:8815   */\n      swap2\n      swap1\n      pop\n      jump\t// out\n        /* \"#utility.yul\":8821:8990   */\n    tag_63:\n        /* \"#utility.yul\":8905:8916   */\n      0x00\n        /* \"#utility.yul\":8939:8945   */\n      dup3\n        /* \"#utility.yul\":8934:8937   */\n      dup3\n        /* \"#utility.yul\":8927:8946   */\n      mstore\n        /* \"#utility.yul\":8979:8983   */\n      0x20\n        /* \"#utility.yul\":8974:8977   */\n      dup3\n        /* \"#utility.yul\":8970:8984   */\n      add\n        /* \"#utility.yul\":8955:8984   */\n      swap1\n      pop\n        /* \"#utility.yul\":8821:8990   */\n      swap3\n      swap2\n      pop\n      pop\n      jump\t// out\n        /* \"#utility.yul\":8996:9242   */\n    tag_64:\n        /* \"#utility.yul\":9077:9078   */\n      0x00\n        /* \"#utility.yul\":9087:9200   */\n    tag_160:\n        /* \"#utility.yul\":9101:9107   */\n      dup4\n        /* \"#utility.yul\":9098:9099   */\n      dup2\n        /* \"#utility.yul\":9095:9108   */\n      lt\n        /* \"#utility.yul\":9087:9200   */\n      iszero\n      tag_162\n      jumpi\n        /* \"#utility.yul\":9186:9187   */\n      dup1\n        /* \"#utility.yul\":9181:9184   */\n      dup3\n        /* \"#utility.yul\":9177:9188   */\n      add\n        /* \"#utility.yul\":9171:9189   */\n      mload\n        /* \"#utility.yul\":9167:9168   */\n      dup2\n        /* \"#utility.yul\":9162:9165   */\n      dup5\n        /* \"#utility.yul\":9158:9169   */\n      add\n        /* \"#utility.yul\":9151:9190   */\n      mstore\n        /* \"#utility.yul\":9123:9125   */\n      0x20\n        /* \"#utility.yul\":9120:9121   */\n      dup2\n        /* \"#utility.yul\":9116:9126   */\n      add\n        /* \"#utility.yul\":9111:9126   */\n      swap1\n      pop\n        /* \"#utility.yul\":9087:9200   */\n      jump(tag_160)\n    tag_162:\n        /* \"#utility.yul\":9234:9235   */\n      0x00\n        /* \"#utility.yul\":9225:9231   */\n      dup5\n        /* \"#utility.yul\":9220:9223   */\n      dup5\n        /* \"#utility.yul\":9216:9232   */\n      add\n        /* \"#utility.yul\":9209:9236   */\n      mstore\n        /* \"#utility.yul\":9058:9242   */\n      pop\n        /* \"#utility.yul\":8996:9242   */\n      pop\n      pop\n      pop\n      jump\t// out\n        /* \"#utility.yul\":9248:9625   */\n    tag_65:\n        /* \"#utility.yul\":9336:9339   */\n      0x00\n        /* \"#utility.yul\":9364:9403   */\n      tag_164\n        /* \"#utility.yul\":9397:9402   */\n      dup3\n        /* \"#utility.yul\":9364:9403   */\n      tag_62\n      jump\t// in\n    tag_164:\n        /* \"#utility.yul\":9419:9490   */\n      tag_165\n        /* \"#utility.yul\":9483:9489   */\n      dup2\n        /* \"#utility.yul\":9478:9481   */\n      dup6\n        /* \"#utility.yul\":9419:9490   */\n      tag_63\n      jump\t// in\n    tag_165:\n        /* \"#utility.yul\":9412:9490   */\n      swap4\n      pop\n        /* \"#utility.yul\":9499:9564   */\n      tag_166\n        /* \"#utility.yul\":9557:9563   */\n      dup2\n        /* \"#utility.yul\":9552:9555   */\n      dup6\n        /* \"#utility.yul\":9545:9549   */\n      0x20\n        /* \"#utility.yul\":9538:9543   */\n      dup7\n        /* \"#utility.yul\":9534:9550   */\n      add\n        /* \"#utility.yul\":9499:9564   */\n      tag_64\n      jump\t// in\n    tag_166:\n        /* \"#utility.yul\":9589:9618   */\n      tag_167\n        /* \"#utility.yul\":9611:9617   */\n      dup2\n        /* \"#utility.yul\":9589:9618   */\n      tag_48\n      jump\t// in\n    tag_167:\n        /* \"#utility.yul\":9584:9587   */\n      dup5\n        /* \"#utility.yul\":9580:9619   */\n      add\n        /* \"#utility.yul\":9573:9619   */\n      swap2\n      pop\n        /* \"#utility.yul\":9340:9625   */\n      pop\n        /* \"#utility.yul\":9248:9625   */\n      swap3\n      swap2\n      pop\n      pop\n      jump\t// out\n        /* \"#utility.yul\":9631:9749   */\n    tag_66:\n        /* \"#utility.yul\":9718:9742   */\n      tag_169\n        /* \"#utility.yul\":9736:9741   */\n      dup2\n        /* \"#utility.yul\":9718:9742   */\n      tag_56\n      jump\t// in\n    tag_169:\n        /* \"#utility.yul\":9713:9716   */\n      dup3\n        /* \"#utility.yul\":9706:9743   */\n      mstore\n        /* \"#utility.yul\":9631:9749   */\n      pop\n      pop\n      jump\t// out\n        /* \"#utility.yul\":9755:11269   */\n    tag_29:\n        /* \"#utility.yul\":10169:10173   */\n      0x00\n        /* \"#utility.yul\":10207:10210   */\n      0x0160\n        /* \"#utility.yul\":10196:10205   */\n      dup3\n        /* \"#utility.yul\":10192:10211   */\n      add\n        /* \"#utility.yul\":10184:10211   */\n      swap1\n      pop\n        /* \"#utility.yul\":10257:10266   */\n      dup2\n        /* \"#utility.yul\":10251:10255   */\n      dup2\n        /* \"#utility.yul\":10247:10267   */\n      sub\n        /* \"#utility.yul\":10243:10244   */\n      0x00\n        /* \"#utility.yul\":10232:10241   */\n      dup4\n        /* \"#utility.yul\":10228:10245   */\n      add\n        /* \"#utility.yul\":10221:10268   */\n      mstore\n        /* \"#utility.yul\":10285:10363   */\n      tag_171\n        /* \"#utility.yul\":10358:10362   */\n      dup2\n        /* \"#utility.yul\":10349:10355   */\n      dup15\n        /* \"#utility.yul\":10285:10363   */\n      tag_65\n      jump\t// in\n    tag_171:\n        /* \"#utility.yul\":10277:10363   */\n      swap1\n      pop\n        /* \"#utility.yul\":10410:10419   */\n      dup2\n        /* \"#utility.yul\":10404:10408   */\n      dup2\n        /* \"#utility.yul\":10400:10420   */\n      sub\n        /* \"#utility.yul\":10395:10397   */\n      0x20\n        /* \"#utility.yul\":10384:10393   */\n      dup4\n        /* \"#utility.yul\":10380:10398   */\n      add\n        /* \"#utility.yul\":10373:10421   */\n      mstore\n        /* \"#utility.yul\":10438:10516   */\n      tag_172\n        /* \"#utility.yul\":10511:10515   */\n      dup2\n        /* \"#utility.yul\":10502:10508   */\n      dup14\n        /* \"#utility.yul\":10438:10516   */\n      tag_65\n      jump\t// in\n    tag_172:\n        /* \"#utility.yul\":10430:10516   */\n      swap1\n      pop\n        /* \"#utility.yul\":10526:10598   */\n      tag_173\n        /* \"#utility.yul\":10594:10596   */\n      0x40\n        /* \"#utility.yul\":10583:10592   */\n      dup4\n        /* \"#utility.yul\":10579:10597   */\n      add\n        /* \"#utility.yul\":10570:10576   */\n      dup13\n        /* \"#utility.yul\":10526:10598   */\n      tag_66\n      jump\t// in\n    tag_173:\n        /* \"#utility.yul\":10608:10680   */\n      tag_174\n        /* \"#utility.yul\":10676:10678   */\n      0x60\n        /* \"#utility.yul\":10665:10674   */\n      dup4\n        /* \"#utility.yul\":10661:10679   */\n      add\n        /* \"#utility.yul\":10652:10658   */\n      dup12\n        /* \"#utility.yul\":10608:10680   */\n      tag_66\n      jump\t// in\n    tag_174:\n        /* \"#utility.yul\":10690:10763   */\n      tag_175\n        /* \"#utility.yul\":10758:10761   */\n      0x80\n        /* \"#utility.yul\":10747:10756   */\n      dup4\n        /* \"#utility.yul\":10743:10762   */\n      add\n        /* \"#utility.yul\":10734:10740   */\n      dup11\n        /* \"#utility.yul\":10690:10763   */\n      tag_66\n      jump\t// in\n    tag_175:\n        /* \"#utility.yul\":10773:10846   */\n      tag_176\n        /* \"#utility.yul\":10841:10844   */\n      0xa0\n        /* \"#utility.yul\":10830:10839   */\n      dup4\n        /* \"#utility.yul\":10826:10845   */\n      add\n        /* \"#utility.yul\":10817:10823   */\n      dup10\n        /* \"#utility.yul\":10773:10846   */\n      tag_66\n      jump\t// in\n    tag_176:\n        /* \"#utility.yul\":10856:10929   */\n      tag_177\n        /* \"#utility.yul\":10924:10927   */\n      0xc0\n        /* \"#utility.yul\":10913:10922   */\n      dup4\n        /* \"#utility.yul\":10909:10928   */\n      add\n        /* \"#utility.yul\":10900:10906   */\n      dup9\n        /* \"#utility.yul\":10856:10929   */\n      tag_66\n      jump\t// in\n    tag_177:\n        /* \"#utility.yul\":10939:11012   */\n      tag_178\n        /* \"#utility.yul\":11007:11010   */\n      0xe0\n        /* \"#utility.yul\":10996:11005   */\n      dup4\n        /* \"#utility.yul\":10992:11011   */\n      add\n        /* \"#utility.yul\":10983:10989   */\n      dup8\n        /* \"#utility.yul\":10939:11012   */\n      tag_66\n      jump\t// in\n    tag_178:\n        /* \"#utility.yul\":11022:11095   */\n      tag_179\n        /* \"#utility.yul\":11090:11093   */\n      0x0100\n        /* \"#utility.yul\":11079:11088   */\n      dup4\n        /* \"#utility.yul\":11075:11094   */\n      add\n        /* \"#utility.yul\":11066:11072   */\n      dup7\n        /* \"#utility.yul\":11022:11095   */\n      tag_66\n      jump\t// in\n    tag_179:\n        /* \"#utility.yul\":11105:11178   */\n      tag_180\n        /* \"#utility.yul\":11173:11176   */\n      0x0120\n        /* \"#utility.yul\":11162:11171   */\n      dup4\n        /* \"#utility.yul\":11158:11177   */\n      add\n        /* \"#utility.yul\":11149:11155   */\n      dup6\n        /* \"#utility.yul\":11105:11178   */\n      tag_66\n      jump\t// in\n    tag_180:\n        /* \"#utility.yul\":11188:11262   */\n      tag_181\n        /* \"#utility.yul\":11257:11260   */\n      0x0140\n        /* \"#utility.yul\":11246:11255   */\n      dup4\n        /* \"#utility.yul\":11242:11261   */\n      add\n        /* \"#utility.yul\":11232:11239   */\n      dup5\n        /* \"#utility.yul\":11188:11262   */\n      tag_66\n      jump\t// in\n    tag_181:\n        /* \"#utility.yul\":9755:11269   */\n      swap13\n      swap12\n      pop\n      pop\n      pop\n      pop\n      pop\n      pop\n      pop\n      pop\n      pop\n      pop\n      pop\n      pop\n      jump\t// out\n    stop\n\n    sub_0: assembly {\n            /* \"hmsb.sol\":1086:2073  contract Patient {... */\n          mstore(0x40, 0x80)\n            /* \"hmsb.sol\":1412:2070  constructor(... */\n          callvalue\n          dup1\n          iszero\n          tag_1\n          jumpi\n          0x00\n          dup1\n          revert\n        tag_1:\n          pop\n          mload(0x40)\n          sub(codesize, bytecodeSize)\n          dup1\n          bytecodeSize\n          dup4\n          codecopy\n          dup2\n          dup2\n          add\n          0x40\n          mstore\n          dup2\n          add\n          swap1\n          tag_2\n          swap2\n          swap1\n          tag_3\n          jump\t// in\n        tag_2:\n            /* \"hmsb.sol\":1745:1754  _username */\n          dup11\n            /* \"hmsb.sol\":1734:1742  username */\n          0x00\n            /* \"hmsb.sol\":1734:1754  username = _username */\n          swap1\n          dup2\n          tag_6\n          swap2\n          swap1\n          tag_7\n          jump\t// in\n        tag_6:\n          pop\n            /* \"hmsb.sol\":1774:1781  _gender */\n          dup10\n            /* \"hmsb.sol\":1765:1771  gender */\n          0x01\n            /* \"hmsb.sol\":1765:1781  gender = _gender */\n          swap1\n          dup2\n          tag_8\n          swap2\n          swap1\n          tag_7\n          jump\t// in\n        tag_8:\n          pop\n            /* \"hmsb.sol\":1800:1806  _phone */\n          dup9\n            /* \"hmsb.sol\":1792:1797  phone */\n          0x02\n            /* \"hmsb.sol\":1792:1806  phone = _phone */\n          dup2\n          swap1\n          sstore\n          pop\n            /* \"hmsb.sol\":1823:1827  _age */\n          dup8\n            /* \"hmsb.sol\":1817:1820  age */\n          0x03\n            /* \"hmsb.sol\":1817:1827  age = _age */\n          dup2\n          swap1\n          sstore\n          pop\n            /* \"hmsb.sol\":1844:1848  _sbp */\n          dup7\n            /* \"hmsb.sol\":1838:1841  sbp */\n          0x04\n            /* \"hmsb.sol\":1838:1848  sbp = _sbp */\n          dup2\n          swap1\n          sstore\n          pop\n            /* \"hmsb.sol\":1865:1869  _dbp */\n          dup6\n            /* \"hmsb.sol\":1859:1862  dbp */\n          0x05\n            /* \"hmsb.sol\":1859:1869  dbp = _dbp */\n          dup2\n          swap1\n          sstore\n          pop\n            /* \"hmsb.sol\":1888:1894  _pulse */\n          dup5\n            /* \"hmsb.sol\":1880:1885  pulse */\n          0x06\n            /* \"hmsb.sol\":1880:1894  pulse = _pulse */\n          dup2\n          swap1\n          sstore\n          pop\n            /* \"hmsb.sol\":1923:1939  _respiratoryRate */\n          dup4\n            /* \"hmsb.sol\":1905:1920  respiratoryRate */\n          0x07\n            /* \"hmsb.sol\":1905:1939  respiratoryRate = _respiratoryRate */\n          dup2\n          swap1\n          sstore\n          pop\n            /* \"hmsb.sol\":1964:1976  _temperature */\n          dup3\n            /* \"hmsb.sol\":1950:1961  temperature */\n          0x08\n            /* \"hmsb.sol\":1950:1976  temperature = _temperature */\n          dup2\n          swap1\n          sstore\n          pop\n            /* \"hmsb.sol\":2006:2023  _oxygenSaturation */\n          dup2\n            /* \"hmsb.sol\":1987:2003  oxygenSaturation */\n          0x09\n            /* \"hmsb.sol\":1987:2023  oxygenSaturation = _oxygenSaturation */\n          dup2\n          swap1\n          sstore\n          pop\n            /* \"hmsb.sol\":2049:2062  _bloodGlucose */\n          dup1\n            /* \"hmsb.sol\":2034:2046  bloodGlucose */\n          0x0a\n            /* \"hmsb.sol\":2034:2062  bloodGlucose = _bloodGlucose */\n          dup2\n          swap1\n          sstore\n          pop\n            /* \"hmsb.sol\":1412:2070  constructor(... */\n          pop\n          pop\n          pop\n          pop\n          pop\n          pop\n          pop\n          pop\n          pop\n          pop\n          pop\n            /* \"hmsb.sol\":1086:2073  contract Patient {... */\n          jump(tag_9)\n            /* \"#utility.yul\":7:82   */\n        tag_10:\n            /* \"#utility.yul\":40:46   */\n          0x00\n            /* \"#utility.yul\":73:75   */\n          0x40\n            /* \"#utility.yul\":67:76   */\n          mload\n            /* \"#utility.yul\":57:76   */\n          swap1\n          pop\n            /* \"#utility.yul\":7:82   */\n          swap1\n          jump\t// out\n            /* \"#utility.yul\":88:205   */\n        tag_11:\n            /* \"#utility.yul\":197:198   */\n          0x00\n            /* \"#utility.yul\":194:195   */\n          dup1\n            /* \"#utility.yul\":187:199   */\n          revert\n            /* \"#utility.yul\":211:328   */\n        tag_12:\n            /* \"#utility.yul\":320:321   */\n          0x00\n            /* \"#utility.yul\":317:318   */\n          dup1\n            /* \"#utility.yul\":310:322   */\n          revert\n            /* \"#utility.yul\":334:451   */\n        tag_13:\n            /* \"#utility.yul\":443:444   */\n          0x00\n            /* \"#utility.yul\":440:441   */\n          dup1\n            /* \"#utility.yul\":433:445   */\n          revert\n            /* \"#utility.yul\":457:574   */\n        tag_14:\n            /* \"#utility.yul\":566:567   */\n          0x00\n            /* \"#utility.yul\":563:564   */\n          dup1\n            /* \"#utility.yul\":556:568   */\n          revert\n            /* \"#utility.yul\":580:682   */\n        tag_15:\n            /* \"#utility.yul\":621:627   */\n          0x00\n            /* \"#utility.yul\":672:674   */\n          0x1f\n            /* \"#utility.yul\":668:675   */\n          not\n            /* \"#utility.yul\":663:665   */\n          0x1f\n            /* \"#utility.yul\":656:661   */\n          dup4\n            /* \"#utility.yul\":652:666   */\n          add\n            /* \"#utility.yul\":648:676   */\n          and\n            /* \"#utility.yul\":638:676   */\n          swap1\n          pop\n            /* \"#utility.yul\":580:682   */\n          swap2\n          swap1\n          pop\n          jump\t// out\n            /* \"#utility.yul\":688:868   */\n        tag_16:\n            /* \"#utility.yul\":736:813   */\n          0x4e487b7100000000000000000000000000000000000000000000000000000000\n            /* \"#utility.yul\":733:734   */\n          0x00\n            /* \"#utility.yul\":726:814   */\n          mstore\n            /* \"#utility.yul\":833:837   */\n          0x41\n            /* \"#utility.yul\":830:831   */\n          0x04\n            /* \"#utility.yul\":823:838   */\n          mstore\n            /* \"#utility.yul\":857:861   */\n          0x24\n            /* \"#utility.yul\":854:855   */\n          0x00\n            /* \"#utility.yul\":847:862   */\n          revert\n            /* \"#utility.yul\":874:1155   */\n        tag_17:\n            /* \"#utility.yul\":957:984   */\n          tag_53\n            /* \"#utility.yul\":979:983   */\n          dup3\n            /* \"#utility.yul\":957:984   */\n          tag_15\n          jump\t// in\n        tag_53:\n            /* \"#utility.yul\":949:955   */\n          dup2\n            /* \"#utility.yul\":945:985   */\n          add\n            /* \"#utility.yul\":1087:1093   */\n          dup2\n            /* \"#utility.yul\":1075:1085   */\n          dup2\n            /* \"#utility.yul\":1072:1094   */\n          lt\n            /* \"#utility.yul\":1051:1069   */\n          0xffffffffffffffff\n            /* \"#utility.yul\":1039:1049   */\n          dup3\n            /* \"#utility.yul\":1036:1070   */\n          gt\n            /* \"#utility.yul\":1033:1095   */\n          or\n            /* \"#utility.yul\":1030:1118   */\n          iszero\n          tag_54\n          jumpi\n            /* \"#utility.yul\":1098:1116   */\n          tag_55\n          tag_16\n          jump\t// in\n        tag_55:\n            /* \"#utility.yul\":1030:1118   */\n        tag_54:\n            /* \"#utility.yul\":1138:1148   */\n          dup1\n            /* \"#utility.yul\":1134:1136   */\n          0x40\n            /* \"#utility.yul\":1127:1149   */\n          mstore\n            /* \"#utility.yul\":917:1155   */\n          pop\n            /* \"#utility.yul\":874:1155   */\n          pop\n          pop\n          jump\t// out\n            /* \"#utility.yul\":1161:1290   */\n        tag_18:\n            /* \"#utility.yul\":1195:1201   */\n          0x00\n            /* \"#utility.yul\":1222:1242   */\n          tag_57\n          tag_10\n          jump\t// in\n        tag_57:\n            /* \"#utility.yul\":1212:1242   */\n          swap1\n          pop\n            /* \"#utility.yul\":1251:1284   */\n          tag_58\n            /* \"#utility.yul\":1279:1283   */\n          dup3\n            /* \"#utility.yul\":1271:1277   */\n          dup3\n            /* \"#utility.yul\":1251:1284   */\n          tag_17\n          jump\t// in\n        tag_58:\n            /* \"#utility.yul\":1161:1290   */\n          swap2\n          swap1\n          pop\n          jump\t// out\n            /* \"#utility.yul\":1296:1604   */\n        tag_19:\n            /* \"#utility.yul\":1358:1362   */\n          0x00\n            /* \"#utility.yul\":1448:1466   */\n          0xffffffffffffffff\n            /* \"#utility.yul\":1440:1446   */\n          dup3\n            /* \"#utility.yul\":1437:1467   */\n          gt\n            /* \"#utility.yul\":1434:1490   */\n          iszero\n          tag_60\n          jumpi\n            /* \"#utility.yul\":1470:1488   */\n          tag_61\n          tag_16\n          jump\t// in\n        tag_61:\n            /* \"#utility.yul\":1434:1490   */\n        tag_60:\n            /* \"#utility.yul\":1508:1537   */\n          tag_62\n            /* \"#utility.yul\":1530:1536   */\n          dup3\n            /* \"#utility.yul\":1508:1537   */\n          tag_15\n          jump\t// in\n        tag_62:\n            /* \"#utility.yul\":1500:1537   */\n          swap1\n          pop\n            /* \"#utility.yul\":1592:1596   */\n          0x20\n            /* \"#utility.yul\":1586:1590   */\n          dup2\n            /* \"#utility.yul\":1582:1597   */\n          add\n            /* \"#utility.yul\":1574:1597   */\n          swap1\n          pop\n            /* \"#utility.yul\":1296:1604   */\n          swap2\n          swap1\n          pop\n          jump\t// out\n            /* \"#utility.yul\":1610:1856   */\n        tag_20:\n            /* \"#utility.yul\":1691:1692   */\n          0x00\n            /* \"#utility.yul\":1701:1814   */\n        tag_64:\n            /* \"#utility.yul\":1715:1721   */\n          dup4\n            /* \"#utility.yul\":1712:1713   */\n          dup2\n            /* \"#utility.yul\":1709:1722   */\n          lt\n            /* \"#utility.yul\":1701:1814   */\n          iszero\n          tag_66\n          jumpi\n            /* \"#utility.yul\":1800:1801   */\n          dup1\n            /* \"#utility.yul\":1795:1798   */\n          dup3\n            /* \"#utility.yul\":1791:1802   */\n          add\n            /* \"#utility.yul\":1785:1803   */\n          mload\n            /* \"#utility.yul\":1781:1782   */\n          dup2\n            /* \"#utility.yul\":1776:1779   */\n          dup5\n            /* \"#utility.yul\":1772:1783   */\n          add\n            /* \"#utility.yul\":1765:1804   */\n          mstore\n            /* \"#utility.yul\":1737:1739   */\n          0x20\n            /* \"#utility.yul\":1734:1735   */\n          dup2\n            /* \"#utility.yul\":1730:1740   */\n          add\n            /* \"#utility.yul\":1725:1740   */\n          swap1\n          pop\n            /* \"#utility.yul\":1701:1814   */\n          jump(tag_64)\n        tag_66:\n            /* \"#utility.yul\":1848:1849   */\n          0x00\n            /* \"#utility.yul\":1839:1845   */\n          dup5\n            /* \"#utility.yul\":1834:1837   */\n          dup5\n            /* \"#utility.yul\":1830:1846   */\n          add\n            /* \"#utility.yul\":1823:1850   */\n          mstore\n            /* \"#utility.yul\":1672:1856   */\n          pop\n            /* \"#utility.yul\":1610:1856   */\n          pop\n          pop\n          pop\n          jump\t// out\n            /* \"#utility.yul\":1862:2296   */\n        tag_21:\n            /* \"#utility.yul\":1951:1956   */\n          0x00\n            /* \"#utility.yul\":1976:2042   */\n          tag_68\n            /* \"#utility.yul\":1992:2041   */\n          tag_69\n            /* \"#utility.yul\":2034:2040   */\n          dup5\n            /* \"#utility.yul\":1992:2041   */\n          tag_19\n          jump\t// in\n        tag_69:\n            /* \"#utility.yul\":1976:2042   */\n          tag_18\n          jump\t// in\n        tag_68:\n            /* \"#utility.yul\":1967:2042   */\n          swap1\n          pop\n            /* \"#utility.yul\":2065:2071   */\n          dup3\n            /* \"#utility.yul\":2058:2063   */\n          dup2\n            /* \"#utility.yul\":2051:2072   */\n          mstore\n            /* \"#utility.yul\":2103:2107   */\n          0x20\n            /* \"#utility.yul\":2096:2101   */\n          dup2\n            /* \"#utility.yul\":2092:2108   */\n          add\n            /* \"#utility.yul\":2141:2144   */\n          dup5\n            /* \"#utility.yul\":2132:2138   */\n          dup5\n            /* \"#utility.yul\":2127:2130   */\n          dup5\n            /* \"#utility.yul\":2123:2139   */\n          add\n            /* \"#utility.yul\":2120:2145   */\n          gt\n            /* \"#utility.yul\":2117:2229   */\n          iszero\n          tag_70\n          jumpi\n            /* \"#utility.yul\":2148:2227   */\n          tag_71\n          tag_14\n          jump\t// in\n        tag_71:\n            /* \"#utility.yul\":2117:2229   */\n        tag_70:\n            /* \"#utility.yul\":2238:2290   */\n          tag_72\n            /* \"#utility.yul\":2283:2289   */\n          dup5\n            /* \"#utility.yul\":2278:2281   */\n          dup3\n            /* \"#utility.yul\":2273:2276   */\n          dup6\n            /* \"#utility.yul\":2238:2290   */\n          tag_20\n          jump\t// in\n        tag_72:\n            /* \"#utility.yul\":1957:2296   */\n          pop\n            /* \"#utility.yul\":1862:2296   */\n          swap4\n          swap3\n          pop\n          pop\n          pop\n          jump\t// out\n            /* \"#utility.yul\":2316:2671   */\n        tag_22:\n            /* \"#utility.yul\":2383:2388   */\n          0x00\n            /* \"#utility.yul\":2432:2435   */\n          dup3\n            /* \"#utility.yul\":2425:2429   */\n          0x1f\n            /* \"#utility.yul\":2417:2423   */\n          dup4\n            /* \"#utility.yul\":2413:2430   */\n          add\n            /* \"#utility.yul\":2409:2436   */\n          slt\n            /* \"#utility.yul\":2399:2521   */\n          tag_74\n          jumpi\n            /* \"#utility.yul\":2440:2519   */\n          tag_75\n          tag_13\n          jump\t// in\n        tag_75:\n            /* \"#utility.yul\":2399:2521   */\n        tag_74:\n            /* \"#utility.yul\":2550:2556   */\n          dup2\n            /* \"#utility.yul\":2544:2557   */\n          mload\n            /* \"#utility.yul\":2575:2665   */\n          tag_76\n            /* \"#utility.yul\":2661:2664   */\n          dup5\n            /* \"#utility.yul\":2653:2659   */\n          dup3\n            /* \"#utility.yul\":2646:2650   */\n          0x20\n            /* \"#utility.yul\":2638:2644   */\n          dup7\n            /* \"#utility.yul\":2634:2651   */\n          add\n            /* \"#utility.yul\":2575:2665   */\n          tag_21\n          jump\t// in\n        tag_76:\n            /* \"#utility.yul\":2566:2665   */\n          swap2\n          pop\n            /* \"#utility.yul\":2389:2671   */\n          pop\n            /* \"#utility.yul\":2316:2671   */\n          swap3\n          swap2\n          pop\n          pop\n          jump\t// out\n            /* \"#utility.yul\":2677:2754   */\n        tag_23:\n            /* \"#utility.yul\":2714:2721   */\n          0x00\n            /* \"#utility.yul\":2743:2748   */\n          dup2\n            /* \"#utility.yul\":2732:2748   */\n          swap1\n          pop\n            /* \"#utility.yul\":2677:2754   */\n          swap2\n          swap1\n          pop\n          jump\t// out\n            /* \"#utility.yul\":2760:2882   */\n        tag_24:\n            /* \"#utility.yul\":2833:2857   */\n          tag_79\n            /* \"#utility.yul\":2851:2856   */\n          dup2\n            /* \"#utility.yul\":2833:2857   */\n          tag_23\n          jump\t// in\n        tag_79:\n            /* \"#utility.yul\":2826:2831   */\n          dup2\n            /* \"#utility.yul\":2823:2858   */\n          eq\n            /* \"#utility.yul\":2813:2876   */\n          tag_80\n          jumpi\n            /* \"#utility.yul\":2872:2873   */\n          0x00\n            /* \"#utility.yul\":2869:2870   */\n          dup1\n            /* \"#utility.yul\":2862:2874   */\n          revert\n            /* \"#utility.yul\":2813:2876   */\n        tag_80:\n            /* \"#utility.yul\":2760:2882   */\n          pop\n          jump\t// out\n            /* \"#utility.yul\":2888:3031   */\n        tag_25:\n            /* \"#utility.yul\":2945:2950   */\n          0x00\n            /* \"#utility.yul\":2976:2982   */\n          dup2\n            /* \"#utility.yul\":2970:2983   */\n          mload\n            /* \"#utility.yul\":2961:2983   */\n          swap1\n          pop\n            /* \"#utility.yul\":2992:3025   */\n          tag_82\n            /* \"#utility.yul\":3019:3024   */\n          dup2\n            /* \"#utility.yul\":2992:3025   */\n          tag_24\n          jump\t// in\n        tag_82:\n            /* \"#utility.yul\":2888:3031   */\n          swap3\n          swap2\n          pop\n          pop\n          jump\t// out\n            /* \"#utility.yul\":3037:5304   */\n        tag_3:\n            /* \"#utility.yul\":3217:3223   */\n          0x00\n            /* \"#utility.yul\":3225:3231   */\n          dup1\n            /* \"#utility.yul\":3233:3239   */\n          0x00\n            /* \"#utility.yul\":3241:3247   */\n          dup1\n            /* \"#utility.yul\":3249:3255   */\n          0x00\n            /* \"#utility.yul\":3257:3263   */\n          dup1\n            /* \"#utility.yul\":3265:3271   */\n          0x00\n            /* \"#utility.yul\":3273:3279   */\n          dup1\n            /* \"#utility.yul\":3281:3287   */\n          0x00\n            /* \"#utility.yul\":3289:3295   */\n          dup1\n            /* \"#utility.yul\":3297:3304   */\n          0x00\n            /* \"#utility.yul\":3347:3350   */\n          0x0160\n            /* \"#utility.yul\":3335:3344   */\n          dup13\n            /* \"#utility.yul\":3326:3333   */\n          dup15\n            /* \"#utility.yul\":3322:3345   */\n          sub\n            /* \"#utility.yul\":3318:3351   */\n          slt\n            /* \"#utility.yul\":3315:3435   */\n          iszero\n          tag_84\n          jumpi\n            /* \"#utility.yul\":3354:3433   */\n          tag_85\n          tag_11\n          jump\t// in\n        tag_85:\n            /* \"#utility.yul\":3315:3435   */\n        tag_84:\n            /* \"#utility.yul\":3495:3496   */\n          0x00\n            /* \"#utility.yul\":3484:3493   */\n          dup13\n            /* \"#utility.yul\":3480:3497   */\n          add\n            /* \"#utility.yul\":3474:3498   */\n          mload\n            /* \"#utility.yul\":3525:3543   */\n          0xffffffffffffffff\n            /* \"#utility.yul\":3517:3523   */\n          dup2\n            /* \"#utility.yul\":3514:3544   */\n          gt\n            /* \"#utility.yul\":3511:3628   */\n          iszero\n          tag_86\n          jumpi\n            /* \"#utility.yul\":3547:3626   */\n          tag_87\n          tag_12\n          jump\t// in\n        tag_87:\n            /* \"#utility.yul\":3511:3628   */\n        tag_86:\n            /* \"#utility.yul\":3652:3726   */\n          tag_88\n            /* \"#utility.yul\":3718:3725   */\n          dup15\n            /* \"#utility.yul\":3709:3715   */\n          dup3\n            /* \"#utility.yul\":3698:3707   */\n          dup16\n            /* \"#utility.yul\":3694:3716   */\n          add\n            /* \"#utility.yul\":3652:3726   */\n          tag_22\n          jump\t// in\n        tag_88:\n            /* \"#utility.yul\":3642:3726   */\n          swap12\n          pop\n            /* \"#utility.yul\":3445:3736   */\n          pop\n            /* \"#utility.yul\":3796:3798   */\n          0x20\n            /* \"#utility.yul\":3785:3794   */\n          dup13\n            /* \"#utility.yul\":3781:3799   */\n          add\n            /* \"#utility.yul\":3775:3800   */\n          mload\n            /* \"#utility.yul\":3827:3845   */\n          0xffffffffffffffff\n            /* \"#utility.yul\":3819:3825   */\n          dup2\n            /* \"#utility.yul\":3816:3846   */\n          gt\n            /* \"#utility.yul\":3813:3930   */\n          iszero\n          tag_89\n          jumpi\n            /* \"#utility.yul\":3849:3928   */\n          tag_90\n          tag_12\n          jump\t// in\n        tag_90:\n            /* \"#utility.yul\":3813:3930   */\n        tag_89:\n            /* \"#utility.yul\":3954:4028   */\n          tag_91\n            /* \"#utility.yul\":4020:4027   */\n          dup15\n            /* \"#utility.yul\":4011:4017   */\n          dup3\n            /* \"#utility.yul\":4000:4009   */\n          dup16\n            /* \"#utility.yul\":3996:4018   */\n          add\n            /* \"#utility.yul\":3954:4028   */\n          tag_22\n          jump\t// in\n        tag_91:\n            /* \"#utility.yul\":3944:4028   */\n          swap11\n          pop\n            /* \"#utility.yul\":3746:4038   */\n          pop\n            /* \"#utility.yul\":4077:4079   */\n          0x40\n            /* \"#utility.yul\":4103:4167   */\n          tag_92\n            /* \"#utility.yul\":4159:4166   */\n          dup15\n            /* \"#utility.yul\":4150:4156   */\n          dup3\n            /* \"#utility.yul\":4139:4148   */\n          dup16\n            /* \"#utility.yul\":4135:4157   */\n          add\n            /* \"#utility.yul\":4103:4167   */\n          tag_25\n          jump\t// in\n        tag_92:\n            /* \"#utility.yul\":4093:4167   */\n          swap10\n          pop\n            /* \"#utility.yul\":4048:4177   */\n          pop\n            /* \"#utility.yul\":4216:4218   */\n          0x60\n            /* \"#utility.yul\":4242:4306   */\n          tag_93\n            /* \"#utility.yul\":4298:4305   */\n          dup15\n            /* \"#utility.yul\":4289:4295   */\n          dup3\n            /* \"#utility.yul\":4278:4287   */\n          dup16\n            /* \"#utility.yul\":4274:4296   */\n          add\n            /* \"#utility.yul\":4242:4306   */\n          tag_25\n          jump\t// in\n        tag_93:\n            /* \"#utility.yul\":4232:4306   */\n          swap9\n          pop\n            /* \"#utility.yul\":4187:4316   */\n          pop\n            /* \"#utility.yul\":4355:4358   */\n          0x80\n            /* \"#utility.yul\":4382:4446   */\n          tag_94\n            /* \"#utility.yul\":4438:4445   */\n          dup15\n            /* \"#utility.yul\":4429:4435   */\n          dup3\n            /* \"#utility.yul\":4418:4427   */\n          dup16\n            /* \"#utility.yul\":4414:4436   */\n          add\n            /* \"#utility.yul\":4382:4446   */\n          tag_25\n          jump\t// in\n        tag_94:\n            /* \"#utility.yul\":4372:4446   */\n          swap8\n          pop\n            /* \"#utility.yul\":4326:4456   */\n          pop\n            /* \"#utility.yul\":4495:4498   */\n          0xa0\n            /* \"#utility.yul\":4522:4586   */\n          tag_95\n            /* \"#utility.yul\":4578:4585   */\n          dup15\n            /* \"#utility.yul\":4569:4575   */\n          dup3\n            /* \"#utility.yul\":4558:4567   */\n          dup16\n            /* \"#utility.yul\":4554:4576   */\n          add\n            /* \"#utility.yul\":4522:4586   */\n          tag_25\n          jump\t// in\n        tag_95:\n            /* \"#utility.yul\":4512:4586   */\n          swap7\n          pop\n            /* \"#utility.yul\":4466:4596   */\n          pop\n            /* \"#utility.yul\":4635:4638   */\n          0xc0\n            /* \"#utility.yul\":4662:4726   */\n          tag_96\n            /* \"#utility.yul\":4718:4725   */\n          dup15\n            /* \"#utility.yul\":4709:4715   */\n          dup3\n            /* \"#utility.yul\":4698:4707   */\n          dup16\n            /* \"#utility.yul\":4694:4716   */\n          add\n            /* \"#utility.yul\":4662:4726   */\n          tag_25\n          jump\t// in\n        tag_96:\n            /* \"#utility.yul\":4652:4726   */\n          swap6\n          pop\n            /* \"#utility.yul\":4606:4736   */\n          pop\n            /* \"#utility.yul\":4775:4778   */\n          0xe0\n            /* \"#utility.yul\":4802:4866   */\n          tag_97\n            /* \"#utility.yul\":4858:4865   */\n          dup15\n            /* \"#utility.yul\":4849:4855   */\n          dup3\n            /* \"#utility.yul\":4838:4847   */\n          dup16\n            /* \"#utility.yul\":4834:4856   */\n          add\n            /* \"#utility.yul\":4802:4866   */\n          tag_25\n          jump\t// in\n        tag_97:\n            /* \"#utility.yul\":4792:4866   */\n          swap5\n          pop\n            /* \"#utility.yul\":4746:4876   */\n          pop\n            /* \"#utility.yul\":4915:4918   */\n          0x0100\n            /* \"#utility.yul\":4942:5006   */\n          tag_98\n            /* \"#utility.yul\":4998:5005   */\n          dup15\n            /* \"#utility.yul\":4989:4995   */\n          dup3\n            /* \"#utility.yul\":4978:4987   */\n          dup16\n            /* \"#utility.yul\":4974:4996   */\n          add\n            /* \"#utility.yul\":4942:5006   */\n          tag_25\n          jump\t// in\n        tag_98:\n            /* \"#utility.yul\":4932:5006   */\n          swap4\n          pop\n            /* \"#utility.yul\":4886:5016   */\n          pop\n            /* \"#utility.yul\":5055:5058   */\n          0x0120\n            /* \"#utility.yul\":5082:5146   */\n          tag_99\n            /* \"#utility.yul\":5138:5145   */\n          dup15\n            /* \"#utility.yul\":5129:5135   */\n          dup3\n            /* \"#utility.yul\":5118:5127   */\n          dup16\n            /* \"#utility.yul\":5114:5136   */\n          add\n            /* \"#utility.yul\":5082:5146   */\n          tag_25\n          jump\t// in\n        tag_99:\n            /* \"#utility.yul\":5072:5146   */\n          swap3\n          pop\n            /* \"#utility.yul\":5026:5156   */\n          pop\n            /* \"#utility.yul\":5195:5198   */\n          0x0140\n            /* \"#utility.yul\":5223:5287   */\n          tag_100\n            /* \"#utility.yul\":5279:5286   */\n          dup15\n            /* \"#utility.yul\":5270:5276   */\n          dup3\n            /* \"#utility.yul\":5259:5268   */\n          dup16\n            /* \"#utility.yul\":5255:5277   */\n          add\n            /* \"#utility.yul\":5223:5287   */\n          tag_25\n          jump\t// in\n        tag_100:\n            /* \"#utility.yul\":5212:5287   */\n          swap2\n          pop\n            /* \"#utility.yul\":5166:5297   */\n          pop\n            /* \"#utility.yul\":3037:5304   */\n          swap3\n          swap6\n          swap9\n          swap12\n          pop\n          swap3\n          swap6\n          swap9\n          swap12\n          swap1\n          swap4\n          swap7\n          swap10\n          pop\n          jump\t// out\n            /* \"#utility.yul\":5310:5409   */\n        tag_26:\n            /* \"#utility.yul\":5362:5368   */\n          0x00\n            /* \"#utility.yul\":5396:5401   */\n          dup2\n            /* \"#utility.yul\":5390:5402   */\n          mload\n            /* \"#utility.yul\":5380:5402   */\n          swap1\n          pop\n            /* \"#utility.yul\":5310:5409   */\n          swap2\n          swap1\n          pop\n          jump\t// out\n            /* \"#utility.yul\":5415:5595   */\n        tag_27:\n            /* \"#utility.yul\":5463:5540   */\n          0x4e487b7100000000000000000000000000000000000000000000000000000000\n            /* \"#utility.yul\":5460:5461   */\n          0x00\n            /* \"#utility.yul\":5453:5541   */\n          mstore\n            /* \"#utility.yul\":5560:5564   */\n          0x22\n            /* \"#utility.yul\":5557:5558   */\n          0x04\n            /* \"#utility.yul\":5550:5565   */\n          mstore\n            /* \"#utility.yul\":5584:5588   */\n          0x24\n            /* \"#utility.yul\":5581:5582   */\n          0x00\n            /* \"#utility.yul\":5574:5589   */\n          revert\n            /* \"#utility.yul\":5601:5921   */\n        tag_28:\n            /* \"#utility.yul\":5645:5651   */\n          0x00\n            /* \"#utility.yul\":5682:5683   */\n          0x02\n            /* \"#utility.yul\":5676:5680   */\n          dup3\n            /* \"#utility.yul\":5672:5684   */\n          div\n            /* \"#utility.yul\":5662:5684   */\n          swap1\n          pop\n            /* \"#utility.yul\":5729:5730   */\n          0x01\n            /* \"#utility.yul\":5723:5727   */\n          dup3\n            /* \"#utility.yul\":5719:5731   */\n          and\n            /* \"#utility.yul\":5750:5768   */\n          dup1\n            /* \"#utility.yul\":5740:5821   */\n          tag_104\n          jumpi\n            /* \"#utility.yul\":5806:5810   */\n          0x7f\n            /* \"#utility.yul\":5798:5804   */\n          dup3\n            /* \"#utility.yul\":5794:5811   */\n          and\n            /* \"#utility.yul\":5784:5811   */\n          swap2\n          pop\n            /* \"#utility.yul\":5740:5821   */\n        tag_104:\n            /* \"#utility.yul\":5868:5870   */\n          0x20\n            /* \"#utility.yul\":5860:5866   */\n          dup3\n            /* \"#utility.yul\":5857:5871   */\n          lt\n            /* \"#utility.yul\":5837:5855   */\n          dup2\n            /* \"#utility.yul\":5834:5872   */\n          sub\n            /* \"#utility.yul\":5831:5915   */\n          tag_105\n          jumpi\n            /* \"#utility.yul\":5887:5905   */\n          tag_106\n          tag_27\n          jump\t// in\n        tag_106:\n            /* \"#utility.yul\":5831:5915   */\n        tag_105:\n            /* \"#utility.yul\":5652:5921   */\n          pop\n            /* \"#utility.yul\":5601:5921   */\n          swap2\n          swap1\n          pop\n          jump\t// out\n            /* \"#utility.yul\":5927:6068   */\n        tag_29:\n            /* \"#utility.yul\":5976:5980   */\n          0x00\n            /* \"#utility.yul\":5999:6002   */\n          dup2\n            /* \"#utility.yul\":5991:6002   */\n          swap1\n          pop\n            /* \"#utility.yul\":6022:6025   */\n          dup2\n            /* \"#utility.yul\":6019:6020   */\n          0x00\n            /* \"#utility.yul\":6012:6026   */\n          mstore\n            /* \"#utility.yul\":6056:6060   */\n          0x20\n            /* \"#utility.yul\":6053:6054   */\n          0x00\n            /* \"#utility.yul\":6043:6061   */\n          keccak256\n            /* \"#utility.yul\":6035:6061   */\n          swap1\n          pop\n            /* \"#utility.yul\":5927:6068   */\n          swap2\n          swap1\n          pop\n          jump\t// out\n            /* \"#utility.yul\":6074:6167   */\n        tag_30:\n            /* \"#utility.yul\":6111:6117   */\n          0x00\n            /* \"#utility.yul\":6158:6160   */\n          0x20\n            /* \"#utility.yul\":6153:6155   */\n          0x1f\n            /* \"#utility.yul\":6146:6151   */\n          dup4\n            /* \"#utility.yul\":6142:6156   */\n          add\n            /* \"#utility.yul\":6138:6161   */\n          div\n            /* \"#utility.yul\":6128:6161   */\n          swap1\n          pop\n            /* \"#utility.yul\":6074:6167   */\n          swap2\n          swap1\n          pop\n          jump\t// out\n            /* \"#utility.yul\":6173:6280   */\n        tag_31:\n            /* \"#utility.yul\":6217:6225   */\n          0x00\n            /* \"#utility.yul\":6267:6272   */\n          dup3\n            /* \"#utility.yul\":6261:6265   */\n          dup3\n            /* \"#utility.yul\":6257:6273   */\n          shl\n            /* \"#utility.yul\":6236:6273   */\n          swap1\n          pop\n            /* \"#utility.yul\":6173:6280   */\n          swap3\n          swap2\n          pop\n          pop\n          jump\t// out\n            /* \"#utility.yul\":6286:6679   */\n        tag_32:\n            /* \"#utility.yul\":6355:6361   */\n          0x00\n            /* \"#utility.yul\":6405:6406   */\n          0x08\n            /* \"#utility.yul\":6393:6403   */\n          dup4\n            /* \"#utility.yul\":6389:6407   */\n          mul\n            /* \"#utility.yul\":6428:6525   */\n          tag_111\n            /* \"#utility.yul\":6458:6524   */\n          0xffffffffffffffffffffffffffffffffffffffffffffffffffffffffffffffff\n            /* \"#utility.yul\":6447:6456   */\n          dup3\n            /* \"#utility.yul\":6428:6525   */\n          tag_31\n          jump\t// in\n        tag_111:\n            /* \"#utility.yul\":6546:6585   */\n          tag_112\n            /* \"#utility.yul\":6576:6584   */\n          dup7\n            /* \"#utility.yul\":6565:6574   */\n          dup4\n            /* \"#utility.yul\":6546:6585   */\n          tag_31\n          jump\t// in\n        tag_112:\n            /* \"#utility.yul\":6534:6585   */\n          swap6\n          pop\n            /* \"#utility.yul\":6618:6622   */\n          dup1\n            /* \"#utility.yul\":6614:6623   */\n          not\n            /* \"#utility.yul\":6607:6612   */\n          dup5\n            /* \"#utility.yul\":6603:6624   */\n          and\n            /* \"#utility.yul\":6594:6624   */\n          swap4\n          pop\n            /* \"#utility.yul\":6667:6671   */\n          dup1\n            /* \"#utility.yul\":6657:6665   */\n          dup7\n            /* \"#utility.yul\":6653:6672   */\n          and\n            /* \"#utility.yul\":6646:6651   */\n          dup5\n            /* \"#utility.yul\":6643:6673   */\n          or\n            /* \"#utility.yul\":6633:6673   */\n          swap3\n          pop\n            /* \"#utility.yul\":6362:6679   */\n          pop\n          pop\n            /* \"#utility.yul\":6286:6679   */\n          swap4\n          swap3\n          pop\n          pop\n          pop\n          jump\t// out\n            /* \"#utility.yul\":6685:6745   */\n        tag_33:\n            /* \"#utility.yul\":6713:6716   */\n          0x00\n            /* \"#utility.yul\":6734:6739   */\n          dup2\n            /* \"#utility.yul\":6727:6739   */\n          swap1\n          pop\n            /* \"#utility.yul\":6685:6745   */\n          swap2\n          swap1\n          pop\n          jump\t// out\n            /* \"#utility.yul\":6751:6893   */\n        tag_34:\n            /* \"#utility.yul\":6801:6810   */\n          0x00\n            /* \"#utility.yul\":6834:6887   */\n          tag_115\n            /* \"#utility.yul\":6852:6886   */\n          tag_116\n            /* \"#utility.yul\":6861:6885   */\n          tag_117\n            /* \"#utility.yul\":6879:6884   */\n          dup5\n            /* \"#utility.yul\":6861:6885   */\n          tag_23\n          jump\t// in\n        tag_117:\n            /* \"#utility.yul\":6852:6886   */\n          tag_33\n          jump\t// in\n        tag_116:\n            /* \"#utility.yul\":6834:6887   */\n          tag_23\n          jump\t// in\n        tag_115:\n            /* \"#utility.yul\":6821:6887   */\n          swap1\n          pop\n            /* \"#utility.yul\":6751:6893   */\n          swap2\n          swap1\n          pop\n          jump\t// out\n            /* \"#utility.yul\":6899:6974   */\n        tag_35:\n            /* \"#utility.yul\":6942:6945   */\n          0x00\n            /* \"#utility.yul\":6963:6968   */\n          dup2\n            /* \"#utility.yul\":6956:6968   */\n          swap1\n          pop\n            /* \"#utility.yul\":6899:6974   */\n          swap2\n          swap1\n          pop\n          jump\t// out\n            /* \"#utility.yul\":6980:7249   */\n        tag_36:\n            /* \"#utility.yul\":7090:7129   */\n          tag_120\n            /* \"#utility.yul\":7121:7128   */\n          dup4\n            /* \"#utility.yul\":7090:7129   */\n          tag_34\n          jump\t// in\n        tag_120:\n            /* \"#utility.yul\":7151:7242   */\n          tag_121\n            /* \"#utility.yul\":7200:7241   */\n          tag_122\n            /* \"#utility.yul\":7224:7240   */\n          dup3\n            /* \"#utility.yul\":7200:7241   */\n          tag_35\n          jump\t// in\n        tag_122:\n            /* \"#utility.yul\":7192:7198   */\n          dup5\n            /* \"#utility.yul\":7185:7189   */\n          dup5\n            /* \"#utility.yul\":7179:7190   */\n          sload\n            /* \"#utility.yul\":7151:7242   */\n          tag_32\n          jump\t// in\n        tag_121:\n            /* \"#utility.yul\":7145:7149   */\n          dup3\n            /* \"#utility.yul\":7138:7243   */\n          sstore\n            /* \"#utility.yul\":7056:7249   */\n          pop\n            /* \"#utility.yul\":6980:7249   */\n          pop\n          pop\n          pop\n          jump\t// out\n            /* \"#utility.yul\":7255:7328   */\n        tag_37:\n            /* \"#utility.yul\":7300:7303   */\n          0x00\n            /* \"#utility.yul\":7255:7328   */\n          swap1\n          jump\t// out\n            /* \"#utility.yul\":7334:7523   */\n        tag_38:\n            /* \"#utility.yul\":7411:7443   */\n          tag_125\n          tag_37\n          jump\t// in\n        tag_125:\n            /* \"#utility.yul\":7452:7517   */\n          tag_126\n            /* \"#utility.yul\":7510:7516   */\n          dup2\n            /* \"#utility.yul\":7502:7508   */\n          dup5\n            /* \"#utility.yul\":7496:7500   */\n          dup5\n            /* \"#utility.yul\":7452:7517   */\n          tag_36\n          jump\t// in\n        tag_126:\n            /* \"#utility.yul\":7387:7523   */\n          pop\n            /* \"#utility.yul\":7334:7523   */\n          pop\n          pop\n          jump\t// out\n            /* \"#utility.yul\":7529:7715   */\n        tag_39:\n            /* \"#utility.yul\":7589:7709   */\n        tag_128:\n            /* \"#utility.yul\":7606:7609   */\n          dup2\n            /* \"#utility.yul\":7599:7604   */\n          dup2\n            /* \"#utility.yul\":7596:7610   */\n          lt\n            /* \"#utility.yul\":7589:7709   */\n          iszero\n          tag_130\n          jumpi\n            /* \"#utility.yul\":7660:7699   */\n          tag_131\n            /* \"#utility.yul\":7697:7698   */\n          0x00\n            /* \"#utility.yul\":7690:7695   */\n          dup3\n            /* \"#utility.yul\":7660:7699   */\n          tag_38\n          jump\t// in\n        tag_131:\n            /* \"#utility.yul\":7633:7634   */\n          0x01\n            /* \"#utility.yul\":7626:7631   */\n          dup2\n            /* \"#utility.yul\":7622:7635   */\n          add\n            /* \"#utility.yul\":7613:7635   */\n          swap1\n          pop\n            /* \"#utility.yul\":7589:7709   */\n          jump(tag_128)\n        tag_130:\n            /* \"#utility.yul\":7529:7715   */\n          pop\n          pop\n          jump\t// out\n            /* \"#utility.yul\":7721:8264   */\n        tag_40:\n            /* \"#utility.yul\":7822:7824   */\n          0x1f\n            /* \"#utility.yul\":7817:7820   */\n          dup3\n            /* \"#utility.yul\":7814:7825   */\n          gt\n            /* \"#utility.yul\":7811:8257   */\n          iszero\n          tag_133\n          jumpi\n            /* \"#utility.yul\":7856:7894   */\n          tag_134\n            /* \"#utility.yul\":7888:7893   */\n          dup2\n            /* \"#utility.yul\":7856:7894   */\n          tag_29\n          jump\t// in\n        tag_134:\n            /* \"#utility.yul\":7940:7969   */\n          tag_135\n            /* \"#utility.yul\":7958:7968   */\n          dup5\n            /* \"#utility.yul\":7940:7969   */\n          tag_30\n          jump\t// in\n        tag_135:\n            /* \"#utility.yul\":7930:7938   */\n          dup2\n            /* \"#utility.yul\":7926:7970   */\n          add\n            /* \"#utility.yul\":8123:8125   */\n          0x20\n            /* \"#utility.yul\":8111:8121   */\n          dup6\n            /* \"#utility.yul\":8108:8126   */\n          lt\n            /* \"#utility.yul\":8105:8154   */\n          iszero\n          tag_136\n          jumpi\n            /* \"#utility.yul\":8144:8152   */\n          dup2\n            /* \"#utility.yul\":8129:8152   */\n          swap1\n          pop\n            /* \"#utility.yul\":8105:8154   */\n        tag_136:\n            /* \"#utility.yul\":8167:8247   */\n          tag_137\n            /* \"#utility.yul\":8223:8245   */\n          tag_138\n            /* \"#utility.yul\":8241:8244   */\n          dup6\n            /* \"#utility.yul\":8223:8245   */\n          tag_30\n          jump\t// in\n        tag_138:\n            /* \"#utility.yul\":8213:8221   */\n          dup4\n            /* \"#utility.yul\":8209:8246   */\n          add\n            /* \"#utility.yul\":8196:8207   */\n          dup3\n            /* \"#utility.yul\":8167:8247   */\n          tag_39\n          jump\t// in\n        tag_137:\n            /* \"#utility.yul\":7826:8257   */\n          pop\n          pop\n            /* \"#utility.yul\":7811:8257   */\n        tag_133:\n            /* \"#utility.yul\":7721:8264   */\n          pop\n          pop\n          pop\n          jump\t// out\n            /* \"#utility.yul\":8270:8387   */\n        tag_41:\n            /* \"#utility.yul\":8324:8332   */\n          0x00\n            /* \"#utility.yul\":8374:8379   */\n          dup3\n            /* \"#utility.yul\":8368:8372   */\n          dup3\n            /* \"#utility.yul\":8364:8380   */\n          shr\n            /* \"#utility.yul\":8343:8380   */\n          swap1\n          pop\n            /* \"#utility.yul\":8270:8387   */\n          swap3\n          swap2\n          pop\n          pop\n          jump\t// out\n            /* \"#utility.yul\":8393:8562   */\n        tag_42:\n            /* \"#utility.yul\":8437:8443   */\n          0x00\n            /* \"#utility.yul\":8470:8521   */\n          tag_141\n            /* \"#utility.yul\":8518:8519   */\n          0x00\n            /* \"#utility.yul\":8514:8520   */\n          not\n            /* \"#utility.yul\":8506:8511   */\n          dup5\n            /* \"#utility.yul\":8503:8504   */\n          0x08\n            /* \"#utility.yul\":8499:8512   */\n          mul\n            /* \"#utility.yul\":8470:8521   */\n          tag_41\n          jump\t// in\n        tag_141:\n            /* \"#utility.yul\":8466:8522   */\n          not\n            /* \"#utility.yul\":8551:8555   */\n          dup1\n            /* \"#utility.yul\":8545:8549   */\n          dup4\n            /* \"#utility.yul\":8541:8556   */\n          and\n            /* \"#utility.yul\":8531:8556   */\n          swap2\n          pop\n            /* \"#utility.yul\":8444:8562   */\n          pop\n            /* \"#utility.yul\":8393:8562   */\n          swap3\n          swap2\n          pop\n          pop\n          jump\t// out\n            /* \"#utility.yul\":8567:8862   */\n        tag_43:\n            /* \"#utility.yul\":8643:8647   */\n          0x00\n            /* \"#utility.yul\":8789:8818   */\n          tag_143\n            /* \"#utility.yul\":8814:8817   */\n          dup4\n            /* \"#utility.yul\":8808:8812   */\n          dup4\n            /* \"#utility.yul\":8789:8818   */\n          tag_42\n          jump\t// in\n        tag_143:\n            /* \"#utility.yul\":8781:8818   */\n          swap2\n          pop\n            /* \"#utility.yul\":8851:8854   */\n          dup3\n            /* \"#utility.yul\":8848:8849   */\n          0x02\n            /* \"#utility.yul\":8844:8855   */\n          mul\n            /* \"#utility.yul\":8838:8842   */\n          dup3\n            /* \"#utility.yul\":8835:8856   */\n          or\n            /* \"#utility.yul\":8827:8856   */\n          swap1\n          pop\n            /* \"#utility.yul\":8567:8862   */\n          swap3\n          swap2\n          pop\n          pop\n          jump\t// out\n            /* \"#utility.yul\":8867:10262   */\n        tag_7:\n            /* \"#utility.yul\":8984:9021   */\n          tag_145\n            /* \"#utility.yul\":9017:9020   */\n          dup3\n            /* \"#utility.yul\":8984:9021   */\n          tag_26\n          jump\t// in\n        tag_145:\n            /* \"#utility.yul\":9086:9104   */\n          0xffffffffffffffff\n            /* \"#utility.yul\":9078:9084   */\n          dup2\n            /* \"#utility.yul\":9075:9105   */\n          gt\n            /* \"#utility.yul\":9072:9128   */\n          iszero\n          tag_146\n          jumpi\n            /* \"#utility.yul\":9108:9126   */\n          tag_147\n          tag_16\n          jump\t// in\n        tag_147:\n            /* \"#utility.yul\":9072:9128   */\n        tag_146:\n            /* \"#utility.yul\":9152:9190   */\n          tag_148\n            /* \"#utility.yul\":9184:9188   */\n          dup3\n            /* \"#utility.yul\":9178:9189   */\n          sload\n            /* \"#utility.yul\":9152:9190   */\n          tag_28\n          jump\t// in\n        tag_148:\n            /* \"#utility.yul\":9237:9304   */\n          tag_149\n            /* \"#utility.yul\":9297:9303   */\n          dup3\n            /* \"#utility.yul\":9289:9295   */\n          dup3\n            /* \"#utility.yul\":9283:9287   */\n          dup6\n            /* \"#utility.yul\":9237:9304   */\n          tag_40\n          jump\t// in\n        tag_149:\n            /* \"#utility.yul\":9331:9332   */\n          0x00\n            /* \"#utility.yul\":9355:9359   */\n          0x20\n            /* \"#utility.yul\":9342:9359   */\n          swap1\n          pop\n            /* \"#utility.yul\":9387:9389   */\n          0x1f\n            /* \"#utility.yul\":9379:9385   */\n          dup4\n            /* \"#utility.yul\":9376:9390   */\n          gt\n            /* \"#utility.yul\":9404:9405   */\n          0x01\n            /* \"#utility.yul\":9399:10017   */\n          dup2\n          eq\n          tag_151\n          jumpi\n            /* \"#utility.yul\":10061:10062   */\n          0x00\n            /* \"#utility.yul\":10078:10084   */\n          dup5\n            /* \"#utility.yul\":10075:10152   */\n          iszero\n          tag_152\n          jumpi\n            /* \"#utility.yul\":10127:10136   */\n          dup3\n            /* \"#utility.yul\":10122:10125   */\n          dup8\n            /* \"#utility.yul\":10118:10137   */\n          add\n            /* \"#utility.yul\":10112:10138   */\n          mload\n            /* \"#utility.yul\":10103:10138   */\n          swap1\n          pop\n            /* \"#utility.yul\":10075:10152   */\n        tag_152:\n            /* \"#utility.yul\":10178:10245   */\n          tag_153\n            /* \"#utility.yul\":10238:10244   */\n          dup6\n            /* \"#utility.yul\":10231:10236   */\n          dup3\n            /* \"#utility.yul\":10178:10245   */\n          tag_43\n          jump\t// in\n        tag_153:\n            /* \"#utility.yul\":10172:10176   */\n          dup7\n            /* \"#utility.yul\":10165:10246   */\n          sstore\n            /* \"#utility.yul\":10034:10256   */\n          pop\n            /* \"#utility.yul\":9369:10256   */\n          jump(tag_150)\n            /* \"#utility.yul\":9399:10017   */\n        tag_151:\n            /* \"#utility.yul\":9451:9455   */\n          0x1f\n            /* \"#utility.yul\":9447:9456   */\n          not\n            /* \"#utility.yul\":9439:9445   */\n          dup5\n            /* \"#utility.yul\":9435:9457   */\n          and\n            /* \"#utility.yul\":9485:9522   */\n          tag_154\n            /* \"#utility.yul\":9517:9521   */\n          dup7\n            /* \"#utility.yul\":9485:9522   */\n          tag_29\n          jump\t// in\n        tag_154:\n            /* \"#utility.yul\":9544:9545   */\n          0x00\n            /* \"#utility.yul\":9558:9766   */\n        tag_155:\n            /* \"#utility.yul\":9572:9579   */\n          dup3\n            /* \"#utility.yul\":9569:9570   */\n          dup2\n            /* \"#utility.yul\":9566:9580   */\n          lt\n            /* \"#utility.yul\":9558:9766   */\n          iszero\n          tag_157\n          jumpi\n            /* \"#utility.yul\":9651:9660   */\n          dup5\n            /* \"#utility.yul\":9646:9649   */\n          dup10\n            /* \"#utility.yul\":9642:9661   */\n          add\n            /* \"#utility.yul\":9636:9662   */\n          mload\n            /* \"#utility.yul\":9628:9634   */\n          dup3\n            /* \"#utility.yul\":9621:9663   */\n          sstore\n            /* \"#utility.yul\":9702:9703   */\n          0x01\n            /* \"#utility.yul\":9694:9700   */\n          dup3\n            /* \"#utility.yul\":9690:9704   */\n          add\n            /* \"#utility.yul\":9680:9704   */\n          swap2\n          pop\n            /* \"#utility.yul\":9749:9751   */\n          0x20\n            /* \"#utility.yul\":9738:9747   */\n          dup6\n            /* \"#utility.yul\":9734:9752   */\n          add\n            /* \"#utility.yul\":9721:9752   */\n          swap5\n          pop\n            /* \"#utility.yul\":9595:9599   */\n          0x20\n            /* \"#utility.yul\":9592:9593   */\n          dup2\n            /* \"#utility.yul\":9588:9600   */\n          add\n            /* \"#utility.yul\":9583:9600   */\n          swap1\n          pop\n            /* \"#utility.yul\":9558:9766   */\n          jump(tag_155)\n        tag_157:\n            /* \"#utility.yul\":9794:9800   */\n          dup7\n            /* \"#utility.yul\":9785:9792   */\n          dup4\n            /* \"#utility.yul\":9782:9801   */\n          lt\n            /* \"#utility.yul\":9779:9958   */\n          iszero\n          tag_158\n          jumpi\n            /* \"#utility.yul\":9852:9861   */\n          dup5\n            /* \"#utility.yul\":9847:9850   */\n          dup10\n            /* \"#utility.yul\":9843:9862   */\n          add\n            /* \"#utility.yul\":9837:9863   */\n          mload\n            /* \"#utility.yul\":9895:9943   */\n          tag_159\n            /* \"#utility.yul\":9937:9941   */\n          0x1f\n            /* \"#utility.yul\":9929:9935   */\n          dup10\n            /* \"#utility.yul\":9925:9942   */\n          and\n            /* \"#utility.yul\":9914:9923   */\n          dup3\n            /* \"#utility.yul\":9895:9943   */\n          tag_42\n          jump\t// in\n        tag_159:\n            /* \"#utility.yul\":9887:9893   */\n          dup4\n            /* \"#utility.yul\":9880:9944   */\n          sstore\n            /* \"#utility.yul\":9802:9958   */\n          pop\n            /* \"#utility.yul\":9779:9958   */\n        tag_158:\n            /* \"#utility.yul\":10004:10005   */\n          0x01\n            /* \"#utility.yul\":10000:10001   */\n          0x02\n            /* \"#utility.yul\":9992:9998   */\n          dup9\n            /* \"#utility.yul\":9988:10002   */\n          mul\n            /* \"#utility.yul\":9984:10006   */\n          add\n            /* \"#utility.yul\":9978:9982   */\n          dup9\n            /* \"#utility.yul\":9971:10007   */\n          sstore\n            /* \"#utility.yul\":9406:10017   */\n          pop\n          pop\n          pop\n            /* \"#utility.yul\":9369:10256   */\n        tag_150:\n          pop\n            /* \"#utility.yul\":8959:10262   */\n          pop\n          pop\n          pop\n            /* \"#utility.yul\":8867:10262   */\n          pop\n          pop\n          jump\t// out\n            /* \"hmsb.sol\":1086:2073  contract Patient {... */\n        tag_9:\n          dataSize(sub_0)\n          dup1\n          dataOffset(sub_0)\n          0x00\n          codecopy\n          0x00\n          return\n        stop\n\n        sub_0: assembly {\n                /* \"hmsb.sol\":1086:2073  contract Patient {... */\n              mstore(0x40, 0x80)\n              callvalue\n              dup1\n              iszero\n              tag_1\n              jumpi\n              0x00\n              dup1\n              revert\n            tag_1:\n              pop\n              jumpi(tag_2, lt(calldatasize, 0x04))\n              shr(0xe0, calldataload(0x00))\n              dup1\n              0x79caad86\n              gt\n              tag_14\n              jumpi\n              dup1\n              0x79caad86\n              eq\n              tag_8\n              jumpi\n              dup1\n              0x9284f497\n              eq\n              tag_9\n              jumpi\n              dup1\n              0xadccea12\n              eq\n              tag_10\n              jumpi\n              dup1\n              0xb89a64e8\n              eq\n              tag_11\n              jumpi\n              dup1\n              0xdeb189b5\n              eq\n              tag_12\n              jumpi\n              dup1\n              0xfb14326f\n              eq\n              tag_13\n              jumpi\n              jump(tag_2)\n            tag_14:\n              dup1\n              0x05ec5f51\n              eq\n              tag_3\n              jumpi\n              dup1\n              0x0b1b6e93\n              eq\n              tag_4\n              jumpi\n              dup1\n              0x262a9dff\n              eq\n              tag_5\n              jumpi\n              dup1\n              0x467621c6\n              eq\n              tag_6\n              jumpi\n              dup1\n              0x61fac54d\n              eq\n              tag_7\n              jumpi\n            tag_2:\n              0x00\n              dup1\n              revert\n                /* \"hmsb.sol\":1234:1249  uint public dbp */\n            tag_3:\n              tag_15\n              tag_16\n              jump\t// in\n            tag_15:\n              mload(0x40)\n              tag_17\n              swap2\n              swap1\n              tag_18\n              jump\t// in\n            tag_17:\n              mload(0x40)\n              dup1\n              swap2\n              sub\n              swap1\n              return\n                /* \"hmsb.sol\":1379:1403  uint public bloodGlucose */\n            tag_4:\n              tag_19\n              tag_20\n              jump\t// in\n            tag_19:\n              mload(0x40)\n              tag_21\n              swap2\n              swap1\n              tag_18\n              jump\t// in\n            tag_21:\n              mload(0x40)\n              dup1\n              swap2\n              sub\n              swap1\n              return\n                /* \"hmsb.sol\":1190:1205  uint public age */\n            tag_5:\n              tag_22\n              tag_23\n              jump\t// in\n            tag_22:\n              mload(0x40)\n              tag_24\n              swap2\n              swap1\n              tag_18\n              jump\t// in\n            tag_24:\n              mload(0x40)\n              dup1\n              swap2\n              sub\n              swap1\n              return\n                /* \"hmsb.sol\":1212:1227  uint public sbp */\n            tag_6:\n              tag_25\n              tag_26\n              jump\t// in\n            tag_25:\n              mload(0x40)\n              tag_27\n              swap2\n              swap1\n              tag_18\n              jump\t// in\n            tag_27:\n              mload(0x40)\n              dup1\n              swap2\n              sub\n              swap1\n              return\n                /* \"hmsb.sol\":1110:1132  string public username */\n            tag_7:\n              tag_28\n              tag_29\n              jump\t// in\n            tag_28:\n              mload(0x40)\n              tag_30\n              swap2\n              swap1\n              tag_31\n              jump\t// in\n            tag_30:\n              mload(0x40)\n              dup1\n              swap2\n              sub\n              swap1\n              return\n                /* \"hmsb.sol\":1139:1159  string public gender */\n            tag_8:\n              tag_32\n              tag_33\n              jump\t// in\n            tag_32:\n              mload(0x40)\n              tag_34\n              swap2\n              swap1\n              tag_31\n              jump\t// in\n            tag_34:\n              mload(0x40)\n              dup1\n              swap2\n              sub\n              swap1\n              return\n                /* \"hmsb.sol\":1166:1183  uint public phone */\n            tag_9:\n              tag_35\n              tag_36\n              jump\t// in\n            tag_35:\n              mload(0x40)\n              tag_37\n              swap2\n              swap1\n              tag_18\n              jump\t// in\n            tag_37:\n              mload(0x40)\n              dup1\n              swap2\n              sub\n              swap1\n              return\n                /* \"hmsb.sol\":1314:1337  uint public temperature */\n            tag_10:\n              tag_38\n              tag_39\n              jump\t// in\n            tag_38:\n              mload(0x40)\n              tag_40\n              swap2\n              swap1\n              tag_18\n              jump\t// in\n            tag_40:\n              mload(0x40)\n              dup1\n              swap2\n              sub\n              swap1\n              return\n                /* \"hmsb.sol\":1344:1372  uint public oxygenSaturation */\n            tag_11:\n              tag_41\n              tag_42\n              jump\t// in\n            tag_41:\n              mload(0x40)\n              tag_43\n              swap2\n              swap1\n              tag_18\n              jump\t// in\n            tag_43:\n              mload(0x40)\n              dup1\n              swap2\n              sub\n              swap1\n              return\n                /* \"hmsb.sol\":1256:1273  uint public pulse */\n            tag_12:\n              tag_44\n              tag_45\n              jump\t// in\n            tag_44:\n              mload(0x40)\n              tag_46\n              swap2\n              swap1\n              tag_18\n              jump\t// in\n            tag_46:\n              mload(0x40)\n              dup1\n              swap2\n              sub\n              swap1\n              return\n                /* \"hmsb.sol\":1280:1307  uint public respiratoryRate */\n            tag_13:\n              tag_47\n              tag_48\n              jump\t// in\n            tag_47:\n              mload(0x40)\n              tag_49\n              swap2\n              swap1\n              tag_18\n              jump\t// in\n            tag_49:\n              mload(0x40)\n              dup1\n              swap2\n              sub\n              swap1\n              return\n                /* \"hmsb.sol\":1234:1249  uint public dbp */\n            tag_16:\n              sload(0x05)\n              dup2\n              jump\t// out\n                /* \"hmsb.sol\":1379:1403  uint public bloodGlucose */\n            tag_20:\n              sload(0x0a)\n              dup2\n              jump\t// out\n                /* \"hmsb.sol\":1190:1205  uint public age */\n            tag_23:\n              sload(0x03)\n              dup2\n              jump\t// out\n                /* \"hmsb.sol\":1212:1227  uint public sbp */\n            tag_26:\n              sload(0x04)\n              dup2\n              jump\t// out\n                /* \"hmsb.sol\":1110:1132  string public username */\n            tag_29:\n              0x00\n              dup1\n              sload\n              tag_50\n              swap1\n              tag_51\n              jump\t// in\n            tag_50:\n              dup1\n              0x1f\n              add\n              0x20\n              dup1\n              swap2\n              div\n              mul\n              0x20\n              add\n              mload(0x40)\n              swap1\n              dup2\n              add\n              0x40\n              mstore\n              dup1\n              swap3\n              swap2\n              swap1\n              dup2\n              dup2\n              mstore\n              0x20\n              add\n              dup3\n              dup1\n              sload\n              tag_52\n              swap1\n              tag_51\n              jump\t// in\n            tag_52:\n              dup1\n              iszero\n              tag_53\n              jumpi\n              dup1\n              0x1f\n              lt\n              tag_54\n              jumpi\n              0x0100\n              dup1\n              dup4\n              sload\n              div\n              mul\n              dup4\n              mstore\n              swap2\n              0x20\n              add\n              swap2\n              jump(tag_53)\n            tag_54:\n              dup3\n              add\n              swap2\n              swap1\n              0x00\n              mstore\n              keccak256(0x00, 0x20)\n              swap1\n            tag_55:\n              dup2\n              sload\n              dup2\n              mstore\n              swap1\n              0x01\n              add\n              swap1\n              0x20\n              add\n              dup1\n              dup4\n              gt\n              tag_55\n              jumpi\n              dup3\n              swap1\n              sub\n              0x1f\n              and\n              dup3\n              add\n              swap2\n            tag_53:\n              pop\n              pop\n              pop\n              pop\n              pop\n              dup2\n              jump\t// out\n                /* \"hmsb.sol\":1139:1159  string public gender */\n            tag_33:\n              0x01\n              dup1\n              sload\n              tag_56\n              swap1\n              tag_51\n              jump\t// in\n            tag_56:\n              dup1\n              0x1f\n              add\n              0x20\n              dup1\n              swap2\n              div\n              mul\n              0x20\n              add\n              mload(0x40)\n              swap1\n              dup2\n              add\n              0x40\n              mstore\n              dup1\n              swap3\n              swap2\n              swap1\n              dup2\n              dup2\n              mstore\n              0x20\n              add\n              dup3\n              dup1\n              sload\n              tag_57\n              swap1\n              tag_51\n              jump\t// in\n            tag_57:\n              dup1\n              iszero\n              tag_58\n              jumpi\n              dup1\n              0x1f\n              lt\n              tag_59\n              jumpi\n              0x0100\n              dup1\n              dup4\n              sload\n              div\n              mul\n              dup4\n              mstore\n              swap2\n              0x20\n              add\n              swap2\n              jump(tag_58)\n            tag_59:\n              dup3\n              add\n              swap2\n              swap1\n              0x00\n              mstore\n              keccak256(0x00, 0x20)\n              swap1\n            tag_60:\n              dup2\n              sload\n              dup2\n              mstore\n              swap1\n              0x01\n              add\n              swap1\n              0x20\n              add\n              dup1\n              dup4\n              gt\n              tag_60\n              jumpi\n              dup3\n              swap1\n              sub\n              0x1f\n              and\n              dup3\n              add\n              swap2\n            tag_58:\n              pop\n              pop\n              pop\n              pop\n              pop\n              dup2\n              jump\t// out\n                /* \"hmsb.sol\":1166:1183  uint public phone */\n            tag_36:\n              sload(0x02)\n              dup2\n              jump\t// out\n                /* \"hmsb.sol\":1314:1337  uint public temperature */\n            tag_39:\n              sload(0x08)\n              dup2\n              jump\t// out\n                /* \"hmsb.sol\":1344:1372  uint public oxygenSaturation */\n            tag_42:\n              sload(0x09)\n              dup2\n              jump\t// out\n                /* \"hmsb.sol\":1256:1273  uint public pulse */\n            tag_45:\n              sload(0x06)\n              dup2\n              jump\t// out\n                /* \"hmsb.sol\":1280:1307  uint public respiratoryRate */\n            tag_48:\n              sload(0x07)\n              dup2\n              jump\t// out\n                /* \"#utility.yul\":7:84   */\n            tag_61:\n                /* \"#utility.yul\":44:51   */\n              0x00\n                /* \"#utility.yul\":73:78   */\n              dup2\n                /* \"#utility.yul\":62:78   */\n              swap1\n              pop\n                /* \"#utility.yul\":7:84   */\n              swap2\n              swap1\n              pop\n              jump\t// out\n                /* \"#utility.yul\":90:208   */\n            tag_62:\n                /* \"#utility.yul\":177:201   */\n              tag_72\n                /* \"#utility.yul\":195:200   */\n              dup2\n                /* \"#utility.yul\":177:201   */\n              tag_61\n              jump\t// in\n            tag_72:\n                /* \"#utility.yul\":172:175   */\n              dup3\n                /* \"#utility.yul\":165:202   */\n              mstore\n                /* \"#utility.yul\":90:208   */\n              pop\n              pop\n              jump\t// out\n                /* \"#utility.yul\":214:436   */\n            tag_18:\n                /* \"#utility.yul\":307:311   */\n              0x00\n                /* \"#utility.yul\":345:347   */\n              0x20\n                /* \"#utility.yul\":334:343   */\n              dup3\n                /* \"#utility.yul\":330:348   */\n              add\n                /* \"#utility.yul\":322:348   */\n              swap1\n              pop\n                /* \"#utility.yul\":358:429   */\n              tag_74\n                /* \"#utility.yul\":426:427   */\n              0x00\n                /* \"#utility.yul\":415:424   */\n              dup4\n                /* \"#utility.yul\":411:428   */\n              add\n                /* \"#utility.yul\":402:408   */\n              dup5\n                /* \"#utility.yul\":358:429   */\n              tag_62\n              jump\t// in\n            tag_74:\n                /* \"#utility.yul\":214:436   */\n              swap3\n              swap2\n              pop\n              pop\n              jump\t// out\n                /* \"#utility.yul\":442:541   */\n            tag_63:\n                /* \"#utility.yul\":494:500   */\n              0x00\n                /* \"#utility.yul\":528:533   */\n              dup2\n                /* \"#utility.yul\":522:534   */\n              mload\n                /* \"#utility.yul\":512:534   */\n              swap1\n              pop\n                /* \"#utility.yul\":442:541   */\n              swap2\n              swap1\n              pop\n              jump\t// out\n                /* \"#utility.yul\":547:716   */\n            tag_64:\n                /* \"#utility.yul\":631:642   */\n              0x00\n                /* \"#utility.yul\":665:671   */\n              dup3\n                /* \"#utility.yul\":660:663   */\n              dup3\n                /* \"#utility.yul\":653:672   */\n              mstore\n                /* \"#utility.yul\":705:709   */\n              0x20\n                /* \"#utility.yul\":700:703   */\n              dup3\n                /* \"#utility.yul\":696:710   */\n              add\n                /* \"#utility.yul\":681:710   */\n              swap1\n              pop\n                /* \"#utility.yul\":547:716   */\n              swap3\n              swap2\n              pop\n              pop\n              jump\t// out\n                /* \"#utility.yul\":722:968   */\n            tag_65:\n                /* \"#utility.yul\":803:804   */\n              0x00\n                /* \"#utility.yul\":813:926   */\n            tag_78:\n                /* \"#utility.yul\":827:833   */\n              dup4\n                /* \"#utility.yul\":824:825   */\n              dup2\n                /* \"#utility.yul\":821:834   */\n              lt\n                /* \"#utility.yul\":813:926   */\n              iszero\n              tag_80\n              jumpi\n                /* \"#utility.yul\":912:913   */\n              dup1\n                /* \"#utility.yul\":907:910   */\n              dup3\n                /* \"#utility.yul\":903:914   */\n              add\n                /* \"#utility.yul\":897:915   */\n              mload\n                /* \"#utility.yul\":893:894   */\n              dup2\n                /* \"#utility.yul\":888:891   */\n              dup5\n                /* \"#utility.yul\":884:895   */\n              add\n                /* \"#utility.yul\":877:916   */\n              mstore\n                /* \"#utility.yul\":849:851   */\n              0x20\n                /* \"#utility.yul\":846:847   */\n              dup2\n                /* \"#utility.yul\":842:852   */\n              add\n                /* \"#utility.yul\":837:852   */\n              swap1\n              pop\n                /* \"#utility.yul\":813:926   */\n              jump(tag_78)\n            tag_80:\n                /* \"#utility.yul\":960:961   */\n              0x00\n                /* \"#utility.yul\":951:957   */\n              dup5\n                /* \"#utility.yul\":946:949   */\n              dup5\n                /* \"#utility.yul\":942:958   */\n              add\n                /* \"#utility.yul\":935:962   */\n              mstore\n                /* \"#utility.yul\":784:968   */\n              pop\n                /* \"#utility.yul\":722:968   */\n              pop\n              pop\n              pop\n              jump\t// out\n                /* \"#utility.yul\":974:1076   */\n            tag_66:\n                /* \"#utility.yul\":1015:1021   */\n              0x00\n                /* \"#utility.yul\":1066:1068   */\n              0x1f\n                /* \"#utility.yul\":1062:1069   */\n              not\n                /* \"#utility.yul\":1057:1059   */\n              0x1f\n                /* \"#utility.yul\":1050:1055   */\n              dup4\n                /* \"#utility.yul\":1046:1060   */\n              add\n                /* \"#utility.yul\":1042:1070   */\n              and\n                /* \"#utility.yul\":1032:1070   */\n              swap1\n              pop\n                /* \"#utility.yul\":974:1076   */\n              swap2\n              swap1\n              pop\n              jump\t// out\n                /* \"#utility.yul\":1082:1459   */\n            tag_67:\n                /* \"#utility.yul\":1170:1173   */\n              0x00\n                /* \"#utility.yul\":1198:1237   */\n              tag_83\n                /* \"#utility.yul\":1231:1236   */\n              dup3\n                /* \"#utility.yul\":1198:1237   */\n              tag_63\n              jump\t// in\n            tag_83:\n                /* \"#utility.yul\":1253:1324   */\n              tag_84\n                /* \"#utility.yul\":1317:1323   */\n              dup2\n                /* \"#utility.yul\":1312:1315   */\n              dup6\n                /* \"#utility.yul\":1253:1324   */\n              tag_64\n              jump\t// in\n            tag_84:\n                /* \"#utility.yul\":1246:1324   */\n              swap4\n              pop\n                /* \"#utility.yul\":1333:1398   */\n              tag_85\n                /* \"#utility.yul\":1391:1397   */\n              dup2\n                /* \"#utility.yul\":1386:1389   */\n              dup6\n                /* \"#utility.yul\":1379:1383   */\n              0x20\n                /* \"#utility.yul\":1372:1377   */\n              dup7\n                /* \"#utility.yul\":1368:1384   */\n              add\n                /* \"#utility.yul\":1333:1398   */\n              tag_65\n              jump\t// in\n            tag_85:\n                /* \"#utility.yul\":1423:1452   */\n              tag_86\n                /* \"#utility.yul\":1445:1451   */\n              dup2\n                /* \"#utility.yul\":1423:1452   */\n              tag_66\n              jump\t// in\n            tag_86:\n                /* \"#utility.yul\":1418:1421   */\n              dup5\n                /* \"#utility.yul\":1414:1453   */\n              add\n                /* \"#utility.yul\":1407:1453   */\n              swap2\n              pop\n                /* \"#utility.yul\":1174:1459   */\n              pop\n                /* \"#utility.yul\":1082:1459   */\n              swap3\n              swap2\n              pop\n              pop\n              jump\t// out\n                /* \"#utility.yul\":1465:1778   */\n            tag_31:\n                /* \"#utility.yul\":1578:1582   */\n              0x00\n                /* \"#utility.yul\":1616:1618   */\n              0x20\n                /* \"#utility.yul\":1605:1614   */\n              dup3\n                /* \"#utility.yul\":1601:1619   */\n              add\n                /* \"#utility.yul\":1593:1619   */\n              swap1\n              pop\n                /* \"#utility.yul\":1665:1674   */\n              dup2\n                /* \"#utility.yul\":1659:1663   */\n              dup2\n                /* \"#utility.yul\":1655:1675   */\n              sub\n                /* \"#utility.yul\":1651:1652   */\n              0x00\n                /* \"#utility.yul\":1640:1649   */\n              dup4\n                /* \"#utility.yul\":1636:1653   */\n              add\n                /* \"#utility.yul\":1629:1676   */\n              mstore\n                /* \"#utility.yul\":1693:1771   */\n              tag_88\n                /* \"#utility.yul\":1766:1770   */\n              dup2\n                /* \"#utility.yul\":1757:1763   */\n              dup5\n                /* \"#utility.yul\":1693:1771   */\n              tag_67\n              jump\t// in\n            tag_88:\n                /* \"#utility.yul\":1685:1771   */\n              swap1\n              pop\n                /* \"#utility.yul\":1465:1778   */\n              swap3\n              swap2\n              pop\n              pop\n              jump\t// out\n                /* \"#utility.yul\":1784:1964   */\n            tag_68:\n                /* \"#utility.yul\":1832:1909   */\n              0x4e487b7100000000000000000000000000000000000000000000000000000000\n                /* \"#utility.yul\":1829:1830   */\n              0x00\n                /* \"#utility.yul\":1822:1910   */\n              mstore\n                /* \"#utility.yul\":1929:1933   */\n              0x22\n                /* \"#utility.yul\":1926:1927   */\n              0x04\n                /* \"#utility.yul\":1919:1934   */\n              mstore\n                /* \"#utility.yul\":1953:1957   */\n              0x24\n                /* \"#utility.yul\":1950:1951   */\n              0x00\n                /* \"#utility.yul\":1943:1958   */\n              revert\n                /* \"#utility.yul\":1970:2290   */\n            tag_51:\n                /* \"#utility.yul\":2014:2020   */\n              0x00\n                /* \"#utility.yul\":2051:2052   */\n              0x02\n                /* \"#utility.yul\":2045:2049   */\n              dup3\n                /* \"#utility.yul\":2041:2053   */\n              div\n                /* \"#utility.yul\":2031:2053   */\n              swap1\n              pop\n                /* \"#utility.yul\":2098:2099   */\n              0x01\n                /* \"#utility.yul\":2092:2096   */\n              dup3\n                /* \"#utility.yul\":2088:2100   */\n              and\n                /* \"#utility.yul\":2119:2137   */\n              dup1\n                /* \"#utility.yul\":2109:2190   */\n              tag_91\n              jumpi\n                /* \"#utility.yul\":2175:2179   */\n              0x7f\n                /* \"#utility.yul\":2167:2173   */\n              dup3\n                /* \"#utility.yul\":2163:2180   */\n              and\n                /* \"#utility.yul\":2153:2180   */\n              swap2\n              pop\n                /* \"#utility.yul\":2109:2190   */\n            tag_91:\n                /* \"#utility.yul\":2237:2239   */\n              0x20\n                /* \"#utility.yul\":2229:2235   */\n              dup3\n                /* \"#utility.yul\":2226:2240   */\n              lt\n                /* \"#utility.yul\":2206:2224   */\n              dup2\n                /* \"#utility.yul\":2203:2241   */\n              sub\n                /* \"#utility.yul\":2200:2284   */\n              tag_92\n              jumpi\n                /* \"#utility.yul\":2256:2274   */\n              tag_93\n              tag_68\n              jump\t// in\n            tag_93:\n                /* \"#utility.yul\":2200:2284   */\n            tag_92:\n                /* \"#utility.yul\":2021:2290   */\n              pop\n                /* \"#utility.yul\":1970:2290   */\n              swap2\n              swap1\n              pop\n              jump\t// out\n\n            auxdata: 0xa26469706673582212200f991d2adc91d0df1d061d9d7ad71c74f9e31cd3b4f11bbb36e9ccc94a6ed92164736f6c63430008150033\n        }\n    }\n\n    auxdata: 0xa2646970667358221220ff7b86ee507cdcf07a31361d323b66764a6931655ffe3eeeb3744d372b217d9364736f6c63430008150033\n}\n","bytecode":{"linkReferences":{},"object":"608060405234801561000f575f80fd5b506114188061001d5f395ff3fe608060405234801562000010575f80fd5b506004361062000044575f3560e01c806318a231a91462000048578063d36da618146200006a578063d8f608df14620000a0575b5f80fd5b62000052620000d6565b60405162000061919062000364565b60405180910390f35b62000088600480360381019062000082919062000527565b62000162565b6040516200009791906200068f565b60405180910390f35b620000be6004803603810190620000b89190620006aa565b62000222565b604051620000cd9190620006eb565b60405180910390f35b60605f8054806020026020016040519081016040528092919081815260200182805480156200015857602002820191905f5260205f20905b815f9054906101000a900473ffffffffffffffffffffffffffffffffffffffff1673ffffffffffffffffffffffffffffffffffffffff16815260200190600101908083116200010e575b5050505050905090565b5f808c8c8c8c8c8c8c8c8c8c8c6040516200017d906200025d565b620001939b9a999897969594939291906200079b565b604051809103905ff080158015620001ad573d5f803e3d5ffd5b5090505f81908060018154018082558091505060019003905f5260205f20015f9091909190916101000a81548173ffffffffffffffffffffffffffffffffffffffff021916908373ffffffffffffffffffffffffffffffffffffffff160217905550809150509b9a5050505050505050505050565b5f818154811062000231575f80fd5b905f5260205f20015f915054906101000a900473ffffffffffffffffffffffffffffffffffffffff1681565b610b7a806200086983390190565b5f81519050919050565b5f82825260208201905092915050565b5f819050602082019050919050565b5f73ffffffffffffffffffffffffffffffffffffffff82169050919050565b5f620002bf8262000294565b9050919050565b620002d181620002b3565b82525050565b5f620002e48383620002c6565b60208301905092915050565b5f602082019050919050565b5f62000308826200026b565b62000314818562000275565b9350620003218362000285565b805f5b83811015620003575781516200033b8882620002d7565b97506200034883620002f0565b92505060018101905062000324565b5085935050505092915050565b5f6020820190508181035f8301526200037e8184620002fc565b905092915050565b5f604051905090565b5f80fd5b5f80fd5b5f80fd5b5f80fd5b5f601f19601f8301169050919050565b7f4e487b71000000000000000000000000000000000000000000000000000000005f52604160045260245ffd5b620003e7826200039f565b810181811067ffffffffffffffff82111715620004095762000408620003af565b5b80604052505050565b5f6200041d62000386565b90506200042b8282620003dc565b919050565b5f67ffffffffffffffff8211156200044d576200044c620003af565b5b62000458826200039f565b9050602081019050919050565b828183375f83830152505050565b5f62000489620004838462000430565b62000412565b905082815260208101848484011115620004a857620004a76200039b565b5b620004b584828562000465565b509392505050565b5f82601f830112620004d457620004d362000397565b5b8135620004e684826020860162000473565b91505092915050565b5f819050919050565b6200050381620004ef565b81146200050e575f80fd5b50565b5f813590506200052181620004f8565b92915050565b5f805f805f805f805f805f6101608c8e0312156200054a57620005496200038f565b5b5f8c013567ffffffffffffffff8111156200056a576200056962000393565b5b620005788e828f01620004bd565b9b505060208c013567ffffffffffffffff8111156200059c576200059b62000393565b5b620005aa8e828f01620004bd565b9a50506040620005bd8e828f0162000511565b9950506060620005d08e828f0162000511565b9850506080620005e38e828f0162000511565b97505060a0620005f68e828f0162000511565b96505060c0620006098e828f0162000511565b95505060e06200061c8e828f0162000511565b945050610100620006308e828f0162000511565b935050610120620006448e828f0162000511565b925050610140620006588e828f0162000511565b9150509295989b509295989b9093969950565b5f620006778262000294565b9050919050565b62000689816200066b565b82525050565b5f602082019050620006a45f8301846200067e565b92915050565b5f60208284031215620006c257620006c16200038f565b5b5f620006d18482850162000511565b91505092915050565b620006e581620002b3565b82525050565b5f602082019050620007005f830184620006da565b92915050565b5f81519050919050565b5f82825260208201905092915050565b5f5b838110156200073f57808201518184015260208101905062000722565b5f8484015250505050565b5f620007568262000706565b62000762818562000710565b93506200077481856020860162000720565b6200077f816200039f565b840191505092915050565b6200079581620004ef565b82525050565b5f610160820190508181035f830152620007b6818e6200074a565b90508181036020830152620007cc818d6200074a565b9050620007dd604083018c6200078a565b620007ec606083018b6200078a565b620007fb608083018a6200078a565b6200080a60a08301896200078a565b6200081960c08301886200078a565b6200082860e08301876200078a565b620008386101008301866200078a565b620008486101208301856200078a565b620008586101408301846200078a565b9c9b50505050505050505050505056fe608060405234801562000010575f80fd5b5060405162000b7a38038062000b7a833981810160405281019062000036919062000266565b8a5f9081620000469190620005d8565b508960019081620000589190620005d8565b50886002819055508760038190555086600481905550856005819055508460068190555083600781905550826008819055508160098190555080600a819055505050505050505050505050620006bc565b5f604051905090565b5f80fd5b5f80fd5b5f80fd5b5f80fd5b5f601f19601f8301169050919050565b7f4e487b71000000000000000000000000000000000000000000000000000000005f52604160045260245ffd5b6200010a82620000c2565b810181811067ffffffffffffffff821117156200012c576200012b620000d2565b5b80604052505050565b5f62000140620000a9565b90506200014e8282620000ff565b919050565b5f67ffffffffffffffff82111562000170576200016f620000d2565b5b6200017b82620000c2565b9050602081019050919050565b5f5b83811015620001a75780820151818401526020810190506200018a565b5f8484015250505050565b5f620001c8620001c28462000153565b62000135565b905082815260208101848484011115620001e757620001e6620000be565b5b620001f484828562000188565b509392505050565b5f82601f830112620002135762000212620000ba565b5b815162000225848260208601620001b2565b91505092915050565b5f819050919050565b62000242816200022e565b81146200024d575f80fd5b50565b5f81519050620002608162000237565b92915050565b5f805f805f805f805f805f6101608c8e031215620002895762000288620000b2565b5b5f8c015167ffffffffffffffff811115620002a957620002a8620000b6565b5b620002b78e828f01620001fc565b9b505060208c015167ffffffffffffffff811115620002db57620002da620000b6565b5b620002e98e828f01620001fc565b9a50506040620002fc8e828f0162000250565b99505060606200030f8e828f0162000250565b9850506080620003228e828f0162000250565b97505060a0620003358e828f0162000250565b96505060c0620003488e828f0162000250565b95505060e06200035b8e828f0162000250565b9450506101006200036f8e828f0162000250565b935050610120620003838e828f0162000250565b925050610140620003978e828f0162000250565b9150509295989b509295989b9093969950565b5f81519050919050565b7f4e487b71000000000000000000000000000000000000000000000000000000005f52602260045260245ffd5b5f6002820490506001821680620003f957607f821691505b6020821081036200040f576200040e620003b4565b5b50919050565b5f819050815f5260205f209050919050565b5f6020601f8301049050919050565b5f82821b905092915050565b5f60088302620004737fffffffffffffffffffffffffffffffffffffffffffffffffffffffffffffffff8262000436565b6200047f868362000436565b95508019841693508086168417925050509392505050565b5f819050919050565b5f620004c0620004ba620004b4846200022e565b62000497565b6200022e565b9050919050565b5f819050919050565b620004db83620004a0565b620004f3620004ea82620004c7565b84845462000442565b825550505050565b5f90565b62000509620004fb565b62000516818484620004d0565b505050565b5b818110156200053d57620005315f82620004ff565b6001810190506200051c565b5050565b601f8211156200058c57620005568162000415565b620005618462000427565b8101602085101562000571578190505b62000589620005808562000427565b8301826200051b565b50505b505050565b5f82821c905092915050565b5f620005ae5f198460080262000591565b1980831691505092915050565b5f620005c883836200059d565b9150826002028217905092915050565b620005e382620003aa565b67ffffffffffffffff811115620005ff57620005fe620000d2565b5b6200060b8254620003e1565b6200061882828562000541565b5f60209050601f8311600181146200064e575f841562000639578287015190505b620006458582620005bb565b865550620006b4565b601f1984166200065e8662000415565b5f5b82811015620006875784890151825560018201915060208501945060208101905062000660565b86831015620006a75784890151620006a3601f8916826200059d565b8355505b6001600288020188555050505b505050505050565b6104b080620006ca5f395ff3fe608060405234801561000f575f80fd5b50600436106100a7575f3560e01c806379caad861161006f57806379caad86146101415780639284f4971461015f578063adccea121461017d578063b89a64e81461019b578063deb189b5146101b9578063fb14326f146101d7576100a7565b806305ec5f51146100ab5780630b1b6e93146100c9578063262a9dff146100e7578063467621c61461010557806361fac54d14610123575b5f80fd5b6100b36101f5565b6040516100c0919061035a565b60405180910390f35b6100d16101fb565b6040516100de919061035a565b60405180910390f35b6100ef610201565b6040516100fc919061035a565b60405180910390f35b61010d610207565b60405161011a919061035a565b60405180910390f35b61012b61020d565b60405161013891906103fd565b60405180910390f35b610149610298565b60405161015691906103fd565b60405180910390f35b610167610324565b604051610174919061035a565b60405180910390f35b61018561032a565b604051610192919061035a565b60405180910390f35b6101a3610330565b6040516101b0919061035a565b60405180910390f35b6101c1610336565b6040516101ce919061035a565b60405180910390f35b6101df61033c565b6040516101ec919061035a565b60405180910390f35b60055481565b600a5481565b60035481565b60045481565b5f80546102199061044a565b80601f01602080910402602001604051908101604052809291908181526020018280546102459061044a565b80156102905780601f1061026757610100808354040283529160200191610290565b820191905f5260205f20905b81548152906001019060200180831161027357829003601f168201915b505050505081565b600180546102a59061044a565b80601f01602080910402602001604051908101604052809291908181526020018280546102d19061044a565b801561031c5780601f106102f35761010080835404028352916020019161031c565b820191905f5260205f20905b8154815290600101906020018083116102ff57829003601f168201915b505050505081565b60025481565b60085481565b60095481565b60065481565b60075481565b5f819050919050565b61035481610342565b82525050565b5f60208201905061036d5f83018461034b565b92915050565b5f81519050919050565b5f82825260208201905092915050565b5f5b838110156103aa57808201518184015260208101905061038f565b5f8484015250505050565b5f601f19601f8301169050919050565b5f6103cf82610373565b6103d9818561037d565b93506103e981856020860161038d565b6103f2816103b5565b840191505092915050565b5f6020820190508181035f83015261041581846103c5565b905092915050565b7f4e487b71000000000000000000000000000000000000000000000000000000005f52602260045260245ffd5b5f600282049050600182168061046157607f821691505b6020821081036104745761047361041d565b5b5091905056fea26469706673582212200f991d2adc91d0df1d061d9d7ad71c74f9e31cd3b4f11bbb36e9ccc94a6ed92164736f6c63430008150033a2646970667358221220ff7b86ee507cdcf07a31361d323b66764a6931655ffe3eeeb3744d372b217d9364736f6c63430008150033","opcodes":"PUSH1 0x80 PUSH1 0x40 MSTORE CALLVALUE DUP1 ISZERO PUSH2 0xF JUMPI PUSH0 DUP1 REVERT JUMPDEST POP PUSH2 0x1418 DUP1 PUSH2 0x1D PUSH0 CODECOPY PUSH0 RETURN INVALID PUSH1 0x80 PUSH1 0x40 MSTORE CALLVALUE DUP1 ISZERO PUSH3 0x10 JUMPI PUSH0 DUP1 REVERT JUMPDEST POP PUSH1 0x4 CALLDATASIZE LT PUSH3 0x44 JUMPI PUSH0 CALLDATALOAD PUSH1 0xE0 SHR DUP1 PUSH4 0x18A231A9 EQ PUSH3 0x48 JUMPI DUP1 PUSH4 0xD36DA618 EQ PUSH3 0x6A JUMPI DUP1 PUSH4 0xD8F608DF EQ PUSH3 0xA0 JUMPI JUMPDEST PUSH0 DUP1 REVERT JUMPDEST PUSH3 0x52 PUSH3 0xD6 JUMP JUMPDEST PUSH1 0x40 MLOAD PUSH3 0x61 SWAP2 SWAP1 PUSH3 0x364 JUMP JUMPDEST PUSH1 0x40 MLOAD DUP1 SWAP2 SUB SWAP1 RETURN JUMPDEST PUSH3 0x88 PUSH1 0x4 DUP1 CALLDATASIZE SUB DUP2 ADD SWAP1 PUSH3 0x82 SWAP2 SWAP1 PUSH3 0x527 JUMP JUMPDEST PUSH3 0x162 JUMP JUMPDEST PUSH1 0x40 MLOAD PUSH3 0x97 SWAP2 SWAP1 PUSH3 0x68F JUMP JUMPDEST PUSH1 0x40 MLOAD DUP1 SWAP2 SUB SWAP1 RETURN JUMPDEST PUSH3 0xBE PUSH1 0x4 DUP1 CALLDATASIZE SUB DUP2 ADD SWAP1 PUSH3 0xB8 SWAP2 SWAP1 PUSH3 0x6AA JUMP JUMPDEST PUSH3 0x222 JUMP JUMPDEST PUSH1 0x40 MLOAD PUSH3 0xCD SWAP2 SWAP1 PUSH3 0x6EB JUMP JUMPDEST PUSH1 0x40 MLOAD DUP1 SWAP2 SUB SWAP1 RETURN JUMPDEST PUSH1 0x60 PUSH0 DUP1 SLOAD DUP1 PUSH1 0x20 MUL PUSH1 0x20 ADD PUSH1 0x40 MLOAD SWAP1 DUP2 ADD PUSH1 0x40 MSTORE DUP1 SWAP3 SWAP2 SWAP1 DUP2 DUP2 MSTORE PUSH1 0x20 ADD DUP3 DUP1 SLOAD DUP1 ISZERO PUSH3 0x158 JUMPI PUSH1 0x20 MUL DUP3 ADD SWAP2 SWAP1 PUSH0 MSTORE PUSH1 0x20 PUSH0 KECCAK256 SWAP1 JUMPDEST DUP2 PUSH0 SWAP1 SLOAD SWAP1 PUSH2 0x100 EXP SWAP1 DIV PUSH20 0xFFFFFFFFFFFFFFFFFFFFFFFFFFFFFFFFFFFFFFFF AND PUSH20 0xFFFFFFFFFFFFFFFFFFFFFFFFFFFFFFFFFFFFFFFF AND DUP2 MSTORE PUSH1 0x20 ADD SWAP1 PUSH1 0x1 ADD SWAP1 DUP1 DUP4 GT PUSH3 0x10E JUMPI JUMPDEST POP POP POP POP POP SWAP1 POP SWAP1 JUMP JUMPDEST PUSH0 DUP1 DUP13 DUP13 DUP13 DUP13 DUP13 DUP13 DUP13 DUP13 DUP13 DUP13 DUP13 PUSH1 0x40 MLOAD PUSH3 0x17D SWAP1 PUSH3 0x25D JUMP JUMPDEST PUSH3 0x193 SWAP12 SWAP11 SWAP10 SWAP9 SWAP8 SWAP7 SWAP6 SWAP5 SWAP4 SWAP3 SWAP2 SWAP1 PUSH3 0x79B JUMP JUMPDEST PUSH1 0x40 MLOAD DUP1 SWAP2 SUB SWAP1 PUSH0 CREATE DUP1 ISZERO DUP1 ISZERO PUSH3 0x1AD JUMPI RETURNDATASIZE PUSH0 DUP1 RETURNDATACOPY RETURNDATASIZE PUSH0 REVERT JUMPDEST POP SWAP1 POP PUSH0 DUP2 SWAP1 DUP1 PUSH1 0x1 DUP2 SLOAD ADD DUP1 DUP3 SSTORE DUP1 SWAP2 POP POP PUSH1 0x1 SWAP1 SUB SWAP1 PUSH0 MSTORE PUSH1 0x20 PUSH0 KECCAK256 ADD PUSH0 SWAP1 SWAP2 SWAP1 SWAP2 SWAP1 SWAP2 PUSH2 0x100 EXP DUP2 SLOAD DUP2 PUSH20 0xFFFFFFFFFFFFFFFFFFFFFFFFFFFFFFFFFFFFFFFF MUL NOT AND SWAP1 DUP4 PUSH20 0xFFFFFFFFFFFFFFFFFFFFFFFFFFFFFFFFFFFFFFFF AND MUL OR SWAP1 SSTORE POP DUP1 SWAP2 POP POP SWAP12 SWAP11 POP POP POP POP POP POP POP POP POP POP POP JUMP JUMPDEST PUSH0 DUP2 DUP2 SLOAD DUP2 LT PUSH3 0x231 JUMPI PUSH0 DUP1 REVERT JUMPDEST SWAP1 PUSH0 MSTORE PUSH1 0x20 PUSH0 KECCAK256 ADD PUSH0 SWAP2 POP SLOAD SWAP1 PUSH2 0x100 EXP SWAP1 DIV PUSH20 0xFFFFFFFFFFFFFFFFFFFFFFFFFFFFFFFFFFFFFFFF AND DUP2 JUMP JUMPDEST PUSH2 0xB7A DUP1 PUSH3 0x869 DUP4 CODECOPY ADD SWAP1 JUMP JUMPDEST PUSH0 DUP2 MLOAD SWAP1 POP SWAP2 SWAP1 POP JUMP JUMPDEST PUSH0 DUP3 DUP3 MSTORE PUSH1 0x20 DUP3 ADD SWAP1 POP SWAP3 SWAP2 POP POP JUMP JUMPDEST PUSH0 DUP2 SWAP1 POP PUSH1 0x20 DUP3 ADD SWAP1 POP SWAP2 SWAP1 POP JUMP JUMPDEST PUSH0 PUSH20 0xFFFFFFFFFFFFFFFFFFFFFFFFFFFFFFFFFFFFFFFF DUP3 AND SWAP1 POP SWAP2 SWAP1 POP JUMP JUMPDEST PUSH0 PUSH3 0x2BF DUP3 PUSH3 0x294 JUMP JUMPDEST SWAP1 POP SWAP2 SWAP1 POP JUMP JUMPDEST PUSH3 0x2D1 DUP2 PUSH3 0x2B3 JUMP JUMPDEST DUP3 MSTORE POP POP JUMP JUMPDEST PUSH0 PUSH3 0x2E4 DUP4 DUP4 PUSH3 0x2C6 JUMP JUMPDEST PUSH1 0x20 DUP4 ADD SWAP1 POP SWAP3 SWAP2 POP POP JUMP JUMPDEST PUSH0 PUSH1 0x20 DUP3 ADD SWAP1 POP SWAP2 SWAP1 POP JUMP JUMPDEST PUSH0 PUSH3 0x308 DUP3 PUSH3 0x26B JUMP JUMPDEST PUSH3 0x314 DUP2 DUP6 PUSH3 0x275 JUMP JUMPDEST SWAP4 POP PUSH3 0x321 DUP4 PUSH3 0x285 JUMP JUMPDEST DUP1 PUSH0 JUMPDEST DUP4 DUP2 LT ISZERO PUSH3 0x357 JUMPI DUP2 MLOAD PUSH3 0x33B DUP9 DUP3 PUSH3 0x2D7 JUMP JUMPDEST SWAP8 POP PUSH3 0x348 DUP4 PUSH3 0x2F0 JUMP JUMPDEST SWAP3 POP POP PUSH1 0x1 DUP2 ADD SWAP1 POP PUSH3 0x324 JUMP JUMPDEST POP DUP6 SWAP4 POP POP POP POP SWAP3 SWAP2 POP POP JUMP JUMPDEST PUSH0 PUSH1 0x20 DUP3 ADD SWAP1 POP DUP2 DUP2 SUB PUSH0 DUP4 ADD MSTORE PUSH3 0x37E DUP2 DUP5 PUSH3 0x2FC JUMP JUMPDEST SWAP1 POP SWAP3 SWAP2 POP POP JUMP JUMPDEST PUSH0 PUSH1 0x40 MLOAD SWAP1 POP SWAP1 JUMP JUMPDEST PUSH0 DUP1 REVERT JUMPDEST PUSH0 DUP1 REVERT JUMPDEST PUSH0 DUP1 REVERT JUMPDEST PUSH0 DUP1 REVERT JUMPDEST PUSH0 PUSH1 0x1F NOT PUSH1 0x1F DUP4 ADD AND SWAP1 POP SWAP2 SWAP1 POP JUMP JUMPDEST PUSH32 0x4E487B7100000000000000000000000000000000000000000000000000000000 PUSH0 MSTORE PUSH1 0x41 PUSH1 0x4 MSTORE PUSH1 0x24 PUSH0 REVERT JUMPDEST PUSH3 0x3E7 DUP3 PUSH3 0x39F JUMP JUMPDEST DUP2 ADD DUP2 DUP2 LT PUSH8 0xFFFFFFFFFFFFFFFF DUP3 GT OR ISZERO PUSH3 0x409 JUMPI PUSH3 0x408 PUSH3 0x3AF JUMP JUMPDEST JUMPDEST DUP1 PUSH1 0x40 MSTORE POP POP POP JUMP JUMPDEST PUSH0 PUSH3 0x41D PUSH3 0x386 JUMP JUMPDEST SWAP1 POP PUSH3 0x42B DUP3 DUP3 PUSH3 0x3DC JUMP JUMPDEST SWAP2 SWAP1 POP JUMP JUMPDEST PUSH0 PUSH8 0xFFFFFFFFFFFFFFFF DUP3 GT ISZERO PUSH3 0x44D JUMPI PUSH3 0x44C PUSH3 0x3AF JUMP JUMPDEST JUMPDEST PUSH3 0x458 DUP3 PUSH3 0x39F JUMP JUMPDEST SWAP1 POP PUSH1 0x20 DUP2 ADD SWAP1 POP SWAP2 SWAP1 POP JUMP JUMPDEST DUP3 DUP2 DUP4 CALLDATACOPY PUSH0 DUP4 DUP4 ADD MSTORE POP POP POP JUMP JUMPDEST PUSH0 PUSH3 0x489 PUSH3 0x483 DUP5 PUSH3 0x430 JUMP JUMPDEST PUSH3 0x412 JUMP JUMPDEST SWAP1 POP DUP3 DUP2 MSTORE PUSH1 0x20 DUP2 ADD DUP5 DUP5 DUP5 ADD GT ISZERO PUSH3 0x4A8 JUMPI PUSH3 0x4A7 PUSH3 0x39B JUMP JUMPDEST JUMPDEST PUSH3 0x4B5 DUP5 DUP3 DUP6 PUSH3 0x465 JUMP JUMPDEST POP SWAP4 SWAP3 POP POP POP JUMP JUMPDEST PUSH0 DUP3 PUSH1 0x1F DUP4 ADD SLT PUSH3 0x4D4 JUMPI PUSH3 0x4D3 PUSH3 0x397 JUMP JUMPDEST JUMPDEST DUP2 CALLDATALOAD PUSH3 0x4E6 DUP5 DUP3 PUSH1 0x20 DUP7 ADD PUSH3 0x473 JUMP JUMPDEST SWAP2 POP POP SWAP3 SWAP2 POP POP JUMP JUMPDEST PUSH0 DUP2 SWAP1 POP SWAP2 SWAP1 POP JUMP JUMPDEST PUSH3 0x503 DUP2 PUSH3 0x4EF JUMP JUMPDEST DUP2 EQ PUSH3 0x50E JUMPI PUSH0 DUP1 REVERT JUMPDEST POP JUMP JUMPDEST PUSH0 DUP2 CALLDATALOAD SWAP1 POP PUSH3 0x521 DUP2 PUSH3 0x4F8 JUMP JUMPDEST SWAP3 SWAP2 POP POP JUMP JUMPDEST PUSH0 DUP1 PUSH0 DUP1 PUSH0 DUP1 PUSH0 DUP1 PUSH0 DUP1 PUSH0 PUSH2 0x160 DUP13 DUP15 SUB SLT ISZERO PUSH3 0x54A JUMPI PUSH3 0x549 PUSH3 0x38F JUMP JUMPDEST JUMPDEST PUSH0 DUP13 ADD CALLDATALOAD PUSH8 0xFFFFFFFFFFFFFFFF DUP2 GT ISZERO PUSH3 0x56A JUMPI PUSH3 0x569 PUSH3 0x393 JUMP JUMPDEST JUMPDEST PUSH3 0x578 DUP15 DUP3 DUP16 ADD PUSH3 0x4BD JUMP JUMPDEST SWAP12 POP POP PUSH1 0x20 DUP13 ADD CALLDATALOAD PUSH8 0xFFFFFFFFFFFFFFFF DUP2 GT ISZERO PUSH3 0x59C JUMPI PUSH3 0x59B PUSH3 0x393 JUMP JUMPDEST JUMPDEST PUSH3 0x5AA DUP15 DUP3 DUP16 ADD PUSH3 0x4BD JUMP JUMPDEST SWAP11 POP POP PUSH1 0x40 PUSH3 0x5BD DUP15 DUP3 DUP16 ADD PUSH3 0x511 JUMP JUMPDEST SWAP10 POP POP PUSH1 0x60 PUSH3 0x5D0 DUP15 DUP3 DUP16 ADD PUSH3 0x511 JUMP JUMPDEST SWAP9 POP POP PUSH1 0x80 PUSH3 0x5E3 DUP15 DUP3 DUP16 ADD PUSH3 0x511 JUMP JUMPDEST SWAP8 POP POP PUSH1 0xA0 PUSH3 0x5F6 DUP15 DUP3 DUP16 ADD PUSH3 0x511 JUMP JUMPDEST SWAP7 POP POP PUSH1 0xC0 PUSH3 0x609 DUP15 DUP3 DUP16 ADD PUSH3 0x511 JUMP JUMPDEST SWAP6 POP POP PUSH1 0xE0 PUSH3 0x61C DUP15 DUP3 DUP16 ADD PUSH3 0x511 JUMP JUMPDEST SWAP5 POP POP PUSH2 0x100 PUSH3 0x630 DUP15 DUP3 DUP16 ADD PUSH3 0x511 JUMP JUMPDEST SWAP4 POP POP PUSH2 0x120 PUSH3 0x644 DUP15 DUP3 DUP16 ADD PUSH3 0x511 JUMP JUMPDEST SWAP3 POP POP PUSH2 0x140 PUSH3 0x658 DUP15 DUP3 DUP16 ADD PUSH3 0x511 JUMP JUMPDEST SWAP2 POP POP SWAP3 SWAP6 SWAP9 SWAP12 POP SWAP3 SWAP6 SWAP9 SWAP12 SWAP1 SWAP4 SWAP7 SWAP10 POP JUMP JUMPDEST PUSH0 PUSH3 0x677 DUP3 PUSH3 0x294 JUMP JUMPDEST SWAP1 POP SWAP2 SWAP1 POP JUMP JUMPDEST PUSH3 0x689 DUP2 PUSH3 0x66B JUMP JUMPDEST DUP3 MSTORE POP POP JUMP JUMPDEST PUSH0 PUSH1 0x20 DUP3 ADD SWAP1 POP PUSH3 0x6A4 PUSH0 DUP4 ADD DUP5 PUSH3 0x67E JUMP JUMPDEST SWAP3 SWAP2 POP POP JUMP JUMPDEST PUSH0 PUSH1 0x20 DUP3 DUP5 SUB SLT ISZERO PUSH3 0x6C2 JUMPI PUSH3 0x6C1 PUSH3 0x38F JUMP JUMPDEST JUMPDEST PUSH0 PUSH3 0x6D1 DUP5 DUP3 DUP6 ADD PUSH3 0x511 JUMP JUMPDEST SWAP2 POP POP SWAP3 SWAP2 POP POP JUMP JUMPDEST PUSH3 0x6E5 DUP2 PUSH3 0x2B3 JUMP JUMPDEST DUP3 MSTORE POP POP JUMP JUMPDEST PUSH0 PUSH1 0x20 DUP3 ADD SWAP1 POP PUSH3 0x700 PUSH0 DUP4 ADD DUP5 PUSH3 0x6DA JUMP JUMPDEST SWAP3 SWAP2 POP POP JUMP JUMPDEST PUSH0 DUP2 MLOAD SWAP1 POP SWAP2 SWAP1 POP JUMP JUMPDEST PUSH0 DUP3 DUP3 MSTORE PUSH1 0x20 DUP3 ADD SWAP1 POP SWAP3 SWAP2 POP POP JUMP JUMPDEST PUSH0 JUMPDEST DUP4 DUP2 LT ISZERO PUSH3 0x73F JUMPI DUP1 DUP3 ADD MLOAD DUP2 DUP5 ADD MSTORE PUSH1 0x20 DUP2 ADD SWAP1 POP PUSH3 0x722 JUMP JUMPDEST PUSH0 DUP5 DUP5 ADD MSTORE POP POP POP POP JUMP JUMPDEST PUSH0 PUSH3 0x756 DUP3 PUSH3 0x706 JUMP JUMPDEST PUSH3 0x762 DUP2 DUP6 PUSH3 0x710 JUMP JUMPDEST SWAP4 POP PUSH3 0x774 DUP2 DUP6 PUSH1 0x20 DUP7 ADD PUSH3 0x720 JUMP JUMPDEST PUSH3 0x77F DUP2 PUSH3 0x39F JUMP JUMPDEST DUP5 ADD SWAP2 POP POP SWAP3 SWAP2 POP POP JUMP JUMPDEST PUSH3 0x795 DUP2 PUSH3 0x4EF JUMP JUMPDEST DUP3 MSTORE POP POP JUMP JUMPDEST PUSH0 PUSH2 0x160 DUP3 ADD SWAP1 POP DUP2 DUP2 SUB PUSH0 DUP4 ADD MSTORE PUSH3 0x7B6 DUP2 DUP15 PUSH3 0x74A JUMP JUMPDEST SWAP1 POP DUP2 DUP2 SUB PUSH1 0x20 DUP4 ADD MSTORE PUSH3 0x7CC DUP2 DUP14 PUSH3 0x74A JUMP JUMPDEST SWAP1 POP PUSH3 0x7DD PUSH1 0x40 DUP4 ADD DUP13 PUSH3 0x78A JUMP JUMPDEST PUSH3 0x7EC PUSH1 0x60 DUP4 ADD DUP12 PUSH3 0x78A JUMP JUMPDEST PUSH3 0x7FB PUSH1 0x80 DUP4 ADD DUP11 PUSH3 0x78A JUMP JUMPDEST PUSH3 0x80A PUSH1 0xA0 DUP4 ADD DUP10 PUSH3 0x78A JUMP JUMPDEST PUSH3 0x819 PUSH1 0xC0 DUP4 ADD DUP9 PUSH3 0x78A JUMP JUMPDEST PUSH3 0x828 PUSH1 0xE0 DUP4 ADD DUP8 PUSH3 0x78A JUMP JUMPDEST PUSH3 0x838 PUSH2 0x100 DUP4 ADD DUP7 PUSH3 0x78A JUMP JUMPDEST PUSH3 0x848 PUSH2 0x120 DUP4 ADD DUP6 PUSH3 0x78A JUMP JUMPDEST PUSH3 0x858 PUSH2 0x140 DUP4 ADD DUP5 PUSH3 0x78A JUMP JUMPDEST SWAP13 SWAP12 POP POP POP POP POP POP POP POP POP POP POP POP JUMP INVALID PUSH1 0x80 PUSH1 0x40 MSTORE CALLVALUE DUP1 ISZERO PUSH3 0x10 JUMPI PUSH0 DUP1 REVERT JUMPDEST POP PUSH1 0x40 MLOAD PUSH3 0xB7A CODESIZE SUB DUP1 PUSH3 0xB7A DUP4 CODECOPY DUP2 DUP2 ADD PUSH1 0x40 MSTORE DUP2 ADD SWAP1 PUSH3 0x36 SWAP2 SWAP1 PUSH3 0x266 JUMP JUMPDEST DUP11 PUSH0 SWAP1 DUP2 PUSH3 0x46 SWAP2 SWAP1 PUSH3 0x5D8 JUMP JUMPDEST POP DUP10 PUSH1 0x1 SWAP1 DUP2 PUSH3 0x58 SWAP2 SWAP1 PUSH3 0x5D8 JUMP JUMPDEST POP DUP9 PUSH1 0x2 DUP2 SWAP1 SSTORE POP DUP8 PUSH1 0x3 DUP2 SWAP1 SSTORE POP DUP7 PUSH1 0x4 DUP2 SWAP1 SSTORE POP DUP6 PUSH1 0x5 DUP2 SWAP1 SSTORE POP DUP5 PUSH1 0x6 DUP2 SWAP1 SSTORE POP DUP4 PUSH1 0x7 DUP2 SWAP1 SSTORE POP DUP3 PUSH1 0x8 DUP2 SWAP1 SSTORE POP DUP2 PUSH1 0x9 DUP2 SWAP1 SSTORE POP DUP1 PUSH1 0xA DUP2 SWAP1 SSTORE POP POP POP POP POP POP POP POP POP POP POP POP PUSH3 0x6BC JUMP JUMPDEST PUSH0 PUSH1 0x40 MLOAD SWAP1 POP SWAP1 JUMP JUMPDEST PUSH0 DUP1 REVERT JUMPDEST PUSH0 DUP1 REVERT JUMPDEST PUSH0 DUP1 REVERT JUMPDEST PUSH0 DUP1 REVERT JUMPDEST PUSH0 PUSH1 0x1F NOT PUSH1 0x1F DUP4 ADD AND SWAP1 POP SWAP2 SWAP1 POP JUMP JUMPDEST PUSH32 0x4E487B7100000000000000000000000000000000000000000000000000000000 PUSH0 MSTORE PUSH1 0x41 PUSH1 0x4 MSTORE PUSH1 0x24 PUSH0 REVERT JUMPDEST PUSH3 0x10A DUP3 PUSH3 0xC2 JUMP JUMPDEST DUP2 ADD DUP2 DUP2 LT PUSH8 0xFFFFFFFFFFFFFFFF DUP3 GT OR ISZERO PUSH3 0x12C JUMPI PUSH3 0x12B PUSH3 0xD2 JUMP JUMPDEST JUMPDEST DUP1 PUSH1 0x40 MSTORE POP POP POP JUMP JUMPDEST PUSH0 PUSH3 0x140 PUSH3 0xA9 JUMP JUMPDEST SWAP1 POP PUSH3 0x14E DUP3 DUP3 PUSH3 0xFF JUMP JUMPDEST SWAP2 SWAP1 POP JUMP JUMPDEST PUSH0 PUSH8 0xFFFFFFFFFFFFFFFF DUP3 GT ISZERO PUSH3 0x170 JUMPI PUSH3 0x16F PUSH3 0xD2 JUMP JUMPDEST JUMPDEST PUSH3 0x17B DUP3 PUSH3 0xC2 JUMP JUMPDEST SWAP1 POP PUSH1 0x20 DUP2 ADD SWAP1 POP SWAP2 SWAP1 POP JUMP JUMPDEST PUSH0 JUMPDEST DUP4 DUP2 LT ISZERO PUSH3 0x1A7 JUMPI DUP1 DUP3 ADD MLOAD DUP2 DUP5 ADD MSTORE PUSH1 0x20 DUP2 ADD SWAP1 POP PUSH3 0x18A JUMP JUMPDEST PUSH0 DUP5 DUP5 ADD MSTORE POP POP POP POP JUMP JUMPDEST PUSH0 PUSH3 0x1C8 PUSH3 0x1C2 DUP5 PUSH3 0x153 JUMP JUMPDEST PUSH3 0x135 JUMP JUMPDEST SWAP1 POP DUP3 DUP2 MSTORE PUSH1 0x20 DUP2 ADD DUP5 DUP5 DUP5 ADD GT ISZERO PUSH3 0x1E7 JUMPI PUSH3 0x1E6 PUSH3 0xBE JUMP JUMPDEST JUMPDEST PUSH3 0x1F4 DUP5 DUP3 DUP6 PUSH3 0x188 JUMP JUMPDEST POP SWAP4 SWAP3 POP POP POP JUMP JUMPDEST PUSH0 DUP3 PUSH1 0x1F DUP4 ADD SLT PUSH3 0x213 JUMPI PUSH3 0x212 PUSH3 0xBA JUMP JUMPDEST JUMPDEST DUP2 MLOAD PUSH3 0x225 DUP5 DUP3 PUSH1 0x20 DUP7 ADD PUSH3 0x1B2 JUMP JUMPDEST SWAP2 POP POP SWAP3 SWAP2 POP POP JUMP JUMPDEST PUSH0 DUP2 SWAP1 POP SWAP2 SWAP1 POP JUMP JUMPDEST PUSH3 0x242 DUP2 PUSH3 0x22E JUMP JUMPDEST DUP2 EQ PUSH3 0x24D JUMPI PUSH0 DUP1 REVERT JUMPDEST POP JUMP JUMPDEST PUSH0 DUP2 MLOAD SWAP1 POP PUSH3 0x260 DUP2 PUSH3 0x237 JUMP JUMPDEST SWAP3 SWAP2 POP POP JUMP JUMPDEST PUSH0 DUP1 PUSH0 DUP1 PUSH0 DUP1 PUSH0 DUP1 PUSH0 DUP1 PUSH0 PUSH2 0x160 DUP13 DUP15 SUB SLT ISZERO PUSH3 0x289 JUMPI PUSH3 0x288 PUSH3 0xB2 JUMP JUMPDEST JUMPDEST PUSH0 DUP13 ADD MLOAD PUSH8 0xFFFFFFFFFFFFFFFF DUP2 GT ISZERO PUSH3 0x2A9 JUMPI PUSH3 0x2A8 PUSH3 0xB6 JUMP JUMPDEST JUMPDEST PUSH3 0x2B7 DUP15 DUP3 DUP16 ADD PUSH3 0x1FC JUMP JUMPDEST SWAP12 POP POP PUSH1 0x20 DUP13 ADD MLOAD PUSH8 0xFFFFFFFFFFFFFFFF DUP2 GT ISZERO PUSH3 0x2DB JUMPI PUSH3 0x2DA PUSH3 0xB6 JUMP JUMPDEST JUMPDEST PUSH3 0x2E9 DUP15 DUP3 DUP16 ADD PUSH3 0x1FC JUMP JUMPDEST SWAP11 POP POP PUSH1 0x40 PUSH3 0x2FC DUP15 DUP3 DUP16 ADD PUSH3 0x250 JUMP JUMPDEST SWAP10 POP POP PUSH1 0x60 PUSH3 0x30F DUP15 DUP3 DUP16 ADD PUSH3 0x250 JUMP JUMPDEST SWAP9 POP POP PUSH1 0x80 PUSH3 0x322 DUP15 DUP3 DUP16 ADD PUSH3 0x250 JUMP JUMPDEST SWAP8 POP POP PUSH1 0xA0 PUSH3 0x335 DUP15 DUP3 DUP16 ADD PUSH3 0x250 JUMP JUMPDEST SWAP7 POP POP PUSH1 0xC0 PUSH3 0x348 DUP15 DUP3 DUP16 ADD PUSH3 0x250 JUMP JUMPDEST SWAP6 POP POP PUSH1 0xE0 PUSH3 0x35B DUP15 DUP3 DUP16 ADD PUSH3 0x250 JUMP JUMPDEST SWAP5 POP POP PUSH2 0x100 PUSH3 0x36F DUP15 DUP3 DUP16 ADD PUSH3 0x250 JUMP JUMPDEST SWAP4 POP POP PUSH2 0x120 PUSH3 0x383 DUP15 DUP3 DUP16 ADD PUSH3 0x250 JUMP JUMPDEST SWAP3 POP POP PUSH2 0x140 PUSH3 0x397 DUP15 DUP3 DUP16 ADD PUSH3 0x250 JUMP JUMPDEST SWAP2 POP POP SWAP3 SWAP6 SWAP9 SWAP12 POP SWAP3 SWAP6 SWAP9 SWAP12 SWAP1 SWAP4 SWAP7 SWAP10 POP JUMP JUMPDEST PUSH0 DUP2 MLOAD SWAP1 POP SWAP2 SWAP1 POP JUMP JUMPDEST PUSH32 0x4E487B7100000000000000000000000000000000000000000000000000000000 PUSH0 MSTORE PUSH1 0x22 PUSH1 0x4 MSTORE PUSH1 0x24 PUSH0 REVERT JUMPDEST PUSH0 PUSH1 0x2 DUP3 DIV SWAP1 POP PUSH1 0x1 DUP3 AND DUP1 PUSH3 0x3F9 JUMPI PUSH1 0x7F DUP3 AND SWAP2 POP JUMPDEST PUSH1 0x20 DUP3 LT DUP2 SUB PUSH3 0x40F JUMPI PUSH3 0x40E PUSH3 0x3B4 JUMP JUMPDEST JUMPDEST POP SWAP2 SWAP1 POP JUMP JUMPDEST PUSH0 DUP2 SWAP1 POP DUP2 PUSH0 MSTORE PUSH1 0x20 PUSH0 KECCAK256 SWAP1 POP SWAP2 SWAP1 POP JUMP JUMPDEST PUSH0 PUSH1 0x20 PUSH1 0x1F DUP4 ADD DIV SWAP1 POP SWAP2 SWAP1 POP JUMP JUMPDEST PUSH0 DUP3 DUP3 SHL SWAP1 POP SWAP3 SWAP2 POP POP JUMP JUMPDEST PUSH0 PUSH1 0x8 DUP4 MUL PUSH3 0x473 PUSH32 0xFFFFFFFFFFFFFFFFFFFFFFFFFFFFFFFFFFFFFFFFFFFFFFFFFFFFFFFFFFFFFFFF DUP3 PUSH3 0x436 JUMP JUMPDEST PUSH3 0x47F DUP7 DUP4 PUSH3 0x436 JUMP JUMPDEST SWAP6 POP DUP1 NOT DUP5 AND SWAP4 POP DUP1 DUP7 AND DUP5 OR SWAP3 POP POP POP SWAP4 SWAP3 POP POP POP JUMP JUMPDEST PUSH0 DUP2 SWAP1 POP SWAP2 SWAP1 POP JUMP JUMPDEST PUSH0 PUSH3 0x4C0 PUSH3 0x4BA PUSH3 0x4B4 DUP5 PUSH3 0x22E JUMP JUMPDEST PUSH3 0x497 JUMP JUMPDEST PUSH3 0x22E JUMP JUMPDEST SWAP1 POP SWAP2 SWAP1 POP JUMP JUMPDEST PUSH0 DUP2 SWAP1 POP SWAP2 SWAP1 POP JUMP JUMPDEST PUSH3 0x4DB DUP4 PUSH3 0x4A0 JUMP JUMPDEST PUSH3 0x4F3 PUSH3 0x4EA DUP3 PUSH3 0x4C7 JUMP JUMPDEST DUP5 DUP5 SLOAD PUSH3 0x442 JUMP JUMPDEST DUP3 SSTORE POP POP POP POP JUMP JUMPDEST PUSH0 SWAP1 JUMP JUMPDEST PUSH3 0x509 PUSH3 0x4FB JUMP JUMPDEST PUSH3 0x516 DUP2 DUP5 DUP5 PUSH3 0x4D0 JUMP JUMPDEST POP POP POP JUMP JUMPDEST JUMPDEST DUP2 DUP2 LT ISZERO PUSH3 0x53D JUMPI PUSH3 0x531 PUSH0 DUP3 PUSH3 0x4FF JUMP JUMPDEST PUSH1 0x1 DUP2 ADD SWAP1 POP PUSH3 0x51C JUMP JUMPDEST POP POP JUMP JUMPDEST PUSH1 0x1F DUP3 GT ISZERO PUSH3 0x58C JUMPI PUSH3 0x556 DUP2 PUSH3 0x415 JUMP JUMPDEST PUSH3 0x561 DUP5 PUSH3 0x427 JUMP JUMPDEST DUP2 ADD PUSH1 0x20 DUP6 LT ISZERO PUSH3 0x571 JUMPI DUP2 SWAP1 POP JUMPDEST PUSH3 0x589 PUSH3 0x580 DUP6 PUSH3 0x427 JUMP JUMPDEST DUP4 ADD DUP3 PUSH3 0x51B JUMP JUMPDEST POP POP JUMPDEST POP POP POP JUMP JUMPDEST PUSH0 DUP3 DUP3 SHR SWAP1 POP SWAP3 SWAP2 POP POP JUMP JUMPDEST PUSH0 PUSH3 0x5AE PUSH0 NOT DUP5 PUSH1 0x8 MUL PUSH3 0x591 JUMP JUMPDEST NOT DUP1 DUP4 AND SWAP2 POP POP SWAP3 SWAP2 POP POP JUMP JUMPDEST PUSH0 PUSH3 0x5C8 DUP4 DUP4 PUSH3 0x59D JUMP JUMPDEST SWAP2 POP DUP3 PUSH1 0x2 MUL DUP3 OR SWAP1 POP SWAP3 SWAP2 POP POP JUMP JUMPDEST PUSH3 0x5E3 DUP3 PUSH3 0x3AA JUMP JUMPDEST PUSH8 0xFFFFFFFFFFFFFFFF DUP2 GT ISZERO PUSH3 0x5FF JUMPI PUSH3 0x5FE PUSH3 0xD2 JUMP JUMPDEST JUMPDEST PUSH3 0x60B DUP3 SLOAD PUSH3 0x3E1 JUMP JUMPDEST PUSH3 0x618 DUP3 DUP3 DUP6 PUSH3 0x541 JUMP JUMPDEST PUSH0 PUSH1 0x20 SWAP1 POP PUSH1 0x1F DUP4 GT PUSH1 0x1 DUP2 EQ PUSH3 0x64E JUMPI PUSH0 DUP5 ISZERO PUSH3 0x639 JUMPI DUP3 DUP8 ADD MLOAD SWAP1 POP JUMPDEST PUSH3 0x645 DUP6 DUP3 PUSH3 0x5BB JUMP JUMPDEST DUP7 SSTORE POP PUSH3 0x6B4 JUMP JUMPDEST PUSH1 0x1F NOT DUP5 AND PUSH3 0x65E DUP7 PUSH3 0x415 JUMP JUMPDEST PUSH0 JUMPDEST DUP3 DUP2 LT ISZERO PUSH3 0x687 JUMPI DUP5 DUP10 ADD MLOAD DUP3 SSTORE PUSH1 0x1 DUP3 ADD SWAP2 POP PUSH1 0x20 DUP6 ADD SWAP5 POP PUSH1 0x20 DUP2 ADD SWAP1 POP PUSH3 0x660 JUMP JUMPDEST DUP7 DUP4 LT ISZERO PUSH3 0x6A7 JUMPI DUP5 DUP10 ADD MLOAD PUSH3 0x6A3 PUSH1 0x1F DUP10 AND DUP3 PUSH3 0x59D JUMP JUMPDEST DUP4 SSTORE POP JUMPDEST PUSH1 0x1 PUSH1 0x2 DUP9 MUL ADD DUP9 SSTORE POP POP POP JUMPDEST POP POP POP POP POP POP JUMP JUMPDEST PUSH2 0x4B0 DUP1 PUSH3 0x6CA PUSH0 CODECOPY PUSH0 RETURN INVALID PUSH1 0x80 PUSH1 0x40 MSTORE CALLVALUE DUP1 ISZERO PUSH2 0xF JUMPI PUSH0 DUP1 REVERT JUMPDEST POP PUSH1 0x4 CALLDATASIZE LT PUSH2 0xA7 JUMPI PUSH0 CALLDATALOAD PUSH1 0xE0 SHR DUP1 PUSH4 0x79CAAD86 GT PUSH2 0x6F JUMPI DUP1 PUSH4 0x79CAAD86 EQ PUSH2 0x141 JUMPI DUP1 PUSH4 0x9284F497 EQ PUSH2 0x15F JUMPI DUP1 PUSH4 0xADCCEA12 EQ PUSH2 0x17D JUMPI DUP1 PUSH4 0xB89A64E8 EQ PUSH2 0x19B JUMPI DUP1 PUSH4 0xDEB189B5 EQ PUSH2 0x1B9 JUMPI DUP1 PUSH4 0xFB14326F EQ PUSH2 0x1D7 JUMPI PUSH2 0xA7 JUMP JUMPDEST DUP1 PUSH4 0x5EC5F51 EQ PUSH2 0xAB JUMPI DUP1 PUSH4 0xB1B6E93 EQ PUSH2 0xC9 JUMPI DUP1 PUSH4 0x262A9DFF EQ PUSH2 0xE7 JUMPI DUP1 PUSH4 0x467621C6 EQ PUSH2 0x105 JUMPI DUP1 PUSH4 0x61FAC54D EQ PUSH2 0x123 JUMPI JUMPDEST PUSH0 DUP1 REVERT JUMPDEST PUSH2 0xB3 PUSH2 0x1F5 JUMP JUMPDEST PUSH1 0x40 MLOAD PUSH2 0xC0 SWAP2 SWAP1 PUSH2 0x35A JUMP JUMPDEST PUSH1 0x40 MLOAD DUP1 SWAP2 SUB SWAP1 RETURN JUMPDEST PUSH2 0xD1 PUSH2 0x1FB JUMP JUMPDEST PUSH1 0x40 MLOAD PUSH2 0xDE SWAP2 SWAP1 PUSH2 0x35A JUMP JUMPDEST PUSH1 0x40 MLOAD DUP1 SWAP2 SUB SWAP1 RETURN JUMPDEST PUSH2 0xEF PUSH2 0x201 JUMP JUMPDEST PUSH1 0x40 MLOAD PUSH2 0xFC SWAP2 SWAP1 PUSH2 0x35A JUMP JUMPDEST PUSH1 0x40 MLOAD DUP1 SWAP2 SUB SWAP1 RETURN JUMPDEST PUSH2 0x10D PUSH2 0x207 JUMP JUMPDEST PUSH1 0x40 MLOAD PUSH2 0x11A SWAP2 SWAP1 PUSH2 0x35A JUMP JUMPDEST PUSH1 0x40 MLOAD DUP1 SWAP2 SUB SWAP1 RETURN JUMPDEST PUSH2 0x12B PUSH2 0x20D JUMP JUMPDEST PUSH1 0x40 MLOAD PUSH2 0x138 SWAP2 SWAP1 PUSH2 0x3FD JUMP JUMPDEST PUSH1 0x40 MLOAD DUP1 SWAP2 SUB SWAP1 RETURN JUMPDEST PUSH2 0x149 PUSH2 0x298 JUMP JUMPDEST PUSH1 0x40 MLOAD PUSH2 0x156 SWAP2 SWAP1 PUSH2 0x3FD JUMP JUMPDEST PUSH1 0x40 MLOAD DUP1 SWAP2 SUB SWAP1 RETURN JUMPDEST PUSH2 0x167 PUSH2 0x324 JUMP JUMPDEST PUSH1 0x40 MLOAD PUSH2 0x174 SWAP2 SWAP1 PUSH2 0x35A JUMP JUMPDEST PUSH1 0x40 MLOAD DUP1 SWAP2 SUB SWAP1 RETURN JUMPDEST PUSH2 0x185 PUSH2 0x32A JUMP JUMPDEST PUSH1 0x40 MLOAD PUSH2 0x192 SWAP2 SWAP1 PUSH2 0x35A JUMP JUMPDEST PUSH1 0x40 MLOAD DUP1 SWAP2 SUB SWAP1 RETURN JUMPDEST PUSH2 0x1A3 PUSH2 0x330 JUMP JUMPDEST PUSH1 0x40 MLOAD PUSH2 0x1B0 SWAP2 SWAP1 PUSH2 0x35A JUMP JUMPDEST PUSH1 0x40 MLOAD DUP1 SWAP2 SUB SWAP1 RETURN JUMPDEST PUSH2 0x1C1 PUSH2 0x336 JUMP JUMPDEST PUSH1 0x40 MLOAD PUSH2 0x1CE SWAP2 SWAP1 PUSH2 0x35A JUMP JUMPDEST PUSH1 0x40 MLOAD DUP1 SWAP2 SUB SWAP1 RETURN JUMPDEST PUSH2 0x1DF PUSH2 0x33C JUMP JUMPDEST PUSH1 0x40 MLOAD PUSH2 0x1EC SWAP2 SWAP1 PUSH2 0x35A JUMP JUMPDEST PUSH1 0x40 MLOAD DUP1 SWAP2 SUB SWAP1 RETURN JUMPDEST PUSH1 0x5 SLOAD DUP2 JUMP JUMPDEST PUSH1 0xA SLOAD DUP2 JUMP JUMPDEST PUSH1 0x3 SLOAD DUP2 JUMP JUMPDEST PUSH1 0x4 SLOAD DUP2 JUMP JUMPDEST PUSH0 DUP1 SLOAD PUSH2 0x219 SWAP1 PUSH2 0x44A JUMP JUMPDEST DUP1 PUSH1 0x1F ADD PUSH1 0x20 DUP1 SWAP2 DIV MUL PUSH1 0x20 ADD PUSH1 0x40 MLOAD SWAP1 DUP2 ADD PUSH1 0x40 MSTORE DUP1 SWAP3 SWAP2 SWAP1 DUP2 DUP2 MSTORE PUSH1 0x20 ADD DUP3 DUP1 SLOAD PUSH2 0x245 SWAP1 PUSH2 0x44A JUMP JUMPDEST DUP1 ISZERO PUSH2 0x290 JUMPI DUP1 PUSH1 0x1F LT PUSH2 0x267 JUMPI PUSH2 0x100 DUP1 DUP4 SLOAD DIV MUL DUP4 MSTORE SWAP2 PUSH1 0x20 ADD SWAP2 PUSH2 0x290 JUMP JUMPDEST DUP3 ADD SWAP2 SWAP1 PUSH0 MSTORE PUSH1 0x20 PUSH0 KECCAK256 SWAP1 JUMPDEST DUP2 SLOAD DUP2 MSTORE SWAP1 PUSH1 0x1 ADD SWAP1 PUSH1 0x20 ADD DUP1 DUP4 GT PUSH2 0x273 JUMPI DUP3 SWAP1 SUB PUSH1 0x1F AND DUP3 ADD SWAP2 JUMPDEST POP POP POP POP POP DUP2 JUMP JUMPDEST PUSH1 0x1 DUP1 SLOAD PUSH2 0x2A5 SWAP1 PUSH2 0x44A JUMP JUMPDEST DUP1 PUSH1 0x1F ADD PUSH1 0x20 DUP1 SWAP2 DIV MUL PUSH1 0x20 ADD PUSH1 0x40 MLOAD SWAP1 DUP2 ADD PUSH1 0x40 MSTORE DUP1 SWAP3 SWAP2 SWAP1 DUP2 DUP2 MSTORE PUSH1 0x20 ADD DUP3 DUP1 SLOAD PUSH2 0x2D1 SWAP1 PUSH2 0x44A JUMP JUMPDEST DUP1 ISZERO PUSH2 0x31C JUMPI DUP1 PUSH1 0x1F LT PUSH2 0x2F3 JUMPI PUSH2 0x100 DUP1 DUP4 SLOAD DIV MUL DUP4 MSTORE SWAP2 PUSH1 0x20 ADD SWAP2 PUSH2 0x31C JUMP JUMPDEST DUP3 ADD SWAP2 SWAP1 PUSH0 MSTORE PUSH1 0x20 PUSH0 KECCAK256 SWAP1 JUMPDEST DUP2 SLOAD DUP2 MSTORE SWAP1 PUSH1 0x1 ADD SWAP1 PUSH1 0x20 ADD DUP1 DUP4 GT PUSH2 0x2FF JUMPI DUP3 SWAP1 SUB PUSH1 0x1F AND DUP3 ADD SWAP2 JUMPDEST POP POP POP POP POP DUP2 JUMP JUMPDEST PUSH1 0x2 SLOAD DUP2 JUMP JUMPDEST PUSH1 0x8 SLOAD DUP2 JUMP JUMPDEST PUSH1 0x9 SLOAD DUP2 JUMP JUMPDEST PUSH1 0x6 SLOAD DUP2 JUMP JUMPDEST PUSH1 0x7 SLOAD DUP2 JUMP JUMPDEST PUSH0 DUP2 SWAP1 POP SWAP2 SWAP1 POP JUMP JUMPDEST PUSH2 0x354 DUP2 PUSH2 0x342 JUMP JUMPDEST DUP3 MSTORE POP POP JUMP JUMPDEST PUSH0 PUSH1 0x20 DUP3 ADD SWAP1 POP PUSH2 0x36D PUSH0 DUP4 ADD DUP5 PUSH2 0x34B JUMP JUMPDEST SWAP3 SWAP2 POP POP JUMP JUMPDEST PUSH0 DUP2 MLOAD SWAP1 POP SWAP2 SWAP1 POP JUMP JUMPDEST PUSH0 DUP3 DUP3 MSTORE PUSH1 0x20 DUP3 ADD SWAP1 POP SWAP3 SWAP2 POP POP JUMP JUMPDEST PUSH0 JUMPDEST DUP4 DUP2 LT ISZERO PUSH2 0x3AA JUMPI DUP1 DUP3 ADD MLOAD DUP2 DUP5 ADD MSTORE PUSH1 0x20 DUP2 ADD SWAP1 POP PUSH2 0x38F JUMP JUMPDEST PUSH0 DUP5 DUP5 ADD MSTORE POP POP POP POP JUMP JUMPDEST PUSH0 PUSH1 0x1F NOT PUSH1 0x1F DUP4 ADD AND SWAP1 POP SWAP2 SWAP1 POP JUMP JUMPDEST PUSH0 PUSH2 0x3CF DUP3 PUSH2 0x373 JUMP JUMPDEST PUSH2 0x3D9 DUP2 DUP6 PUSH2 0x37D JUMP JUMPDEST SWAP4 POP PUSH2 0x3E9 DUP2 DUP6 PUSH1 0x20 DUP7 ADD PUSH2 0x38D JUMP JUMPDEST PUSH2 0x3F2 DUP2 PUSH2 0x3B5 JUMP JUMPDEST DUP5 ADD SWAP2 POP POP SWAP3 SWAP2 POP POP JUMP JUMPDEST PUSH0 PUSH1 0x20 DUP3 ADD SWAP1 POP DUP2 DUP2 SUB PUSH0 DUP4 ADD MSTORE PUSH2 0x415 DUP2 DUP5 PUSH2 0x3C5 JUMP JUMPDEST SWAP1 POP SWAP3 SWAP2 POP POP JUMP JUMPDEST PUSH32 0x4E487B7100000000000000000000000000000000000000000000000000000000 PUSH0 MSTORE PUSH1 0x22 PUSH1 0x4 MSTORE PUSH1 0x24 PUSH0 REVERT JUMPDEST PUSH0 PUSH1 0x2 DUP3 DIV SWAP1 POP PUSH1 0x1 DUP3 AND DUP1 PUSH2 0x461 JUMPI PUSH1 0x7F DUP3 AND SWAP2 POP JUMPDEST PUSH1 0x20 DUP3 LT DUP2 SUB PUSH2 0x474 JUMPI PUSH2 0x473 PUSH2 0x41D JUMP JUMPDEST JUMPDEST POP SWAP2 SWAP1 POP JUMP INVALID LOG2 PUSH5 0x6970667358 0x22 SLT KECCAK256 0xF SWAP10 SAR 0x2A 0xDC SWAP2 0xD0 0xDF SAR MOD SAR SWAP14 PUSH27 0xD71C74F9E31CD3B4F11BBB36E9CCC94A6ED92164736F6C63430008 ISZERO STOP CALLER LOG2 PUSH5 0x6970667358 0x22 SLT KECCAK256 SELFDESTRUCT PUSH28 0x86EE507CDCF07A31361D323B66764A6931655FFE3EEEB3744D372B21 PUSH30 0x9364736F6C63430008150033000000000000000000000000000000000000 "},"gasEstimates":{"creation":{"codeDepositCost":"1028800","executionCost":"1065","totalCost":"1029865"},"external":{"allPatients(uint256)":"4965","createNewPatient(string,string,uint256,uint256,uint256,uint256,uint256,uint256,uint256,uint256,uint256)":"infinite","getAllPatients()":"infinite"}},"methodIdentifiers":{"allPatients(uint256)":"d8f608df","createNewPatient(string,string,uint256,uint256,uint256,uint256,uint256,uint256,uint256,uint256,uint256)":"d36da618","getAllPatients()":"18a231a9"}},"storageLayout":{"storage":[{"astId":4,"contract":"hmsb.sol:Factory","label":"allPatients","offset":0,"slot":"0","type":"t_array(t_address_payable)dyn_storage"}],"types":{"t_address_payable":{"encoding":"inplace","label":"address payable","numberOfBytes":"20"},"t_array(t_address_payable)dyn_storage":{"base":"t_address_payable","encoding":"dynamic_array","label":"address payable[]","numberOfBytes":"32"}}},"userdoc":{"kind":"user","methods":{},"version":1}}