{"abi":[{"inputs":[{"internalType":"uint256","name":"","type":"uint256"}],"name":"allPatients","outputs":[{"internalType":"address payable","name":"","type":"address"}],"stateMutability":"view","type":"function"},{"inputs":[{"internalType":"string","name":"_username","type":"string"},{"internalType":"string","name":"_gender","type":"string"},{"internalType":"uint256","name":"_phone","type":"uint256"}],"name":"createNewPatient","outputs":[{"internalType":"address","name":"","type":"address"}],"stateMutability":"nonpayable","type":"function"},{"inputs":[],"name":"getAllPatients","outputs":[{"internalType":"address payable[]","name":"","type":"address[]"}],"stateMutability":"view","type":"function"}],"devdoc":{"kind":"dev","methods":{},"version":1},"evm":{"assembly":"    /* \"hmsb.sol\":60:526  contract Factory {... */\n  mstore(0x40, 0x80)\n  callvalue\n  dup1\n  iszero\n  tag_1\n  jumpi\n  0x00\n  dup1\n  revert\ntag_1:\n  pop\n  dataSize(sub_0)\n  dup1\n  dataOffset(sub_0)\n  0x00\n  codecopy\n  0x00\n  return\nstop\n\nsub_0: assembly {\n        /* \"hmsb.sol\":60:526  contract Factory {... */\n      mstore(0x40, 0x80)\n      callvalue\n      dup1\n      iszero\n      tag_1\n      jumpi\n      0x00\n      dup1\n      revert\n    tag_1:\n      pop\n      jumpi(tag_2, lt(calldatasize, 0x04))\n      shr(0xe0, calldataload(0x00))\n      dup1\n      0x027e7b9d\n      eq\n      tag_3\n      jumpi\n      dup1\n      0x18a231a9\n      eq\n      tag_4\n      jumpi\n      dup1\n      0xd8f608df\n      eq\n      tag_5\n      jumpi\n    tag_2:\n      0x00\n      dup1\n      revert\n        /* \"hmsb.sol\":129:405  function createNewPatient(string memory _username, string memory _gender, uint _phone) public returns (address) {... */\n    tag_3:\n      tag_6\n      0x04\n      dup1\n      calldatasize\n      sub\n      dup2\n      add\n      swap1\n      tag_7\n      swap2\n      swap1\n      tag_8\n      jump\t// in\n    tag_7:\n      tag_9\n      jump\t// in\n    tag_6:\n      mload(0x40)\n      tag_10\n      swap2\n      swap1\n      tag_11\n      jump\t// in\n    tag_10:\n      mload(0x40)\n      dup1\n      swap2\n      sub\n      swap1\n      return\n        /* \"hmsb.sol\":413:523  function getAllPatients() public view returns (address payable[] memory) {... */\n    tag_4:\n      tag_12\n      tag_13\n      jump\t// in\n    tag_12:\n      mload(0x40)\n      tag_14\n      swap2\n      swap1\n      tag_15\n      jump\t// in\n    tag_14:\n      mload(0x40)\n      dup1\n      swap2\n      sub\n      swap1\n      return\n        /* \"hmsb.sol\":84:120  address payable[] public allPatients */\n    tag_5:\n      tag_16\n      0x04\n      dup1\n      calldatasize\n      sub\n      dup2\n      add\n      swap1\n      tag_17\n      swap2\n      swap1\n      tag_18\n      jump\t// in\n    tag_17:\n      tag_19\n      jump\t// in\n    tag_16:\n      mload(0x40)\n      tag_20\n      swap2\n      swap1\n      tag_21\n      jump\t// in\n    tag_20:\n      mload(0x40)\n      dup1\n      swap2\n      sub\n      swap1\n      return\n        /* \"hmsb.sol\":129:405  function createNewPatient(string memory _username, string memory _gender, uint _phone) public returns (address) {... */\n    tag_9:\n        /* \"hmsb.sol\":232:239  address */\n      0x00\n        /* \"hmsb.sol\":252:270  address newPatient */\n      dup1\n        /* \"hmsb.sol\":293:302  _username */\n      dup5\n        /* \"hmsb.sol\":304:311  _gender */\n      dup5\n        /* \"hmsb.sol\":313:319  _phone */\n      dup5\n        /* \"hmsb.sol\":281:320  new Patient(_username, _gender, _phone) */\n      mload(0x40)\n      tag_23\n      swap1\n      tag_24\n      jump\t// in\n    tag_23:\n      tag_25\n      swap4\n      swap3\n      swap2\n      swap1\n      tag_26\n      jump\t// in\n    tag_25:\n      mload(0x40)\n      dup1\n      swap2\n      sub\n      swap1\n      0x00\n      create\n      dup1\n      iszero\n      dup1\n      iszero\n      tag_27\n      jumpi\n      returndatasize\n      0x00\n      dup1\n      returndatacopy\n      revert(0x00, returndatasize)\n    tag_27:\n      pop\n        /* \"hmsb.sol\":252:321  address newPatient = address(new Patient(_username, _gender, _phone)) */\n      swap1\n      pop\n        /* \"hmsb.sol\":332:343  allPatients */\n      0x00\n        /* \"hmsb.sol\":357:367  newPatient */\n      dup2\n        /* \"hmsb.sol\":332:369  allPatients.push(payable(newPatient)) */\n      swap1\n      dup1\n      0x01\n      dup2\n      sload\n      add\n      dup1\n      dup3\n      sstore\n      dup1\n      swap2\n      pop\n      pop\n      0x01\n      swap1\n      sub\n      swap1\n      0x00\n      mstore\n      keccak256(0x00, 0x20)\n      add\n      0x00\n      swap1\n      swap2\n      swap1\n      swap2\n      swap1\n      swap2\n      0x0100\n      exp\n      dup2\n      sload\n      dup2\n      0xffffffffffffffffffffffffffffffffffffffff\n      mul\n      not\n      and\n      swap1\n      dup4\n      0xffffffffffffffffffffffffffffffffffffffff\n      and\n      mul\n      or\n      swap1\n      sstore\n      pop\n        /* \"hmsb.sol\":387:397  newPatient */\n      dup1\n        /* \"hmsb.sol\":380:397  return newPatient */\n      swap2\n      pop\n      pop\n        /* \"hmsb.sol\":129:405  function createNewPatient(string memory _username, string memory _gender, uint _phone) public returns (address) {... */\n      swap4\n      swap3\n      pop\n      pop\n      pop\n      jump\t// out\n        /* \"hmsb.sol\":413:523  function getAllPatients() public view returns (address payable[] memory) {... */\n    tag_13:\n        /* \"hmsb.sol\":460:484  address payable[] memory */\n      0x60\n        /* \"hmsb.sol\":504:515  allPatients */\n      0x00\n        /* \"hmsb.sol\":497:515  return allPatients */\n      dup1\n      sload\n      dup1\n      0x20\n      mul\n      0x20\n      add\n      mload(0x40)\n      swap1\n      dup2\n      add\n      0x40\n      mstore\n      dup1\n      swap3\n      swap2\n      swap1\n      dup2\n      dup2\n      mstore\n      0x20\n      add\n      dup3\n      dup1\n      sload\n      dup1\n      iszero\n      tag_30\n      jumpi\n      0x20\n      mul\n      dup3\n      add\n      swap2\n      swap1\n      0x00\n      mstore\n      keccak256(0x00, 0x20)\n      swap1\n    tag_31:\n      dup2\n      0x00\n      swap1\n      sload\n      swap1\n      0x0100\n      exp\n      swap1\n      div\n      0xffffffffffffffffffffffffffffffffffffffff\n      and\n      0xffffffffffffffffffffffffffffffffffffffff\n      and\n      dup2\n      mstore\n      0x20\n      add\n      swap1\n      0x01\n      add\n      swap1\n      dup1\n      dup4\n      gt\n      tag_31\n      jumpi\n    tag_30:\n      pop\n      pop\n      pop\n      pop\n      pop\n      swap1\n      pop\n        /* \"hmsb.sol\":413:523  function getAllPatients() public view returns (address payable[] memory) {... */\n      swap1\n      jump\t// out\n        /* \"hmsb.sol\":84:120  address payable[] public allPatients */\n    tag_19:\n      0x00\n      dup2\n      dup2\n      sload\n      dup2\n      lt\n      tag_32\n      jumpi\n      0x00\n      dup1\n      revert\n    tag_32:\n      swap1\n      0x00\n      mstore\n      keccak256(0x00, 0x20)\n      add\n      0x00\n      swap2\n      pop\n      sload\n      swap1\n      0x0100\n      exp\n      swap1\n      div\n      0xffffffffffffffffffffffffffffffffffffffff\n      and\n      dup2\n      jump\t// out\n    tag_24:\n      dataSize(sub_0)\n      dup1\n      dataOffset(sub_0)\n      dup4\n      codecopy\n      add\n      swap1\n      jump\t// out\n        /* \"#utility.yul\":7:82   */\n    tag_34:\n        /* \"#utility.yul\":40:46   */\n      0x00\n        /* \"#utility.yul\":73:75   */\n      0x40\n        /* \"#utility.yul\":67:76   */\n      mload\n        /* \"#utility.yul\":57:76   */\n      swap1\n      pop\n        /* \"#utility.yul\":7:82   */\n      swap1\n      jump\t// out\n        /* \"#utility.yul\":88:205   */\n    tag_35:\n        /* \"#utility.yul\":197:198   */\n      0x00\n        /* \"#utility.yul\":194:195   */\n      dup1\n        /* \"#utility.yul\":187:199   */\n      revert\n        /* \"#utility.yul\":211:328   */\n    tag_36:\n        /* \"#utility.yul\":320:321   */\n      0x00\n        /* \"#utility.yul\":317:318   */\n      dup1\n        /* \"#utility.yul\":310:322   */\n      revert\n        /* \"#utility.yul\":334:451   */\n    tag_37:\n        /* \"#utility.yul\":443:444   */\n      0x00\n        /* \"#utility.yul\":440:441   */\n      dup1\n        /* \"#utility.yul\":433:445   */\n      revert\n        /* \"#utility.yul\":457:574   */\n    tag_38:\n        /* \"#utility.yul\":566:567   */\n      0x00\n        /* \"#utility.yul\":563:564   */\n      dup1\n        /* \"#utility.yul\":556:568   */\n      revert\n        /* \"#utility.yul\":580:682   */\n    tag_39:\n        /* \"#utility.yul\":621:627   */\n      0x00\n        /* \"#utility.yul\":672:674   */\n      0x1f\n        /* \"#utility.yul\":668:675   */\n      not\n        /* \"#utility.yul\":663:665   */\n      0x1f\n        /* \"#utility.yul\":656:661   */\n      dup4\n        /* \"#utility.yul\":652:666   */\n      add\n        /* \"#utility.yul\":648:676   */\n      and\n        /* \"#utility.yul\":638:676   */\n      swap1\n      pop\n        /* \"#utility.yul\":580:682   */\n      swap2\n      swap1\n      pop\n      jump\t// out\n        /* \"#utility.yul\":688:868   */\n    tag_40:\n        /* \"#utility.yul\":736:813   */\n      0x4e487b7100000000000000000000000000000000000000000000000000000000\n        /* \"#utility.yul\":733:734   */\n      0x00\n        /* \"#utility.yul\":726:814   */\n      mstore\n        /* \"#utility.yul\":833:837   */\n      0x41\n        /* \"#utility.yul\":830:831   */\n      0x04\n        /* \"#utility.yul\":823:838   */\n      mstore\n        /* \"#utility.yul\":857:861   */\n      0x24\n        /* \"#utility.yul\":854:855   */\n      0x00\n        /* \"#utility.yul\":847:862   */\n      revert\n        /* \"#utility.yul\":874:1155   */\n    tag_41:\n        /* \"#utility.yul\":957:984   */\n      tag_76\n        /* \"#utility.yul\":979:983   */\n      dup3\n        /* \"#utility.yul\":957:984   */\n      tag_39\n      jump\t// in\n    tag_76:\n        /* \"#utility.yul\":949:955   */\n      dup2\n        /* \"#utility.yul\":945:985   */\n      add\n        /* \"#utility.yul\":1087:1093   */\n      dup2\n        /* \"#utility.yul\":1075:1085   */\n      dup2\n        /* \"#utility.yul\":1072:1094   */\n      lt\n        /* \"#utility.yul\":1051:1069   */\n      0xffffffffffffffff\n        /* \"#utility.yul\":1039:1049   */\n      dup3\n        /* \"#utility.yul\":1036:1070   */\n      gt\n        /* \"#utility.yul\":1033:1095   */\n      or\n        /* \"#utility.yul\":1030:1118   */\n      iszero\n      tag_77\n      jumpi\n        /* \"#utility.yul\":1098:1116   */\n      tag_78\n      tag_40\n      jump\t// in\n    tag_78:\n        /* \"#utility.yul\":1030:1118   */\n    tag_77:\n        /* \"#utility.yul\":1138:1148   */\n      dup1\n        /* \"#utility.yul\":1134:1136   */\n      0x40\n        /* \"#utility.yul\":1127:1149   */\n      mstore\n        /* \"#utility.yul\":917:1155   */\n      pop\n        /* \"#utility.yul\":874:1155   */\n      pop\n      pop\n      jump\t// out\n        /* \"#utility.yul\":1161:1290   */\n    tag_42:\n        /* \"#utility.yul\":1195:1201   */\n      0x00\n        /* \"#utility.yul\":1222:1242   */\n      tag_80\n      tag_34\n      jump\t// in\n    tag_80:\n        /* \"#utility.yul\":1212:1242   */\n      swap1\n      pop\n        /* \"#utility.yul\":1251:1284   */\n      tag_81\n        /* \"#utility.yul\":1279:1283   */\n      dup3\n        /* \"#utility.yul\":1271:1277   */\n      dup3\n        /* \"#utility.yul\":1251:1284   */\n      tag_41\n      jump\t// in\n    tag_81:\n        /* \"#utility.yul\":1161:1290   */\n      swap2\n      swap1\n      pop\n      jump\t// out\n        /* \"#utility.yul\":1296:1604   */\n    tag_43:\n        /* \"#utility.yul\":1358:1362   */\n      0x00\n        /* \"#utility.yul\":1448:1466   */\n      0xffffffffffffffff\n        /* \"#utility.yul\":1440:1446   */\n      dup3\n        /* \"#utility.yul\":1437:1467   */\n      gt\n        /* \"#utility.yul\":1434:1490   */\n      iszero\n      tag_83\n      jumpi\n        /* \"#utility.yul\":1470:1488   */\n      tag_84\n      tag_40\n      jump\t// in\n    tag_84:\n        /* \"#utility.yul\":1434:1490   */\n    tag_83:\n        /* \"#utility.yul\":1508:1537   */\n      tag_85\n        /* \"#utility.yul\":1530:1536   */\n      dup3\n        /* \"#utility.yul\":1508:1537   */\n      tag_39\n      jump\t// in\n    tag_85:\n        /* \"#utility.yul\":1500:1537   */\n      swap1\n      pop\n        /* \"#utility.yul\":1592:1596   */\n      0x20\n        /* \"#utility.yul\":1586:1590   */\n      dup2\n        /* \"#utility.yul\":1582:1597   */\n      add\n        /* \"#utility.yul\":1574:1597   */\n      swap1\n      pop\n        /* \"#utility.yul\":1296:1604   */\n      swap2\n      swap1\n      pop\n      jump\t// out\n        /* \"#utility.yul\":1610:1756   */\n    tag_44:\n        /* \"#utility.yul\":1707:1713   */\n      dup3\n        /* \"#utility.yul\":1702:1705   */\n      dup2\n        /* \"#utility.yul\":1697:1700   */\n      dup4\n        /* \"#utility.yul\":1684:1714   */\n      calldatacopy\n        /* \"#utility.yul\":1748:1749   */\n      0x00\n        /* \"#utility.yul\":1739:1745   */\n      dup4\n        /* \"#utility.yul\":1734:1737   */\n      dup4\n        /* \"#utility.yul\":1730:1746   */\n      add\n        /* \"#utility.yul\":1723:1750   */\n      mstore\n        /* \"#utility.yul\":1610:1756   */\n      pop\n      pop\n      pop\n      jump\t// out\n        /* \"#utility.yul\":1762:2187   */\n    tag_45:\n        /* \"#utility.yul\":1840:1845   */\n      0x00\n        /* \"#utility.yul\":1865:1931   */\n      tag_88\n        /* \"#utility.yul\":1881:1930   */\n      tag_89\n        /* \"#utility.yul\":1923:1929   */\n      dup5\n        /* \"#utility.yul\":1881:1930   */\n      tag_43\n      jump\t// in\n    tag_89:\n        /* \"#utility.yul\":1865:1931   */\n      tag_42\n      jump\t// in\n    tag_88:\n        /* \"#utility.yul\":1856:1931   */\n      swap1\n      pop\n        /* \"#utility.yul\":1954:1960   */\n      dup3\n        /* \"#utility.yul\":1947:1952   */\n      dup2\n        /* \"#utility.yul\":1940:1961   */\n      mstore\n        /* \"#utility.yul\":1992:1996   */\n      0x20\n        /* \"#utility.yul\":1985:1990   */\n      dup2\n        /* \"#utility.yul\":1981:1997   */\n      add\n        /* \"#utility.yul\":2030:2033   */\n      dup5\n        /* \"#utility.yul\":2021:2027   */\n      dup5\n        /* \"#utility.yul\":2016:2019   */\n      dup5\n        /* \"#utility.yul\":2012:2028   */\n      add\n        /* \"#utility.yul\":2009:2034   */\n      gt\n        /* \"#utility.yul\":2006:2118   */\n      iszero\n      tag_90\n      jumpi\n        /* \"#utility.yul\":2037:2116   */\n      tag_91\n      tag_38\n      jump\t// in\n    tag_91:\n        /* \"#utility.yul\":2006:2118   */\n    tag_90:\n        /* \"#utility.yul\":2127:2181   */\n      tag_92\n        /* \"#utility.yul\":2174:2180   */\n      dup5\n        /* \"#utility.yul\":2169:2172   */\n      dup3\n        /* \"#utility.yul\":2164:2167   */\n      dup6\n        /* \"#utility.yul\":2127:2181   */\n      tag_44\n      jump\t// in\n    tag_92:\n        /* \"#utility.yul\":1846:2187   */\n      pop\n        /* \"#utility.yul\":1762:2187   */\n      swap4\n      swap3\n      pop\n      pop\n      pop\n      jump\t// out\n        /* \"#utility.yul\":2207:2547   */\n    tag_46:\n        /* \"#utility.yul\":2263:2268   */\n      0x00\n        /* \"#utility.yul\":2312:2315   */\n      dup3\n        /* \"#utility.yul\":2305:2309   */\n      0x1f\n        /* \"#utility.yul\":2297:2303   */\n      dup4\n        /* \"#utility.yul\":2293:2310   */\n      add\n        /* \"#utility.yul\":2289:2316   */\n      slt\n        /* \"#utility.yul\":2279:2401   */\n      tag_94\n      jumpi\n        /* \"#utility.yul\":2320:2399   */\n      tag_95\n      tag_37\n      jump\t// in\n    tag_95:\n        /* \"#utility.yul\":2279:2401   */\n    tag_94:\n        /* \"#utility.yul\":2437:2443   */\n      dup2\n        /* \"#utility.yul\":2424:2444   */\n      calldataload\n        /* \"#utility.yul\":2462:2541   */\n      tag_96\n        /* \"#utility.yul\":2537:2540   */\n      dup5\n        /* \"#utility.yul\":2529:2535   */\n      dup3\n        /* \"#utility.yul\":2522:2526   */\n      0x20\n        /* \"#utility.yul\":2514:2520   */\n      dup7\n        /* \"#utility.yul\":2510:2527   */\n      add\n        /* \"#utility.yul\":2462:2541   */\n      tag_45\n      jump\t// in\n    tag_96:\n        /* \"#utility.yul\":2453:2541   */\n      swap2\n      pop\n        /* \"#utility.yul\":2269:2547   */\n      pop\n        /* \"#utility.yul\":2207:2547   */\n      swap3\n      swap2\n      pop\n      pop\n      jump\t// out\n        /* \"#utility.yul\":2553:2630   */\n    tag_47:\n        /* \"#utility.yul\":2590:2597   */\n      0x00\n        /* \"#utility.yul\":2619:2624   */\n      dup2\n        /* \"#utility.yul\":2608:2624   */\n      swap1\n      pop\n        /* \"#utility.yul\":2553:2630   */\n      swap2\n      swap1\n      pop\n      jump\t// out\n        /* \"#utility.yul\":2636:2758   */\n    tag_48:\n        /* \"#utility.yul\":2709:2733   */\n      tag_99\n        /* \"#utility.yul\":2727:2732   */\n      dup2\n        /* \"#utility.yul\":2709:2733   */\n      tag_47\n      jump\t// in\n    tag_99:\n        /* \"#utility.yul\":2702:2707   */\n      dup2\n        /* \"#utility.yul\":2699:2734   */\n      eq\n        /* \"#utility.yul\":2689:2752   */\n      tag_100\n      jumpi\n        /* \"#utility.yul\":2748:2749   */\n      0x00\n        /* \"#utility.yul\":2745:2746   */\n      dup1\n        /* \"#utility.yul\":2738:2750   */\n      revert\n        /* \"#utility.yul\":2689:2752   */\n    tag_100:\n        /* \"#utility.yul\":2636:2758   */\n      pop\n      jump\t// out\n        /* \"#utility.yul\":2764:2903   */\n    tag_49:\n        /* \"#utility.yul\":2810:2815   */\n      0x00\n        /* \"#utility.yul\":2848:2854   */\n      dup2\n        /* \"#utility.yul\":2835:2855   */\n      calldataload\n        /* \"#utility.yul\":2826:2855   */\n      swap1\n      pop\n        /* \"#utility.yul\":2864:2897   */\n      tag_102\n        /* \"#utility.yul\":2891:2896   */\n      dup2\n        /* \"#utility.yul\":2864:2897   */\n      tag_48\n      jump\t// in\n    tag_102:\n        /* \"#utility.yul\":2764:2903   */\n      swap3\n      swap2\n      pop\n      pop\n      jump\t// out\n        /* \"#utility.yul\":2909:3888   */\n    tag_8:\n        /* \"#utility.yul\":3006:3012   */\n      0x00\n        /* \"#utility.yul\":3014:3020   */\n      dup1\n        /* \"#utility.yul\":3022:3028   */\n      0x00\n        /* \"#utility.yul\":3071:3073   */\n      0x60\n        /* \"#utility.yul\":3059:3068   */\n      dup5\n        /* \"#utility.yul\":3050:3057   */\n      dup7\n        /* \"#utility.yul\":3046:3069   */\n      sub\n        /* \"#utility.yul\":3042:3074   */\n      slt\n        /* \"#utility.yul\":3039:3158   */\n      iszero\n      tag_104\n      jumpi\n        /* \"#utility.yul\":3077:3156   */\n      tag_105\n      tag_35\n      jump\t// in\n    tag_105:\n        /* \"#utility.yul\":3039:3158   */\n    tag_104:\n        /* \"#utility.yul\":3225:3226   */\n      0x00\n        /* \"#utility.yul\":3214:3223   */\n      dup5\n        /* \"#utility.yul\":3210:3227   */\n      add\n        /* \"#utility.yul\":3197:3228   */\n      calldataload\n        /* \"#utility.yul\":3255:3273   */\n      0xffffffffffffffff\n        /* \"#utility.yul\":3247:3253   */\n      dup2\n        /* \"#utility.yul\":3244:3274   */\n      gt\n        /* \"#utility.yul\":3241:3358   */\n      iszero\n      tag_106\n      jumpi\n        /* \"#utility.yul\":3277:3356   */\n      tag_107\n      tag_36\n      jump\t// in\n    tag_107:\n        /* \"#utility.yul\":3241:3358   */\n    tag_106:\n        /* \"#utility.yul\":3382:3445   */\n      tag_108\n        /* \"#utility.yul\":3437:3444   */\n      dup7\n        /* \"#utility.yul\":3428:3434   */\n      dup3\n        /* \"#utility.yul\":3417:3426   */\n      dup8\n        /* \"#utility.yul\":3413:3435   */\n      add\n        /* \"#utility.yul\":3382:3445   */\n      tag_46\n      jump\t// in\n    tag_108:\n        /* \"#utility.yul\":3372:3445   */\n      swap4\n      pop\n        /* \"#utility.yul\":3168:3455   */\n      pop\n        /* \"#utility.yul\":3522:3524   */\n      0x20\n        /* \"#utility.yul\":3511:3520   */\n      dup5\n        /* \"#utility.yul\":3507:3525   */\n      add\n        /* \"#utility.yul\":3494:3526   */\n      calldataload\n        /* \"#utility.yul\":3553:3571   */\n      0xffffffffffffffff\n        /* \"#utility.yul\":3545:3551   */\n      dup2\n        /* \"#utility.yul\":3542:3572   */\n      gt\n        /* \"#utility.yul\":3539:3656   */\n      iszero\n      tag_109\n      jumpi\n        /* \"#utility.yul\":3575:3654   */\n      tag_110\n      tag_36\n      jump\t// in\n    tag_110:\n        /* \"#utility.yul\":3539:3656   */\n    tag_109:\n        /* \"#utility.yul\":3680:3743   */\n      tag_111\n        /* \"#utility.yul\":3735:3742   */\n      dup7\n        /* \"#utility.yul\":3726:3732   */\n      dup3\n        /* \"#utility.yul\":3715:3724   */\n      dup8\n        /* \"#utility.yul\":3711:3733   */\n      add\n        /* \"#utility.yul\":3680:3743   */\n      tag_46\n      jump\t// in\n    tag_111:\n        /* \"#utility.yul\":3670:3743   */\n      swap3\n      pop\n        /* \"#utility.yul\":3465:3753   */\n      pop\n        /* \"#utility.yul\":3792:3794   */\n      0x40\n        /* \"#utility.yul\":3818:3871   */\n      tag_112\n        /* \"#utility.yul\":3863:3870   */\n      dup7\n        /* \"#utility.yul\":3854:3860   */\n      dup3\n        /* \"#utility.yul\":3843:3852   */\n      dup8\n        /* \"#utility.yul\":3839:3861   */\n      add\n        /* \"#utility.yul\":3818:3871   */\n      tag_49\n      jump\t// in\n    tag_112:\n        /* \"#utility.yul\":3808:3871   */\n      swap2\n      pop\n        /* \"#utility.yul\":3763:3881   */\n      pop\n        /* \"#utility.yul\":2909:3888   */\n      swap3\n      pop\n      swap3\n      pop\n      swap3\n      jump\t// out\n        /* \"#utility.yul\":3894:4020   */\n    tag_50:\n        /* \"#utility.yul\":3931:3938   */\n      0x00\n        /* \"#utility.yul\":3971:4013   */\n      0xffffffffffffffffffffffffffffffffffffffff\n        /* \"#utility.yul\":3964:3969   */\n      dup3\n        /* \"#utility.yul\":3960:4014   */\n      and\n        /* \"#utility.yul\":3949:4014   */\n      swap1\n      pop\n        /* \"#utility.yul\":3894:4020   */\n      swap2\n      swap1\n      pop\n      jump\t// out\n        /* \"#utility.yul\":4026:4122   */\n    tag_51:\n        /* \"#utility.yul\":4063:4070   */\n      0x00\n        /* \"#utility.yul\":4092:4116   */\n      tag_115\n        /* \"#utility.yul\":4110:4115   */\n      dup3\n        /* \"#utility.yul\":4092:4116   */\n      tag_50\n      jump\t// in\n    tag_115:\n        /* \"#utility.yul\":4081:4116   */\n      swap1\n      pop\n        /* \"#utility.yul\":4026:4122   */\n      swap2\n      swap1\n      pop\n      jump\t// out\n        /* \"#utility.yul\":4128:4246   */\n    tag_52:\n        /* \"#utility.yul\":4215:4239   */\n      tag_117\n        /* \"#utility.yul\":4233:4238   */\n      dup2\n        /* \"#utility.yul\":4215:4239   */\n      tag_51\n      jump\t// in\n    tag_117:\n        /* \"#utility.yul\":4210:4213   */\n      dup3\n        /* \"#utility.yul\":4203:4240   */\n      mstore\n        /* \"#utility.yul\":4128:4246   */\n      pop\n      pop\n      jump\t// out\n        /* \"#utility.yul\":4252:4474   */\n    tag_11:\n        /* \"#utility.yul\":4345:4349   */\n      0x00\n        /* \"#utility.yul\":4383:4385   */\n      0x20\n        /* \"#utility.yul\":4372:4381   */\n      dup3\n        /* \"#utility.yul\":4368:4386   */\n      add\n        /* \"#utility.yul\":4360:4386   */\n      swap1\n      pop\n        /* \"#utility.yul\":4396:4467   */\n      tag_119\n        /* \"#utility.yul\":4464:4465   */\n      0x00\n        /* \"#utility.yul\":4453:4462   */\n      dup4\n        /* \"#utility.yul\":4449:4466   */\n      add\n        /* \"#utility.yul\":4440:4446   */\n      dup5\n        /* \"#utility.yul\":4396:4467   */\n      tag_52\n      jump\t// in\n    tag_119:\n        /* \"#utility.yul\":4252:4474   */\n      swap3\n      swap2\n      pop\n      pop\n      jump\t// out\n        /* \"#utility.yul\":4480:4602   */\n    tag_53:\n        /* \"#utility.yul\":4555:4561   */\n      0x00\n        /* \"#utility.yul\":4589:4594   */\n      dup2\n        /* \"#utility.yul\":4583:4595   */\n      mload\n        /* \"#utility.yul\":4573:4595   */\n      swap1\n      pop\n        /* \"#utility.yul\":4480:4602   */\n      swap2\n      swap1\n      pop\n      jump\t// out\n        /* \"#utility.yul\":4608:4800   */\n    tag_54:\n        /* \"#utility.yul\":4715:4726   */\n      0x00\n        /* \"#utility.yul\":4749:4755   */\n      dup3\n        /* \"#utility.yul\":4744:4747   */\n      dup3\n        /* \"#utility.yul\":4737:4756   */\n      mstore\n        /* \"#utility.yul\":4789:4793   */\n      0x20\n        /* \"#utility.yul\":4784:4787   */\n      dup3\n        /* \"#utility.yul\":4780:4794   */\n      add\n        /* \"#utility.yul\":4765:4794   */\n      swap1\n      pop\n        /* \"#utility.yul\":4608:4800   */\n      swap3\n      swap2\n      pop\n      pop\n      jump\t// out\n        /* \"#utility.yul\":4806:4946   */\n    tag_55:\n        /* \"#utility.yul\":4881:4885   */\n      0x00\n        /* \"#utility.yul\":4904:4907   */\n      dup2\n        /* \"#utility.yul\":4896:4907   */\n      swap1\n      pop\n        /* \"#utility.yul\":4934:4938   */\n      0x20\n        /* \"#utility.yul\":4929:4932   */\n      dup3\n        /* \"#utility.yul\":4925:4939   */\n      add\n        /* \"#utility.yul\":4917:4939   */\n      swap1\n      pop\n        /* \"#utility.yul\":4806:4946   */\n      swap2\n      swap1\n      pop\n      jump\t// out\n        /* \"#utility.yul\":4952:5056   */\n    tag_56:\n        /* \"#utility.yul\":4997:5004   */\n      0x00\n        /* \"#utility.yul\":5026:5050   */\n      tag_124\n        /* \"#utility.yul\":5044:5049   */\n      dup3\n        /* \"#utility.yul\":5026:5050   */\n      tag_50\n      jump\t// in\n    tag_124:\n        /* \"#utility.yul\":5015:5050   */\n      swap1\n      pop\n        /* \"#utility.yul\":4952:5056   */\n      swap2\n      swap1\n      pop\n      jump\t// out\n        /* \"#utility.yul\":5062:5194   */\n    tag_57:\n        /* \"#utility.yul\":5155:5187   */\n      tag_126\n        /* \"#utility.yul\":5181:5186   */\n      dup2\n        /* \"#utility.yul\":5155:5187   */\n      tag_56\n      jump\t// in\n    tag_126:\n        /* \"#utility.yul\":5150:5153   */\n      dup3\n        /* \"#utility.yul\":5143:5188   */\n      mstore\n        /* \"#utility.yul\":5062:5194   */\n      pop\n      pop\n      jump\t// out\n        /* \"#utility.yul\":5200:5411   */\n    tag_58:\n        /* \"#utility.yul\":5285:5295   */\n      0x00\n        /* \"#utility.yul\":5306:5368   */\n      tag_128\n        /* \"#utility.yul\":5364:5367   */\n      dup4\n        /* \"#utility.yul\":5356:5362   */\n      dup4\n        /* \"#utility.yul\":5306:5368   */\n      tag_57\n      jump\t// in\n    tag_128:\n        /* \"#utility.yul\":5400:5404   */\n      0x20\n        /* \"#utility.yul\":5395:5398   */\n      dup4\n        /* \"#utility.yul\":5391:5405   */\n      add\n        /* \"#utility.yul\":5377:5405   */\n      swap1\n      pop\n        /* \"#utility.yul\":5200:5411   */\n      swap3\n      swap2\n      pop\n      pop\n      jump\t// out\n        /* \"#utility.yul\":5417:5538   */\n    tag_59:\n        /* \"#utility.yul\":5495:5499   */\n      0x00\n        /* \"#utility.yul\":5527:5531   */\n      0x20\n        /* \"#utility.yul\":5522:5525   */\n      dup3\n        /* \"#utility.yul\":5518:5532   */\n      add\n        /* \"#utility.yul\":5510:5532   */\n      swap1\n      pop\n        /* \"#utility.yul\":5417:5538   */\n      swap2\n      swap1\n      pop\n      jump\t// out\n        /* \"#utility.yul\":5590:6386   */\n    tag_60:\n        /* \"#utility.yul\":5725:5728   */\n      0x00\n        /* \"#utility.yul\":5754:5816   */\n      tag_131\n        /* \"#utility.yul\":5810:5815   */\n      dup3\n        /* \"#utility.yul\":5754:5816   */\n      tag_53\n      jump\t// in\n    tag_131:\n        /* \"#utility.yul\":5832:5926   */\n      tag_132\n        /* \"#utility.yul\":5919:5925   */\n      dup2\n        /* \"#utility.yul\":5914:5917   */\n      dup6\n        /* \"#utility.yul\":5832:5926   */\n      tag_54\n      jump\t// in\n    tag_132:\n        /* \"#utility.yul\":5825:5926   */\n      swap4\n      pop\n        /* \"#utility.yul\":5950:6014   */\n      tag_133\n        /* \"#utility.yul\":6008:6013   */\n      dup4\n        /* \"#utility.yul\":5950:6014   */\n      tag_55\n      jump\t// in\n    tag_133:\n        /* \"#utility.yul\":6037:6044   */\n      dup1\n        /* \"#utility.yul\":6068:6069   */\n      0x00\n        /* \"#utility.yul\":6053:6361   */\n    tag_134:\n        /* \"#utility.yul\":6078:6084   */\n      dup4\n        /* \"#utility.yul\":6075:6076   */\n      dup2\n        /* \"#utility.yul\":6072:6085   */\n      lt\n        /* \"#utility.yul\":6053:6361   */\n      iszero\n      tag_136\n      jumpi\n        /* \"#utility.yul\":6154:6160   */\n      dup2\n        /* \"#utility.yul\":6148:6161   */\n      mload\n        /* \"#utility.yul\":6181:6260   */\n      tag_137\n        /* \"#utility.yul\":6256:6259   */\n      dup9\n        /* \"#utility.yul\":6241:6254   */\n      dup3\n        /* \"#utility.yul\":6181:6260   */\n      tag_58\n      jump\t// in\n    tag_137:\n        /* \"#utility.yul\":6174:6260   */\n      swap8\n      pop\n        /* \"#utility.yul\":6283:6351   */\n      tag_138\n        /* \"#utility.yul\":6344:6350   */\n      dup4\n        /* \"#utility.yul\":6283:6351   */\n      tag_59\n      jump\t// in\n    tag_138:\n        /* \"#utility.yul\":6273:6351   */\n      swap3\n      pop\n        /* \"#utility.yul\":6113:6361   */\n      pop\n        /* \"#utility.yul\":6100:6101   */\n      0x01\n        /* \"#utility.yul\":6097:6098   */\n      dup2\n        /* \"#utility.yul\":6093:6102   */\n      add\n        /* \"#utility.yul\":6088:6102   */\n      swap1\n      pop\n        /* \"#utility.yul\":6053:6361   */\n      jump(tag_134)\n    tag_136:\n        /* \"#utility.yul\":6057:6071   */\n      pop\n        /* \"#utility.yul\":6377:6380   */\n      dup6\n        /* \"#utility.yul\":6370:6380   */\n      swap4\n      pop\n        /* \"#utility.yul\":5730:6386   */\n      pop\n      pop\n      pop\n        /* \"#utility.yul\":5590:6386   */\n      swap3\n      swap2\n      pop\n      pop\n      jump\t// out\n        /* \"#utility.yul\":6392:6797   */\n    tag_15:\n        /* \"#utility.yul\":6551:6555   */\n      0x00\n        /* \"#utility.yul\":6589:6591   */\n      0x20\n        /* \"#utility.yul\":6578:6587   */\n      dup3\n        /* \"#utility.yul\":6574:6592   */\n      add\n        /* \"#utility.yul\":6566:6592   */\n      swap1\n      pop\n        /* \"#utility.yul\":6638:6647   */\n      dup2\n        /* \"#utility.yul\":6632:6636   */\n      dup2\n        /* \"#utility.yul\":6628:6648   */\n      sub\n        /* \"#utility.yul\":6624:6625   */\n      0x00\n        /* \"#utility.yul\":6613:6622   */\n      dup4\n        /* \"#utility.yul\":6609:6626   */\n      add\n        /* \"#utility.yul\":6602:6649   */\n      mstore\n        /* \"#utility.yul\":6666:6790   */\n      tag_140\n        /* \"#utility.yul\":6785:6789   */\n      dup2\n        /* \"#utility.yul\":6776:6782   */\n      dup5\n        /* \"#utility.yul\":6666:6790   */\n      tag_60\n      jump\t// in\n    tag_140:\n        /* \"#utility.yul\":6658:6790   */\n      swap1\n      pop\n        /* \"#utility.yul\":6392:6797   */\n      swap3\n      swap2\n      pop\n      pop\n      jump\t// out\n        /* \"#utility.yul\":6803:7132   */\n    tag_18:\n        /* \"#utility.yul\":6862:6868   */\n      0x00\n        /* \"#utility.yul\":6911:6913   */\n      0x20\n        /* \"#utility.yul\":6899:6908   */\n      dup3\n        /* \"#utility.yul\":6890:6897   */\n      dup5\n        /* \"#utility.yul\":6886:6909   */\n      sub\n        /* \"#utility.yul\":6882:6914   */\n      slt\n        /* \"#utility.yul\":6879:6998   */\n      iszero\n      tag_142\n      jumpi\n        /* \"#utility.yul\":6917:6996   */\n      tag_143\n      tag_35\n      jump\t// in\n    tag_143:\n        /* \"#utility.yul\":6879:6998   */\n    tag_142:\n        /* \"#utility.yul\":7037:7038   */\n      0x00\n        /* \"#utility.yul\":7062:7115   */\n      tag_144\n        /* \"#utility.yul\":7107:7114   */\n      dup5\n        /* \"#utility.yul\":7098:7104   */\n      dup3\n        /* \"#utility.yul\":7087:7096   */\n      dup6\n        /* \"#utility.yul\":7083:7105   */\n      add\n        /* \"#utility.yul\":7062:7115   */\n      tag_49\n      jump\t// in\n    tag_144:\n        /* \"#utility.yul\":7052:7115   */\n      swap2\n      pop\n        /* \"#utility.yul\":7008:7125   */\n      pop\n        /* \"#utility.yul\":6803:7132   */\n      swap3\n      swap2\n      pop\n      pop\n      jump\t// out\n        /* \"#utility.yul\":7138:7280   */\n    tag_61:\n        /* \"#utility.yul\":7241:7273   */\n      tag_146\n        /* \"#utility.yul\":7267:7272   */\n      dup2\n        /* \"#utility.yul\":7241:7273   */\n      tag_56\n      jump\t// in\n    tag_146:\n        /* \"#utility.yul\":7236:7239   */\n      dup3\n        /* \"#utility.yul\":7229:7274   */\n      mstore\n        /* \"#utility.yul\":7138:7280   */\n      pop\n      pop\n      jump\t// out\n        /* \"#utility.yul\":7286:7540   */\n    tag_21:\n        /* \"#utility.yul\":7395:7399   */\n      0x00\n        /* \"#utility.yul\":7433:7435   */\n      0x20\n        /* \"#utility.yul\":7422:7431   */\n      dup3\n        /* \"#utility.yul\":7418:7436   */\n      add\n        /* \"#utility.yul\":7410:7436   */\n      swap1\n      pop\n        /* \"#utility.yul\":7446:7533   */\n      tag_148\n        /* \"#utility.yul\":7530:7531   */\n      0x00\n        /* \"#utility.yul\":7519:7528   */\n      dup4\n        /* \"#utility.yul\":7515:7532   */\n      add\n        /* \"#utility.yul\":7506:7512   */\n      dup5\n        /* \"#utility.yul\":7446:7533   */\n      tag_61\n      jump\t// in\n    tag_148:\n        /* \"#utility.yul\":7286:7540   */\n      swap3\n      swap2\n      pop\n      pop\n      jump\t// out\n        /* \"#utility.yul\":7546:7645   */\n    tag_62:\n        /* \"#utility.yul\":7598:7604   */\n      0x00\n        /* \"#utility.yul\":7632:7637   */\n      dup2\n        /* \"#utility.yul\":7626:7638   */\n      mload\n        /* \"#utility.yul\":7616:7638   */\n      swap1\n      pop\n        /* \"#utility.yul\":7546:7645   */\n      swap2\n      swap1\n      pop\n      jump\t// out\n        /* \"#utility.yul\":7651:7820   */\n    tag_63:\n        /* \"#utility.yul\":7735:7746   */\n      0x00\n        /* \"#utility.yul\":7769:7775   */\n      dup3\n        /* \"#utility.yul\":7764:7767   */\n      dup3\n        /* \"#utility.yul\":7757:7776   */\n      mstore\n        /* \"#utility.yul\":7809:7813   */\n      0x20\n        /* \"#utility.yul\":7804:7807   */\n      dup3\n        /* \"#utility.yul\":7800:7814   */\n      add\n        /* \"#utility.yul\":7785:7814   */\n      swap1\n      pop\n        /* \"#utility.yul\":7651:7820   */\n      swap3\n      swap2\n      pop\n      pop\n      jump\t// out\n        /* \"#utility.yul\":7826:8072   */\n    tag_64:\n        /* \"#utility.yul\":7907:7908   */\n      0x00\n        /* \"#utility.yul\":7917:8030   */\n    tag_152:\n        /* \"#utility.yul\":7931:7937   */\n      dup4\n        /* \"#utility.yul\":7928:7929   */\n      dup2\n        /* \"#utility.yul\":7925:7938   */\n      lt\n        /* \"#utility.yul\":7917:8030   */\n      iszero\n      tag_154\n      jumpi\n        /* \"#utility.yul\":8016:8017   */\n      dup1\n        /* \"#utility.yul\":8011:8014   */\n      dup3\n        /* \"#utility.yul\":8007:8018   */\n      add\n        /* \"#utility.yul\":8001:8019   */\n      mload\n        /* \"#utility.yul\":7997:7998   */\n      dup2\n        /* \"#utility.yul\":7992:7995   */\n      dup5\n        /* \"#utility.yul\":7988:7999   */\n      add\n        /* \"#utility.yul\":7981:8020   */\n      mstore\n        /* \"#utility.yul\":7953:7955   */\n      0x20\n        /* \"#utility.yul\":7950:7951   */\n      dup2\n        /* \"#utility.yul\":7946:7956   */\n      add\n        /* \"#utility.yul\":7941:7956   */\n      swap1\n      pop\n        /* \"#utility.yul\":7917:8030   */\n      jump(tag_152)\n    tag_154:\n        /* \"#utility.yul\":8064:8065   */\n      0x00\n        /* \"#utility.yul\":8055:8061   */\n      dup5\n        /* \"#utility.yul\":8050:8053   */\n      dup5\n        /* \"#utility.yul\":8046:8062   */\n      add\n        /* \"#utility.yul\":8039:8066   */\n      mstore\n        /* \"#utility.yul\":7888:8072   */\n      pop\n        /* \"#utility.yul\":7826:8072   */\n      pop\n      pop\n      pop\n      jump\t// out\n        /* \"#utility.yul\":8078:8455   */\n    tag_65:\n        /* \"#utility.yul\":8166:8169   */\n      0x00\n        /* \"#utility.yul\":8194:8233   */\n      tag_156\n        /* \"#utility.yul\":8227:8232   */\n      dup3\n        /* \"#utility.yul\":8194:8233   */\n      tag_62\n      jump\t// in\n    tag_156:\n        /* \"#utility.yul\":8249:8320   */\n      tag_157\n        /* \"#utility.yul\":8313:8319   */\n      dup2\n        /* \"#utility.yul\":8308:8311   */\n      dup6\n        /* \"#utility.yul\":8249:8320   */\n      tag_63\n      jump\t// in\n    tag_157:\n        /* \"#utility.yul\":8242:8320   */\n      swap4\n      pop\n        /* \"#utility.yul\":8329:8394   */\n      tag_158\n        /* \"#utility.yul\":8387:8393   */\n      dup2\n        /* \"#utility.yul\":8382:8385   */\n      dup6\n        /* \"#utility.yul\":8375:8379   */\n      0x20\n        /* \"#utility.yul\":8368:8373   */\n      dup7\n        /* \"#utility.yul\":8364:8380   */\n      add\n        /* \"#utility.yul\":8329:8394   */\n      tag_64\n      jump\t// in\n    tag_158:\n        /* \"#utility.yul\":8419:8448   */\n      tag_159\n        /* \"#utility.yul\":8441:8447   */\n      dup2\n        /* \"#utility.yul\":8419:8448   */\n      tag_39\n      jump\t// in\n    tag_159:\n        /* \"#utility.yul\":8414:8417   */\n      dup5\n        /* \"#utility.yul\":8410:8449   */\n      add\n        /* \"#utility.yul\":8403:8449   */\n      swap2\n      pop\n        /* \"#utility.yul\":8170:8455   */\n      pop\n        /* \"#utility.yul\":8078:8455   */\n      swap3\n      swap2\n      pop\n      pop\n      jump\t// out\n        /* \"#utility.yul\":8461:8579   */\n    tag_66:\n        /* \"#utility.yul\":8548:8572   */\n      tag_161\n        /* \"#utility.yul\":8566:8571   */\n      dup2\n        /* \"#utility.yul\":8548:8572   */\n      tag_47\n      jump\t// in\n    tag_161:\n        /* \"#utility.yul\":8543:8546   */\n      dup3\n        /* \"#utility.yul\":8536:8573   */\n      mstore\n        /* \"#utility.yul\":8461:8579   */\n      pop\n      pop\n      jump\t// out\n        /* \"#utility.yul\":8585:9209   */\n    tag_26:\n        /* \"#utility.yul\":8774:8778   */\n      0x00\n        /* \"#utility.yul\":8812:8814   */\n      0x60\n        /* \"#utility.yul\":8801:8810   */\n      dup3\n        /* \"#utility.yul\":8797:8815   */\n      add\n        /* \"#utility.yul\":8789:8815   */\n      swap1\n      pop\n        /* \"#utility.yul\":8861:8870   */\n      dup2\n        /* \"#utility.yul\":8855:8859   */\n      dup2\n        /* \"#utility.yul\":8851:8871   */\n      sub\n        /* \"#utility.yul\":8847:8848   */\n      0x00\n        /* \"#utility.yul\":8836:8845   */\n      dup4\n        /* \"#utility.yul\":8832:8849   */\n      add\n        /* \"#utility.yul\":8825:8872   */\n      mstore\n        /* \"#utility.yul\":8889:8967   */\n      tag_163\n        /* \"#utility.yul\":8962:8966   */\n      dup2\n        /* \"#utility.yul\":8953:8959   */\n      dup7\n        /* \"#utility.yul\":8889:8967   */\n      tag_65\n      jump\t// in\n    tag_163:\n        /* \"#utility.yul\":8881:8967   */\n      swap1\n      pop\n        /* \"#utility.yul\":9014:9023   */\n      dup2\n        /* \"#utility.yul\":9008:9012   */\n      dup2\n        /* \"#utility.yul\":9004:9024   */\n      sub\n        /* \"#utility.yul\":8999:9001   */\n      0x20\n        /* \"#utility.yul\":8988:8997   */\n      dup4\n        /* \"#utility.yul\":8984:9002   */\n      add\n        /* \"#utility.yul\":8977:9025   */\n      mstore\n        /* \"#utility.yul\":9042:9120   */\n      tag_164\n        /* \"#utility.yul\":9115:9119   */\n      dup2\n        /* \"#utility.yul\":9106:9112   */\n      dup6\n        /* \"#utility.yul\":9042:9120   */\n      tag_65\n      jump\t// in\n    tag_164:\n        /* \"#utility.yul\":9034:9120   */\n      swap1\n      pop\n        /* \"#utility.yul\":9130:9202   */\n      tag_165\n        /* \"#utility.yul\":9198:9200   */\n      0x40\n        /* \"#utility.yul\":9187:9196   */\n      dup4\n        /* \"#utility.yul\":9183:9201   */\n      add\n        /* \"#utility.yul\":9174:9180   */\n      dup5\n        /* \"#utility.yul\":9130:9202   */\n      tag_66\n      jump\t// in\n    tag_165:\n        /* \"#utility.yul\":8585:9209   */\n      swap5\n      swap4\n      pop\n      pop\n      pop\n      pop\n      jump\t// out\n    stop\n\n    sub_0: assembly {\n            /* \"hmsb.sol\":530:2211  contract Patient {... */\n          mstore(0x40, 0x80)\n            /* \"hmsb.sol\":634:798  constructor(string memory _username, string memory _gender, uint _phone) {... */\n          callvalue\n          dup1\n          iszero\n          tag_1\n          jumpi\n          0x00\n          dup1\n          revert\n        tag_1:\n          pop\n          mload(0x40)\n          sub(codesize, bytecodeSize)\n          dup1\n          bytecodeSize\n          dup4\n          codecopy\n          dup2\n          dup2\n          add\n          0x40\n          mstore\n          dup2\n          add\n          swap1\n          tag_2\n          swap2\n          swap1\n          tag_3\n          jump\t// in\n        tag_2:\n            /* \"hmsb.sol\":729:738  _username */\n          dup3\n            /* \"hmsb.sol\":718:726  username */\n          0x00\n            /* \"hmsb.sol\":718:738  username = _username */\n          swap1\n          dup2\n          tag_6\n          swap2\n          swap1\n          tag_7\n          jump\t// in\n        tag_6:\n          pop\n            /* \"hmsb.sol\":758:765  _gender */\n          dup2\n            /* \"hmsb.sol\":749:755  gender */\n          0x01\n            /* \"hmsb.sol\":749:765  gender = _gender */\n          swap1\n          dup2\n          tag_8\n          swap2\n          swap1\n          tag_7\n          jump\t// in\n        tag_8:\n          pop\n            /* \"hmsb.sol\":784:790  _phone */\n          dup1\n            /* \"hmsb.sol\":776:781  phone */\n          0x02\n            /* \"hmsb.sol\":776:790  phone = _phone */\n          dup2\n          swap1\n          sstore\n          pop\n            /* \"hmsb.sol\":634:798  constructor(string memory _username, string memory _gender, uint _phone) {... */\n          pop\n          pop\n          pop\n            /* \"hmsb.sol\":530:2211  contract Patient {... */\n          jump(tag_9)\n            /* \"#utility.yul\":7:82   */\n        tag_10:\n            /* \"#utility.yul\":40:46   */\n          0x00\n            /* \"#utility.yul\":73:75   */\n          0x40\n            /* \"#utility.yul\":67:76   */\n          mload\n            /* \"#utility.yul\":57:76   */\n          swap1\n          pop\n            /* \"#utility.yul\":7:82   */\n          swap1\n          jump\t// out\n            /* \"#utility.yul\":88:205   */\n        tag_11:\n            /* \"#utility.yul\":197:198   */\n          0x00\n            /* \"#utility.yul\":194:195   */\n          dup1\n            /* \"#utility.yul\":187:199   */\n          revert\n            /* \"#utility.yul\":211:328   */\n        tag_12:\n            /* \"#utility.yul\":320:321   */\n          0x00\n            /* \"#utility.yul\":317:318   */\n          dup1\n            /* \"#utility.yul\":310:322   */\n          revert\n            /* \"#utility.yul\":334:451   */\n        tag_13:\n            /* \"#utility.yul\":443:444   */\n          0x00\n            /* \"#utility.yul\":440:441   */\n          dup1\n            /* \"#utility.yul\":433:445   */\n          revert\n            /* \"#utility.yul\":457:574   */\n        tag_14:\n            /* \"#utility.yul\":566:567   */\n          0x00\n            /* \"#utility.yul\":563:564   */\n          dup1\n            /* \"#utility.yul\":556:568   */\n          revert\n            /* \"#utility.yul\":580:682   */\n        tag_15:\n            /* \"#utility.yul\":621:627   */\n          0x00\n            /* \"#utility.yul\":672:674   */\n          0x1f\n            /* \"#utility.yul\":668:675   */\n          not\n            /* \"#utility.yul\":663:665   */\n          0x1f\n            /* \"#utility.yul\":656:661   */\n          dup4\n            /* \"#utility.yul\":652:666   */\n          add\n            /* \"#utility.yul\":648:676   */\n          and\n            /* \"#utility.yul\":638:676   */\n          swap1\n          pop\n            /* \"#utility.yul\":580:682   */\n          swap2\n          swap1\n          pop\n          jump\t// out\n            /* \"#utility.yul\":688:868   */\n        tag_16:\n            /* \"#utility.yul\":736:813   */\n          0x4e487b7100000000000000000000000000000000000000000000000000000000\n            /* \"#utility.yul\":733:734   */\n          0x00\n            /* \"#utility.yul\":726:814   */\n          mstore\n            /* \"#utility.yul\":833:837   */\n          0x41\n            /* \"#utility.yul\":830:831   */\n          0x04\n            /* \"#utility.yul\":823:838   */\n          mstore\n            /* \"#utility.yul\":857:861   */\n          0x24\n            /* \"#utility.yul\":854:855   */\n          0x00\n            /* \"#utility.yul\":847:862   */\n          revert\n            /* \"#utility.yul\":874:1155   */\n        tag_17:\n            /* \"#utility.yul\":957:984   */\n          tag_53\n            /* \"#utility.yul\":979:983   */\n          dup3\n            /* \"#utility.yul\":957:984   */\n          tag_15\n          jump\t// in\n        tag_53:\n            /* \"#utility.yul\":949:955   */\n          dup2\n            /* \"#utility.yul\":945:985   */\n          add\n            /* \"#utility.yul\":1087:1093   */\n          dup2\n            /* \"#utility.yul\":1075:1085   */\n          dup2\n            /* \"#utility.yul\":1072:1094   */\n          lt\n            /* \"#utility.yul\":1051:1069   */\n          0xffffffffffffffff\n            /* \"#utility.yul\":1039:1049   */\n          dup3\n            /* \"#utility.yul\":1036:1070   */\n          gt\n            /* \"#utility.yul\":1033:1095   */\n          or\n            /* \"#utility.yul\":1030:1118   */\n          iszero\n          tag_54\n          jumpi\n            /* \"#utility.yul\":1098:1116   */\n          tag_55\n          tag_16\n          jump\t// in\n        tag_55:\n            /* \"#utility.yul\":1030:1118   */\n        tag_54:\n            /* \"#utility.yul\":1138:1148   */\n          dup1\n            /* \"#utility.yul\":1134:1136   */\n          0x40\n            /* \"#utility.yul\":1127:1149   */\n          mstore\n            /* \"#utility.yul\":917:1155   */\n          pop\n            /* \"#utility.yul\":874:1155   */\n          pop\n          pop\n          jump\t// out\n            /* \"#utility.yul\":1161:1290   */\n        tag_18:\n            /* \"#utility.yul\":1195:1201   */\n          0x00\n            /* \"#utility.yul\":1222:1242   */\n          tag_57\n          tag_10\n          jump\t// in\n        tag_57:\n            /* \"#utility.yul\":1212:1242   */\n          swap1\n          pop\n            /* \"#utility.yul\":1251:1284   */\n          tag_58\n            /* \"#utility.yul\":1279:1283   */\n          dup3\n            /* \"#utility.yul\":1271:1277   */\n          dup3\n            /* \"#utility.yul\":1251:1284   */\n          tag_17\n          jump\t// in\n        tag_58:\n            /* \"#utility.yul\":1161:1290   */\n          swap2\n          swap1\n          pop\n          jump\t// out\n            /* \"#utility.yul\":1296:1604   */\n        tag_19:\n            /* \"#utility.yul\":1358:1362   */\n          0x00\n            /* \"#utility.yul\":1448:1466   */\n          0xffffffffffffffff\n            /* \"#utility.yul\":1440:1446   */\n          dup3\n            /* \"#utility.yul\":1437:1467   */\n          gt\n            /* \"#utility.yul\":1434:1490   */\n          iszero\n          tag_60\n          jumpi\n            /* \"#utility.yul\":1470:1488   */\n          tag_61\n          tag_16\n          jump\t// in\n        tag_61:\n            /* \"#utility.yul\":1434:1490   */\n        tag_60:\n            /* \"#utility.yul\":1508:1537   */\n          tag_62\n            /* \"#utility.yul\":1530:1536   */\n          dup3\n            /* \"#utility.yul\":1508:1537   */\n          tag_15\n          jump\t// in\n        tag_62:\n            /* \"#utility.yul\":1500:1537   */\n          swap1\n          pop\n            /* \"#utility.yul\":1592:1596   */\n          0x20\n            /* \"#utility.yul\":1586:1590   */\n          dup2\n            /* \"#utility.yul\":1582:1597   */\n          add\n            /* \"#utility.yul\":1574:1597   */\n          swap1\n          pop\n            /* \"#utility.yul\":1296:1604   */\n          swap2\n          swap1\n          pop\n          jump\t// out\n            /* \"#utility.yul\":1610:1856   */\n        tag_20:\n            /* \"#utility.yul\":1691:1692   */\n          0x00\n            /* \"#utility.yul\":1701:1814   */\n        tag_64:\n            /* \"#utility.yul\":1715:1721   */\n          dup4\n            /* \"#utility.yul\":1712:1713   */\n          dup2\n            /* \"#utility.yul\":1709:1722   */\n          lt\n            /* \"#utility.yul\":1701:1814   */\n          iszero\n          tag_66\n          jumpi\n            /* \"#utility.yul\":1800:1801   */\n          dup1\n            /* \"#utility.yul\":1795:1798   */\n          dup3\n            /* \"#utility.yul\":1791:1802   */\n          add\n            /* \"#utility.yul\":1785:1803   */\n          mload\n            /* \"#utility.yul\":1781:1782   */\n          dup2\n            /* \"#utility.yul\":1776:1779   */\n          dup5\n            /* \"#utility.yul\":1772:1783   */\n          add\n            /* \"#utility.yul\":1765:1804   */\n          mstore\n            /* \"#utility.yul\":1737:1739   */\n          0x20\n            /* \"#utility.yul\":1734:1735   */\n          dup2\n            /* \"#utility.yul\":1730:1740   */\n          add\n            /* \"#utility.yul\":1725:1740   */\n          swap1\n          pop\n            /* \"#utility.yul\":1701:1814   */\n          jump(tag_64)\n        tag_66:\n            /* \"#utility.yul\":1848:1849   */\n          0x00\n            /* \"#utility.yul\":1839:1845   */\n          dup5\n            /* \"#utility.yul\":1834:1837   */\n          dup5\n            /* \"#utility.yul\":1830:1846   */\n          add\n            /* \"#utility.yul\":1823:1850   */\n          mstore\n            /* \"#utility.yul\":1672:1856   */\n          pop\n            /* \"#utility.yul\":1610:1856   */\n          pop\n          pop\n          pop\n          jump\t// out\n            /* \"#utility.yul\":1862:2296   */\n        tag_21:\n            /* \"#utility.yul\":1951:1956   */\n          0x00\n            /* \"#utility.yul\":1976:2042   */\n          tag_68\n            /* \"#utility.yul\":1992:2041   */\n          tag_69\n            /* \"#utility.yul\":2034:2040   */\n          dup5\n            /* \"#utility.yul\":1992:2041   */\n          tag_19\n          jump\t// in\n        tag_69:\n            /* \"#utility.yul\":1976:2042   */\n          tag_18\n          jump\t// in\n        tag_68:\n            /* \"#utility.yul\":1967:2042   */\n          swap1\n          pop\n            /* \"#utility.yul\":2065:2071   */\n          dup3\n            /* \"#utility.yul\":2058:2063   */\n          dup2\n            /* \"#utility.yul\":2051:2072   */\n          mstore\n            /* \"#utility.yul\":2103:2107   */\n          0x20\n            /* \"#utility.yul\":2096:2101   */\n          dup2\n            /* \"#utility.yul\":2092:2108   */\n          add\n            /* \"#utility.yul\":2141:2144   */\n          dup5\n            /* \"#utility.yul\":2132:2138   */\n          dup5\n            /* \"#utility.yul\":2127:2130   */\n          dup5\n            /* \"#utility.yul\":2123:2139   */\n          add\n            /* \"#utility.yul\":2120:2145   */\n          gt\n            /* \"#utility.yul\":2117:2229   */\n          iszero\n          tag_70\n          jumpi\n            /* \"#utility.yul\":2148:2227   */\n          tag_71\n          tag_14\n          jump\t// in\n        tag_71:\n            /* \"#utility.yul\":2117:2229   */\n        tag_70:\n            /* \"#utility.yul\":2238:2290   */\n          tag_72\n            /* \"#utility.yul\":2283:2289   */\n          dup5\n            /* \"#utility.yul\":2278:2281   */\n          dup3\n            /* \"#utility.yul\":2273:2276   */\n          dup6\n            /* \"#utility.yul\":2238:2290   */\n          tag_20\n          jump\t// in\n        tag_72:\n            /* \"#utility.yul\":1957:2296   */\n          pop\n            /* \"#utility.yul\":1862:2296   */\n          swap4\n          swap3\n          pop\n          pop\n          pop\n          jump\t// out\n            /* \"#utility.yul\":2316:2671   */\n        tag_22:\n            /* \"#utility.yul\":2383:2388   */\n          0x00\n            /* \"#utility.yul\":2432:2435   */\n          dup3\n            /* \"#utility.yul\":2425:2429   */\n          0x1f\n            /* \"#utility.yul\":2417:2423   */\n          dup4\n            /* \"#utility.yul\":2413:2430   */\n          add\n            /* \"#utility.yul\":2409:2436   */\n          slt\n            /* \"#utility.yul\":2399:2521   */\n          tag_74\n          jumpi\n            /* \"#utility.yul\":2440:2519   */\n          tag_75\n          tag_13\n          jump\t// in\n        tag_75:\n            /* \"#utility.yul\":2399:2521   */\n        tag_74:\n            /* \"#utility.yul\":2550:2556   */\n          dup2\n            /* \"#utility.yul\":2544:2557   */\n          mload\n            /* \"#utility.yul\":2575:2665   */\n          tag_76\n            /* \"#utility.yul\":2661:2664   */\n          dup5\n            /* \"#utility.yul\":2653:2659   */\n          dup3\n            /* \"#utility.yul\":2646:2650   */\n          0x20\n            /* \"#utility.yul\":2638:2644   */\n          dup7\n            /* \"#utility.yul\":2634:2651   */\n          add\n            /* \"#utility.yul\":2575:2665   */\n          tag_21\n          jump\t// in\n        tag_76:\n            /* \"#utility.yul\":2566:2665   */\n          swap2\n          pop\n            /* \"#utility.yul\":2389:2671   */\n          pop\n            /* \"#utility.yul\":2316:2671   */\n          swap3\n          swap2\n          pop\n          pop\n          jump\t// out\n            /* \"#utility.yul\":2677:2754   */\n        tag_23:\n            /* \"#utility.yul\":2714:2721   */\n          0x00\n            /* \"#utility.yul\":2743:2748   */\n          dup2\n            /* \"#utility.yul\":2732:2748   */\n          swap1\n          pop\n            /* \"#utility.yul\":2677:2754   */\n          swap2\n          swap1\n          pop\n          jump\t// out\n            /* \"#utility.yul\":2760:2882   */\n        tag_24:\n            /* \"#utility.yul\":2833:2857   */\n          tag_79\n            /* \"#utility.yul\":2851:2856   */\n          dup2\n            /* \"#utility.yul\":2833:2857   */\n          tag_23\n          jump\t// in\n        tag_79:\n            /* \"#utility.yul\":2826:2831   */\n          dup2\n            /* \"#utility.yul\":2823:2858   */\n          eq\n            /* \"#utility.yul\":2813:2876   */\n          tag_80\n          jumpi\n            /* \"#utility.yul\":2872:2873   */\n          0x00\n            /* \"#utility.yul\":2869:2870   */\n          dup1\n            /* \"#utility.yul\":2862:2874   */\n          revert\n            /* \"#utility.yul\":2813:2876   */\n        tag_80:\n            /* \"#utility.yul\":2760:2882   */\n          pop\n          jump\t// out\n            /* \"#utility.yul\":2888:3031   */\n        tag_25:\n            /* \"#utility.yul\":2945:2950   */\n          0x00\n            /* \"#utility.yul\":2976:2982   */\n          dup2\n            /* \"#utility.yul\":2970:2983   */\n          mload\n            /* \"#utility.yul\":2961:2983   */\n          swap1\n          pop\n            /* \"#utility.yul\":2992:3025   */\n          tag_82\n            /* \"#utility.yul\":3019:3024   */\n          dup2\n            /* \"#utility.yul\":2992:3025   */\n          tag_24\n          jump\t// in\n        tag_82:\n            /* \"#utility.yul\":2888:3031   */\n          swap3\n          swap2\n          pop\n          pop\n          jump\t// out\n            /* \"#utility.yul\":3037:4046   */\n        tag_3:\n            /* \"#utility.yul\":3145:3151   */\n          0x00\n            /* \"#utility.yul\":3153:3159   */\n          dup1\n            /* \"#utility.yul\":3161:3167   */\n          0x00\n            /* \"#utility.yul\":3210:3212   */\n          0x60\n            /* \"#utility.yul\":3198:3207   */\n          dup5\n            /* \"#utility.yul\":3189:3196   */\n          dup7\n            /* \"#utility.yul\":3185:3208   */\n          sub\n            /* \"#utility.yul\":3181:3213   */\n          slt\n            /* \"#utility.yul\":3178:3297   */\n          iszero\n          tag_84\n          jumpi\n            /* \"#utility.yul\":3216:3295   */\n          tag_85\n          tag_11\n          jump\t// in\n        tag_85:\n            /* \"#utility.yul\":3178:3297   */\n        tag_84:\n            /* \"#utility.yul\":3357:3358   */\n          0x00\n            /* \"#utility.yul\":3346:3355   */\n          dup5\n            /* \"#utility.yul\":3342:3359   */\n          add\n            /* \"#utility.yul\":3336:3360   */\n          mload\n            /* \"#utility.yul\":3387:3405   */\n          0xffffffffffffffff\n            /* \"#utility.yul\":3379:3385   */\n          dup2\n            /* \"#utility.yul\":3376:3406   */\n          gt\n            /* \"#utility.yul\":3373:3490   */\n          iszero\n          tag_86\n          jumpi\n            /* \"#utility.yul\":3409:3488   */\n          tag_87\n          tag_12\n          jump\t// in\n        tag_87:\n            /* \"#utility.yul\":3373:3490   */\n        tag_86:\n            /* \"#utility.yul\":3514:3588   */\n          tag_88\n            /* \"#utility.yul\":3580:3587   */\n          dup7\n            /* \"#utility.yul\":3571:3577   */\n          dup3\n            /* \"#utility.yul\":3560:3569   */\n          dup8\n            /* \"#utility.yul\":3556:3578   */\n          add\n            /* \"#utility.yul\":3514:3588   */\n          tag_22\n          jump\t// in\n        tag_88:\n            /* \"#utility.yul\":3504:3588   */\n          swap4\n          pop\n            /* \"#utility.yul\":3307:3598   */\n          pop\n            /* \"#utility.yul\":3658:3660   */\n          0x20\n            /* \"#utility.yul\":3647:3656   */\n          dup5\n            /* \"#utility.yul\":3643:3661   */\n          add\n            /* \"#utility.yul\":3637:3662   */\n          mload\n            /* \"#utility.yul\":3689:3707   */\n          0xffffffffffffffff\n            /* \"#utility.yul\":3681:3687   */\n          dup2\n            /* \"#utility.yul\":3678:3708   */\n          gt\n            /* \"#utility.yul\":3675:3792   */\n          iszero\n          tag_89\n          jumpi\n            /* \"#utility.yul\":3711:3790   */\n          tag_90\n          tag_12\n          jump\t// in\n        tag_90:\n            /* \"#utility.yul\":3675:3792   */\n        tag_89:\n            /* \"#utility.yul\":3816:3890   */\n          tag_91\n            /* \"#utility.yul\":3882:3889   */\n          dup7\n            /* \"#utility.yul\":3873:3879   */\n          dup3\n            /* \"#utility.yul\":3862:3871   */\n          dup8\n            /* \"#utility.yul\":3858:3880   */\n          add\n            /* \"#utility.yul\":3816:3890   */\n          tag_22\n          jump\t// in\n        tag_91:\n            /* \"#utility.yul\":3806:3890   */\n          swap3\n          pop\n            /* \"#utility.yul\":3608:3900   */\n          pop\n            /* \"#utility.yul\":3939:3941   */\n          0x40\n            /* \"#utility.yul\":3965:4029   */\n          tag_92\n            /* \"#utility.yul\":4021:4028   */\n          dup7\n            /* \"#utility.yul\":4012:4018   */\n          dup3\n            /* \"#utility.yul\":4001:4010   */\n          dup8\n            /* \"#utility.yul\":3997:4019   */\n          add\n            /* \"#utility.yul\":3965:4029   */\n          tag_25\n          jump\t// in\n        tag_92:\n            /* \"#utility.yul\":3955:4029   */\n          swap2\n          pop\n            /* \"#utility.yul\":3910:4039   */\n          pop\n            /* \"#utility.yul\":3037:4046   */\n          swap3\n          pop\n          swap3\n          pop\n          swap3\n          jump\t// out\n            /* \"#utility.yul\":4052:4151   */\n        tag_26:\n            /* \"#utility.yul\":4104:4110   */\n          0x00\n            /* \"#utility.yul\":4138:4143   */\n          dup2\n            /* \"#utility.yul\":4132:4144   */\n          mload\n            /* \"#utility.yul\":4122:4144   */\n          swap1\n          pop\n            /* \"#utility.yul\":4052:4151   */\n          swap2\n          swap1\n          pop\n          jump\t// out\n            /* \"#utility.yul\":4157:4337   */\n        tag_27:\n            /* \"#utility.yul\":4205:4282   */\n          0x4e487b7100000000000000000000000000000000000000000000000000000000\n            /* \"#utility.yul\":4202:4203   */\n          0x00\n            /* \"#utility.yul\":4195:4283   */\n          mstore\n            /* \"#utility.yul\":4302:4306   */\n          0x22\n            /* \"#utility.yul\":4299:4300   */\n          0x04\n            /* \"#utility.yul\":4292:4307   */\n          mstore\n            /* \"#utility.yul\":4326:4330   */\n          0x24\n            /* \"#utility.yul\":4323:4324   */\n          0x00\n            /* \"#utility.yul\":4316:4331   */\n          revert\n            /* \"#utility.yul\":4343:4663   */\n        tag_28:\n            /* \"#utility.yul\":4387:4393   */\n          0x00\n            /* \"#utility.yul\":4424:4425   */\n          0x02\n            /* \"#utility.yul\":4418:4422   */\n          dup3\n            /* \"#utility.yul\":4414:4426   */\n          div\n            /* \"#utility.yul\":4404:4426   */\n          swap1\n          pop\n            /* \"#utility.yul\":4471:4472   */\n          0x01\n            /* \"#utility.yul\":4465:4469   */\n          dup3\n            /* \"#utility.yul\":4461:4473   */\n          and\n            /* \"#utility.yul\":4492:4510   */\n          dup1\n            /* \"#utility.yul\":4482:4563   */\n          tag_96\n          jumpi\n            /* \"#utility.yul\":4548:4552   */\n          0x7f\n            /* \"#utility.yul\":4540:4546   */\n          dup3\n            /* \"#utility.yul\":4536:4553   */\n          and\n            /* \"#utility.yul\":4526:4553   */\n          swap2\n          pop\n            /* \"#utility.yul\":4482:4563   */\n        tag_96:\n            /* \"#utility.yul\":4610:4612   */\n          0x20\n            /* \"#utility.yul\":4602:4608   */\n          dup3\n            /* \"#utility.yul\":4599:4613   */\n          lt\n            /* \"#utility.yul\":4579:4597   */\n          dup2\n            /* \"#utility.yul\":4576:4614   */\n          sub\n            /* \"#utility.yul\":4573:4657   */\n          tag_97\n          jumpi\n            /* \"#utility.yul\":4629:4647   */\n          tag_98\n          tag_27\n          jump\t// in\n        tag_98:\n            /* \"#utility.yul\":4573:4657   */\n        tag_97:\n            /* \"#utility.yul\":4394:4663   */\n          pop\n            /* \"#utility.yul\":4343:4663   */\n          swap2\n          swap1\n          pop\n          jump\t// out\n            /* \"#utility.yul\":4669:4810   */\n        tag_29:\n            /* \"#utility.yul\":4718:4722   */\n          0x00\n            /* \"#utility.yul\":4741:4744   */\n          dup2\n            /* \"#utility.yul\":4733:4744   */\n          swap1\n          pop\n            /* \"#utility.yul\":4764:4767   */\n          dup2\n            /* \"#utility.yul\":4761:4762   */\n          0x00\n            /* \"#utility.yul\":4754:4768   */\n          mstore\n            /* \"#utility.yul\":4798:4802   */\n          0x20\n            /* \"#utility.yul\":4795:4796   */\n          0x00\n            /* \"#utility.yul\":4785:4803   */\n          keccak256\n            /* \"#utility.yul\":4777:4803   */\n          swap1\n          pop\n            /* \"#utility.yul\":4669:4810   */\n          swap2\n          swap1\n          pop\n          jump\t// out\n            /* \"#utility.yul\":4816:4909   */\n        tag_30:\n            /* \"#utility.yul\":4853:4859   */\n          0x00\n            /* \"#utility.yul\":4900:4902   */\n          0x20\n            /* \"#utility.yul\":4895:4897   */\n          0x1f\n            /* \"#utility.yul\":4888:4893   */\n          dup4\n            /* \"#utility.yul\":4884:4898   */\n          add\n            /* \"#utility.yul\":4880:4903   */\n          div\n            /* \"#utility.yul\":4870:4903   */\n          swap1\n          pop\n            /* \"#utility.yul\":4816:4909   */\n          swap2\n          swap1\n          pop\n          jump\t// out\n            /* \"#utility.yul\":4915:5022   */\n        tag_31:\n            /* \"#utility.yul\":4959:4967   */\n          0x00\n            /* \"#utility.yul\":5009:5014   */\n          dup3\n            /* \"#utility.yul\":5003:5007   */\n          dup3\n            /* \"#utility.yul\":4999:5015   */\n          shl\n            /* \"#utility.yul\":4978:5015   */\n          swap1\n          pop\n            /* \"#utility.yul\":4915:5022   */\n          swap3\n          swap2\n          pop\n          pop\n          jump\t// out\n            /* \"#utility.yul\":5028:5421   */\n        tag_32:\n            /* \"#utility.yul\":5097:5103   */\n          0x00\n            /* \"#utility.yul\":5147:5148   */\n          0x08\n            /* \"#utility.yul\":5135:5145   */\n          dup4\n            /* \"#utility.yul\":5131:5149   */\n          mul\n            /* \"#utility.yul\":5170:5267   */\n          tag_103\n            /* \"#utility.yul\":5200:5266   */\n          0xffffffffffffffffffffffffffffffffffffffffffffffffffffffffffffffff\n            /* \"#utility.yul\":5189:5198   */\n          dup3\n            /* \"#utility.yul\":5170:5267   */\n          tag_31\n          jump\t// in\n        tag_103:\n            /* \"#utility.yul\":5288:5327   */\n          tag_104\n            /* \"#utility.yul\":5318:5326   */\n          dup7\n            /* \"#utility.yul\":5307:5316   */\n          dup4\n            /* \"#utility.yul\":5288:5327   */\n          tag_31\n          jump\t// in\n        tag_104:\n            /* \"#utility.yul\":5276:5327   */\n          swap6\n          pop\n            /* \"#utility.yul\":5360:5364   */\n          dup1\n            /* \"#utility.yul\":5356:5365   */\n          not\n            /* \"#utility.yul\":5349:5354   */\n          dup5\n            /* \"#utility.yul\":5345:5366   */\n          and\n            /* \"#utility.yul\":5336:5366   */\n          swap4\n          pop\n            /* \"#utility.yul\":5409:5413   */\n          dup1\n            /* \"#utility.yul\":5399:5407   */\n          dup7\n            /* \"#utility.yul\":5395:5414   */\n          and\n            /* \"#utility.yul\":5388:5393   */\n          dup5\n            /* \"#utility.yul\":5385:5415   */\n          or\n            /* \"#utility.yul\":5375:5415   */\n          swap3\n          pop\n            /* \"#utility.yul\":5104:5421   */\n          pop\n          pop\n            /* \"#utility.yul\":5028:5421   */\n          swap4\n          swap3\n          pop\n          pop\n          pop\n          jump\t// out\n            /* \"#utility.yul\":5427:5487   */\n        tag_33:\n            /* \"#utility.yul\":5455:5458   */\n          0x00\n            /* \"#utility.yul\":5476:5481   */\n          dup2\n            /* \"#utility.yul\":5469:5481   */\n          swap1\n          pop\n            /* \"#utility.yul\":5427:5487   */\n          swap2\n          swap1\n          pop\n          jump\t// out\n            /* \"#utility.yul\":5493:5635   */\n        tag_34:\n            /* \"#utility.yul\":5543:5552   */\n          0x00\n            /* \"#utility.yul\":5576:5629   */\n          tag_107\n            /* \"#utility.yul\":5594:5628   */\n          tag_108\n            /* \"#utility.yul\":5603:5627   */\n          tag_109\n            /* \"#utility.yul\":5621:5626   */\n          dup5\n            /* \"#utility.yul\":5603:5627   */\n          tag_23\n          jump\t// in\n        tag_109:\n            /* \"#utility.yul\":5594:5628   */\n          tag_33\n          jump\t// in\n        tag_108:\n            /* \"#utility.yul\":5576:5629   */\n          tag_23\n          jump\t// in\n        tag_107:\n            /* \"#utility.yul\":5563:5629   */\n          swap1\n          pop\n            /* \"#utility.yul\":5493:5635   */\n          swap2\n          swap1\n          pop\n          jump\t// out\n            /* \"#utility.yul\":5641:5716   */\n        tag_35:\n            /* \"#utility.yul\":5684:5687   */\n          0x00\n            /* \"#utility.yul\":5705:5710   */\n          dup2\n            /* \"#utility.yul\":5698:5710   */\n          swap1\n          pop\n            /* \"#utility.yul\":5641:5716   */\n          swap2\n          swap1\n          pop\n          jump\t// out\n            /* \"#utility.yul\":5722:5991   */\n        tag_36:\n            /* \"#utility.yul\":5832:5871   */\n          tag_112\n            /* \"#utility.yul\":5863:5870   */\n          dup4\n            /* \"#utility.yul\":5832:5871   */\n          tag_34\n          jump\t// in\n        tag_112:\n            /* \"#utility.yul\":5893:5984   */\n          tag_113\n            /* \"#utility.yul\":5942:5983   */\n          tag_114\n            /* \"#utility.yul\":5966:5982   */\n          dup3\n            /* \"#utility.yul\":5942:5983   */\n          tag_35\n          jump\t// in\n        tag_114:\n            /* \"#utility.yul\":5934:5940   */\n          dup5\n            /* \"#utility.yul\":5927:5931   */\n          dup5\n            /* \"#utility.yul\":5921:5932   */\n          sload\n            /* \"#utility.yul\":5893:5984   */\n          tag_32\n          jump\t// in\n        tag_113:\n            /* \"#utility.yul\":5887:5891   */\n          dup3\n            /* \"#utility.yul\":5880:5985   */\n          sstore\n            /* \"#utility.yul\":5798:5991   */\n          pop\n            /* \"#utility.yul\":5722:5991   */\n          pop\n          pop\n          pop\n          jump\t// out\n            /* \"#utility.yul\":5997:6070   */\n        tag_37:\n            /* \"#utility.yul\":6042:6045   */\n          0x00\n            /* \"#utility.yul\":5997:6070   */\n          swap1\n          jump\t// out\n            /* \"#utility.yul\":6076:6265   */\n        tag_38:\n            /* \"#utility.yul\":6153:6185   */\n          tag_117\n          tag_37\n          jump\t// in\n        tag_117:\n            /* \"#utility.yul\":6194:6259   */\n          tag_118\n            /* \"#utility.yul\":6252:6258   */\n          dup2\n            /* \"#utility.yul\":6244:6250   */\n          dup5\n            /* \"#utility.yul\":6238:6242   */\n          dup5\n            /* \"#utility.yul\":6194:6259   */\n          tag_36\n          jump\t// in\n        tag_118:\n            /* \"#utility.yul\":6129:6265   */\n          pop\n            /* \"#utility.yul\":6076:6265   */\n          pop\n          pop\n          jump\t// out\n            /* \"#utility.yul\":6271:6457   */\n        tag_39:\n            /* \"#utility.yul\":6331:6451   */\n        tag_120:\n            /* \"#utility.yul\":6348:6351   */\n          dup2\n            /* \"#utility.yul\":6341:6346   */\n          dup2\n            /* \"#utility.yul\":6338:6352   */\n          lt\n            /* \"#utility.yul\":6331:6451   */\n          iszero\n          tag_122\n          jumpi\n            /* \"#utility.yul\":6402:6441   */\n          tag_123\n            /* \"#utility.yul\":6439:6440   */\n          0x00\n            /* \"#utility.yul\":6432:6437   */\n          dup3\n            /* \"#utility.yul\":6402:6441   */\n          tag_38\n          jump\t// in\n        tag_123:\n            /* \"#utility.yul\":6375:6376   */\n          0x01\n            /* \"#utility.yul\":6368:6373   */\n          dup2\n            /* \"#utility.yul\":6364:6377   */\n          add\n            /* \"#utility.yul\":6355:6377   */\n          swap1\n          pop\n            /* \"#utility.yul\":6331:6451   */\n          jump(tag_120)\n        tag_122:\n            /* \"#utility.yul\":6271:6457   */\n          pop\n          pop\n          jump\t// out\n            /* \"#utility.yul\":6463:7006   */\n        tag_40:\n            /* \"#utility.yul\":6564:6566   */\n          0x1f\n            /* \"#utility.yul\":6559:6562   */\n          dup3\n            /* \"#utility.yul\":6556:6567   */\n          gt\n            /* \"#utility.yul\":6553:6999   */\n          iszero\n          tag_125\n          jumpi\n            /* \"#utility.yul\":6598:6636   */\n          tag_126\n            /* \"#utility.yul\":6630:6635   */\n          dup2\n            /* \"#utility.yul\":6598:6636   */\n          tag_29\n          jump\t// in\n        tag_126:\n            /* \"#utility.yul\":6682:6711   */\n          tag_127\n            /* \"#utility.yul\":6700:6710   */\n          dup5\n            /* \"#utility.yul\":6682:6711   */\n          tag_30\n          jump\t// in\n        tag_127:\n            /* \"#utility.yul\":6672:6680   */\n          dup2\n            /* \"#utility.yul\":6668:6712   */\n          add\n            /* \"#utility.yul\":6865:6867   */\n          0x20\n            /* \"#utility.yul\":6853:6863   */\n          dup6\n            /* \"#utility.yul\":6850:6868   */\n          lt\n            /* \"#utility.yul\":6847:6896   */\n          iszero\n          tag_128\n          jumpi\n            /* \"#utility.yul\":6886:6894   */\n          dup2\n            /* \"#utility.yul\":6871:6894   */\n          swap1\n          pop\n            /* \"#utility.yul\":6847:6896   */\n        tag_128:\n            /* \"#utility.yul\":6909:6989   */\n          tag_129\n            /* \"#utility.yul\":6965:6987   */\n          tag_130\n            /* \"#utility.yul\":6983:6986   */\n          dup6\n            /* \"#utility.yul\":6965:6987   */\n          tag_30\n          jump\t// in\n        tag_130:\n            /* \"#utility.yul\":6955:6963   */\n          dup4\n            /* \"#utility.yul\":6951:6988   */\n          add\n            /* \"#utility.yul\":6938:6949   */\n          dup3\n            /* \"#utility.yul\":6909:6989   */\n          tag_39\n          jump\t// in\n        tag_129:\n            /* \"#utility.yul\":6568:6999   */\n          pop\n          pop\n            /* \"#utility.yul\":6553:6999   */\n        tag_125:\n            /* \"#utility.yul\":6463:7006   */\n          pop\n          pop\n          pop\n          jump\t// out\n            /* \"#utility.yul\":7012:7129   */\n        tag_41:\n            /* \"#utility.yul\":7066:7074   */\n          0x00\n            /* \"#utility.yul\":7116:7121   */\n          dup3\n            /* \"#utility.yul\":7110:7114   */\n          dup3\n            /* \"#utility.yul\":7106:7122   */\n          shr\n            /* \"#utility.yul\":7085:7122   */\n          swap1\n          pop\n            /* \"#utility.yul\":7012:7129   */\n          swap3\n          swap2\n          pop\n          pop\n          jump\t// out\n            /* \"#utility.yul\":7135:7304   */\n        tag_42:\n            /* \"#utility.yul\":7179:7185   */\n          0x00\n            /* \"#utility.yul\":7212:7263   */\n          tag_133\n            /* \"#utility.yul\":7260:7261   */\n          0x00\n            /* \"#utility.yul\":7256:7262   */\n          not\n            /* \"#utility.yul\":7248:7253   */\n          dup5\n            /* \"#utility.yul\":7245:7246   */\n          0x08\n            /* \"#utility.yul\":7241:7254   */\n          mul\n            /* \"#utility.yul\":7212:7263   */\n          tag_41\n          jump\t// in\n        tag_133:\n            /* \"#utility.yul\":7208:7264   */\n          not\n            /* \"#utility.yul\":7293:7297   */\n          dup1\n            /* \"#utility.yul\":7287:7291   */\n          dup4\n            /* \"#utility.yul\":7283:7298   */\n          and\n            /* \"#utility.yul\":7273:7298   */\n          swap2\n          pop\n            /* \"#utility.yul\":7186:7304   */\n          pop\n            /* \"#utility.yul\":7135:7304   */\n          swap3\n          swap2\n          pop\n          pop\n          jump\t// out\n            /* \"#utility.yul\":7309:7604   */\n        tag_43:\n            /* \"#utility.yul\":7385:7389   */\n          0x00\n            /* \"#utility.yul\":7531:7560   */\n          tag_135\n            /* \"#utility.yul\":7556:7559   */\n          dup4\n            /* \"#utility.yul\":7550:7554   */\n          dup4\n            /* \"#utility.yul\":7531:7560   */\n          tag_42\n          jump\t// in\n        tag_135:\n            /* \"#utility.yul\":7523:7560   */\n          swap2\n          pop\n            /* \"#utility.yul\":7593:7596   */\n          dup3\n            /* \"#utility.yul\":7590:7591   */\n          0x02\n            /* \"#utility.yul\":7586:7597   */\n          mul\n            /* \"#utility.yul\":7580:7584   */\n          dup3\n            /* \"#utility.yul\":7577:7598   */\n          or\n            /* \"#utility.yul\":7569:7598   */\n          swap1\n          pop\n            /* \"#utility.yul\":7309:7604   */\n          swap3\n          swap2\n          pop\n          pop\n          jump\t// out\n            /* \"#utility.yul\":7609:9004   */\n        tag_7:\n            /* \"#utility.yul\":7726:7763   */\n          tag_137\n            /* \"#utility.yul\":7759:7762   */\n          dup3\n            /* \"#utility.yul\":7726:7763   */\n          tag_26\n          jump\t// in\n        tag_137:\n            /* \"#utility.yul\":7828:7846   */\n          0xffffffffffffffff\n            /* \"#utility.yul\":7820:7826   */\n          dup2\n            /* \"#utility.yul\":7817:7847   */\n          gt\n            /* \"#utility.yul\":7814:7870   */\n          iszero\n          tag_138\n          jumpi\n            /* \"#utility.yul\":7850:7868   */\n          tag_139\n          tag_16\n          jump\t// in\n        tag_139:\n            /* \"#utility.yul\":7814:7870   */\n        tag_138:\n            /* \"#utility.yul\":7894:7932   */\n          tag_140\n            /* \"#utility.yul\":7926:7930   */\n          dup3\n            /* \"#utility.yul\":7920:7931   */\n          sload\n            /* \"#utility.yul\":7894:7932   */\n          tag_28\n          jump\t// in\n        tag_140:\n            /* \"#utility.yul\":7979:8046   */\n          tag_141\n            /* \"#utility.yul\":8039:8045   */\n          dup3\n            /* \"#utility.yul\":8031:8037   */\n          dup3\n            /* \"#utility.yul\":8025:8029   */\n          dup6\n            /* \"#utility.yul\":7979:8046   */\n          tag_40\n          jump\t// in\n        tag_141:\n            /* \"#utility.yul\":8073:8074   */\n          0x00\n            /* \"#utility.yul\":8097:8101   */\n          0x20\n            /* \"#utility.yul\":8084:8101   */\n          swap1\n          pop\n            /* \"#utility.yul\":8129:8131   */\n          0x1f\n            /* \"#utility.yul\":8121:8127   */\n          dup4\n            /* \"#utility.yul\":8118:8132   */\n          gt\n            /* \"#utility.yul\":8146:8147   */\n          0x01\n            /* \"#utility.yul\":8141:8759   */\n          dup2\n          eq\n          tag_143\n          jumpi\n            /* \"#utility.yul\":8803:8804   */\n          0x00\n            /* \"#utility.yul\":8820:8826   */\n          dup5\n            /* \"#utility.yul\":8817:8894   */\n          iszero\n          tag_144\n          jumpi\n            /* \"#utility.yul\":8869:8878   */\n          dup3\n            /* \"#utility.yul\":8864:8867   */\n          dup8\n            /* \"#utility.yul\":8860:8879   */\n          add\n            /* \"#utility.yul\":8854:8880   */\n          mload\n            /* \"#utility.yul\":8845:8880   */\n          swap1\n          pop\n            /* \"#utility.yul\":8817:8894   */\n        tag_144:\n            /* \"#utility.yul\":8920:8987   */\n          tag_145\n            /* \"#utility.yul\":8980:8986   */\n          dup6\n            /* \"#utility.yul\":8973:8978   */\n          dup3\n            /* \"#utility.yul\":8920:8987   */\n          tag_43\n          jump\t// in\n        tag_145:\n            /* \"#utility.yul\":8914:8918   */\n          dup7\n            /* \"#utility.yul\":8907:8988   */\n          sstore\n            /* \"#utility.yul\":8776:8998   */\n          pop\n            /* \"#utility.yul\":8111:8998   */\n          jump(tag_142)\n            /* \"#utility.yul\":8141:8759   */\n        tag_143:\n            /* \"#utility.yul\":8193:8197   */\n          0x1f\n            /* \"#utility.yul\":8189:8198   */\n          not\n            /* \"#utility.yul\":8181:8187   */\n          dup5\n            /* \"#utility.yul\":8177:8199   */\n          and\n            /* \"#utility.yul\":8227:8264   */\n          tag_146\n            /* \"#utility.yul\":8259:8263   */\n          dup7\n            /* \"#utility.yul\":8227:8264   */\n          tag_29\n          jump\t// in\n        tag_146:\n            /* \"#utility.yul\":8286:8287   */\n          0x00\n            /* \"#utility.yul\":8300:8508   */\n        tag_147:\n            /* \"#utility.yul\":8314:8321   */\n          dup3\n            /* \"#utility.yul\":8311:8312   */\n          dup2\n            /* \"#utility.yul\":8308:8322   */\n          lt\n            /* \"#utility.yul\":8300:8508   */\n          iszero\n          tag_149\n          jumpi\n            /* \"#utility.yul\":8393:8402   */\n          dup5\n            /* \"#utility.yul\":8388:8391   */\n          dup10\n            /* \"#utility.yul\":8384:8403   */\n          add\n            /* \"#utility.yul\":8378:8404   */\n          mload\n            /* \"#utility.yul\":8370:8376   */\n          dup3\n            /* \"#utility.yul\":8363:8405   */\n          sstore\n            /* \"#utility.yul\":8444:8445   */\n          0x01\n            /* \"#utility.yul\":8436:8442   */\n          dup3\n            /* \"#utility.yul\":8432:8446   */\n          add\n            /* \"#utility.yul\":8422:8446   */\n          swap2\n          pop\n            /* \"#utility.yul\":8491:8493   */\n          0x20\n            /* \"#utility.yul\":8480:8489   */\n          dup6\n            /* \"#utility.yul\":8476:8494   */\n          add\n            /* \"#utility.yul\":8463:8494   */\n          swap5\n          pop\n            /* \"#utility.yul\":8337:8341   */\n          0x20\n            /* \"#utility.yul\":8334:8335   */\n          dup2\n            /* \"#utility.yul\":8330:8342   */\n          add\n            /* \"#utility.yul\":8325:8342   */\n          swap1\n          pop\n            /* \"#utility.yul\":8300:8508   */\n          jump(tag_147)\n        tag_149:\n            /* \"#utility.yul\":8536:8542   */\n          dup7\n            /* \"#utility.yul\":8527:8534   */\n          dup4\n            /* \"#utility.yul\":8524:8543   */\n          lt\n            /* \"#utility.yul\":8521:8700   */\n          iszero\n          tag_150\n          jumpi\n            /* \"#utility.yul\":8594:8603   */\n          dup5\n            /* \"#utility.yul\":8589:8592   */\n          dup10\n            /* \"#utility.yul\":8585:8604   */\n          add\n            /* \"#utility.yul\":8579:8605   */\n          mload\n            /* \"#utility.yul\":8637:8685   */\n          tag_151\n            /* \"#utility.yul\":8679:8683   */\n          0x1f\n            /* \"#utility.yul\":8671:8677   */\n          dup10\n            /* \"#utility.yul\":8667:8684   */\n          and\n            /* \"#utility.yul\":8656:8665   */\n          dup3\n            /* \"#utility.yul\":8637:8685   */\n          tag_42\n          jump\t// in\n        tag_151:\n            /* \"#utility.yul\":8629:8635   */\n          dup4\n            /* \"#utility.yul\":8622:8686   */\n          sstore\n            /* \"#utility.yul\":8544:8700   */\n          pop\n            /* \"#utility.yul\":8521:8700   */\n        tag_150:\n            /* \"#utility.yul\":8746:8747   */\n          0x01\n            /* \"#utility.yul\":8742:8743   */\n          0x02\n            /* \"#utility.yul\":8734:8740   */\n          dup9\n            /* \"#utility.yul\":8730:8744   */\n          mul\n            /* \"#utility.yul\":8726:8748   */\n          add\n            /* \"#utility.yul\":8720:8724   */\n          dup9\n            /* \"#utility.yul\":8713:8749   */\n          sstore\n            /* \"#utility.yul\":8148:8759   */\n          pop\n          pop\n          pop\n            /* \"#utility.yul\":8111:8998   */\n        tag_142:\n          pop\n            /* \"#utility.yul\":7701:9004   */\n          pop\n          pop\n          pop\n            /* \"#utility.yul\":7609:9004   */\n          pop\n          pop\n          jump\t// out\n            /* \"hmsb.sol\":530:2211  contract Patient {... */\n        tag_9:\n          dataSize(sub_0)\n          dup1\n          dataOffset(sub_0)\n          0x00\n          codecopy\n          0x00\n          return\n        stop\n\n        sub_0: assembly {\n                /* \"hmsb.sol\":530:2211  contract Patient {... */\n              mstore(0x40, 0x80)\n              callvalue\n              dup1\n              iszero\n              tag_1\n              jumpi\n              0x00\n              dup1\n              revert\n            tag_1:\n              pop\n              jumpi(tag_2, lt(calldatasize, 0x04))\n              shr(0xe0, calldataload(0x00))\n              dup1\n              0x61fac54d\n              eq\n              tag_3\n              jumpi\n              dup1\n              0x79caad86\n              eq\n              tag_4\n              jumpi\n              dup1\n              0x9284f497\n              eq\n              tag_5\n              jumpi\n            tag_2:\n              0x00\n              dup1\n              revert\n                /* \"hmsb.sol\":554:576  string public username */\n            tag_3:\n              tag_6\n              tag_7\n              jump\t// in\n            tag_6:\n              mload(0x40)\n              tag_8\n              swap2\n              swap1\n              tag_9\n              jump\t// in\n            tag_8:\n              mload(0x40)\n              dup1\n              swap2\n              sub\n              swap1\n              return\n                /* \"hmsb.sol\":583:603  string public gender */\n            tag_4:\n              tag_10\n              tag_11\n              jump\t// in\n            tag_10:\n              mload(0x40)\n              tag_12\n              swap2\n              swap1\n              tag_9\n              jump\t// in\n            tag_12:\n              mload(0x40)\n              dup1\n              swap2\n              sub\n              swap1\n              return\n                /* \"hmsb.sol\":610:627  uint public phone */\n            tag_5:\n              tag_13\n              tag_14\n              jump\t// in\n            tag_13:\n              mload(0x40)\n              tag_15\n              swap2\n              swap1\n              tag_16\n              jump\t// in\n            tag_15:\n              mload(0x40)\n              dup1\n              swap2\n              sub\n              swap1\n              return\n                /* \"hmsb.sol\":554:576  string public username */\n            tag_7:\n              0x00\n              dup1\n              sload\n              tag_17\n              swap1\n              tag_18\n              jump\t// in\n            tag_17:\n              dup1\n              0x1f\n              add\n              0x20\n              dup1\n              swap2\n              div\n              mul\n              0x20\n              add\n              mload(0x40)\n              swap1\n              dup2\n              add\n              0x40\n              mstore\n              dup1\n              swap3\n              swap2\n              swap1\n              dup2\n              dup2\n              mstore\n              0x20\n              add\n              dup3\n              dup1\n              sload\n              tag_19\n              swap1\n              tag_18\n              jump\t// in\n            tag_19:\n              dup1\n              iszero\n              tag_20\n              jumpi\n              dup1\n              0x1f\n              lt\n              tag_21\n              jumpi\n              0x0100\n              dup1\n              dup4\n              sload\n              div\n              mul\n              dup4\n              mstore\n              swap2\n              0x20\n              add\n              swap2\n              jump(tag_20)\n            tag_21:\n              dup3\n              add\n              swap2\n              swap1\n              0x00\n              mstore\n              keccak256(0x00, 0x20)\n              swap1\n            tag_22:\n              dup2\n              sload\n              dup2\n              mstore\n              swap1\n              0x01\n              add\n              swap1\n              0x20\n              add\n              dup1\n              dup4\n              gt\n              tag_22\n              jumpi\n              dup3\n              swap1\n              sub\n              0x1f\n              and\n              dup3\n              add\n              swap2\n            tag_20:\n              pop\n              pop\n              pop\n              pop\n              pop\n              dup2\n              jump\t// out\n                /* \"hmsb.sol\":583:603  string public gender */\n            tag_11:\n              0x01\n              dup1\n              sload\n              tag_23\n              swap1\n              tag_18\n              jump\t// in\n            tag_23:\n              dup1\n              0x1f\n              add\n              0x20\n              dup1\n              swap2\n              div\n              mul\n              0x20\n              add\n              mload(0x40)\n              swap1\n              dup2\n              add\n              0x40\n              mstore\n              dup1\n              swap3\n              swap2\n              swap1\n              dup2\n              dup2\n              mstore\n              0x20\n              add\n              dup3\n              dup1\n              sload\n              tag_24\n              swap1\n              tag_18\n              jump\t// in\n            tag_24:\n              dup1\n              iszero\n              tag_25\n              jumpi\n              dup1\n              0x1f\n              lt\n              tag_26\n              jumpi\n              0x0100\n              dup1\n              dup4\n              sload\n              div\n              mul\n              dup4\n              mstore\n              swap2\n              0x20\n              add\n              swap2\n              jump(tag_25)\n            tag_26:\n              dup3\n              add\n              swap2\n              swap1\n              0x00\n              mstore\n              keccak256(0x00, 0x20)\n              swap1\n            tag_27:\n              dup2\n              sload\n              dup2\n              mstore\n              swap1\n              0x01\n              add\n              swap1\n              0x20\n              add\n              dup1\n              dup4\n              gt\n              tag_27\n              jumpi\n              dup3\n              swap1\n              sub\n              0x1f\n              and\n              dup3\n              add\n              swap2\n            tag_25:\n              pop\n              pop\n              pop\n              pop\n              pop\n              dup2\n              jump\t// out\n                /* \"hmsb.sol\":610:627  uint public phone */\n            tag_14:\n              sload(0x02)\n              dup2\n              jump\t// out\n                /* \"#utility.yul\":7:106   */\n            tag_28:\n                /* \"#utility.yul\":59:65   */\n              0x00\n                /* \"#utility.yul\":93:98   */\n              dup2\n                /* \"#utility.yul\":87:99   */\n              mload\n                /* \"#utility.yul\":77:99   */\n              swap1\n              pop\n                /* \"#utility.yul\":7:106   */\n              swap2\n              swap1\n              pop\n              jump\t// out\n                /* \"#utility.yul\":112:281   */\n            tag_29:\n                /* \"#utility.yul\":196:207   */\n              0x00\n                /* \"#utility.yul\":230:236   */\n              dup3\n                /* \"#utility.yul\":225:228   */\n              dup3\n                /* \"#utility.yul\":218:237   */\n              mstore\n                /* \"#utility.yul\":270:274   */\n              0x20\n                /* \"#utility.yul\":265:268   */\n              dup3\n                /* \"#utility.yul\":261:275   */\n              add\n                /* \"#utility.yul\":246:275   */\n              swap1\n              pop\n                /* \"#utility.yul\":112:281   */\n              swap3\n              swap2\n              pop\n              pop\n              jump\t// out\n                /* \"#utility.yul\":287:533   */\n            tag_30:\n                /* \"#utility.yul\":368:369   */\n              0x00\n                /* \"#utility.yul\":378:491   */\n            tag_40:\n                /* \"#utility.yul\":392:398   */\n              dup4\n                /* \"#utility.yul\":389:390   */\n              dup2\n                /* \"#utility.yul\":386:399   */\n              lt\n                /* \"#utility.yul\":378:491   */\n              iszero\n              tag_42\n              jumpi\n                /* \"#utility.yul\":477:478   */\n              dup1\n                /* \"#utility.yul\":472:475   */\n              dup3\n                /* \"#utility.yul\":468:479   */\n              add\n                /* \"#utility.yul\":462:480   */\n              mload\n                /* \"#utility.yul\":458:459   */\n              dup2\n                /* \"#utility.yul\":453:456   */\n              dup5\n                /* \"#utility.yul\":449:460   */\n              add\n                /* \"#utility.yul\":442:481   */\n              mstore\n                /* \"#utility.yul\":414:416   */\n              0x20\n                /* \"#utility.yul\":411:412   */\n              dup2\n                /* \"#utility.yul\":407:417   */\n              add\n                /* \"#utility.yul\":402:417   */\n              swap1\n              pop\n                /* \"#utility.yul\":378:491   */\n              jump(tag_40)\n            tag_42:\n                /* \"#utility.yul\":525:526   */\n              0x00\n                /* \"#utility.yul\":516:522   */\n              dup5\n                /* \"#utility.yul\":511:514   */\n              dup5\n                /* \"#utility.yul\":507:523   */\n              add\n                /* \"#utility.yul\":500:527   */\n              mstore\n                /* \"#utility.yul\":349:533   */\n              pop\n                /* \"#utility.yul\":287:533   */\n              pop\n              pop\n              pop\n              jump\t// out\n                /* \"#utility.yul\":539:641   */\n            tag_31:\n                /* \"#utility.yul\":580:586   */\n              0x00\n                /* \"#utility.yul\":631:633   */\n              0x1f\n                /* \"#utility.yul\":627:634   */\n              not\n                /* \"#utility.yul\":622:624   */\n              0x1f\n                /* \"#utility.yul\":615:620   */\n              dup4\n                /* \"#utility.yul\":611:625   */\n              add\n                /* \"#utility.yul\":607:635   */\n              and\n                /* \"#utility.yul\":597:635   */\n              swap1\n              pop\n                /* \"#utility.yul\":539:641   */\n              swap2\n              swap1\n              pop\n              jump\t// out\n                /* \"#utility.yul\":647:1024   */\n            tag_32:\n                /* \"#utility.yul\":735:738   */\n              0x00\n                /* \"#utility.yul\":763:802   */\n              tag_45\n                /* \"#utility.yul\":796:801   */\n              dup3\n                /* \"#utility.yul\":763:802   */\n              tag_28\n              jump\t// in\n            tag_45:\n                /* \"#utility.yul\":818:889   */\n              tag_46\n                /* \"#utility.yul\":882:888   */\n              dup2\n                /* \"#utility.yul\":877:880   */\n              dup6\n                /* \"#utility.yul\":818:889   */\n              tag_29\n              jump\t// in\n            tag_46:\n                /* \"#utility.yul\":811:889   */\n              swap4\n              pop\n                /* \"#utility.yul\":898:963   */\n              tag_47\n                /* \"#utility.yul\":956:962   */\n              dup2\n                /* \"#utility.yul\":951:954   */\n              dup6\n                /* \"#utility.yul\":944:948   */\n              0x20\n                /* \"#utility.yul\":937:942   */\n              dup7\n                /* \"#utility.yul\":933:949   */\n              add\n                /* \"#utility.yul\":898:963   */\n              tag_30\n              jump\t// in\n            tag_47:\n                /* \"#utility.yul\":988:1017   */\n              tag_48\n                /* \"#utility.yul\":1010:1016   */\n              dup2\n                /* \"#utility.yul\":988:1017   */\n              tag_31\n              jump\t// in\n            tag_48:\n                /* \"#utility.yul\":983:986   */\n              dup5\n                /* \"#utility.yul\":979:1018   */\n              add\n                /* \"#utility.yul\":972:1018   */\n              swap2\n              pop\n                /* \"#utility.yul\":739:1024   */\n              pop\n                /* \"#utility.yul\":647:1024   */\n              swap3\n              swap2\n              pop\n              pop\n              jump\t// out\n                /* \"#utility.yul\":1030:1343   */\n            tag_9:\n                /* \"#utility.yul\":1143:1147   */\n              0x00\n                /* \"#utility.yul\":1181:1183   */\n              0x20\n                /* \"#utility.yul\":1170:1179   */\n              dup3\n                /* \"#utility.yul\":1166:1184   */\n              add\n                /* \"#utility.yul\":1158:1184   */\n              swap1\n              pop\n                /* \"#utility.yul\":1230:1239   */\n              dup2\n                /* \"#utility.yul\":1224:1228   */\n              dup2\n                /* \"#utility.yul\":1220:1240   */\n              sub\n                /* \"#utility.yul\":1216:1217   */\n              0x00\n                /* \"#utility.yul\":1205:1214   */\n              dup4\n                /* \"#utility.yul\":1201:1218   */\n              add\n                /* \"#utility.yul\":1194:1241   */\n              mstore\n                /* \"#utility.yul\":1258:1336   */\n              tag_50\n                /* \"#utility.yul\":1331:1335   */\n              dup2\n                /* \"#utility.yul\":1322:1328   */\n              dup5\n                /* \"#utility.yul\":1258:1336   */\n              tag_32\n              jump\t// in\n            tag_50:\n                /* \"#utility.yul\":1250:1336   */\n              swap1\n              pop\n                /* \"#utility.yul\":1030:1343   */\n              swap3\n              swap2\n              pop\n              pop\n              jump\t// out\n                /* \"#utility.yul\":1349:1426   */\n            tag_33:\n                /* \"#utility.yul\":1386:1393   */\n              0x00\n                /* \"#utility.yul\":1415:1420   */\n              dup2\n                /* \"#utility.yul\":1404:1420   */\n              swap1\n              pop\n                /* \"#utility.yul\":1349:1426   */\n              swap2\n              swap1\n              pop\n              jump\t// out\n                /* \"#utility.yul\":1432:1550   */\n            tag_34:\n                /* \"#utility.yul\":1519:1543   */\n              tag_53\n                /* \"#utility.yul\":1537:1542   */\n              dup2\n                /* \"#utility.yul\":1519:1543   */\n              tag_33\n              jump\t// in\n            tag_53:\n                /* \"#utility.yul\":1514:1517   */\n              dup3\n                /* \"#utility.yul\":1507:1544   */\n              mstore\n                /* \"#utility.yul\":1432:1550   */\n              pop\n              pop\n              jump\t// out\n                /* \"#utility.yul\":1556:1778   */\n            tag_16:\n                /* \"#utility.yul\":1649:1653   */\n              0x00\n                /* \"#utility.yul\":1687:1689   */\n              0x20\n                /* \"#utility.yul\":1676:1685   */\n              dup3\n                /* \"#utility.yul\":1672:1690   */\n              add\n                /* \"#utility.yul\":1664:1690   */\n              swap1\n              pop\n                /* \"#utility.yul\":1700:1771   */\n              tag_55\n                /* \"#utility.yul\":1768:1769   */\n              0x00\n                /* \"#utility.yul\":1757:1766   */\n              dup4\n                /* \"#utility.yul\":1753:1770   */\n              add\n                /* \"#utility.yul\":1744:1750   */\n              dup5\n                /* \"#utility.yul\":1700:1771   */\n              tag_34\n              jump\t// in\n            tag_55:\n                /* \"#utility.yul\":1556:1778   */\n              swap3\n              swap2\n              pop\n              pop\n              jump\t// out\n                /* \"#utility.yul\":1784:1964   */\n            tag_35:\n                /* \"#utility.yul\":1832:1909   */\n              0x4e487b7100000000000000000000000000000000000000000000000000000000\n                /* \"#utility.yul\":1829:1830   */\n              0x00\n                /* \"#utility.yul\":1822:1910   */\n              mstore\n                /* \"#utility.yul\":1929:1933   */\n              0x22\n                /* \"#utility.yul\":1926:1927   */\n              0x04\n                /* \"#utility.yul\":1919:1934   */\n              mstore\n                /* \"#utility.yul\":1953:1957   */\n              0x24\n                /* \"#utility.yul\":1950:1951   */\n              0x00\n                /* \"#utility.yul\":1943:1958   */\n              revert\n                /* \"#utility.yul\":1970:2290   */\n            tag_18:\n                /* \"#utility.yul\":2014:2020   */\n              0x00\n                /* \"#utility.yul\":2051:2052   */\n              0x02\n                /* \"#utility.yul\":2045:2049   */\n              dup3\n                /* \"#utility.yul\":2041:2053   */\n              div\n                /* \"#utility.yul\":2031:2053   */\n              swap1\n              pop\n                /* \"#utility.yul\":2098:2099   */\n              0x01\n                /* \"#utility.yul\":2092:2096   */\n              dup3\n                /* \"#utility.yul\":2088:2100   */\n              and\n                /* \"#utility.yul\":2119:2137   */\n              dup1\n                /* \"#utility.yul\":2109:2190   */\n              tag_58\n              jumpi\n                /* \"#utility.yul\":2175:2179   */\n              0x7f\n                /* \"#utility.yul\":2167:2173   */\n              dup3\n                /* \"#utility.yul\":2163:2180   */\n              and\n                /* \"#utility.yul\":2153:2180   */\n              swap2\n              pop\n                /* \"#utility.yul\":2109:2190   */\n            tag_58:\n                /* \"#utility.yul\":2237:2239   */\n              0x20\n                /* \"#utility.yul\":2229:2235   */\n              dup3\n                /* \"#utility.yul\":2226:2240   */\n              lt\n                /* \"#utility.yul\":2206:2224   */\n              dup2\n                /* \"#utility.yul\":2203:2241   */\n              sub\n                /* \"#utility.yul\":2200:2284   */\n              tag_59\n              jumpi\n                /* \"#utility.yul\":2256:2274   */\n              tag_60\n              tag_35\n              jump\t// in\n            tag_60:\n                /* \"#utility.yul\":2200:2284   */\n            tag_59:\n                /* \"#utility.yul\":2021:2290   */\n              pop\n                /* \"#utility.yul\":1970:2290   */\n              swap2\n              swap1\n              pop\n              jump\t// out\n\n            auxdata: 0xa264697066735822122056e9c6a3197c0f024b256b69d7fe39a17145b4973621a7bcaf76aa453a0956dd64736f6c63430008150033\n        }\n    }\n\n    auxdata: 0xa2646970667358221220b16efdf325e33878e4eff1b435e6f635406e87c07c268d78b5dff93ba1f8585e64736f6c63430008150033\n}\n","bytecode":{"linkReferences":{},"object":"608060405234801561000f575f80fd5b5061105a8061001d5f395ff3fe608060405234801562000010575f80fd5b506004361062000044575f3560e01c8063027e7b9d146200004857806318a231a9146200007e578063d8f608df14620000a0575b5f80fd5b620000666004803603810190620000609190620003f4565b620000d6565b604051620000759190620004ce565b60405180910390f35b620000886200017e565b604051620000979190620005c3565b60405180910390f35b620000be6004803603810190620000b89190620005e5565b6200020a565b604051620000cd919062000626565b60405180910390f35b5f80848484604051620000e99062000245565b620000f793929190620006d6565b604051809103905ff08015801562000111573d5f803e3d5ffd5b5090505f81908060018154018082558091505060019003905f5260205f20015f9091909190916101000a81548173ffffffffffffffffffffffffffffffffffffffff021916908373ffffffffffffffffffffffffffffffffffffffff160217905550809150509392505050565b60605f8054806020026020016040519081016040528092919081815260200182805480156200020057602002820191905f5260205f20905b815f9054906101000a900473ffffffffffffffffffffffffffffffffffffffff1673ffffffffffffffffffffffffffffffffffffffff1681526020019060010190808311620001b6575b5050505050905090565b5f818154811062000219575f80fd5b905f5260205f20015f915054906101000a900473ffffffffffffffffffffffffffffffffffffffff1681565b610905806200072083390190565b5f604051905090565b5f80fd5b5f80fd5b5f80fd5b5f80fd5b5f601f19601f8301169050919050565b7f4e487b71000000000000000000000000000000000000000000000000000000005f52604160045260245ffd5b620002b4826200026c565b810181811067ffffffffffffffff82111715620002d657620002d56200027c565b5b80604052505050565b5f620002ea62000253565b9050620002f88282620002a9565b919050565b5f67ffffffffffffffff8211156200031a57620003196200027c565b5b62000325826200026c565b9050602081019050919050565b828183375f83830152505050565b5f620003566200035084620002fd565b620002df565b90508281526020810184848401111562000375576200037462000268565b5b6200038284828562000332565b509392505050565b5f82601f830112620003a157620003a062000264565b5b8135620003b384826020860162000340565b91505092915050565b5f819050919050565b620003d081620003bc565b8114620003db575f80fd5b50565b5f81359050620003ee81620003c5565b92915050565b5f805f606084860312156200040e576200040d6200025c565b5b5f84013567ffffffffffffffff8111156200042e576200042d62000260565b5b6200043c868287016200038a565b935050602084013567ffffffffffffffff81111562000460576200045f62000260565b5b6200046e868287016200038a565b92505060406200048186828701620003de565b9150509250925092565b5f73ffffffffffffffffffffffffffffffffffffffff82169050919050565b5f620004b6826200048b565b9050919050565b620004c881620004aa565b82525050565b5f602082019050620004e35f830184620004bd565b92915050565b5f81519050919050565b5f82825260208201905092915050565b5f819050602082019050919050565b5f6200051e826200048b565b9050919050565b620005308162000512565b82525050565b5f62000543838362000525565b60208301905092915050565b5f602082019050919050565b5f6200056782620004e9565b620005738185620004f3565b9350620005808362000503565b805f5b83811015620005b65781516200059a888262000536565b9750620005a7836200054f565b92505060018101905062000583565b5085935050505092915050565b5f6020820190508181035f830152620005dd81846200055b565b905092915050565b5f60208284031215620005fd57620005fc6200025c565b5b5f6200060c84828501620003de565b91505092915050565b620006208162000512565b82525050565b5f6020820190506200063b5f83018462000615565b92915050565b5f81519050919050565b5f82825260208201905092915050565b5f5b838110156200067a5780820151818401526020810190506200065d565b5f8484015250505050565b5f620006918262000641565b6200069d81856200064b565b9350620006af8185602086016200065b565b620006ba816200026c565b840191505092915050565b620006d081620003bc565b82525050565b5f6060820190508181035f830152620006f0818662000685565b9050818103602083015262000706818562000685565b9050620007176040830184620006c5565b94935050505056fe608060405234801562000010575f80fd5b506040516200090538038062000905833981810160405281019062000036919062000226565b825f9081620000469190620004eb565b508160019081620000589190620004eb565b5080600281905550505050620005cf565b5f604051905090565b5f80fd5b5f80fd5b5f80fd5b5f80fd5b5f601f19601f8301169050919050565b7f4e487b71000000000000000000000000000000000000000000000000000000005f52604160045260245ffd5b620000ca8262000082565b810181811067ffffffffffffffff82111715620000ec57620000eb62000092565b5b80604052505050565b5f6200010062000069565b90506200010e8282620000bf565b919050565b5f67ffffffffffffffff82111562000130576200012f62000092565b5b6200013b8262000082565b9050602081019050919050565b5f5b83811015620001675780820151818401526020810190506200014a565b5f8484015250505050565b5f62000188620001828462000113565b620000f5565b905082815260208101848484011115620001a757620001a66200007e565b5b620001b484828562000148565b509392505050565b5f82601f830112620001d357620001d26200007a565b5b8151620001e584826020860162000172565b91505092915050565b5f819050919050565b6200020281620001ee565b81146200020d575f80fd5b50565b5f815190506200022081620001f7565b92915050565b5f805f6060848603121562000240576200023f62000072565b5b5f84015167ffffffffffffffff81111562000260576200025f62000076565b5b6200026e86828701620001bc565b935050602084015167ffffffffffffffff81111562000292576200029162000076565b5b620002a086828701620001bc565b9250506040620002b38682870162000210565b9150509250925092565b5f81519050919050565b7f4e487b71000000000000000000000000000000000000000000000000000000005f52602260045260245ffd5b5f60028204905060018216806200030c57607f821691505b602082108103620003225762000321620002c7565b5b50919050565b5f819050815f5260205f209050919050565b5f6020601f8301049050919050565b5f82821b905092915050565b5f60088302620003867fffffffffffffffffffffffffffffffffffffffffffffffffffffffffffffffff8262000349565b62000392868362000349565b95508019841693508086168417925050509392505050565b5f819050919050565b5f620003d3620003cd620003c784620001ee565b620003aa565b620001ee565b9050919050565b5f819050919050565b620003ee83620003b3565b62000406620003fd82620003da565b84845462000355565b825550505050565b5f90565b6200041c6200040e565b62000429818484620003e3565b505050565b5b818110156200045057620004445f8262000412565b6001810190506200042f565b5050565b601f8211156200049f57620004698162000328565b62000474846200033a565b8101602085101562000484578190505b6200049c62000493856200033a565b8301826200042e565b50505b505050565b5f82821c905092915050565b5f620004c15f1984600802620004a4565b1980831691505092915050565b5f620004db8383620004b0565b9150826002028217905092915050565b620004f682620002bd565b67ffffffffffffffff81111562000512576200051162000092565b5b6200051e8254620002f4565b6200052b82828562000454565b5f60209050601f83116001811462000561575f84156200054c578287015190505b620005588582620004ce565b865550620005c7565b601f198416620005718662000328565b5f5b828110156200059a5784890151825560018201915060208501945060208101905062000573565b86831015620005ba5784890151620005b6601f891682620004b0565b8355505b6001600288020188555050505b505050505050565b61032880620005dd5f395ff3fe608060405234801561000f575f80fd5b506004361061003f575f3560e01c806361fac54d1461004357806379caad86146100615780639284f4971461007f575b5f80fd5b61004b61009d565b6040516100589190610244565b60405180910390f35b610069610128565b6040516100769190610244565b60405180910390f35b6100876101b4565b604051610094919061027c565b60405180910390f35b5f80546100a9906102c2565b80601f01602080910402602001604051908101604052809291908181526020018280546100d5906102c2565b80156101205780601f106100f757610100808354040283529160200191610120565b820191905f5260205f20905b81548152906001019060200180831161010357829003601f168201915b505050505081565b60018054610135906102c2565b80601f0160208091040260200160405190810160405280929190818152602001828054610161906102c2565b80156101ac5780601f10610183576101008083540402835291602001916101ac565b820191905f5260205f20905b81548152906001019060200180831161018f57829003601f168201915b505050505081565b60025481565b5f81519050919050565b5f82825260208201905092915050565b5f5b838110156101f15780820151818401526020810190506101d6565b5f8484015250505050565b5f601f19601f8301169050919050565b5f610216826101ba565b61022081856101c4565b93506102308185602086016101d4565b610239816101fc565b840191505092915050565b5f6020820190508181035f83015261025c818461020c565b905092915050565b5f819050919050565b61027681610264565b82525050565b5f60208201905061028f5f83018461026d565b92915050565b7f4e487b71000000000000000000000000000000000000000000000000000000005f52602260045260245ffd5b5f60028204905060018216806102d957607f821691505b6020821081036102ec576102eb610295565b5b5091905056fea264697066735822122056e9c6a3197c0f024b256b69d7fe39a17145b4973621a7bcaf76aa453a0956dd64736f6c63430008150033a2646970667358221220b16efdf325e33878e4eff1b435e6f635406e87c07c268d78b5dff93ba1f8585e64736f6c63430008150033","opcodes":"PUSH1 0x80 PUSH1 0x40 MSTORE CALLVALUE DUP1 ISZERO PUSH2 0xF JUMPI PUSH0 DUP1 REVERT JUMPDEST POP PUSH2 0x105A DUP1 PUSH2 0x1D PUSH0 CODECOPY PUSH0 RETURN INVALID PUSH1 0x80 PUSH1 0x40 MSTORE CALLVALUE DUP1 ISZERO PUSH3 0x10 JUMPI PUSH0 DUP1 REVERT JUMPDEST POP PUSH1 0x4 CALLDATASIZE LT PUSH3 0x44 JUMPI PUSH0 CALLDATALOAD PUSH1 0xE0 SHR DUP1 PUSH4 0x27E7B9D EQ PUSH3 0x48 JUMPI DUP1 PUSH4 0x18A231A9 EQ PUSH3 0x7E JUMPI DUP1 PUSH4 0xD8F608DF EQ PUSH3 0xA0 JUMPI JUMPDEST PUSH0 DUP1 REVERT JUMPDEST PUSH3 0x66 PUSH1 0x4 DUP1 CALLDATASIZE SUB DUP2 ADD SWAP1 PUSH3 0x60 SWAP2 SWAP1 PUSH3 0x3F4 JUMP JUMPDEST PUSH3 0xD6 JUMP JUMPDEST PUSH1 0x40 MLOAD PUSH3 0x75 SWAP2 SWAP1 PUSH3 0x4CE JUMP JUMPDEST PUSH1 0x40 MLOAD DUP1 SWAP2 SUB SWAP1 RETURN JUMPDEST PUSH3 0x88 PUSH3 0x17E JUMP JUMPDEST PUSH1 0x40 MLOAD PUSH3 0x97 SWAP2 SWAP1 PUSH3 0x5C3 JUMP JUMPDEST PUSH1 0x40 MLOAD DUP1 SWAP2 SUB SWAP1 RETURN JUMPDEST PUSH3 0xBE PUSH1 0x4 DUP1 CALLDATASIZE SUB DUP2 ADD SWAP1 PUSH3 0xB8 SWAP2 SWAP1 PUSH3 0x5E5 JUMP JUMPDEST PUSH3 0x20A JUMP JUMPDEST PUSH1 0x40 MLOAD PUSH3 0xCD SWAP2 SWAP1 PUSH3 0x626 JUMP JUMPDEST PUSH1 0x40 MLOAD DUP1 SWAP2 SUB SWAP1 RETURN JUMPDEST PUSH0 DUP1 DUP5 DUP5 DUP5 PUSH1 0x40 MLOAD PUSH3 0xE9 SWAP1 PUSH3 0x245 JUMP JUMPDEST PUSH3 0xF7 SWAP4 SWAP3 SWAP2 SWAP1 PUSH3 0x6D6 JUMP JUMPDEST PUSH1 0x40 MLOAD DUP1 SWAP2 SUB SWAP1 PUSH0 CREATE DUP1 ISZERO DUP1 ISZERO PUSH3 0x111 JUMPI RETURNDATASIZE PUSH0 DUP1 RETURNDATACOPY RETURNDATASIZE PUSH0 REVERT JUMPDEST POP SWAP1 POP PUSH0 DUP2 SWAP1 DUP1 PUSH1 0x1 DUP2 SLOAD ADD DUP1 DUP3 SSTORE DUP1 SWAP2 POP POP PUSH1 0x1 SWAP1 SUB SWAP1 PUSH0 MSTORE PUSH1 0x20 PUSH0 KECCAK256 ADD PUSH0 SWAP1 SWAP2 SWAP1 SWAP2 SWAP1 SWAP2 PUSH2 0x100 EXP DUP2 SLOAD DUP2 PUSH20 0xFFFFFFFFFFFFFFFFFFFFFFFFFFFFFFFFFFFFFFFF MUL NOT AND SWAP1 DUP4 PUSH20 0xFFFFFFFFFFFFFFFFFFFFFFFFFFFFFFFFFFFFFFFF AND MUL OR SWAP1 SSTORE POP DUP1 SWAP2 POP POP SWAP4 SWAP3 POP POP POP JUMP JUMPDEST PUSH1 0x60 PUSH0 DUP1 SLOAD DUP1 PUSH1 0x20 MUL PUSH1 0x20 ADD PUSH1 0x40 MLOAD SWAP1 DUP2 ADD PUSH1 0x40 MSTORE DUP1 SWAP3 SWAP2 SWAP1 DUP2 DUP2 MSTORE PUSH1 0x20 ADD DUP3 DUP1 SLOAD DUP1 ISZERO PUSH3 0x200 JUMPI PUSH1 0x20 MUL DUP3 ADD SWAP2 SWAP1 PUSH0 MSTORE PUSH1 0x20 PUSH0 KECCAK256 SWAP1 JUMPDEST DUP2 PUSH0 SWAP1 SLOAD SWAP1 PUSH2 0x100 EXP SWAP1 DIV PUSH20 0xFFFFFFFFFFFFFFFFFFFFFFFFFFFFFFFFFFFFFFFF AND PUSH20 0xFFFFFFFFFFFFFFFFFFFFFFFFFFFFFFFFFFFFFFFF AND DUP2 MSTORE PUSH1 0x20 ADD SWAP1 PUSH1 0x1 ADD SWAP1 DUP1 DUP4 GT PUSH3 0x1B6 JUMPI JUMPDEST POP POP POP POP POP SWAP1 POP SWAP1 JUMP JUMPDEST PUSH0 DUP2 DUP2 SLOAD DUP2 LT PUSH3 0x219 JUMPI PUSH0 DUP1 REVERT JUMPDEST SWAP1 PUSH0 MSTORE PUSH1 0x20 PUSH0 KECCAK256 ADD PUSH0 SWAP2 POP SLOAD SWAP1 PUSH2 0x100 EXP SWAP1 DIV PUSH20 0xFFFFFFFFFFFFFFFFFFFFFFFFFFFFFFFFFFFFFFFF AND DUP2 JUMP JUMPDEST PUSH2 0x905 DUP1 PUSH3 0x720 DUP4 CODECOPY ADD SWAP1 JUMP JUMPDEST PUSH0 PUSH1 0x40 MLOAD SWAP1 POP SWAP1 JUMP JUMPDEST PUSH0 DUP1 REVERT JUMPDEST PUSH0 DUP1 REVERT JUMPDEST PUSH0 DUP1 REVERT JUMPDEST PUSH0 DUP1 REVERT JUMPDEST PUSH0 PUSH1 0x1F NOT PUSH1 0x1F DUP4 ADD AND SWAP1 POP SWAP2 SWAP1 POP JUMP JUMPDEST PUSH32 0x4E487B7100000000000000000000000000000000000000000000000000000000 PUSH0 MSTORE PUSH1 0x41 PUSH1 0x4 MSTORE PUSH1 0x24 PUSH0 REVERT JUMPDEST PUSH3 0x2B4 DUP3 PUSH3 0x26C JUMP JUMPDEST DUP2 ADD DUP2 DUP2 LT PUSH8 0xFFFFFFFFFFFFFFFF DUP3 GT OR ISZERO PUSH3 0x2D6 JUMPI PUSH3 0x2D5 PUSH3 0x27C JUMP JUMPDEST JUMPDEST DUP1 PUSH1 0x40 MSTORE POP POP POP JUMP JUMPDEST PUSH0 PUSH3 0x2EA PUSH3 0x253 JUMP JUMPDEST SWAP1 POP PUSH3 0x2F8 DUP3 DUP3 PUSH3 0x2A9 JUMP JUMPDEST SWAP2 SWAP1 POP JUMP JUMPDEST PUSH0 PUSH8 0xFFFFFFFFFFFFFFFF DUP3 GT ISZERO PUSH3 0x31A JUMPI PUSH3 0x319 PUSH3 0x27C JUMP JUMPDEST JUMPDEST PUSH3 0x325 DUP3 PUSH3 0x26C JUMP JUMPDEST SWAP1 POP PUSH1 0x20 DUP2 ADD SWAP1 POP SWAP2 SWAP1 POP JUMP JUMPDEST DUP3 DUP2 DUP4 CALLDATACOPY PUSH0 DUP4 DUP4 ADD MSTORE POP POP POP JUMP JUMPDEST PUSH0 PUSH3 0x356 PUSH3 0x350 DUP5 PUSH3 0x2FD JUMP JUMPDEST PUSH3 0x2DF JUMP JUMPDEST SWAP1 POP DUP3 DUP2 MSTORE PUSH1 0x20 DUP2 ADD DUP5 DUP5 DUP5 ADD GT ISZERO PUSH3 0x375 JUMPI PUSH3 0x374 PUSH3 0x268 JUMP JUMPDEST JUMPDEST PUSH3 0x382 DUP5 DUP3 DUP6 PUSH3 0x332 JUMP JUMPDEST POP SWAP4 SWAP3 POP POP POP JUMP JUMPDEST PUSH0 DUP3 PUSH1 0x1F DUP4 ADD SLT PUSH3 0x3A1 JUMPI PUSH3 0x3A0 PUSH3 0x264 JUMP JUMPDEST JUMPDEST DUP2 CALLDATALOAD PUSH3 0x3B3 DUP5 DUP3 PUSH1 0x20 DUP7 ADD PUSH3 0x340 JUMP JUMPDEST SWAP2 POP POP SWAP3 SWAP2 POP POP JUMP JUMPDEST PUSH0 DUP2 SWAP1 POP SWAP2 SWAP1 POP JUMP JUMPDEST PUSH3 0x3D0 DUP2 PUSH3 0x3BC JUMP JUMPDEST DUP2 EQ PUSH3 0x3DB JUMPI PUSH0 DUP1 REVERT JUMPDEST POP JUMP JUMPDEST PUSH0 DUP2 CALLDATALOAD SWAP1 POP PUSH3 0x3EE DUP2 PUSH3 0x3C5 JUMP JUMPDEST SWAP3 SWAP2 POP POP JUMP JUMPDEST PUSH0 DUP1 PUSH0 PUSH1 0x60 DUP5 DUP7 SUB SLT ISZERO PUSH3 0x40E JUMPI PUSH3 0x40D PUSH3 0x25C JUMP JUMPDEST JUMPDEST PUSH0 DUP5 ADD CALLDATALOAD PUSH8 0xFFFFFFFFFFFFFFFF DUP2 GT ISZERO PUSH3 0x42E JUMPI PUSH3 0x42D PUSH3 0x260 JUMP JUMPDEST JUMPDEST PUSH3 0x43C DUP7 DUP3 DUP8 ADD PUSH3 0x38A JUMP JUMPDEST SWAP4 POP POP PUSH1 0x20 DUP5 ADD CALLDATALOAD PUSH8 0xFFFFFFFFFFFFFFFF DUP2 GT ISZERO PUSH3 0x460 JUMPI PUSH3 0x45F PUSH3 0x260 JUMP JUMPDEST JUMPDEST PUSH3 0x46E DUP7 DUP3 DUP8 ADD PUSH3 0x38A JUMP JUMPDEST SWAP3 POP POP PUSH1 0x40 PUSH3 0x481 DUP7 DUP3 DUP8 ADD PUSH3 0x3DE JUMP JUMPDEST SWAP2 POP POP SWAP3 POP SWAP3 POP SWAP3 JUMP JUMPDEST PUSH0 PUSH20 0xFFFFFFFFFFFFFFFFFFFFFFFFFFFFFFFFFFFFFFFF DUP3 AND SWAP1 POP SWAP2 SWAP1 POP JUMP JUMPDEST PUSH0 PUSH3 0x4B6 DUP3 PUSH3 0x48B JUMP JUMPDEST SWAP1 POP SWAP2 SWAP1 POP JUMP JUMPDEST PUSH3 0x4C8 DUP2 PUSH3 0x4AA JUMP JUMPDEST DUP3 MSTORE POP POP JUMP JUMPDEST PUSH0 PUSH1 0x20 DUP3 ADD SWAP1 POP PUSH3 0x4E3 PUSH0 DUP4 ADD DUP5 PUSH3 0x4BD JUMP JUMPDEST SWAP3 SWAP2 POP POP JUMP JUMPDEST PUSH0 DUP2 MLOAD SWAP1 POP SWAP2 SWAP1 POP JUMP JUMPDEST PUSH0 DUP3 DUP3 MSTORE PUSH1 0x20 DUP3 ADD SWAP1 POP SWAP3 SWAP2 POP POP JUMP JUMPDEST PUSH0 DUP2 SWAP1 POP PUSH1 0x20 DUP3 ADD SWAP1 POP SWAP2 SWAP1 POP JUMP JUMPDEST PUSH0 PUSH3 0x51E DUP3 PUSH3 0x48B JUMP JUMPDEST SWAP1 POP SWAP2 SWAP1 POP JUMP JUMPDEST PUSH3 0x530 DUP2 PUSH3 0x512 JUMP JUMPDEST DUP3 MSTORE POP POP JUMP JUMPDEST PUSH0 PUSH3 0x543 DUP4 DUP4 PUSH3 0x525 JUMP JUMPDEST PUSH1 0x20 DUP4 ADD SWAP1 POP SWAP3 SWAP2 POP POP JUMP JUMPDEST PUSH0 PUSH1 0x20 DUP3 ADD SWAP1 POP SWAP2 SWAP1 POP JUMP JUMPDEST PUSH0 PUSH3 0x567 DUP3 PUSH3 0x4E9 JUMP JUMPDEST PUSH3 0x573 DUP2 DUP6 PUSH3 0x4F3 JUMP JUMPDEST SWAP4 POP PUSH3 0x580 DUP4 PUSH3 0x503 JUMP JUMPDEST DUP1 PUSH0 JUMPDEST DUP4 DUP2 LT ISZERO PUSH3 0x5B6 JUMPI DUP2 MLOAD PUSH3 0x59A DUP9 DUP3 PUSH3 0x536 JUMP JUMPDEST SWAP8 POP PUSH3 0x5A7 DUP4 PUSH3 0x54F JUMP JUMPDEST SWAP3 POP POP PUSH1 0x1 DUP2 ADD SWAP1 POP PUSH3 0x583 JUMP JUMPDEST POP DUP6 SWAP4 POP POP POP POP SWAP3 SWAP2 POP POP JUMP JUMPDEST PUSH0 PUSH1 0x20 DUP3 ADD SWAP1 POP DUP2 DUP2 SUB PUSH0 DUP4 ADD MSTORE PUSH3 0x5DD DUP2 DUP5 PUSH3 0x55B JUMP JUMPDEST SWAP1 POP SWAP3 SWAP2 POP POP JUMP JUMPDEST PUSH0 PUSH1 0x20 DUP3 DUP5 SUB SLT ISZERO PUSH3 0x5FD JUMPI PUSH3 0x5FC PUSH3 0x25C JUMP JUMPDEST JUMPDEST PUSH0 PUSH3 0x60C DUP5 DUP3 DUP6 ADD PUSH3 0x3DE JUMP JUMPDEST SWAP2 POP POP SWAP3 SWAP2 POP POP JUMP JUMPDEST PUSH3 0x620 DUP2 PUSH3 0x512 JUMP JUMPDEST DUP3 MSTORE POP POP JUMP JUMPDEST PUSH0 PUSH1 0x20 DUP3 ADD SWAP1 POP PUSH3 0x63B PUSH0 DUP4 ADD DUP5 PUSH3 0x615 JUMP JUMPDEST SWAP3 SWAP2 POP POP JUMP JUMPDEST PUSH0 DUP2 MLOAD SWAP1 POP SWAP2 SWAP1 POP JUMP JUMPDEST PUSH0 DUP3 DUP3 MSTORE PUSH1 0x20 DUP3 ADD SWAP1 POP SWAP3 SWAP2 POP POP JUMP JUMPDEST PUSH0 JUMPDEST DUP4 DUP2 LT ISZERO PUSH3 0x67A JUMPI DUP1 DUP3 ADD MLOAD DUP2 DUP5 ADD MSTORE PUSH1 0x20 DUP2 ADD SWAP1 POP PUSH3 0x65D JUMP JUMPDEST PUSH0 DUP5 DUP5 ADD MSTORE POP POP POP POP JUMP JUMPDEST PUSH0 PUSH3 0x691 DUP3 PUSH3 0x641 JUMP JUMPDEST PUSH3 0x69D DUP2 DUP6 PUSH3 0x64B JUMP JUMPDEST SWAP4 POP PUSH3 0x6AF DUP2 DUP6 PUSH1 0x20 DUP7 ADD PUSH3 0x65B JUMP JUMPDEST PUSH3 0x6BA DUP2 PUSH3 0x26C JUMP JUMPDEST DUP5 ADD SWAP2 POP POP SWAP3 SWAP2 POP POP JUMP JUMPDEST PUSH3 0x6D0 DUP2 PUSH3 0x3BC JUMP JUMPDEST DUP3 MSTORE POP POP JUMP JUMPDEST PUSH0 PUSH1 0x60 DUP3 ADD SWAP1 POP DUP2 DUP2 SUB PUSH0 DUP4 ADD MSTORE PUSH3 0x6F0 DUP2 DUP7 PUSH3 0x685 JUMP JUMPDEST SWAP1 POP DUP2 DUP2 SUB PUSH1 0x20 DUP4 ADD MSTORE PUSH3 0x706 DUP2 DUP6 PUSH3 0x685 JUMP JUMPDEST SWAP1 POP PUSH3 0x717 PUSH1 0x40 DUP4 ADD DUP5 PUSH3 0x6C5 JUMP JUMPDEST SWAP5 SWAP4 POP POP POP POP JUMP INVALID PUSH1 0x80 PUSH1 0x40 MSTORE CALLVALUE DUP1 ISZERO PUSH3 0x10 JUMPI PUSH0 DUP1 REVERT JUMPDEST POP PUSH1 0x40 MLOAD PUSH3 0x905 CODESIZE SUB DUP1 PUSH3 0x905 DUP4 CODECOPY DUP2 DUP2 ADD PUSH1 0x40 MSTORE DUP2 ADD SWAP1 PUSH3 0x36 SWAP2 SWAP1 PUSH3 0x226 JUMP JUMPDEST DUP3 PUSH0 SWAP1 DUP2 PUSH3 0x46 SWAP2 SWAP1 PUSH3 0x4EB JUMP JUMPDEST POP DUP2 PUSH1 0x1 SWAP1 DUP2 PUSH3 0x58 SWAP2 SWAP1 PUSH3 0x4EB JUMP JUMPDEST POP DUP1 PUSH1 0x2 DUP2 SWAP1 SSTORE POP POP POP POP PUSH3 0x5CF JUMP JUMPDEST PUSH0 PUSH1 0x40 MLOAD SWAP1 POP SWAP1 JUMP JUMPDEST PUSH0 DUP1 REVERT JUMPDEST PUSH0 DUP1 REVERT JUMPDEST PUSH0 DUP1 REVERT JUMPDEST PUSH0 DUP1 REVERT JUMPDEST PUSH0 PUSH1 0x1F NOT PUSH1 0x1F DUP4 ADD AND SWAP1 POP SWAP2 SWAP1 POP JUMP JUMPDEST PUSH32 0x4E487B7100000000000000000000000000000000000000000000000000000000 PUSH0 MSTORE PUSH1 0x41 PUSH1 0x4 MSTORE PUSH1 0x24 PUSH0 REVERT JUMPDEST PUSH3 0xCA DUP3 PUSH3 0x82 JUMP JUMPDEST DUP2 ADD DUP2 DUP2 LT PUSH8 0xFFFFFFFFFFFFFFFF DUP3 GT OR ISZERO PUSH3 0xEC JUMPI PUSH3 0xEB PUSH3 0x92 JUMP JUMPDEST JUMPDEST DUP1 PUSH1 0x40 MSTORE POP POP POP JUMP JUMPDEST PUSH0 PUSH3 0x100 PUSH3 0x69 JUMP JUMPDEST SWAP1 POP PUSH3 0x10E DUP3 DUP3 PUSH3 0xBF JUMP JUMPDEST SWAP2 SWAP1 POP JUMP JUMPDEST PUSH0 PUSH8 0xFFFFFFFFFFFFFFFF DUP3 GT ISZERO PUSH3 0x130 JUMPI PUSH3 0x12F PUSH3 0x92 JUMP JUMPDEST JUMPDEST PUSH3 0x13B DUP3 PUSH3 0x82 JUMP JUMPDEST SWAP1 POP PUSH1 0x20 DUP2 ADD SWAP1 POP SWAP2 SWAP1 POP JUMP JUMPDEST PUSH0 JUMPDEST DUP4 DUP2 LT ISZERO PUSH3 0x167 JUMPI DUP1 DUP3 ADD MLOAD DUP2 DUP5 ADD MSTORE PUSH1 0x20 DUP2 ADD SWAP1 POP PUSH3 0x14A JUMP JUMPDEST PUSH0 DUP5 DUP5 ADD MSTORE POP POP POP POP JUMP JUMPDEST PUSH0 PUSH3 0x188 PUSH3 0x182 DUP5 PUSH3 0x113 JUMP JUMPDEST PUSH3 0xF5 JUMP JUMPDEST SWAP1 POP DUP3 DUP2 MSTORE PUSH1 0x20 DUP2 ADD DUP5 DUP5 DUP5 ADD GT ISZERO PUSH3 0x1A7 JUMPI PUSH3 0x1A6 PUSH3 0x7E JUMP JUMPDEST JUMPDEST PUSH3 0x1B4 DUP5 DUP3 DUP6 PUSH3 0x148 JUMP JUMPDEST POP SWAP4 SWAP3 POP POP POP JUMP JUMPDEST PUSH0 DUP3 PUSH1 0x1F DUP4 ADD SLT PUSH3 0x1D3 JUMPI PUSH3 0x1D2 PUSH3 0x7A JUMP JUMPDEST JUMPDEST DUP2 MLOAD PUSH3 0x1E5 DUP5 DUP3 PUSH1 0x20 DUP7 ADD PUSH3 0x172 JUMP JUMPDEST SWAP2 POP POP SWAP3 SWAP2 POP POP JUMP JUMPDEST PUSH0 DUP2 SWAP1 POP SWAP2 SWAP1 POP JUMP JUMPDEST PUSH3 0x202 DUP2 PUSH3 0x1EE JUMP JUMPDEST DUP2 EQ PUSH3 0x20D JUMPI PUSH0 DUP1 REVERT JUMPDEST POP JUMP JUMPDEST PUSH0 DUP2 MLOAD SWAP1 POP PUSH3 0x220 DUP2 PUSH3 0x1F7 JUMP JUMPDEST SWAP3 SWAP2 POP POP JUMP JUMPDEST PUSH0 DUP1 PUSH0 PUSH1 0x60 DUP5 DUP7 SUB SLT ISZERO PUSH3 0x240 JUMPI PUSH3 0x23F PUSH3 0x72 JUMP JUMPDEST JUMPDEST PUSH0 DUP5 ADD MLOAD PUSH8 0xFFFFFFFFFFFFFFFF DUP2 GT ISZERO PUSH3 0x260 JUMPI PUSH3 0x25F PUSH3 0x76 JUMP JUMPDEST JUMPDEST PUSH3 0x26E DUP7 DUP3 DUP8 ADD PUSH3 0x1BC JUMP JUMPDEST SWAP4 POP POP PUSH1 0x20 DUP5 ADD MLOAD PUSH8 0xFFFFFFFFFFFFFFFF DUP2 GT ISZERO PUSH3 0x292 JUMPI PUSH3 0x291 PUSH3 0x76 JUMP JUMPDEST JUMPDEST PUSH3 0x2A0 DUP7 DUP3 DUP8 ADD PUSH3 0x1BC JUMP JUMPDEST SWAP3 POP POP PUSH1 0x40 PUSH3 0x2B3 DUP7 DUP3 DUP8 ADD PUSH3 0x210 JUMP JUMPDEST SWAP2 POP POP SWAP3 POP SWAP3 POP SWAP3 JUMP JUMPDEST PUSH0 DUP2 MLOAD SWAP1 POP SWAP2 SWAP1 POP JUMP JUMPDEST PUSH32 0x4E487B7100000000000000000000000000000000000000000000000000000000 PUSH0 MSTORE PUSH1 0x22 PUSH1 0x4 MSTORE PUSH1 0x24 PUSH0 REVERT JUMPDEST PUSH0 PUSH1 0x2 DUP3 DIV SWAP1 POP PUSH1 0x1 DUP3 AND DUP1 PUSH3 0x30C JUMPI PUSH1 0x7F DUP3 AND SWAP2 POP JUMPDEST PUSH1 0x20 DUP3 LT DUP2 SUB PUSH3 0x322 JUMPI PUSH3 0x321 PUSH3 0x2C7 JUMP JUMPDEST JUMPDEST POP SWAP2 SWAP1 POP JUMP JUMPDEST PUSH0 DUP2 SWAP1 POP DUP2 PUSH0 MSTORE PUSH1 0x20 PUSH0 KECCAK256 SWAP1 POP SWAP2 SWAP1 POP JUMP JUMPDEST PUSH0 PUSH1 0x20 PUSH1 0x1F DUP4 ADD DIV SWAP1 POP SWAP2 SWAP1 POP JUMP JUMPDEST PUSH0 DUP3 DUP3 SHL SWAP1 POP SWAP3 SWAP2 POP POP JUMP JUMPDEST PUSH0 PUSH1 0x8 DUP4 MUL PUSH3 0x386 PUSH32 0xFFFFFFFFFFFFFFFFFFFFFFFFFFFFFFFFFFFFFFFFFFFFFFFFFFFFFFFFFFFFFFFF DUP3 PUSH3 0x349 JUMP JUMPDEST PUSH3 0x392 DUP7 DUP4 PUSH3 0x349 JUMP JUMPDEST SWAP6 POP DUP1 NOT DUP5 AND SWAP4 POP DUP1 DUP7 AND DUP5 OR SWAP3 POP POP POP SWAP4 SWAP3 POP POP POP JUMP JUMPDEST PUSH0 DUP2 SWAP1 POP SWAP2 SWAP1 POP JUMP JUMPDEST PUSH0 PUSH3 0x3D3 PUSH3 0x3CD PUSH3 0x3C7 DUP5 PUSH3 0x1EE JUMP JUMPDEST PUSH3 0x3AA JUMP JUMPDEST PUSH3 0x1EE JUMP JUMPDEST SWAP1 POP SWAP2 SWAP1 POP JUMP JUMPDEST PUSH0 DUP2 SWAP1 POP SWAP2 SWAP1 POP JUMP JUMPDEST PUSH3 0x3EE DUP4 PUSH3 0x3B3 JUMP JUMPDEST PUSH3 0x406 PUSH3 0x3FD DUP3 PUSH3 0x3DA JUMP JUMPDEST DUP5 DUP5 SLOAD PUSH3 0x355 JUMP JUMPDEST DUP3 SSTORE POP POP POP POP JUMP JUMPDEST PUSH0 SWAP1 JUMP JUMPDEST PUSH3 0x41C PUSH3 0x40E JUMP JUMPDEST PUSH3 0x429 DUP2 DUP5 DUP5 PUSH3 0x3E3 JUMP JUMPDEST POP POP POP JUMP JUMPDEST JUMPDEST DUP2 DUP2 LT ISZERO PUSH3 0x450 JUMPI PUSH3 0x444 PUSH0 DUP3 PUSH3 0x412 JUMP JUMPDEST PUSH1 0x1 DUP2 ADD SWAP1 POP PUSH3 0x42F JUMP JUMPDEST POP POP JUMP JUMPDEST PUSH1 0x1F DUP3 GT ISZERO PUSH3 0x49F JUMPI PUSH3 0x469 DUP2 PUSH3 0x328 JUMP JUMPDEST PUSH3 0x474 DUP5 PUSH3 0x33A JUMP JUMPDEST DUP2 ADD PUSH1 0x20 DUP6 LT ISZERO PUSH3 0x484 JUMPI DUP2 SWAP1 POP JUMPDEST PUSH3 0x49C PUSH3 0x493 DUP6 PUSH3 0x33A JUMP JUMPDEST DUP4 ADD DUP3 PUSH3 0x42E JUMP JUMPDEST POP POP JUMPDEST POP POP POP JUMP JUMPDEST PUSH0 DUP3 DUP3 SHR SWAP1 POP SWAP3 SWAP2 POP POP JUMP JUMPDEST PUSH0 PUSH3 0x4C1 PUSH0 NOT DUP5 PUSH1 0x8 MUL PUSH3 0x4A4 JUMP JUMPDEST NOT DUP1 DUP4 AND SWAP2 POP POP SWAP3 SWAP2 POP POP JUMP JUMPDEST PUSH0 PUSH3 0x4DB DUP4 DUP4 PUSH3 0x4B0 JUMP JUMPDEST SWAP2 POP DUP3 PUSH1 0x2 MUL DUP3 OR SWAP1 POP SWAP3 SWAP2 POP POP JUMP JUMPDEST PUSH3 0x4F6 DUP3 PUSH3 0x2BD JUMP JUMPDEST PUSH8 0xFFFFFFFFFFFFFFFF DUP2 GT ISZERO PUSH3 0x512 JUMPI PUSH3 0x511 PUSH3 0x92 JUMP JUMPDEST JUMPDEST PUSH3 0x51E DUP3 SLOAD PUSH3 0x2F4 JUMP JUMPDEST PUSH3 0x52B DUP3 DUP3 DUP6 PUSH3 0x454 JUMP JUMPDEST PUSH0 PUSH1 0x20 SWAP1 POP PUSH1 0x1F DUP4 GT PUSH1 0x1 DUP2 EQ PUSH3 0x561 JUMPI PUSH0 DUP5 ISZERO PUSH3 0x54C JUMPI DUP3 DUP8 ADD MLOAD SWAP1 POP JUMPDEST PUSH3 0x558 DUP6 DUP3 PUSH3 0x4CE JUMP JUMPDEST DUP7 SSTORE POP PUSH3 0x5C7 JUMP JUMPDEST PUSH1 0x1F NOT DUP5 AND PUSH3 0x571 DUP7 PUSH3 0x328 JUMP JUMPDEST PUSH0 JUMPDEST DUP3 DUP2 LT ISZERO PUSH3 0x59A JUMPI DUP5 DUP10 ADD MLOAD DUP3 SSTORE PUSH1 0x1 DUP3 ADD SWAP2 POP PUSH1 0x20 DUP6 ADD SWAP5 POP PUSH1 0x20 DUP2 ADD SWAP1 POP PUSH3 0x573 JUMP JUMPDEST DUP7 DUP4 LT ISZERO PUSH3 0x5BA JUMPI DUP5 DUP10 ADD MLOAD PUSH3 0x5B6 PUSH1 0x1F DUP10 AND DUP3 PUSH3 0x4B0 JUMP JUMPDEST DUP4 SSTORE POP JUMPDEST PUSH1 0x1 PUSH1 0x2 DUP9 MUL ADD DUP9 SSTORE POP POP POP JUMPDEST POP POP POP POP POP POP JUMP JUMPDEST PUSH2 0x328 DUP1 PUSH3 0x5DD PUSH0 CODECOPY PUSH0 RETURN INVALID PUSH1 0x80 PUSH1 0x40 MSTORE CALLVALUE DUP1 ISZERO PUSH2 0xF JUMPI PUSH0 DUP1 REVERT JUMPDEST POP PUSH1 0x4 CALLDATASIZE LT PUSH2 0x3F JUMPI PUSH0 CALLDATALOAD PUSH1 0xE0 SHR DUP1 PUSH4 0x61FAC54D EQ PUSH2 0x43 JUMPI DUP1 PUSH4 0x79CAAD86 EQ PUSH2 0x61 JUMPI DUP1 PUSH4 0x9284F497 EQ PUSH2 0x7F JUMPI JUMPDEST PUSH0 DUP1 REVERT JUMPDEST PUSH2 0x4B PUSH2 0x9D JUMP JUMPDEST PUSH1 0x40 MLOAD PUSH2 0x58 SWAP2 SWAP1 PUSH2 0x244 JUMP JUMPDEST PUSH1 0x40 MLOAD DUP1 SWAP2 SUB SWAP1 RETURN JUMPDEST PUSH2 0x69 PUSH2 0x128 JUMP JUMPDEST PUSH1 0x40 MLOAD PUSH2 0x76 SWAP2 SWAP1 PUSH2 0x244 JUMP JUMPDEST PUSH1 0x40 MLOAD DUP1 SWAP2 SUB SWAP1 RETURN JUMPDEST PUSH2 0x87 PUSH2 0x1B4 JUMP JUMPDEST PUSH1 0x40 MLOAD PUSH2 0x94 SWAP2 SWAP1 PUSH2 0x27C JUMP JUMPDEST PUSH1 0x40 MLOAD DUP1 SWAP2 SUB SWAP1 RETURN JUMPDEST PUSH0 DUP1 SLOAD PUSH2 0xA9 SWAP1 PUSH2 0x2C2 JUMP JUMPDEST DUP1 PUSH1 0x1F ADD PUSH1 0x20 DUP1 SWAP2 DIV MUL PUSH1 0x20 ADD PUSH1 0x40 MLOAD SWAP1 DUP2 ADD PUSH1 0x40 MSTORE DUP1 SWAP3 SWAP2 SWAP1 DUP2 DUP2 MSTORE PUSH1 0x20 ADD DUP3 DUP1 SLOAD PUSH2 0xD5 SWAP1 PUSH2 0x2C2 JUMP JUMPDEST DUP1 ISZERO PUSH2 0x120 JUMPI DUP1 PUSH1 0x1F LT PUSH2 0xF7 JUMPI PUSH2 0x100 DUP1 DUP4 SLOAD DIV MUL DUP4 MSTORE SWAP2 PUSH1 0x20 ADD SWAP2 PUSH2 0x120 JUMP JUMPDEST DUP3 ADD SWAP2 SWAP1 PUSH0 MSTORE PUSH1 0x20 PUSH0 KECCAK256 SWAP1 JUMPDEST DUP2 SLOAD DUP2 MSTORE SWAP1 PUSH1 0x1 ADD SWAP1 PUSH1 0x20 ADD DUP1 DUP4 GT PUSH2 0x103 JUMPI DUP3 SWAP1 SUB PUSH1 0x1F AND DUP3 ADD SWAP2 JUMPDEST POP POP POP POP POP DUP2 JUMP JUMPDEST PUSH1 0x1 DUP1 SLOAD PUSH2 0x135 SWAP1 PUSH2 0x2C2 JUMP JUMPDEST DUP1 PUSH1 0x1F ADD PUSH1 0x20 DUP1 SWAP2 DIV MUL PUSH1 0x20 ADD PUSH1 0x40 MLOAD SWAP1 DUP2 ADD PUSH1 0x40 MSTORE DUP1 SWAP3 SWAP2 SWAP1 DUP2 DUP2 MSTORE PUSH1 0x20 ADD DUP3 DUP1 SLOAD PUSH2 0x161 SWAP1 PUSH2 0x2C2 JUMP JUMPDEST DUP1 ISZERO PUSH2 0x1AC JUMPI DUP1 PUSH1 0x1F LT PUSH2 0x183 JUMPI PUSH2 0x100 DUP1 DUP4 SLOAD DIV MUL DUP4 MSTORE SWAP2 PUSH1 0x20 ADD SWAP2 PUSH2 0x1AC JUMP JUMPDEST DUP3 ADD SWAP2 SWAP1 PUSH0 MSTORE PUSH1 0x20 PUSH0 KECCAK256 SWAP1 JUMPDEST DUP2 SLOAD DUP2 MSTORE SWAP1 PUSH1 0x1 ADD SWAP1 PUSH1 0x20 ADD DUP1 DUP4 GT PUSH2 0x18F JUMPI DUP3 SWAP1 SUB PUSH1 0x1F AND DUP3 ADD SWAP2 JUMPDEST POP POP POP POP POP DUP2 JUMP JUMPDEST PUSH1 0x2 SLOAD DUP2 JUMP JUMPDEST PUSH0 DUP2 MLOAD SWAP1 POP SWAP2 SWAP1 POP JUMP JUMPDEST PUSH0 DUP3 DUP3 MSTORE PUSH1 0x20 DUP3 ADD SWAP1 POP SWAP3 SWAP2 POP POP JUMP JUMPDEST PUSH0 JUMPDEST DUP4 DUP2 LT ISZERO PUSH2 0x1F1 JUMPI DUP1 DUP3 ADD MLOAD DUP2 DUP5 ADD MSTORE PUSH1 0x20 DUP2 ADD SWAP1 POP PUSH2 0x1D6 JUMP JUMPDEST PUSH0 DUP5 DUP5 ADD MSTORE POP POP POP POP JUMP JUMPDEST PUSH0 PUSH1 0x1F NOT PUSH1 0x1F DUP4 ADD AND SWAP1 POP SWAP2 SWAP1 POP JUMP JUMPDEST PUSH0 PUSH2 0x216 DUP3 PUSH2 0x1BA JUMP JUMPDEST PUSH2 0x220 DUP2 DUP6 PUSH2 0x1C4 JUMP JUMPDEST SWAP4 POP PUSH2 0x230 DUP2 DUP6 PUSH1 0x20 DUP7 ADD PUSH2 0x1D4 JUMP JUMPDEST PUSH2 0x239 DUP2 PUSH2 0x1FC JUMP JUMPDEST DUP5 ADD SWAP2 POP POP SWAP3 SWAP2 POP POP JUMP JUMPDEST PUSH0 PUSH1 0x20 DUP3 ADD SWAP1 POP DUP2 DUP2 SUB PUSH0 DUP4 ADD MSTORE PUSH2 0x25C DUP2 DUP5 PUSH2 0x20C JUMP JUMPDEST SWAP1 POP SWAP3 SWAP2 POP POP JUMP JUMPDEST PUSH0 DUP2 SWAP1 POP SWAP2 SWAP1 POP JUMP JUMPDEST PUSH2 0x276 DUP2 PUSH2 0x264 JUMP JUMPDEST DUP3 MSTORE POP POP JUMP JUMPDEST PUSH0 PUSH1 0x20 DUP3 ADD SWAP1 POP PUSH2 0x28F PUSH0 DUP4 ADD DUP5 PUSH2 0x26D JUMP JUMPDEST SWAP3 SWAP2 POP POP JUMP JUMPDEST PUSH32 0x4E487B7100000000000000000000000000000000000000000000000000000000 PUSH0 MSTORE PUSH1 0x22 PUSH1 0x4 MSTORE PUSH1 0x24 PUSH0 REVERT JUMPDEST PUSH0 PUSH1 0x2 DUP3 DIV SWAP1 POP PUSH1 0x1 DUP3 AND DUP1 PUSH2 0x2D9 JUMPI PUSH1 0x7F DUP3 AND SWAP2 POP JUMPDEST PUSH1 0x20 DUP3 LT DUP2 SUB PUSH2 0x2EC JUMPI PUSH2 0x2EB PUSH2 0x295 JUMP JUMPDEST JUMPDEST POP SWAP2 SWAP1 POP JUMP INVALID LOG2 PUSH5 0x6970667358 0x22 SLT KECCAK256 JUMP 0xE9 0xC6 LOG3 NOT PUSH29 0xF024B256B69D7FE39A17145B4973621A7BCAF76AA453A0956DD64736F PUSH13 0x63430008150033A26469706673 PC 0x22 SLT KECCAK256 0xB1 PUSH15 0xFDF325E33878E4EFF1B435E6F63540 PUSH15 0x87C07C268D78B5DFF93BA1F8585E64 PUSH20 0x6F6C634300081500330000000000000000000000 "},"gasEstimates":{"creation":{"codeDepositCost":"837200","executionCost":"868","totalCost":"838068"},"external":{"allPatients(uint256)":"4965","createNewPatient(string,string,uint256)":"infinite","getAllPatients()":"infinite"}},"methodIdentifiers":{"allPatients(uint256)":"d8f608df","createNewPatient(string,string,uint256)":"027e7b9d","getAllPatients()":"18a231a9"}},"storageLayout":{"storage":[{"astId":4,"contract":"hmsb.sol:Factory","label":"allPatients","offset":0,"slot":"0","type":"t_array(t_address_payable)dyn_storage"}],"types":{"t_address_payable":{"encoding":"inplace","label":"address payable","numberOfBytes":"20"},"t_array(t_address_payable)dyn_storage":{"base":"t_address_payable","encoding":"dynamic_array","label":"address payable[]","numberOfBytes":"32"}}},"userdoc":{"kind":"user","methods":{},"version":1}}