{"abi":[{"inputs":[],"stateMutability":"nonpayable","type":"constructor"},{"inputs":[],"name":"bloodGlucose","outputs":[{"internalType":"uint256","name":"","type":"uint256"}],"stateMutability":"view","type":"function"},{"inputs":[],"name":"dbp","outputs":[{"internalType":"uint256","name":"","type":"uint256"}],"stateMutability":"view","type":"function"},{"inputs":[],"name":"gender","outputs":[{"internalType":"string","name":"","type":"string"}],"stateMutability":"view","type":"function"},{"inputs":[],"name":"oxygenSaturation","outputs":[{"internalType":"uint256","name":"","type":"uint256"}],"stateMutability":"view","type":"function"},{"inputs":[],"name":"phone","outputs":[{"internalType":"uint256","name":"","type":"uint256"}],"stateMutability":"view","type":"function"},{"inputs":[],"name":"pulse","outputs":[{"internalType":"uint256","name":"","type":"uint256"}],"stateMutability":"view","type":"function"},{"inputs":[],"name":"pulsePressure","outputs":[{"internalType":"uint256","name":"","type":"uint256"}],"stateMutability":"view","type":"function"},{"inputs":[],"name":"respiratoryRate","outputs":[{"internalType":"uint256","name":"","type":"uint256"}],"stateMutability":"view","type":"function"},{"inputs":[],"name":"sbp","outputs":[{"internalType":"uint256","name":"","type":"uint256"}],"stateMutability":"view","type":"function"},{"inputs":[{"internalType":"uint256","name":"_bloodGlucose","type":"uint256"}],"name":"setBloodGlucose","outputs":[],"stateMutability":"nonpayable","type":"function"},{"inputs":[{"internalType":"uint256","name":"_dbp","type":"uint256"}],"name":"setDbp","outputs":[],"stateMutability":"nonpayable","type":"function"},{"inputs":[{"internalType":"string","name":"_gender","type":"string"}],"name":"setGender","outputs":[],"stateMutability":"nonpayable","type":"function"},{"inputs":[{"internalType":"uint256","name":"_oxygenSaturation","type":"uint256"}],"name":"setOxygenSaturation","outputs":[],"stateMutability":"nonpayable","type":"function"},{"inputs":[{"internalType":"uint256","name":"_phone","type":"uint256"}],"name":"setPhone","outputs":[],"stateMutability":"nonpayable","type":"function"},{"inputs":[{"internalType":"uint256","name":"_pulse","type":"uint256"}],"name":"setPulse","outputs":[],"stateMutability":"nonpayable","type":"function"},{"inputs":[{"internalType":"uint256","name":"_pulsePressure","type":"uint256"}],"name":"setPulsePressure","outputs":[],"stateMutability":"nonpayable","type":"function"},{"inputs":[{"internalType":"uint256","name":"_respiratoryRate","type":"uint256"}],"name":"setRespiratoryRate","outputs":[],"stateMutability":"nonpayable","type":"function"},{"inputs":[{"internalType":"uint256","name":"_sbp","type":"uint256"}],"name":"setSbp","outputs":[],"stateMutability":"nonpayable","type":"function"},{"inputs":[{"internalType":"uint256","name":"_temperature","type":"uint256"}],"name":"setTemperature","outputs":[],"stateMutability":"nonpayable","type":"function"},{"inputs":[{"internalType":"string","name":"_username","type":"string"}],"name":"setUsername","outputs":[],"stateMutability":"nonpayable","type":"function"},{"inputs":[],"name":"temperature","outputs":[{"internalType":"uint256","name":"","type":"uint256"}],"stateMutability":"view","type":"function"},{"inputs":[],"name":"username","outputs":[{"internalType":"string","name":"","type":"string"}],"stateMutability":"view","type":"function"}],"devdoc":{"kind":"dev","methods":{},"version":1},"evm":{"assembly":"    /* \"hmsb.sol\":445:1855  contract Patient {... */\n  mstore(0x40, 0x80)\n    /* \"hmsb.sol\":469:485  constructor() {} */\n  callvalue\n  dup1\n  iszero\n  tag_1\n  jumpi\n  0x00\n  dup1\n  revert\ntag_1:\n  pop\n    /* \"hmsb.sol\":445:1855  contract Patient {... */\n  dataSize(sub_0)\n  dup1\n  dataOffset(sub_0)\n  0x00\n  codecopy\n  0x00\n  return\nstop\n\nsub_0: assembly {\n        /* \"hmsb.sol\":445:1855  contract Patient {... */\n      mstore(0x40, 0x80)\n      callvalue\n      dup1\n      iszero\n      tag_1\n      jumpi\n      0x00\n      dup1\n      revert\n    tag_1:\n      pop\n      jumpi(tag_2, lt(calldatasize, 0x04))\n      shr(0xe0, calldataload(0x00))\n      dup1\n      0x9284f497\n      gt\n      tag_25\n      jumpi\n      dup1\n      0xdeb189b5\n      gt\n      tag_26\n      jumpi\n      dup1\n      0xdeb189b5\n      eq\n      tag_19\n      jumpi\n      dup1\n      0xe211552d\n      eq\n      tag_20\n      jumpi\n      dup1\n      0xe42b0f2b\n      eq\n      tag_21\n      jumpi\n      dup1\n      0xed59313a\n      eq\n      tag_22\n      jumpi\n      dup1\n      0xf212e265\n      eq\n      tag_23\n      jumpi\n      dup1\n      0xfb14326f\n      eq\n      tag_24\n      jumpi\n      jump(tag_2)\n    tag_26:\n      dup1\n      0x9284f497\n      eq\n      tag_14\n      jumpi\n      dup1\n      0xa0abadbe\n      eq\n      tag_15\n      jumpi\n      dup1\n      0xadccea12\n      eq\n      tag_16\n      jumpi\n      dup1\n      0xb89a64e8\n      eq\n      tag_17\n      jumpi\n      dup1\n      0xbbe63ad8\n      eq\n      tag_18\n      jumpi\n      jump(tag_2)\n    tag_25:\n      dup1\n      0x467621c6\n      gt\n      tag_27\n      jumpi\n      dup1\n      0x467621c6\n      eq\n      tag_8\n      jumpi\n      dup1\n      0x48f14470\n      eq\n      tag_9\n      jumpi\n      dup1\n      0x586b8a56\n      eq\n      tag_10\n      jumpi\n      dup1\n      0x60696643\n      eq\n      tag_11\n      jumpi\n      dup1\n      0x61fac54d\n      eq\n      tag_12\n      jumpi\n      dup1\n      0x79caad86\n      eq\n      tag_13\n      jumpi\n      jump(tag_2)\n    tag_27:\n      dup1\n      0x04740594\n      eq\n      tag_3\n      jumpi\n      dup1\n      0x05ec5f51\n      eq\n      tag_4\n      jumpi\n      dup1\n      0x0b1b6e93\n      eq\n      tag_5\n      jumpi\n      dup1\n      0x1c59a288\n      eq\n      tag_6\n      jumpi\n      dup1\n      0x333f4362\n      eq\n      tag_7\n      jumpi\n    tag_2:\n      0x00\n      dup1\n      revert\n        /* \"hmsb.sol\":1147:1210  function setDbp(uint _dbp) public {... */\n    tag_3:\n      tag_28\n      0x04\n      dup1\n      calldatasize\n      sub\n      dup2\n      add\n      swap1\n      tag_29\n      swap2\n      swap1\n      tag_30\n      jump\t// in\n    tag_29:\n      tag_31\n      jump\t// in\n    tag_28:\n      stop\n        /* \"hmsb.sol\":595:610  uint public dbp */\n    tag_4:\n      tag_32\n      tag_33\n      jump\t// in\n    tag_32:\n      mload(0x40)\n      tag_34\n      swap2\n      swap1\n      tag_35\n      jump\t// in\n    tag_34:\n      mload(0x40)\n      dup1\n      swap2\n      sub\n      swap1\n      return\n        /* \"hmsb.sol\":772:796  uint public bloodGlucose */\n    tag_5:\n      tag_36\n      tag_37\n      jump\t// in\n    tag_36:\n      mload(0x40)\n      tag_38\n      swap2\n      swap1\n      tag_35\n      jump\t// in\n    tag_38:\n      mload(0x40)\n      dup1\n      swap2\n      sub\n      swap1\n      return\n        /* \"hmsb.sol\":617:642  uint public pulsePressure */\n    tag_6:\n      tag_39\n      tag_40\n      jump\t// in\n    tag_39:\n      mload(0x40)\n      tag_41\n      swap2\n      swap1\n      tag_35\n      jump\t// in\n    tag_41:\n      mload(0x40)\n      dup1\n      swap2\n      sub\n      swap1\n      return\n        /* \"hmsb.sol\":1408:1519  function setRespiratoryRate(uint _respiratoryRate) public {... */\n    tag_7:\n      tag_42\n      0x04\n      dup1\n      calldatasize\n      sub\n      dup2\n      add\n      swap1\n      tag_43\n      swap2\n      swap1\n      tag_30\n      jump\t// in\n    tag_43:\n      tag_44\n      jump\t// in\n    tag_42:\n      stop\n        /* \"hmsb.sol\":573:588  uint public sbp */\n    tag_8:\n      tag_45\n      tag_46\n      jump\t// in\n    tag_45:\n      mload(0x40)\n      tag_47\n      swap2\n      swap1\n      tag_35\n      jump\t// in\n    tag_47:\n      mload(0x40)\n      dup1\n      swap2\n      sub\n      swap1\n      return\n        /* \"hmsb.sol\":1527:1622  function setTemperature(uint _temperature) public {... */\n    tag_9:\n      tag_48\n      0x04\n      dup1\n      calldatasize\n      sub\n      dup2\n      add\n      swap1\n      tag_49\n      swap2\n      swap1\n      tag_30\n      jump\t// in\n    tag_49:\n      tag_50\n      jump\t// in\n    tag_48:\n      stop\n        /* \"hmsb.sol\":1076:1139  function setSbp(uint _sbp) public {... */\n    tag_10:\n      tag_51\n      0x04\n      dup1\n      calldatasize\n      sub\n      dup2\n      add\n      swap1\n      tag_52\n      swap2\n      swap1\n      tag_30\n      jump\t// in\n    tag_52:\n      tag_53\n      jump\t// in\n    tag_51:\n      stop\n        /* \"hmsb.sol\":1329:1400  function setPulse(uint _pulse) public {... */\n    tag_11:\n      tag_54\n      0x04\n      dup1\n      calldatasize\n      sub\n      dup2\n      add\n      swap1\n      tag_55\n      swap2\n      swap1\n      tag_30\n      jump\t// in\n    tag_55:\n      tag_56\n      jump\t// in\n    tag_54:\n      stop\n        /* \"hmsb.sol\":493:515  string public username */\n    tag_12:\n      tag_57\n      tag_58\n      jump\t// in\n    tag_57:\n      mload(0x40)\n      tag_59\n      swap2\n      swap1\n      tag_60\n      jump\t// in\n    tag_59:\n      mload(0x40)\n      dup1\n      swap2\n      sub\n      swap1\n      return\n        /* \"hmsb.sol\":522:542  string public gender */\n    tag_13:\n      tag_61\n      tag_62\n      jump\t// in\n    tag_61:\n      mload(0x40)\n      tag_63\n      swap2\n      swap1\n      tag_60\n      jump\t// in\n    tag_63:\n      mload(0x40)\n      dup1\n      swap2\n      sub\n      swap1\n      return\n        /* \"hmsb.sol\":549:566  uint public phone */\n    tag_14:\n      tag_64\n      tag_65\n      jump\t// in\n    tag_64:\n      mload(0x40)\n      tag_66\n      swap2\n      swap1\n      tag_35\n      jump\t// in\n    tag_66:\n      mload(0x40)\n      dup1\n      swap2\n      sub\n      swap1\n      return\n        /* \"hmsb.sol\":1630:1745  function setOxygenSaturation(uint _oxygenSaturation) public {... */\n    tag_15:\n      tag_67\n      0x04\n      dup1\n      calldatasize\n      sub\n      dup2\n      add\n      swap1\n      tag_68\n      swap2\n      swap1\n      tag_30\n      jump\t// in\n    tag_68:\n      tag_69\n      jump\t// in\n    tag_67:\n      stop\n        /* \"hmsb.sol\":707:730  uint public temperature */\n    tag_16:\n      tag_70\n      tag_71\n      jump\t// in\n    tag_70:\n      mload(0x40)\n      tag_72\n      swap2\n      swap1\n      tag_35\n      jump\t// in\n    tag_72:\n      mload(0x40)\n      dup1\n      swap2\n      sub\n      swap1\n      return\n        /* \"hmsb.sol\":737:765  uint public oxygenSaturation */\n    tag_17:\n      tag_73\n      tag_74\n      jump\t// in\n    tag_73:\n      mload(0x40)\n      tag_75\n      swap2\n      swap1\n      tag_35\n      jump\t// in\n    tag_75:\n      mload(0x40)\n      dup1\n      swap2\n      sub\n      swap1\n      return\n        /* \"hmsb.sol\":1218:1321  function setPulsePressure(uint _pulsePressure) public {... */\n    tag_18:\n      tag_76\n      0x04\n      dup1\n      calldatasize\n      sub\n      dup2\n      add\n      swap1\n      tag_77\n      swap2\n      swap1\n      tag_30\n      jump\t// in\n    tag_77:\n      tag_78\n      jump\t// in\n    tag_76:\n      stop\n        /* \"hmsb.sol\":649:666  uint public pulse */\n    tag_19:\n      tag_79\n      tag_80\n      jump\t// in\n    tag_79:\n      mload(0x40)\n      tag_81\n      swap2\n      swap1\n      tag_35\n      jump\t// in\n    tag_81:\n      mload(0x40)\n      dup1\n      swap2\n      sub\n      swap1\n      return\n        /* \"hmsb.sol\":997:1068  function setPhone(uint _phone) public {... */\n    tag_20:\n      tag_82\n      0x04\n      dup1\n      calldatasize\n      sub\n      dup2\n      add\n      swap1\n      tag_83\n      swap2\n      swap1\n      tag_30\n      jump\t// in\n    tag_83:\n      tag_84\n      jump\t// in\n    tag_82:\n      stop\n        /* \"hmsb.sol\":1753:1852  function setBloodGlucose(uint _bloodGlucose) public {... */\n    tag_21:\n      tag_85\n      0x04\n      dup1\n      calldatasize\n      sub\n      dup2\n      add\n      swap1\n      tag_86\n      swap2\n      swap1\n      tag_30\n      jump\t// in\n    tag_86:\n      tag_87\n      jump\t// in\n    tag_85:\n      stop\n        /* \"hmsb.sol\":805:897  function setUsername(string memory _username) public {... */\n    tag_22:\n      tag_88\n      0x04\n      dup1\n      calldatasize\n      sub\n      dup2\n      add\n      swap1\n      tag_89\n      swap2\n      swap1\n      tag_90\n      jump\t// in\n    tag_89:\n      tag_91\n      jump\t// in\n    tag_88:\n      stop\n        /* \"hmsb.sol\":905:989  function setGender(string memory _gender) public {... */\n    tag_23:\n      tag_92\n      0x04\n      dup1\n      calldatasize\n      sub\n      dup2\n      add\n      swap1\n      tag_93\n      swap2\n      swap1\n      tag_90\n      jump\t// in\n    tag_93:\n      tag_94\n      jump\t// in\n    tag_92:\n      stop\n        /* \"hmsb.sol\":673:700  uint public respiratoryRate */\n    tag_24:\n      tag_95\n      tag_96\n      jump\t// in\n    tag_95:\n      mload(0x40)\n      tag_97\n      swap2\n      swap1\n      tag_35\n      jump\t// in\n    tag_97:\n      mload(0x40)\n      dup1\n      swap2\n      sub\n      swap1\n      return\n        /* \"hmsb.sol\":1147:1210  function setDbp(uint _dbp) public {... */\n    tag_31:\n        /* \"hmsb.sol\":1198:1202  _dbp */\n      dup1\n        /* \"hmsb.sol\":1192:1195  dbp */\n      0x04\n        /* \"hmsb.sol\":1192:1202  dbp = _dbp */\n      dup2\n      swap1\n      sstore\n      pop\n        /* \"hmsb.sol\":1147:1210  function setDbp(uint _dbp) public {... */\n      pop\n      jump\t// out\n        /* \"hmsb.sol\":595:610  uint public dbp */\n    tag_33:\n      sload(0x04)\n      dup2\n      jump\t// out\n        /* \"hmsb.sol\":772:796  uint public bloodGlucose */\n    tag_37:\n      sload(0x0a)\n      dup2\n      jump\t// out\n        /* \"hmsb.sol\":617:642  uint public pulsePressure */\n    tag_40:\n      sload(0x05)\n      dup2\n      jump\t// out\n        /* \"hmsb.sol\":1408:1519  function setRespiratoryRate(uint _respiratoryRate) public {... */\n    tag_44:\n        /* \"hmsb.sol\":1495:1511  _respiratoryRate */\n      dup1\n        /* \"hmsb.sol\":1477:1492  respiratoryRate */\n      0x07\n        /* \"hmsb.sol\":1477:1511  respiratoryRate = _respiratoryRate */\n      dup2\n      swap1\n      sstore\n      pop\n        /* \"hmsb.sol\":1408:1519  function setRespiratoryRate(uint _respiratoryRate) public {... */\n      pop\n      jump\t// out\n        /* \"hmsb.sol\":573:588  uint public sbp */\n    tag_46:\n      sload(0x03)\n      dup2\n      jump\t// out\n        /* \"hmsb.sol\":1527:1622  function setTemperature(uint _temperature) public {... */\n    tag_50:\n        /* \"hmsb.sol\":1602:1614  _temperature */\n      dup1\n        /* \"hmsb.sol\":1588:1599  temperature */\n      0x08\n        /* \"hmsb.sol\":1588:1614  temperature = _temperature */\n      dup2\n      swap1\n      sstore\n      pop\n        /* \"hmsb.sol\":1527:1622  function setTemperature(uint _temperature) public {... */\n      pop\n      jump\t// out\n        /* \"hmsb.sol\":1076:1139  function setSbp(uint _sbp) public {... */\n    tag_53:\n        /* \"hmsb.sol\":1127:1131  _sbp */\n      dup1\n        /* \"hmsb.sol\":1121:1124  sbp */\n      0x03\n        /* \"hmsb.sol\":1121:1131  sbp = _sbp */\n      dup2\n      swap1\n      sstore\n      pop\n        /* \"hmsb.sol\":1076:1139  function setSbp(uint _sbp) public {... */\n      pop\n      jump\t// out\n        /* \"hmsb.sol\":1329:1400  function setPulse(uint _pulse) public {... */\n    tag_56:\n        /* \"hmsb.sol\":1386:1392  _pulse */\n      dup1\n        /* \"hmsb.sol\":1378:1383  pulse */\n      0x06\n        /* \"hmsb.sol\":1378:1392  pulse = _pulse */\n      dup2\n      swap1\n      sstore\n      pop\n        /* \"hmsb.sol\":1329:1400  function setPulse(uint _pulse) public {... */\n      pop\n      jump\t// out\n        /* \"hmsb.sol\":493:515  string public username */\n    tag_58:\n      0x00\n      dup1\n      sload\n      tag_103\n      swap1\n      tag_104\n      jump\t// in\n    tag_103:\n      dup1\n      0x1f\n      add\n      0x20\n      dup1\n      swap2\n      div\n      mul\n      0x20\n      add\n      mload(0x40)\n      swap1\n      dup2\n      add\n      0x40\n      mstore\n      dup1\n      swap3\n      swap2\n      swap1\n      dup2\n      dup2\n      mstore\n      0x20\n      add\n      dup3\n      dup1\n      sload\n      tag_105\n      swap1\n      tag_104\n      jump\t// in\n    tag_105:\n      dup1\n      iszero\n      tag_106\n      jumpi\n      dup1\n      0x1f\n      lt\n      tag_107\n      jumpi\n      0x0100\n      dup1\n      dup4\n      sload\n      div\n      mul\n      dup4\n      mstore\n      swap2\n      0x20\n      add\n      swap2\n      jump(tag_106)\n    tag_107:\n      dup3\n      add\n      swap2\n      swap1\n      0x00\n      mstore\n      keccak256(0x00, 0x20)\n      swap1\n    tag_108:\n      dup2\n      sload\n      dup2\n      mstore\n      swap1\n      0x01\n      add\n      swap1\n      0x20\n      add\n      dup1\n      dup4\n      gt\n      tag_108\n      jumpi\n      dup3\n      swap1\n      sub\n      0x1f\n      and\n      dup3\n      add\n      swap2\n    tag_106:\n      pop\n      pop\n      pop\n      pop\n      pop\n      dup2\n      jump\t// out\n        /* \"hmsb.sol\":522:542  string public gender */\n    tag_62:\n      0x01\n      dup1\n      sload\n      tag_109\n      swap1\n      tag_104\n      jump\t// in\n    tag_109:\n      dup1\n      0x1f\n      add\n      0x20\n      dup1\n      swap2\n      div\n      mul\n      0x20\n      add\n      mload(0x40)\n      swap1\n      dup2\n      add\n      0x40\n      mstore\n      dup1\n      swap3\n      swap2\n      swap1\n      dup2\n      dup2\n      mstore\n      0x20\n      add\n      dup3\n      dup1\n      sload\n      tag_110\n      swap1\n      tag_104\n      jump\t// in\n    tag_110:\n      dup1\n      iszero\n      tag_111\n      jumpi\n      dup1\n      0x1f\n      lt\n      tag_112\n      jumpi\n      0x0100\n      dup1\n      dup4\n      sload\n      div\n      mul\n      dup4\n      mstore\n      swap2\n      0x20\n      add\n      swap2\n      jump(tag_111)\n    tag_112:\n      dup3\n      add\n      swap2\n      swap1\n      0x00\n      mstore\n      keccak256(0x00, 0x20)\n      swap1\n    tag_113:\n      dup2\n      sload\n      dup2\n      mstore\n      swap1\n      0x01\n      add\n      swap1\n      0x20\n      add\n      dup1\n      dup4\n      gt\n      tag_113\n      jumpi\n      dup3\n      swap1\n      sub\n      0x1f\n      and\n      dup3\n      add\n      swap2\n    tag_111:\n      pop\n      pop\n      pop\n      pop\n      pop\n      dup2\n      jump\t// out\n        /* \"hmsb.sol\":549:566  uint public phone */\n    tag_65:\n      sload(0x02)\n      dup2\n      jump\t// out\n        /* \"hmsb.sol\":1630:1745  function setOxygenSaturation(uint _oxygenSaturation) public {... */\n    tag_69:\n        /* \"hmsb.sol\":1720:1737  _oxygenSaturation */\n      dup1\n        /* \"hmsb.sol\":1701:1717  oxygenSaturation */\n      0x09\n        /* \"hmsb.sol\":1701:1737  oxygenSaturation = _oxygenSaturation */\n      dup2\n      swap1\n      sstore\n      pop\n        /* \"hmsb.sol\":1630:1745  function setOxygenSaturation(uint _oxygenSaturation) public {... */\n      pop\n      jump\t// out\n        /* \"hmsb.sol\":707:730  uint public temperature */\n    tag_71:\n      sload(0x08)\n      dup2\n      jump\t// out\n        /* \"hmsb.sol\":737:765  uint public oxygenSaturation */\n    tag_74:\n      sload(0x09)\n      dup2\n      jump\t// out\n        /* \"hmsb.sol\":1218:1321  function setPulsePressure(uint _pulsePressure) public {... */\n    tag_78:\n        /* \"hmsb.sol\":1299:1313  _pulsePressure */\n      dup1\n        /* \"hmsb.sol\":1283:1296  pulsePressure */\n      0x05\n        /* \"hmsb.sol\":1283:1313  pulsePressure = _pulsePressure */\n      dup2\n      swap1\n      sstore\n      pop\n        /* \"hmsb.sol\":1218:1321  function setPulsePressure(uint _pulsePressure) public {... */\n      pop\n      jump\t// out\n        /* \"hmsb.sol\":649:666  uint public pulse */\n    tag_80:\n      sload(0x06)\n      dup2\n      jump\t// out\n        /* \"hmsb.sol\":997:1068  function setPhone(uint _phone) public {... */\n    tag_84:\n        /* \"hmsb.sol\":1054:1060  _phone */\n      dup1\n        /* \"hmsb.sol\":1046:1051  phone */\n      0x02\n        /* \"hmsb.sol\":1046:1060  phone = _phone */\n      dup2\n      swap1\n      sstore\n      pop\n        /* \"hmsb.sol\":997:1068  function setPhone(uint _phone) public {... */\n      pop\n      jump\t// out\n        /* \"hmsb.sol\":1753:1852  function setBloodGlucose(uint _bloodGlucose) public {... */\n    tag_87:\n        /* \"hmsb.sol\":1831:1844  _bloodGlucose */\n      dup1\n        /* \"hmsb.sol\":1816:1828  bloodGlucose */\n      0x0a\n        /* \"hmsb.sol\":1816:1844  bloodGlucose = _bloodGlucose */\n      dup2\n      swap1\n      sstore\n      pop\n        /* \"hmsb.sol\":1753:1852  function setBloodGlucose(uint _bloodGlucose) public {... */\n      pop\n      jump\t// out\n        /* \"hmsb.sol\":805:897  function setUsername(string memory _username) public {... */\n    tag_91:\n        /* \"hmsb.sol\":880:889  _username */\n      dup1\n        /* \"hmsb.sol\":869:877  username */\n      0x00\n        /* \"hmsb.sol\":869:889  username = _username */\n      swap1\n      dup2\n      tag_119\n      swap2\n      swap1\n      tag_120\n      jump\t// in\n    tag_119:\n      pop\n        /* \"hmsb.sol\":805:897  function setUsername(string memory _username) public {... */\n      pop\n      jump\t// out\n        /* \"hmsb.sol\":905:989  function setGender(string memory _gender) public {... */\n    tag_94:\n        /* \"hmsb.sol\":974:981  _gender */\n      dup1\n        /* \"hmsb.sol\":965:971  gender */\n      0x01\n        /* \"hmsb.sol\":965:981  gender = _gender */\n      swap1\n      dup2\n      tag_122\n      swap2\n      swap1\n      tag_120\n      jump\t// in\n    tag_122:\n      pop\n        /* \"hmsb.sol\":905:989  function setGender(string memory _gender) public {... */\n      pop\n      jump\t// out\n        /* \"hmsb.sol\":673:700  uint public respiratoryRate */\n    tag_96:\n      sload(0x07)\n      dup2\n      jump\t// out\n        /* \"#utility.yul\":7:82   */\n    tag_123:\n        /* \"#utility.yul\":40:46   */\n      0x00\n        /* \"#utility.yul\":73:75   */\n      0x40\n        /* \"#utility.yul\":67:76   */\n      mload\n        /* \"#utility.yul\":57:76   */\n      swap1\n      pop\n        /* \"#utility.yul\":7:82   */\n      swap1\n      jump\t// out\n        /* \"#utility.yul\":88:205   */\n    tag_124:\n        /* \"#utility.yul\":197:198   */\n      0x00\n        /* \"#utility.yul\":194:195   */\n      dup1\n        /* \"#utility.yul\":187:199   */\n      revert\n        /* \"#utility.yul\":211:328   */\n    tag_125:\n        /* \"#utility.yul\":320:321   */\n      0x00\n        /* \"#utility.yul\":317:318   */\n      dup1\n        /* \"#utility.yul\":310:322   */\n      revert\n        /* \"#utility.yul\":334:411   */\n    tag_126:\n        /* \"#utility.yul\":371:378   */\n      0x00\n        /* \"#utility.yul\":400:405   */\n      dup2\n        /* \"#utility.yul\":389:405   */\n      swap1\n      pop\n        /* \"#utility.yul\":334:411   */\n      swap2\n      swap1\n      pop\n      jump\t// out\n        /* \"#utility.yul\":417:539   */\n    tag_127:\n        /* \"#utility.yul\":490:514   */\n      tag_166\n        /* \"#utility.yul\":508:513   */\n      dup2\n        /* \"#utility.yul\":490:514   */\n      tag_126\n      jump\t// in\n    tag_166:\n        /* \"#utility.yul\":483:488   */\n      dup2\n        /* \"#utility.yul\":480:515   */\n      eq\n        /* \"#utility.yul\":470:533   */\n      tag_167\n      jumpi\n        /* \"#utility.yul\":529:530   */\n      0x00\n        /* \"#utility.yul\":526:527   */\n      dup1\n        /* \"#utility.yul\":519:531   */\n      revert\n        /* \"#utility.yul\":470:533   */\n    tag_167:\n        /* \"#utility.yul\":417:539   */\n      pop\n      jump\t// out\n        /* \"#utility.yul\":545:684   */\n    tag_128:\n        /* \"#utility.yul\":591:596   */\n      0x00\n        /* \"#utility.yul\":629:635   */\n      dup2\n        /* \"#utility.yul\":616:636   */\n      calldataload\n        /* \"#utility.yul\":607:636   */\n      swap1\n      pop\n        /* \"#utility.yul\":645:678   */\n      tag_169\n        /* \"#utility.yul\":672:677   */\n      dup2\n        /* \"#utility.yul\":645:678   */\n      tag_127\n      jump\t// in\n    tag_169:\n        /* \"#utility.yul\":545:684   */\n      swap3\n      swap2\n      pop\n      pop\n      jump\t// out\n        /* \"#utility.yul\":690:1019   */\n    tag_30:\n        /* \"#utility.yul\":749:755   */\n      0x00\n        /* \"#utility.yul\":798:800   */\n      0x20\n        /* \"#utility.yul\":786:795   */\n      dup3\n        /* \"#utility.yul\":777:784   */\n      dup5\n        /* \"#utility.yul\":773:796   */\n      sub\n        /* \"#utility.yul\":769:801   */\n      slt\n        /* \"#utility.yul\":766:885   */\n      iszero\n      tag_171\n      jumpi\n        /* \"#utility.yul\":804:883   */\n      tag_172\n      tag_124\n      jump\t// in\n    tag_172:\n        /* \"#utility.yul\":766:885   */\n    tag_171:\n        /* \"#utility.yul\":924:925   */\n      0x00\n        /* \"#utility.yul\":949:1002   */\n      tag_173\n        /* \"#utility.yul\":994:1001   */\n      dup5\n        /* \"#utility.yul\":985:991   */\n      dup3\n        /* \"#utility.yul\":974:983   */\n      dup6\n        /* \"#utility.yul\":970:992   */\n      add\n        /* \"#utility.yul\":949:1002   */\n      tag_128\n      jump\t// in\n    tag_173:\n        /* \"#utility.yul\":939:1002   */\n      swap2\n      pop\n        /* \"#utility.yul\":895:1012   */\n      pop\n        /* \"#utility.yul\":690:1019   */\n      swap3\n      swap2\n      pop\n      pop\n      jump\t// out\n        /* \"#utility.yul\":1025:1143   */\n    tag_129:\n        /* \"#utility.yul\":1112:1136   */\n      tag_175\n        /* \"#utility.yul\":1130:1135   */\n      dup2\n        /* \"#utility.yul\":1112:1136   */\n      tag_126\n      jump\t// in\n    tag_175:\n        /* \"#utility.yul\":1107:1110   */\n      dup3\n        /* \"#utility.yul\":1100:1137   */\n      mstore\n        /* \"#utility.yul\":1025:1143   */\n      pop\n      pop\n      jump\t// out\n        /* \"#utility.yul\":1149:1371   */\n    tag_35:\n        /* \"#utility.yul\":1242:1246   */\n      0x00\n        /* \"#utility.yul\":1280:1282   */\n      0x20\n        /* \"#utility.yul\":1269:1278   */\n      dup3\n        /* \"#utility.yul\":1265:1283   */\n      add\n        /* \"#utility.yul\":1257:1283   */\n      swap1\n      pop\n        /* \"#utility.yul\":1293:1364   */\n      tag_177\n        /* \"#utility.yul\":1361:1362   */\n      0x00\n        /* \"#utility.yul\":1350:1359   */\n      dup4\n        /* \"#utility.yul\":1346:1363   */\n      add\n        /* \"#utility.yul\":1337:1343   */\n      dup5\n        /* \"#utility.yul\":1293:1364   */\n      tag_129\n      jump\t// in\n    tag_177:\n        /* \"#utility.yul\":1149:1371   */\n      swap3\n      swap2\n      pop\n      pop\n      jump\t// out\n        /* \"#utility.yul\":1377:1476   */\n    tag_130:\n        /* \"#utility.yul\":1429:1435   */\n      0x00\n        /* \"#utility.yul\":1463:1468   */\n      dup2\n        /* \"#utility.yul\":1457:1469   */\n      mload\n        /* \"#utility.yul\":1447:1469   */\n      swap1\n      pop\n        /* \"#utility.yul\":1377:1476   */\n      swap2\n      swap1\n      pop\n      jump\t// out\n        /* \"#utility.yul\":1482:1651   */\n    tag_131:\n        /* \"#utility.yul\":1566:1577   */\n      0x00\n        /* \"#utility.yul\":1600:1606   */\n      dup3\n        /* \"#utility.yul\":1595:1598   */\n      dup3\n        /* \"#utility.yul\":1588:1607   */\n      mstore\n        /* \"#utility.yul\":1640:1644   */\n      0x20\n        /* \"#utility.yul\":1635:1638   */\n      dup3\n        /* \"#utility.yul\":1631:1645   */\n      add\n        /* \"#utility.yul\":1616:1645   */\n      swap1\n      pop\n        /* \"#utility.yul\":1482:1651   */\n      swap3\n      swap2\n      pop\n      pop\n      jump\t// out\n        /* \"#utility.yul\":1657:1964   */\n    tag_132:\n        /* \"#utility.yul\":1725:1726   */\n      0x00\n        /* \"#utility.yul\":1735:1848   */\n    tag_181:\n        /* \"#utility.yul\":1749:1755   */\n      dup4\n        /* \"#utility.yul\":1746:1747   */\n      dup2\n        /* \"#utility.yul\":1743:1756   */\n      lt\n        /* \"#utility.yul\":1735:1848   */\n      iszero\n      tag_183\n      jumpi\n        /* \"#utility.yul\":1834:1835   */\n      dup1\n        /* \"#utility.yul\":1829:1832   */\n      dup3\n        /* \"#utility.yul\":1825:1836   */\n      add\n        /* \"#utility.yul\":1819:1837   */\n      mload\n        /* \"#utility.yul\":1815:1816   */\n      dup2\n        /* \"#utility.yul\":1810:1813   */\n      dup5\n        /* \"#utility.yul\":1806:1817   */\n      add\n        /* \"#utility.yul\":1799:1838   */\n      mstore\n        /* \"#utility.yul\":1771:1773   */\n      0x20\n        /* \"#utility.yul\":1768:1769   */\n      dup2\n        /* \"#utility.yul\":1764:1774   */\n      add\n        /* \"#utility.yul\":1759:1774   */\n      swap1\n      pop\n        /* \"#utility.yul\":1735:1848   */\n      jump(tag_181)\n    tag_183:\n        /* \"#utility.yul\":1866:1872   */\n      dup4\n        /* \"#utility.yul\":1863:1864   */\n      dup2\n        /* \"#utility.yul\":1860:1873   */\n      gt\n        /* \"#utility.yul\":1857:1958   */\n      iszero\n      tag_184\n      jumpi\n        /* \"#utility.yul\":1946:1947   */\n      0x00\n        /* \"#utility.yul\":1937:1943   */\n      dup5\n        /* \"#utility.yul\":1932:1935   */\n      dup5\n        /* \"#utility.yul\":1928:1944   */\n      add\n        /* \"#utility.yul\":1921:1948   */\n      mstore\n        /* \"#utility.yul\":1857:1958   */\n    tag_184:\n        /* \"#utility.yul\":1706:1964   */\n      pop\n        /* \"#utility.yul\":1657:1964   */\n      pop\n      pop\n      pop\n      jump\t// out\n        /* \"#utility.yul\":1970:2072   */\n    tag_133:\n        /* \"#utility.yul\":2011:2017   */\n      0x00\n        /* \"#utility.yul\":2062:2064   */\n      0x1f\n        /* \"#utility.yul\":2058:2065   */\n      not\n        /* \"#utility.yul\":2053:2055   */\n      0x1f\n        /* \"#utility.yul\":2046:2051   */\n      dup4\n        /* \"#utility.yul\":2042:2056   */\n      add\n        /* \"#utility.yul\":2038:2066   */\n      and\n        /* \"#utility.yul\":2028:2066   */\n      swap1\n      pop\n        /* \"#utility.yul\":1970:2072   */\n      swap2\n      swap1\n      pop\n      jump\t// out\n        /* \"#utility.yul\":2078:2442   */\n    tag_134:\n        /* \"#utility.yul\":2166:2169   */\n      0x00\n        /* \"#utility.yul\":2194:2233   */\n      tag_187\n        /* \"#utility.yul\":2227:2232   */\n      dup3\n        /* \"#utility.yul\":2194:2233   */\n      tag_130\n      jump\t// in\n    tag_187:\n        /* \"#utility.yul\":2249:2320   */\n      tag_188\n        /* \"#utility.yul\":2313:2319   */\n      dup2\n        /* \"#utility.yul\":2308:2311   */\n      dup6\n        /* \"#utility.yul\":2249:2320   */\n      tag_131\n      jump\t// in\n    tag_188:\n        /* \"#utility.yul\":2242:2320   */\n      swap4\n      pop\n        /* \"#utility.yul\":2329:2381   */\n      tag_189\n        /* \"#utility.yul\":2374:2380   */\n      dup2\n        /* \"#utility.yul\":2369:2372   */\n      dup6\n        /* \"#utility.yul\":2362:2366   */\n      0x20\n        /* \"#utility.yul\":2355:2360   */\n      dup7\n        /* \"#utility.yul\":2351:2367   */\n      add\n        /* \"#utility.yul\":2329:2381   */\n      tag_132\n      jump\t// in\n    tag_189:\n        /* \"#utility.yul\":2406:2435   */\n      tag_190\n        /* \"#utility.yul\":2428:2434   */\n      dup2\n        /* \"#utility.yul\":2406:2435   */\n      tag_133\n      jump\t// in\n    tag_190:\n        /* \"#utility.yul\":2401:2404   */\n      dup5\n        /* \"#utility.yul\":2397:2436   */\n      add\n        /* \"#utility.yul\":2390:2436   */\n      swap2\n      pop\n        /* \"#utility.yul\":2170:2442   */\n      pop\n        /* \"#utility.yul\":2078:2442   */\n      swap3\n      swap2\n      pop\n      pop\n      jump\t// out\n        /* \"#utility.yul\":2448:2761   */\n    tag_60:\n        /* \"#utility.yul\":2561:2565   */\n      0x00\n        /* \"#utility.yul\":2599:2601   */\n      0x20\n        /* \"#utility.yul\":2588:2597   */\n      dup3\n        /* \"#utility.yul\":2584:2602   */\n      add\n        /* \"#utility.yul\":2576:2602   */\n      swap1\n      pop\n        /* \"#utility.yul\":2648:2657   */\n      dup2\n        /* \"#utility.yul\":2642:2646   */\n      dup2\n        /* \"#utility.yul\":2638:2658   */\n      sub\n        /* \"#utility.yul\":2634:2635   */\n      0x00\n        /* \"#utility.yul\":2623:2632   */\n      dup4\n        /* \"#utility.yul\":2619:2636   */\n      add\n        /* \"#utility.yul\":2612:2659   */\n      mstore\n        /* \"#utility.yul\":2676:2754   */\n      tag_192\n        /* \"#utility.yul\":2749:2753   */\n      dup2\n        /* \"#utility.yul\":2740:2746   */\n      dup5\n        /* \"#utility.yul\":2676:2754   */\n      tag_134\n      jump\t// in\n    tag_192:\n        /* \"#utility.yul\":2668:2754   */\n      swap1\n      pop\n        /* \"#utility.yul\":2448:2761   */\n      swap3\n      swap2\n      pop\n      pop\n      jump\t// out\n        /* \"#utility.yul\":2767:2884   */\n    tag_135:\n        /* \"#utility.yul\":2876:2877   */\n      0x00\n        /* \"#utility.yul\":2873:2874   */\n      dup1\n        /* \"#utility.yul\":2866:2878   */\n      revert\n        /* \"#utility.yul\":2890:3007   */\n    tag_136:\n        /* \"#utility.yul\":2999:3000   */\n      0x00\n        /* \"#utility.yul\":2996:2997   */\n      dup1\n        /* \"#utility.yul\":2989:3001   */\n      revert\n        /* \"#utility.yul\":3013:3193   */\n    tag_137:\n        /* \"#utility.yul\":3061:3138   */\n      0x4e487b7100000000000000000000000000000000000000000000000000000000\n        /* \"#utility.yul\":3058:3059   */\n      0x00\n        /* \"#utility.yul\":3051:3139   */\n      mstore\n        /* \"#utility.yul\":3158:3162   */\n      0x41\n        /* \"#utility.yul\":3155:3156   */\n      0x04\n        /* \"#utility.yul\":3148:3163   */\n      mstore\n        /* \"#utility.yul\":3182:3186   */\n      0x24\n        /* \"#utility.yul\":3179:3180   */\n      0x00\n        /* \"#utility.yul\":3172:3187   */\n      revert\n        /* \"#utility.yul\":3199:3480   */\n    tag_138:\n        /* \"#utility.yul\":3282:3309   */\n      tag_197\n        /* \"#utility.yul\":3304:3308   */\n      dup3\n        /* \"#utility.yul\":3282:3309   */\n      tag_133\n      jump\t// in\n    tag_197:\n        /* \"#utility.yul\":3274:3280   */\n      dup2\n        /* \"#utility.yul\":3270:3310   */\n      add\n        /* \"#utility.yul\":3412:3418   */\n      dup2\n        /* \"#utility.yul\":3400:3410   */\n      dup2\n        /* \"#utility.yul\":3397:3419   */\n      lt\n        /* \"#utility.yul\":3376:3394   */\n      0xffffffffffffffff\n        /* \"#utility.yul\":3364:3374   */\n      dup3\n        /* \"#utility.yul\":3361:3395   */\n      gt\n        /* \"#utility.yul\":3358:3420   */\n      or\n        /* \"#utility.yul\":3355:3443   */\n      iszero\n      tag_198\n      jumpi\n        /* \"#utility.yul\":3423:3441   */\n      tag_199\n      tag_137\n      jump\t// in\n    tag_199:\n        /* \"#utility.yul\":3355:3443   */\n    tag_198:\n        /* \"#utility.yul\":3463:3473   */\n      dup1\n        /* \"#utility.yul\":3459:3461   */\n      0x40\n        /* \"#utility.yul\":3452:3474   */\n      mstore\n        /* \"#utility.yul\":3242:3480   */\n      pop\n        /* \"#utility.yul\":3199:3480   */\n      pop\n      pop\n      jump\t// out\n        /* \"#utility.yul\":3486:3615   */\n    tag_139:\n        /* \"#utility.yul\":3520:3526   */\n      0x00\n        /* \"#utility.yul\":3547:3567   */\n      tag_201\n      tag_123\n      jump\t// in\n    tag_201:\n        /* \"#utility.yul\":3537:3567   */\n      swap1\n      pop\n        /* \"#utility.yul\":3576:3609   */\n      tag_202\n        /* \"#utility.yul\":3604:3608   */\n      dup3\n        /* \"#utility.yul\":3596:3602   */\n      dup3\n        /* \"#utility.yul\":3576:3609   */\n      tag_138\n      jump\t// in\n    tag_202:\n        /* \"#utility.yul\":3486:3615   */\n      swap2\n      swap1\n      pop\n      jump\t// out\n        /* \"#utility.yul\":3621:3929   */\n    tag_140:\n        /* \"#utility.yul\":3683:3687   */\n      0x00\n        /* \"#utility.yul\":3773:3791   */\n      0xffffffffffffffff\n        /* \"#utility.yul\":3765:3771   */\n      dup3\n        /* \"#utility.yul\":3762:3792   */\n      gt\n        /* \"#utility.yul\":3759:3815   */\n      iszero\n      tag_204\n      jumpi\n        /* \"#utility.yul\":3795:3813   */\n      tag_205\n      tag_137\n      jump\t// in\n    tag_205:\n        /* \"#utility.yul\":3759:3815   */\n    tag_204:\n        /* \"#utility.yul\":3833:3862   */\n      tag_206\n        /* \"#utility.yul\":3855:3861   */\n      dup3\n        /* \"#utility.yul\":3833:3862   */\n      tag_133\n      jump\t// in\n    tag_206:\n        /* \"#utility.yul\":3825:3862   */\n      swap1\n      pop\n        /* \"#utility.yul\":3917:3921   */\n      0x20\n        /* \"#utility.yul\":3911:3915   */\n      dup2\n        /* \"#utility.yul\":3907:3922   */\n      add\n        /* \"#utility.yul\":3899:3922   */\n      swap1\n      pop\n        /* \"#utility.yul\":3621:3929   */\n      swap2\n      swap1\n      pop\n      jump\t// out\n        /* \"#utility.yul\":3935:4089   */\n    tag_141:\n        /* \"#utility.yul\":4019:4025   */\n      dup3\n        /* \"#utility.yul\":4014:4017   */\n      dup2\n        /* \"#utility.yul\":4009:4012   */\n      dup4\n        /* \"#utility.yul\":3996:4026   */\n      calldatacopy\n        /* \"#utility.yul\":4081:4082   */\n      0x00\n        /* \"#utility.yul\":4072:4078   */\n      dup4\n        /* \"#utility.yul\":4067:4070   */\n      dup4\n        /* \"#utility.yul\":4063:4079   */\n      add\n        /* \"#utility.yul\":4056:4083   */\n      mstore\n        /* \"#utility.yul\":3935:4089   */\n      pop\n      pop\n      pop\n      jump\t// out\n        /* \"#utility.yul\":4095:4507   */\n    tag_142:\n        /* \"#utility.yul\":4173:4178   */\n      0x00\n        /* \"#utility.yul\":4198:4264   */\n      tag_209\n        /* \"#utility.yul\":4214:4263   */\n      tag_210\n        /* \"#utility.yul\":4256:4262   */\n      dup5\n        /* \"#utility.yul\":4214:4263   */\n      tag_140\n      jump\t// in\n    tag_210:\n        /* \"#utility.yul\":4198:4264   */\n      tag_139\n      jump\t// in\n    tag_209:\n        /* \"#utility.yul\":4189:4264   */\n      swap1\n      pop\n        /* \"#utility.yul\":4287:4293   */\n      dup3\n        /* \"#utility.yul\":4280:4285   */\n      dup2\n        /* \"#utility.yul\":4273:4294   */\n      mstore\n        /* \"#utility.yul\":4325:4329   */\n      0x20\n        /* \"#utility.yul\":4318:4323   */\n      dup2\n        /* \"#utility.yul\":4314:4330   */\n      add\n        /* \"#utility.yul\":4363:4366   */\n      dup5\n        /* \"#utility.yul\":4354:4360   */\n      dup5\n        /* \"#utility.yul\":4349:4352   */\n      dup5\n        /* \"#utility.yul\":4345:4361   */\n      add\n        /* \"#utility.yul\":4342:4367   */\n      gt\n        /* \"#utility.yul\":4339:4451   */\n      iszero\n      tag_211\n      jumpi\n        /* \"#utility.yul\":4370:4449   */\n      tag_212\n      tag_136\n      jump\t// in\n    tag_212:\n        /* \"#utility.yul\":4339:4451   */\n    tag_211:\n        /* \"#utility.yul\":4460:4501   */\n      tag_213\n        /* \"#utility.yul\":4494:4500   */\n      dup5\n        /* \"#utility.yul\":4489:4492   */\n      dup3\n        /* \"#utility.yul\":4484:4487   */\n      dup6\n        /* \"#utility.yul\":4460:4501   */\n      tag_141\n      jump\t// in\n    tag_213:\n        /* \"#utility.yul\":4179:4507   */\n      pop\n        /* \"#utility.yul\":4095:4507   */\n      swap4\n      swap3\n      pop\n      pop\n      pop\n      jump\t// out\n        /* \"#utility.yul\":4527:4867   */\n    tag_143:\n        /* \"#utility.yul\":4583:4588   */\n      0x00\n        /* \"#utility.yul\":4632:4635   */\n      dup3\n        /* \"#utility.yul\":4625:4629   */\n      0x1f\n        /* \"#utility.yul\":4617:4623   */\n      dup4\n        /* \"#utility.yul\":4613:4630   */\n      add\n        /* \"#utility.yul\":4609:4636   */\n      slt\n        /* \"#utility.yul\":4599:4721   */\n      tag_215\n      jumpi\n        /* \"#utility.yul\":4640:4719   */\n      tag_216\n      tag_135\n      jump\t// in\n    tag_216:\n        /* \"#utility.yul\":4599:4721   */\n    tag_215:\n        /* \"#utility.yul\":4757:4763   */\n      dup2\n        /* \"#utility.yul\":4744:4764   */\n      calldataload\n        /* \"#utility.yul\":4782:4861   */\n      tag_217\n        /* \"#utility.yul\":4857:4860   */\n      dup5\n        /* \"#utility.yul\":4849:4855   */\n      dup3\n        /* \"#utility.yul\":4842:4846   */\n      0x20\n        /* \"#utility.yul\":4834:4840   */\n      dup7\n        /* \"#utility.yul\":4830:4847   */\n      add\n        /* \"#utility.yul\":4782:4861   */\n      tag_142\n      jump\t// in\n    tag_217:\n        /* \"#utility.yul\":4773:4861   */\n      swap2\n      pop\n        /* \"#utility.yul\":4589:4867   */\n      pop\n        /* \"#utility.yul\":4527:4867   */\n      swap3\n      swap2\n      pop\n      pop\n      jump\t// out\n        /* \"#utility.yul\":4873:5382   */\n    tag_90:\n        /* \"#utility.yul\":4942:4948   */\n      0x00\n        /* \"#utility.yul\":4991:4993   */\n      0x20\n        /* \"#utility.yul\":4979:4988   */\n      dup3\n        /* \"#utility.yul\":4970:4977   */\n      dup5\n        /* \"#utility.yul\":4966:4989   */\n      sub\n        /* \"#utility.yul\":4962:4994   */\n      slt\n        /* \"#utility.yul\":4959:5078   */\n      iszero\n      tag_219\n      jumpi\n        /* \"#utility.yul\":4997:5076   */\n      tag_220\n      tag_124\n      jump\t// in\n    tag_220:\n        /* \"#utility.yul\":4959:5078   */\n    tag_219:\n        /* \"#utility.yul\":5145:5146   */\n      0x00\n        /* \"#utility.yul\":5134:5143   */\n      dup3\n        /* \"#utility.yul\":5130:5147   */\n      add\n        /* \"#utility.yul\":5117:5148   */\n      calldataload\n        /* \"#utility.yul\":5175:5193   */\n      0xffffffffffffffff\n        /* \"#utility.yul\":5167:5173   */\n      dup2\n        /* \"#utility.yul\":5164:5194   */\n      gt\n        /* \"#utility.yul\":5161:5278   */\n      iszero\n      tag_221\n      jumpi\n        /* \"#utility.yul\":5197:5276   */\n      tag_222\n      tag_125\n      jump\t// in\n    tag_222:\n        /* \"#utility.yul\":5161:5278   */\n    tag_221:\n        /* \"#utility.yul\":5302:5365   */\n      tag_223\n        /* \"#utility.yul\":5357:5364   */\n      dup5\n        /* \"#utility.yul\":5348:5354   */\n      dup3\n        /* \"#utility.yul\":5337:5346   */\n      dup6\n        /* \"#utility.yul\":5333:5355   */\n      add\n        /* \"#utility.yul\":5302:5365   */\n      tag_143\n      jump\t// in\n    tag_223:\n        /* \"#utility.yul\":5292:5365   */\n      swap2\n      pop\n        /* \"#utility.yul\":5088:5375   */\n      pop\n        /* \"#utility.yul\":4873:5382   */\n      swap3\n      swap2\n      pop\n      pop\n      jump\t// out\n        /* \"#utility.yul\":5388:5568   */\n    tag_144:\n        /* \"#utility.yul\":5436:5513   */\n      0x4e487b7100000000000000000000000000000000000000000000000000000000\n        /* \"#utility.yul\":5433:5434   */\n      0x00\n        /* \"#utility.yul\":5426:5514   */\n      mstore\n        /* \"#utility.yul\":5533:5537   */\n      0x22\n        /* \"#utility.yul\":5530:5531   */\n      0x04\n        /* \"#utility.yul\":5523:5538   */\n      mstore\n        /* \"#utility.yul\":5557:5561   */\n      0x24\n        /* \"#utility.yul\":5554:5555   */\n      0x00\n        /* \"#utility.yul\":5547:5562   */\n      revert\n        /* \"#utility.yul\":5574:5894   */\n    tag_104:\n        /* \"#utility.yul\":5618:5624   */\n      0x00\n        /* \"#utility.yul\":5655:5656   */\n      0x02\n        /* \"#utility.yul\":5649:5653   */\n      dup3\n        /* \"#utility.yul\":5645:5657   */\n      div\n        /* \"#utility.yul\":5635:5657   */\n      swap1\n      pop\n        /* \"#utility.yul\":5702:5703   */\n      0x01\n        /* \"#utility.yul\":5696:5700   */\n      dup3\n        /* \"#utility.yul\":5692:5704   */\n      and\n        /* \"#utility.yul\":5723:5741   */\n      dup1\n        /* \"#utility.yul\":5713:5794   */\n      tag_226\n      jumpi\n        /* \"#utility.yul\":5779:5783   */\n      0x7f\n        /* \"#utility.yul\":5771:5777   */\n      dup3\n        /* \"#utility.yul\":5767:5784   */\n      and\n        /* \"#utility.yul\":5757:5784   */\n      swap2\n      pop\n        /* \"#utility.yul\":5713:5794   */\n    tag_226:\n        /* \"#utility.yul\":5841:5843   */\n      0x20\n        /* \"#utility.yul\":5833:5839   */\n      dup3\n        /* \"#utility.yul\":5830:5844   */\n      lt\n        /* \"#utility.yul\":5810:5828   */\n      dup2\n        /* \"#utility.yul\":5807:5845   */\n      sub\n        /* \"#utility.yul\":5804:5888   */\n      tag_227\n      jumpi\n        /* \"#utility.yul\":5860:5878   */\n      tag_228\n      tag_144\n      jump\t// in\n    tag_228:\n        /* \"#utility.yul\":5804:5888   */\n    tag_227:\n        /* \"#utility.yul\":5625:5894   */\n      pop\n        /* \"#utility.yul\":5574:5894   */\n      swap2\n      swap1\n      pop\n      jump\t// out\n        /* \"#utility.yul\":5900:6041   */\n    tag_145:\n        /* \"#utility.yul\":5949:5953   */\n      0x00\n        /* \"#utility.yul\":5972:5975   */\n      dup2\n        /* \"#utility.yul\":5964:5975   */\n      swap1\n      pop\n        /* \"#utility.yul\":5995:5998   */\n      dup2\n        /* \"#utility.yul\":5992:5993   */\n      0x00\n        /* \"#utility.yul\":5985:5999   */\n      mstore\n        /* \"#utility.yul\":6029:6033   */\n      0x20\n        /* \"#utility.yul\":6026:6027   */\n      0x00\n        /* \"#utility.yul\":6016:6034   */\n      keccak256\n        /* \"#utility.yul\":6008:6034   */\n      swap1\n      pop\n        /* \"#utility.yul\":5900:6041   */\n      swap2\n      swap1\n      pop\n      jump\t// out\n        /* \"#utility.yul\":6047:6140   */\n    tag_146:\n        /* \"#utility.yul\":6084:6090   */\n      0x00\n        /* \"#utility.yul\":6131:6133   */\n      0x20\n        /* \"#utility.yul\":6126:6128   */\n      0x1f\n        /* \"#utility.yul\":6119:6124   */\n      dup4\n        /* \"#utility.yul\":6115:6129   */\n      add\n        /* \"#utility.yul\":6111:6134   */\n      div\n        /* \"#utility.yul\":6101:6134   */\n      swap1\n      pop\n        /* \"#utility.yul\":6047:6140   */\n      swap2\n      swap1\n      pop\n      jump\t// out\n        /* \"#utility.yul\":6146:6253   */\n    tag_147:\n        /* \"#utility.yul\":6190:6198   */\n      0x00\n        /* \"#utility.yul\":6240:6245   */\n      dup3\n        /* \"#utility.yul\":6234:6238   */\n      dup3\n        /* \"#utility.yul\":6230:6246   */\n      shl\n        /* \"#utility.yul\":6209:6246   */\n      swap1\n      pop\n        /* \"#utility.yul\":6146:6253   */\n      swap3\n      swap2\n      pop\n      pop\n      jump\t// out\n        /* \"#utility.yul\":6259:6652   */\n    tag_148:\n        /* \"#utility.yul\":6328:6334   */\n      0x00\n        /* \"#utility.yul\":6378:6379   */\n      0x08\n        /* \"#utility.yul\":6366:6376   */\n      dup4\n        /* \"#utility.yul\":6362:6380   */\n      mul\n        /* \"#utility.yul\":6401:6498   */\n      tag_233\n        /* \"#utility.yul\":6431:6497   */\n      0xffffffffffffffffffffffffffffffffffffffffffffffffffffffffffffffff\n        /* \"#utility.yul\":6420:6429   */\n      dup3\n        /* \"#utility.yul\":6401:6498   */\n      tag_147\n      jump\t// in\n    tag_233:\n        /* \"#utility.yul\":6519:6558   */\n      tag_234\n        /* \"#utility.yul\":6549:6557   */\n      dup7\n        /* \"#utility.yul\":6538:6547   */\n      dup4\n        /* \"#utility.yul\":6519:6558   */\n      tag_147\n      jump\t// in\n    tag_234:\n        /* \"#utility.yul\":6507:6558   */\n      swap6\n      pop\n        /* \"#utility.yul\":6591:6595   */\n      dup1\n        /* \"#utility.yul\":6587:6596   */\n      not\n        /* \"#utility.yul\":6580:6585   */\n      dup5\n        /* \"#utility.yul\":6576:6597   */\n      and\n        /* \"#utility.yul\":6567:6597   */\n      swap4\n      pop\n        /* \"#utility.yul\":6640:6644   */\n      dup1\n        /* \"#utility.yul\":6630:6638   */\n      dup7\n        /* \"#utility.yul\":6626:6645   */\n      and\n        /* \"#utility.yul\":6619:6624   */\n      dup5\n        /* \"#utility.yul\":6616:6646   */\n      or\n        /* \"#utility.yul\":6606:6646   */\n      swap3\n      pop\n        /* \"#utility.yul\":6335:6652   */\n      pop\n      pop\n        /* \"#utility.yul\":6259:6652   */\n      swap4\n      swap3\n      pop\n      pop\n      pop\n      jump\t// out\n        /* \"#utility.yul\":6658:6718   */\n    tag_149:\n        /* \"#utility.yul\":6686:6689   */\n      0x00\n        /* \"#utility.yul\":6707:6712   */\n      dup2\n        /* \"#utility.yul\":6700:6712   */\n      swap1\n      pop\n        /* \"#utility.yul\":6658:6718   */\n      swap2\n      swap1\n      pop\n      jump\t// out\n        /* \"#utility.yul\":6724:6866   */\n    tag_150:\n        /* \"#utility.yul\":6774:6783   */\n      0x00\n        /* \"#utility.yul\":6807:6860   */\n      tag_237\n        /* \"#utility.yul\":6825:6859   */\n      tag_238\n        /* \"#utility.yul\":6834:6858   */\n      tag_239\n        /* \"#utility.yul\":6852:6857   */\n      dup5\n        /* \"#utility.yul\":6834:6858   */\n      tag_126\n      jump\t// in\n    tag_239:\n        /* \"#utility.yul\":6825:6859   */\n      tag_149\n      jump\t// in\n    tag_238:\n        /* \"#utility.yul\":6807:6860   */\n      tag_126\n      jump\t// in\n    tag_237:\n        /* \"#utility.yul\":6794:6860   */\n      swap1\n      pop\n        /* \"#utility.yul\":6724:6866   */\n      swap2\n      swap1\n      pop\n      jump\t// out\n        /* \"#utility.yul\":6872:6947   */\n    tag_151:\n        /* \"#utility.yul\":6915:6918   */\n      0x00\n        /* \"#utility.yul\":6936:6941   */\n      dup2\n        /* \"#utility.yul\":6929:6941   */\n      swap1\n      pop\n        /* \"#utility.yul\":6872:6947   */\n      swap2\n      swap1\n      pop\n      jump\t// out\n        /* \"#utility.yul\":6953:7222   */\n    tag_152:\n        /* \"#utility.yul\":7063:7102   */\n      tag_242\n        /* \"#utility.yul\":7094:7101   */\n      dup4\n        /* \"#utility.yul\":7063:7102   */\n      tag_150\n      jump\t// in\n    tag_242:\n        /* \"#utility.yul\":7124:7215   */\n      tag_243\n        /* \"#utility.yul\":7173:7214   */\n      tag_244\n        /* \"#utility.yul\":7197:7213   */\n      dup3\n        /* \"#utility.yul\":7173:7214   */\n      tag_151\n      jump\t// in\n    tag_244:\n        /* \"#utility.yul\":7165:7171   */\n      dup5\n        /* \"#utility.yul\":7158:7162   */\n      dup5\n        /* \"#utility.yul\":7152:7163   */\n      sload\n        /* \"#utility.yul\":7124:7215   */\n      tag_148\n      jump\t// in\n    tag_243:\n        /* \"#utility.yul\":7118:7122   */\n      dup3\n        /* \"#utility.yul\":7111:7216   */\n      sstore\n        /* \"#utility.yul\":7029:7222   */\n      pop\n        /* \"#utility.yul\":6953:7222   */\n      pop\n      pop\n      pop\n      jump\t// out\n        /* \"#utility.yul\":7228:7301   */\n    tag_153:\n        /* \"#utility.yul\":7273:7276   */\n      0x00\n        /* \"#utility.yul\":7228:7301   */\n      swap1\n      jump\t// out\n        /* \"#utility.yul\":7307:7496   */\n    tag_154:\n        /* \"#utility.yul\":7384:7416   */\n      tag_247\n      tag_153\n      jump\t// in\n    tag_247:\n        /* \"#utility.yul\":7425:7490   */\n      tag_248\n        /* \"#utility.yul\":7483:7489   */\n      dup2\n        /* \"#utility.yul\":7475:7481   */\n      dup5\n        /* \"#utility.yul\":7469:7473   */\n      dup5\n        /* \"#utility.yul\":7425:7490   */\n      tag_152\n      jump\t// in\n    tag_248:\n        /* \"#utility.yul\":7360:7496   */\n      pop\n        /* \"#utility.yul\":7307:7496   */\n      pop\n      pop\n      jump\t// out\n        /* \"#utility.yul\":7502:7688   */\n    tag_155:\n        /* \"#utility.yul\":7562:7682   */\n    tag_250:\n        /* \"#utility.yul\":7579:7582   */\n      dup2\n        /* \"#utility.yul\":7572:7577   */\n      dup2\n        /* \"#utility.yul\":7569:7583   */\n      lt\n        /* \"#utility.yul\":7562:7682   */\n      iszero\n      tag_252\n      jumpi\n        /* \"#utility.yul\":7633:7672   */\n      tag_253\n        /* \"#utility.yul\":7670:7671   */\n      0x00\n        /* \"#utility.yul\":7663:7668   */\n      dup3\n        /* \"#utility.yul\":7633:7672   */\n      tag_154\n      jump\t// in\n    tag_253:\n        /* \"#utility.yul\":7606:7607   */\n      0x01\n        /* \"#utility.yul\":7599:7604   */\n      dup2\n        /* \"#utility.yul\":7595:7608   */\n      add\n        /* \"#utility.yul\":7586:7608   */\n      swap1\n      pop\n        /* \"#utility.yul\":7562:7682   */\n      jump(tag_250)\n    tag_252:\n        /* \"#utility.yul\":7502:7688   */\n      pop\n      pop\n      jump\t// out\n        /* \"#utility.yul\":7694:8237   */\n    tag_156:\n        /* \"#utility.yul\":7795:7797   */\n      0x1f\n        /* \"#utility.yul\":7790:7793   */\n      dup3\n        /* \"#utility.yul\":7787:7798   */\n      gt\n        /* \"#utility.yul\":7784:8230   */\n      iszero\n      tag_255\n      jumpi\n        /* \"#utility.yul\":7829:7867   */\n      tag_256\n        /* \"#utility.yul\":7861:7866   */\n      dup2\n        /* \"#utility.yul\":7829:7867   */\n      tag_145\n      jump\t// in\n    tag_256:\n        /* \"#utility.yul\":7913:7942   */\n      tag_257\n        /* \"#utility.yul\":7931:7941   */\n      dup5\n        /* \"#utility.yul\":7913:7942   */\n      tag_146\n      jump\t// in\n    tag_257:\n        /* \"#utility.yul\":7903:7911   */\n      dup2\n        /* \"#utility.yul\":7899:7943   */\n      add\n        /* \"#utility.yul\":8096:8098   */\n      0x20\n        /* \"#utility.yul\":8084:8094   */\n      dup6\n        /* \"#utility.yul\":8081:8099   */\n      lt\n        /* \"#utility.yul\":8078:8127   */\n      iszero\n      tag_258\n      jumpi\n        /* \"#utility.yul\":8117:8125   */\n      dup2\n        /* \"#utility.yul\":8102:8125   */\n      swap1\n      pop\n        /* \"#utility.yul\":8078:8127   */\n    tag_258:\n        /* \"#utility.yul\":8140:8220   */\n      tag_259\n        /* \"#utility.yul\":8196:8218   */\n      tag_260\n        /* \"#utility.yul\":8214:8217   */\n      dup6\n        /* \"#utility.yul\":8196:8218   */\n      tag_146\n      jump\t// in\n    tag_260:\n        /* \"#utility.yul\":8186:8194   */\n      dup4\n        /* \"#utility.yul\":8182:8219   */\n      add\n        /* \"#utility.yul\":8169:8180   */\n      dup3\n        /* \"#utility.yul\":8140:8220   */\n      tag_155\n      jump\t// in\n    tag_259:\n        /* \"#utility.yul\":7799:8230   */\n      pop\n      pop\n        /* \"#utility.yul\":7784:8230   */\n    tag_255:\n        /* \"#utility.yul\":7694:8237   */\n      pop\n      pop\n      pop\n      jump\t// out\n        /* \"#utility.yul\":8243:8360   */\n    tag_157:\n        /* \"#utility.yul\":8297:8305   */\n      0x00\n        /* \"#utility.yul\":8347:8352   */\n      dup3\n        /* \"#utility.yul\":8341:8345   */\n      dup3\n        /* \"#utility.yul\":8337:8353   */\n      shr\n        /* \"#utility.yul\":8316:8353   */\n      swap1\n      pop\n        /* \"#utility.yul\":8243:8360   */\n      swap3\n      swap2\n      pop\n      pop\n      jump\t// out\n        /* \"#utility.yul\":8366:8535   */\n    tag_158:\n        /* \"#utility.yul\":8410:8416   */\n      0x00\n        /* \"#utility.yul\":8443:8494   */\n      tag_263\n        /* \"#utility.yul\":8491:8492   */\n      0x00\n        /* \"#utility.yul\":8487:8493   */\n      not\n        /* \"#utility.yul\":8479:8484   */\n      dup5\n        /* \"#utility.yul\":8476:8477   */\n      0x08\n        /* \"#utility.yul\":8472:8485   */\n      mul\n        /* \"#utility.yul\":8443:8494   */\n      tag_157\n      jump\t// in\n    tag_263:\n        /* \"#utility.yul\":8439:8495   */\n      not\n        /* \"#utility.yul\":8524:8528   */\n      dup1\n        /* \"#utility.yul\":8518:8522   */\n      dup4\n        /* \"#utility.yul\":8514:8529   */\n      and\n        /* \"#utility.yul\":8504:8529   */\n      swap2\n      pop\n        /* \"#utility.yul\":8417:8535   */\n      pop\n        /* \"#utility.yul\":8366:8535   */\n      swap3\n      swap2\n      pop\n      pop\n      jump\t// out\n        /* \"#utility.yul\":8540:8835   */\n    tag_159:\n        /* \"#utility.yul\":8616:8620   */\n      0x00\n        /* \"#utility.yul\":8762:8791   */\n      tag_265\n        /* \"#utility.yul\":8787:8790   */\n      dup4\n        /* \"#utility.yul\":8781:8785   */\n      dup4\n        /* \"#utility.yul\":8762:8791   */\n      tag_158\n      jump\t// in\n    tag_265:\n        /* \"#utility.yul\":8754:8791   */\n      swap2\n      pop\n        /* \"#utility.yul\":8824:8827   */\n      dup3\n        /* \"#utility.yul\":8821:8822   */\n      0x02\n        /* \"#utility.yul\":8817:8828   */\n      mul\n        /* \"#utility.yul\":8811:8815   */\n      dup3\n        /* \"#utility.yul\":8808:8829   */\n      or\n        /* \"#utility.yul\":8800:8829   */\n      swap1\n      pop\n        /* \"#utility.yul\":8540:8835   */\n      swap3\n      swap2\n      pop\n      pop\n      jump\t// out\n        /* \"#utility.yul\":8840:10235   */\n    tag_120:\n        /* \"#utility.yul\":8957:8994   */\n      tag_267\n        /* \"#utility.yul\":8990:8993   */\n      dup3\n        /* \"#utility.yul\":8957:8994   */\n      tag_130\n      jump\t// in\n    tag_267:\n        /* \"#utility.yul\":9059:9077   */\n      0xffffffffffffffff\n        /* \"#utility.yul\":9051:9057   */\n      dup2\n        /* \"#utility.yul\":9048:9078   */\n      gt\n        /* \"#utility.yul\":9045:9101   */\n      iszero\n      tag_268\n      jumpi\n        /* \"#utility.yul\":9081:9099   */\n      tag_269\n      tag_137\n      jump\t// in\n    tag_269:\n        /* \"#utility.yul\":9045:9101   */\n    tag_268:\n        /* \"#utility.yul\":9125:9163   */\n      tag_270\n        /* \"#utility.yul\":9157:9161   */\n      dup3\n        /* \"#utility.yul\":9151:9162   */\n      sload\n        /* \"#utility.yul\":9125:9163   */\n      tag_104\n      jump\t// in\n    tag_270:\n        /* \"#utility.yul\":9210:9277   */\n      tag_271\n        /* \"#utility.yul\":9270:9276   */\n      dup3\n        /* \"#utility.yul\":9262:9268   */\n      dup3\n        /* \"#utility.yul\":9256:9260   */\n      dup6\n        /* \"#utility.yul\":9210:9277   */\n      tag_156\n      jump\t// in\n    tag_271:\n        /* \"#utility.yul\":9304:9305   */\n      0x00\n        /* \"#utility.yul\":9328:9332   */\n      0x20\n        /* \"#utility.yul\":9315:9332   */\n      swap1\n      pop\n        /* \"#utility.yul\":9360:9362   */\n      0x1f\n        /* \"#utility.yul\":9352:9358   */\n      dup4\n        /* \"#utility.yul\":9349:9363   */\n      gt\n        /* \"#utility.yul\":9377:9378   */\n      0x01\n        /* \"#utility.yul\":9372:9990   */\n      dup2\n      eq\n      tag_273\n      jumpi\n        /* \"#utility.yul\":10034:10035   */\n      0x00\n        /* \"#utility.yul\":10051:10057   */\n      dup5\n        /* \"#utility.yul\":10048:10125   */\n      iszero\n      tag_274\n      jumpi\n        /* \"#utility.yul\":10100:10109   */\n      dup3\n        /* \"#utility.yul\":10095:10098   */\n      dup8\n        /* \"#utility.yul\":10091:10110   */\n      add\n        /* \"#utility.yul\":10085:10111   */\n      mload\n        /* \"#utility.yul\":10076:10111   */\n      swap1\n      pop\n        /* \"#utility.yul\":10048:10125   */\n    tag_274:\n        /* \"#utility.yul\":10151:10218   */\n      tag_275\n        /* \"#utility.yul\":10211:10217   */\n      dup6\n        /* \"#utility.yul\":10204:10209   */\n      dup3\n        /* \"#utility.yul\":10151:10218   */\n      tag_159\n      jump\t// in\n    tag_275:\n        /* \"#utility.yul\":10145:10149   */\n      dup7\n        /* \"#utility.yul\":10138:10219   */\n      sstore\n        /* \"#utility.yul\":10007:10229   */\n      pop\n        /* \"#utility.yul\":9342:10229   */\n      jump(tag_272)\n        /* \"#utility.yul\":9372:9990   */\n    tag_273:\n        /* \"#utility.yul\":9424:9428   */\n      0x1f\n        /* \"#utility.yul\":9420:9429   */\n      not\n        /* \"#utility.yul\":9412:9418   */\n      dup5\n        /* \"#utility.yul\":9408:9430   */\n      and\n        /* \"#utility.yul\":9458:9495   */\n      tag_276\n        /* \"#utility.yul\":9490:9494   */\n      dup7\n        /* \"#utility.yul\":9458:9495   */\n      tag_145\n      jump\t// in\n    tag_276:\n        /* \"#utility.yul\":9517:9518   */\n      0x00\n        /* \"#utility.yul\":9531:9739   */\n    tag_277:\n        /* \"#utility.yul\":9545:9552   */\n      dup3\n        /* \"#utility.yul\":9542:9543   */\n      dup2\n        /* \"#utility.yul\":9539:9553   */\n      lt\n        /* \"#utility.yul\":9531:9739   */\n      iszero\n      tag_279\n      jumpi\n        /* \"#utility.yul\":9624:9633   */\n      dup5\n        /* \"#utility.yul\":9619:9622   */\n      dup10\n        /* \"#utility.yul\":9615:9634   */\n      add\n        /* \"#utility.yul\":9609:9635   */\n      mload\n        /* \"#utility.yul\":9601:9607   */\n      dup3\n        /* \"#utility.yul\":9594:9636   */\n      sstore\n        /* \"#utility.yul\":9675:9676   */\n      0x01\n        /* \"#utility.yul\":9667:9673   */\n      dup3\n        /* \"#utility.yul\":9663:9677   */\n      add\n        /* \"#utility.yul\":9653:9677   */\n      swap2\n      pop\n        /* \"#utility.yul\":9722:9724   */\n      0x20\n        /* \"#utility.yul\":9711:9720   */\n      dup6\n        /* \"#utility.yul\":9707:9725   */\n      add\n        /* \"#utility.yul\":9694:9725   */\n      swap5\n      pop\n        /* \"#utility.yul\":9568:9572   */\n      0x20\n        /* \"#utility.yul\":9565:9566   */\n      dup2\n        /* \"#utility.yul\":9561:9573   */\n      add\n        /* \"#utility.yul\":9556:9573   */\n      swap1\n      pop\n        /* \"#utility.yul\":9531:9739   */\n      jump(tag_277)\n    tag_279:\n        /* \"#utility.yul\":9767:9773   */\n      dup7\n        /* \"#utility.yul\":9758:9765   */\n      dup4\n        /* \"#utility.yul\":9755:9774   */\n      lt\n        /* \"#utility.yul\":9752:9931   */\n      iszero\n      tag_280\n      jumpi\n        /* \"#utility.yul\":9825:9834   */\n      dup5\n        /* \"#utility.yul\":9820:9823   */\n      dup10\n        /* \"#utility.yul\":9816:9835   */\n      add\n        /* \"#utility.yul\":9810:9836   */\n      mload\n        /* \"#utility.yul\":9868:9916   */\n      tag_281\n        /* \"#utility.yul\":9910:9914   */\n      0x1f\n        /* \"#utility.yul\":9902:9908   */\n      dup10\n        /* \"#utility.yul\":9898:9915   */\n      and\n        /* \"#utility.yul\":9887:9896   */\n      dup3\n        /* \"#utility.yul\":9868:9916   */\n      tag_158\n      jump\t// in\n    tag_281:\n        /* \"#utility.yul\":9860:9866   */\n      dup4\n        /* \"#utility.yul\":9853:9917   */\n      sstore\n        /* \"#utility.yul\":9775:9931   */\n      pop\n        /* \"#utility.yul\":9752:9931   */\n    tag_280:\n        /* \"#utility.yul\":9977:9978   */\n      0x01\n        /* \"#utility.yul\":9973:9974   */\n      0x02\n        /* \"#utility.yul\":9965:9971   */\n      dup9\n        /* \"#utility.yul\":9961:9975   */\n      mul\n        /* \"#utility.yul\":9957:9979   */\n      add\n        /* \"#utility.yul\":9951:9955   */\n      dup9\n        /* \"#utility.yul\":9944:9980   */\n      sstore\n        /* \"#utility.yul\":9379:9990   */\n      pop\n      pop\n      pop\n        /* \"#utility.yul\":9342:10229   */\n    tag_272:\n      pop\n        /* \"#utility.yul\":8932:10235   */\n      pop\n      pop\n      pop\n        /* \"#utility.yul\":8840:10235   */\n      pop\n      pop\n      jump\t// out\n\n    auxdata: 0xa2646970667358221220ad50b82d2b03ccc2102b8373de14cb8f3c5817ad2777ec8ab32ff7ec3d36bbc564736f6c634300080f0033\n}\n","bytecode":{"linkReferences":{},"object":"608060405234801561001057600080fd5b50610b85806100206000396000f3fe608060405234801561001057600080fd5b50600436106101425760003560e01c80639284f497116100b8578063deb189b51161007c578063deb189b514610319578063e211552d14610337578063e42b0f2b14610353578063ed59313a1461036f578063f212e2651461038b578063fb14326f146103a757610142565b80639284f49714610287578063a0abadbe146102a5578063adccea12146102c1578063b89a64e8146102df578063bbe63ad8146102fd57610142565b8063467621c61161010a578063467621c6146101d957806348f14470146101f7578063586b8a5614610213578063606966431461022f57806361fac54d1461024b57806379caad861461026957610142565b8063047405941461014757806305ec5f51146101635780630b1b6e93146101815780631c59a2881461019f578063333f4362146101bd575b600080fd5b610161600480360381019061015c91906105e1565b6103c5565b005b61016b6103cf565b604051610178919061061d565b60405180910390f35b6101896103d5565b604051610196919061061d565b60405180910390f35b6101a76103db565b6040516101b4919061061d565b60405180910390f35b6101d760048036038101906101d291906105e1565b6103e1565b005b6101e16103eb565b6040516101ee919061061d565b60405180910390f35b610211600480360381019061020c91906105e1565b6103f1565b005b61022d600480360381019061022891906105e1565b6103fb565b005b610249600480360381019061024491906105e1565b610405565b005b61025361040f565b60405161026091906106d1565b60405180910390f35b61027161049d565b60405161027e91906106d1565b60405180910390f35b61028f61052b565b60405161029c919061061d565b60405180910390f35b6102bf60048036038101906102ba91906105e1565b610531565b005b6102c961053b565b6040516102d6919061061d565b60405180910390f35b6102e7610541565b6040516102f4919061061d565b60405180910390f35b610317600480360381019061031291906105e1565b610547565b005b610321610551565b60405161032e919061061d565b60405180910390f35b610351600480360381019061034c91906105e1565b610557565b005b61036d600480360381019061036891906105e1565b610561565b005b61038960048036038101906103849190610828565b61056b565b005b6103a560048036038101906103a09190610828565b61057e565b005b6103af610591565b6040516103bc919061061d565b60405180910390f35b8060048190555050565b60045481565b600a5481565b60055481565b8060078190555050565b60035481565b8060088190555050565b8060038190555050565b8060068190555050565b6000805461041c906108a0565b80601f0160208091040260200160405190810160405280929190818152602001828054610448906108a0565b80156104955780601f1061046a57610100808354040283529160200191610495565b820191906000526020600020905b81548152906001019060200180831161047857829003601f168201915b505050505081565b600180546104aa906108a0565b80601f01602080910402602001604051908101604052809291908181526020018280546104d6906108a0565b80156105235780601f106104f857610100808354040283529160200191610523565b820191906000526020600020905b81548152906001019060200180831161050657829003601f168201915b505050505081565b60025481565b8060098190555050565b60085481565b60095481565b8060058190555050565b60065481565b8060028190555050565b80600a8190555050565b806000908161057a9190610a7d565b5050565b806001908161058d9190610a7d565b5050565b60075481565b6000604051905090565b600080fd5b600080fd5b6000819050919050565b6105be816105ab565b81146105c957600080fd5b50565b6000813590506105db816105b5565b92915050565b6000602082840312156105f7576105f66105a1565b5b6000610605848285016105cc565b91505092915050565b610617816105ab565b82525050565b6000602082019050610632600083018461060e565b92915050565b600081519050919050565b600082825260208201905092915050565b60005b83811015610672578082015181840152602081019050610657565b83811115610681576000848401525b50505050565b6000601f19601f8301169050919050565b60006106a382610638565b6106ad8185610643565b93506106bd818560208601610654565b6106c681610687565b840191505092915050565b600060208201905081810360008301526106eb8184610698565b905092915050565b600080fd5b600080fd5b7f4e487b7100000000000000000000000000000000000000000000000000000000600052604160045260246000fd5b61073582610687565b810181811067ffffffffffffffff82111715610754576107536106fd565b5b80604052505050565b6000610767610597565b9050610773828261072c565b919050565b600067ffffffffffffffff821115610793576107926106fd565b5b61079c82610687565b9050602081019050919050565b82818337600083830152505050565b60006107cb6107c684610778565b61075d565b9050828152602081018484840111156107e7576107e66106f8565b5b6107f28482856107a9565b509392505050565b600082601f83011261080f5761080e6106f3565b5b813561081f8482602086016107b8565b91505092915050565b60006020828403121561083e5761083d6105a1565b5b600082013567ffffffffffffffff81111561085c5761085b6105a6565b5b610868848285016107fa565b91505092915050565b7f4e487b7100000000000000000000000000000000000000000000000000000000600052602260045260246000fd5b600060028204905060018216806108b857607f821691505b6020821081036108cb576108ca610871565b5b50919050565b60008190508160005260206000209050919050565b60006020601f8301049050919050565b600082821b905092915050565b6000600883026109337fffffffffffffffffffffffffffffffffffffffffffffffffffffffffffffffff826108f6565b61093d86836108f6565b95508019841693508086168417925050509392505050565b6000819050919050565b600061097a610975610970846105ab565b610955565b6105ab565b9050919050565b6000819050919050565b6109948361095f565b6109a86109a082610981565b848454610903565b825550505050565b600090565b6109bd6109b0565b6109c881848461098b565b505050565b5b818110156109ec576109e16000826109b5565b6001810190506109ce565b5050565b601f821115610a3157610a02816108d1565b610a0b846108e6565b81016020851015610a1a578190505b610a2e610a26856108e6565b8301826109cd565b50505b505050565b600082821c905092915050565b6000610a5460001984600802610a36565b1980831691505092915050565b6000610a6d8383610a43565b9150826002028217905092915050565b610a8682610638565b67ffffffffffffffff811115610a9f57610a9e6106fd565b5b610aa982546108a0565b610ab48282856109f0565b600060209050601f831160018114610ae75760008415610ad5578287015190505b610adf8582610a61565b865550610b47565b601f198416610af5866108d1565b60005b82811015610b1d57848901518255600182019150602085019450602081019050610af8565b86831015610b3a5784890151610b36601f891682610a43565b8355505b6001600288020188555050505b50505050505056fea2646970667358221220ad50b82d2b03ccc2102b8373de14cb8f3c5817ad2777ec8ab32ff7ec3d36bbc564736f6c634300080f0033","opcodes":"PUSH1 0x80 PUSH1 0x40 MSTORE CALLVALUE DUP1 ISZERO PUSH2 0x10 JUMPI PUSH1 0x0 DUP1 REVERT JUMPDEST POP PUSH2 0xB85 DUP1 PUSH2 0x20 PUSH1 0x0 CODECOPY PUSH1 0x0 RETURN INVALID PUSH1 0x80 PUSH1 0x40 MSTORE CALLVALUE DUP1 ISZERO PUSH2 0x10 JUMPI PUSH1 0x0 DUP1 REVERT JUMPDEST POP PUSH1 0x4 CALLDATASIZE LT PUSH2 0x142 JUMPI PUSH1 0x0 CALLDATALOAD PUSH1 0xE0 SHR DUP1 PUSH4 0x9284F497 GT PUSH2 0xB8 JUMPI DUP1 PUSH4 0xDEB189B5 GT PUSH2 0x7C JUMPI DUP1 PUSH4 0xDEB189B5 EQ PUSH2 0x319 JUMPI DUP1 PUSH4 0xE211552D EQ PUSH2 0x337 JUMPI DUP1 PUSH4 0xE42B0F2B EQ PUSH2 0x353 JUMPI DUP1 PUSH4 0xED59313A EQ PUSH2 0x36F JUMPI DUP1 PUSH4 0xF212E265 EQ PUSH2 0x38B JUMPI DUP1 PUSH4 0xFB14326F EQ PUSH2 0x3A7 JUMPI PUSH2 0x142 JUMP JUMPDEST DUP1 PUSH4 0x9284F497 EQ PUSH2 0x287 JUMPI DUP1 PUSH4 0xA0ABADBE EQ PUSH2 0x2A5 JUMPI DUP1 PUSH4 0xADCCEA12 EQ PUSH2 0x2C1 JUMPI DUP1 PUSH4 0xB89A64E8 EQ PUSH2 0x2DF JUMPI DUP1 PUSH4 0xBBE63AD8 EQ PUSH2 0x2FD JUMPI PUSH2 0x142 JUMP JUMPDEST DUP1 PUSH4 0x467621C6 GT PUSH2 0x10A JUMPI DUP1 PUSH4 0x467621C6 EQ PUSH2 0x1D9 JUMPI DUP1 PUSH4 0x48F14470 EQ PUSH2 0x1F7 JUMPI DUP1 PUSH4 0x586B8A56 EQ PUSH2 0x213 JUMPI DUP1 PUSH4 0x60696643 EQ PUSH2 0x22F JUMPI DUP1 PUSH4 0x61FAC54D EQ PUSH2 0x24B JUMPI DUP1 PUSH4 0x79CAAD86 EQ PUSH2 0x269 JUMPI PUSH2 0x142 JUMP JUMPDEST DUP1 PUSH4 0x4740594 EQ PUSH2 0x147 JUMPI DUP1 PUSH4 0x5EC5F51 EQ PUSH2 0x163 JUMPI DUP1 PUSH4 0xB1B6E93 EQ PUSH2 0x181 JUMPI DUP1 PUSH4 0x1C59A288 EQ PUSH2 0x19F JUMPI DUP1 PUSH4 0x333F4362 EQ PUSH2 0x1BD JUMPI JUMPDEST PUSH1 0x0 DUP1 REVERT JUMPDEST PUSH2 0x161 PUSH1 0x4 DUP1 CALLDATASIZE SUB DUP2 ADD SWAP1 PUSH2 0x15C SWAP2 SWAP1 PUSH2 0x5E1 JUMP JUMPDEST PUSH2 0x3C5 JUMP JUMPDEST STOP JUMPDEST PUSH2 0x16B PUSH2 0x3CF JUMP JUMPDEST PUSH1 0x40 MLOAD PUSH2 0x178 SWAP2 SWAP1 PUSH2 0x61D JUMP JUMPDEST PUSH1 0x40 MLOAD DUP1 SWAP2 SUB SWAP1 RETURN JUMPDEST PUSH2 0x189 PUSH2 0x3D5 JUMP JUMPDEST PUSH1 0x40 MLOAD PUSH2 0x196 SWAP2 SWAP1 PUSH2 0x61D JUMP JUMPDEST PUSH1 0x40 MLOAD DUP1 SWAP2 SUB SWAP1 RETURN JUMPDEST PUSH2 0x1A7 PUSH2 0x3DB JUMP JUMPDEST PUSH1 0x40 MLOAD PUSH2 0x1B4 SWAP2 SWAP1 PUSH2 0x61D JUMP JUMPDEST PUSH1 0x40 MLOAD DUP1 SWAP2 SUB SWAP1 RETURN JUMPDEST PUSH2 0x1D7 PUSH1 0x4 DUP1 CALLDATASIZE SUB DUP2 ADD SWAP1 PUSH2 0x1D2 SWAP2 SWAP1 PUSH2 0x5E1 JUMP JUMPDEST PUSH2 0x3E1 JUMP JUMPDEST STOP JUMPDEST PUSH2 0x1E1 PUSH2 0x3EB JUMP JUMPDEST PUSH1 0x40 MLOAD PUSH2 0x1EE SWAP2 SWAP1 PUSH2 0x61D JUMP JUMPDEST PUSH1 0x40 MLOAD DUP1 SWAP2 SUB SWAP1 RETURN JUMPDEST PUSH2 0x211 PUSH1 0x4 DUP1 CALLDATASIZE SUB DUP2 ADD SWAP1 PUSH2 0x20C SWAP2 SWAP1 PUSH2 0x5E1 JUMP JUMPDEST PUSH2 0x3F1 JUMP JUMPDEST STOP JUMPDEST PUSH2 0x22D PUSH1 0x4 DUP1 CALLDATASIZE SUB DUP2 ADD SWAP1 PUSH2 0x228 SWAP2 SWAP1 PUSH2 0x5E1 JUMP JUMPDEST PUSH2 0x3FB JUMP JUMPDEST STOP JUMPDEST PUSH2 0x249 PUSH1 0x4 DUP1 CALLDATASIZE SUB DUP2 ADD SWAP1 PUSH2 0x244 SWAP2 SWAP1 PUSH2 0x5E1 JUMP JUMPDEST PUSH2 0x405 JUMP JUMPDEST STOP JUMPDEST PUSH2 0x253 PUSH2 0x40F JUMP JUMPDEST PUSH1 0x40 MLOAD PUSH2 0x260 SWAP2 SWAP1 PUSH2 0x6D1 JUMP JUMPDEST PUSH1 0x40 MLOAD DUP1 SWAP2 SUB SWAP1 RETURN JUMPDEST PUSH2 0x271 PUSH2 0x49D JUMP JUMPDEST PUSH1 0x40 MLOAD PUSH2 0x27E SWAP2 SWAP1 PUSH2 0x6D1 JUMP JUMPDEST PUSH1 0x40 MLOAD DUP1 SWAP2 SUB SWAP1 RETURN JUMPDEST PUSH2 0x28F PUSH2 0x52B JUMP JUMPDEST PUSH1 0x40 MLOAD PUSH2 0x29C SWAP2 SWAP1 PUSH2 0x61D JUMP JUMPDEST PUSH1 0x40 MLOAD DUP1 SWAP2 SUB SWAP1 RETURN JUMPDEST PUSH2 0x2BF PUSH1 0x4 DUP1 CALLDATASIZE SUB DUP2 ADD SWAP1 PUSH2 0x2BA SWAP2 SWAP1 PUSH2 0x5E1 JUMP JUMPDEST PUSH2 0x531 JUMP JUMPDEST STOP JUMPDEST PUSH2 0x2C9 PUSH2 0x53B JUMP JUMPDEST PUSH1 0x40 MLOAD PUSH2 0x2D6 SWAP2 SWAP1 PUSH2 0x61D JUMP JUMPDEST PUSH1 0x40 MLOAD DUP1 SWAP2 SUB SWAP1 RETURN JUMPDEST PUSH2 0x2E7 PUSH2 0x541 JUMP JUMPDEST PUSH1 0x40 MLOAD PUSH2 0x2F4 SWAP2 SWAP1 PUSH2 0x61D JUMP JUMPDEST PUSH1 0x40 MLOAD DUP1 SWAP2 SUB SWAP1 RETURN JUMPDEST PUSH2 0x317 PUSH1 0x4 DUP1 CALLDATASIZE SUB DUP2 ADD SWAP1 PUSH2 0x312 SWAP2 SWAP1 PUSH2 0x5E1 JUMP JUMPDEST PUSH2 0x547 JUMP JUMPDEST STOP JUMPDEST PUSH2 0x321 PUSH2 0x551 JUMP JUMPDEST PUSH1 0x40 MLOAD PUSH2 0x32E SWAP2 SWAP1 PUSH2 0x61D JUMP JUMPDEST PUSH1 0x40 MLOAD DUP1 SWAP2 SUB SWAP1 RETURN JUMPDEST PUSH2 0x351 PUSH1 0x4 DUP1 CALLDATASIZE SUB DUP2 ADD SWAP1 PUSH2 0x34C SWAP2 SWAP1 PUSH2 0x5E1 JUMP JUMPDEST PUSH2 0x557 JUMP JUMPDEST STOP JUMPDEST PUSH2 0x36D PUSH1 0x4 DUP1 CALLDATASIZE SUB DUP2 ADD SWAP1 PUSH2 0x368 SWAP2 SWAP1 PUSH2 0x5E1 JUMP JUMPDEST PUSH2 0x561 JUMP JUMPDEST STOP JUMPDEST PUSH2 0x389 PUSH1 0x4 DUP1 CALLDATASIZE SUB DUP2 ADD SWAP1 PUSH2 0x384 SWAP2 SWAP1 PUSH2 0x828 JUMP JUMPDEST PUSH2 0x56B JUMP JUMPDEST STOP JUMPDEST PUSH2 0x3A5 PUSH1 0x4 DUP1 CALLDATASIZE SUB DUP2 ADD SWAP1 PUSH2 0x3A0 SWAP2 SWAP1 PUSH2 0x828 JUMP JUMPDEST PUSH2 0x57E JUMP JUMPDEST STOP JUMPDEST PUSH2 0x3AF PUSH2 0x591 JUMP JUMPDEST PUSH1 0x40 MLOAD PUSH2 0x3BC SWAP2 SWAP1 PUSH2 0x61D JUMP JUMPDEST PUSH1 0x40 MLOAD DUP1 SWAP2 SUB SWAP1 RETURN JUMPDEST DUP1 PUSH1 0x4 DUP2 SWAP1 SSTORE POP POP JUMP JUMPDEST PUSH1 0x4 SLOAD DUP2 JUMP JUMPDEST PUSH1 0xA SLOAD DUP2 JUMP JUMPDEST PUSH1 0x5 SLOAD DUP2 JUMP JUMPDEST DUP1 PUSH1 0x7 DUP2 SWAP1 SSTORE POP POP JUMP JUMPDEST PUSH1 0x3 SLOAD DUP2 JUMP JUMPDEST DUP1 PUSH1 0x8 DUP2 SWAP1 SSTORE POP POP JUMP JUMPDEST DUP1 PUSH1 0x3 DUP2 SWAP1 SSTORE POP POP JUMP JUMPDEST DUP1 PUSH1 0x6 DUP2 SWAP1 SSTORE POP POP JUMP JUMPDEST PUSH1 0x0 DUP1 SLOAD PUSH2 0x41C SWAP1 PUSH2 0x8A0 JUMP JUMPDEST DUP1 PUSH1 0x1F ADD PUSH1 0x20 DUP1 SWAP2 DIV MUL PUSH1 0x20 ADD PUSH1 0x40 MLOAD SWAP1 DUP2 ADD PUSH1 0x40 MSTORE DUP1 SWAP3 SWAP2 SWAP1 DUP2 DUP2 MSTORE PUSH1 0x20 ADD DUP3 DUP1 SLOAD PUSH2 0x448 SWAP1 PUSH2 0x8A0 JUMP JUMPDEST DUP1 ISZERO PUSH2 0x495 JUMPI DUP1 PUSH1 0x1F LT PUSH2 0x46A JUMPI PUSH2 0x100 DUP1 DUP4 SLOAD DIV MUL DUP4 MSTORE SWAP2 PUSH1 0x20 ADD SWAP2 PUSH2 0x495 JUMP JUMPDEST DUP3 ADD SWAP2 SWAP1 PUSH1 0x0 MSTORE PUSH1 0x20 PUSH1 0x0 KECCAK256 SWAP1 JUMPDEST DUP2 SLOAD DUP2 MSTORE SWAP1 PUSH1 0x1 ADD SWAP1 PUSH1 0x20 ADD DUP1 DUP4 GT PUSH2 0x478 JUMPI DUP3 SWAP1 SUB PUSH1 0x1F AND DUP3 ADD SWAP2 JUMPDEST POP POP POP POP POP DUP2 JUMP JUMPDEST PUSH1 0x1 DUP1 SLOAD PUSH2 0x4AA SWAP1 PUSH2 0x8A0 JUMP JUMPDEST DUP1 PUSH1 0x1F ADD PUSH1 0x20 DUP1 SWAP2 DIV MUL PUSH1 0x20 ADD PUSH1 0x40 MLOAD SWAP1 DUP2 ADD PUSH1 0x40 MSTORE DUP1 SWAP3 SWAP2 SWAP1 DUP2 DUP2 MSTORE PUSH1 0x20 ADD DUP3 DUP1 SLOAD PUSH2 0x4D6 SWAP1 PUSH2 0x8A0 JUMP JUMPDEST DUP1 ISZERO PUSH2 0x523 JUMPI DUP1 PUSH1 0x1F LT PUSH2 0x4F8 JUMPI PUSH2 0x100 DUP1 DUP4 SLOAD DIV MUL DUP4 MSTORE SWAP2 PUSH1 0x20 ADD SWAP2 PUSH2 0x523 JUMP JUMPDEST DUP3 ADD SWAP2 SWAP1 PUSH1 0x0 MSTORE PUSH1 0x20 PUSH1 0x0 KECCAK256 SWAP1 JUMPDEST DUP2 SLOAD DUP2 MSTORE SWAP1 PUSH1 0x1 ADD SWAP1 PUSH1 0x20 ADD DUP1 DUP4 GT PUSH2 0x506 JUMPI DUP3 SWAP1 SUB PUSH1 0x1F AND DUP3 ADD SWAP2 JUMPDEST POP POP POP POP POP DUP2 JUMP JUMPDEST PUSH1 0x2 SLOAD DUP2 JUMP JUMPDEST DUP1 PUSH1 0x9 DUP2 SWAP1 SSTORE POP POP JUMP JUMPDEST PUSH1 0x8 SLOAD DUP2 JUMP JUMPDEST PUSH1 0x9 SLOAD DUP2 JUMP JUMPDEST DUP1 PUSH1 0x5 DUP2 SWAP1 SSTORE POP POP JUMP JUMPDEST PUSH1 0x6 SLOAD DUP2 JUMP JUMPDEST DUP1 PUSH1 0x2 DUP2 SWAP1 SSTORE POP POP JUMP JUMPDEST DUP1 PUSH1 0xA DUP2 SWAP1 SSTORE POP POP JUMP JUMPDEST DUP1 PUSH1 0x0 SWAP1 DUP2 PUSH2 0x57A SWAP2 SWAP1 PUSH2 0xA7D JUMP JUMPDEST POP POP JUMP JUMPDEST DUP1 PUSH1 0x1 SWAP1 DUP2 PUSH2 0x58D SWAP2 SWAP1 PUSH2 0xA7D JUMP JUMPDEST POP POP JUMP JUMPDEST PUSH1 0x7 SLOAD DUP2 JUMP JUMPDEST PUSH1 0x0 PUSH1 0x40 MLOAD SWAP1 POP SWAP1 JUMP JUMPDEST PUSH1 0x0 DUP1 REVERT JUMPDEST PUSH1 0x0 DUP1 REVERT JUMPDEST PUSH1 0x0 DUP2 SWAP1 POP SWAP2 SWAP1 POP JUMP JUMPDEST PUSH2 0x5BE DUP2 PUSH2 0x5AB JUMP JUMPDEST DUP2 EQ PUSH2 0x5C9 JUMPI PUSH1 0x0 DUP1 REVERT JUMPDEST POP JUMP JUMPDEST PUSH1 0x0 DUP2 CALLDATALOAD SWAP1 POP PUSH2 0x5DB DUP2 PUSH2 0x5B5 JUMP JUMPDEST SWAP3 SWAP2 POP POP JUMP JUMPDEST PUSH1 0x0 PUSH1 0x20 DUP3 DUP5 SUB SLT ISZERO PUSH2 0x5F7 JUMPI PUSH2 0x5F6 PUSH2 0x5A1 JUMP JUMPDEST JUMPDEST PUSH1 0x0 PUSH2 0x605 DUP5 DUP3 DUP6 ADD PUSH2 0x5CC JUMP JUMPDEST SWAP2 POP POP SWAP3 SWAP2 POP POP JUMP JUMPDEST PUSH2 0x617 DUP2 PUSH2 0x5AB JUMP JUMPDEST DUP3 MSTORE POP POP JUMP JUMPDEST PUSH1 0x0 PUSH1 0x20 DUP3 ADD SWAP1 POP PUSH2 0x632 PUSH1 0x0 DUP4 ADD DUP5 PUSH2 0x60E JUMP JUMPDEST SWAP3 SWAP2 POP POP JUMP JUMPDEST PUSH1 0x0 DUP2 MLOAD SWAP1 POP SWAP2 SWAP1 POP JUMP JUMPDEST PUSH1 0x0 DUP3 DUP3 MSTORE PUSH1 0x20 DUP3 ADD SWAP1 POP SWAP3 SWAP2 POP POP JUMP JUMPDEST PUSH1 0x0 JUMPDEST DUP4 DUP2 LT ISZERO PUSH2 0x672 JUMPI DUP1 DUP3 ADD MLOAD DUP2 DUP5 ADD MSTORE PUSH1 0x20 DUP2 ADD SWAP1 POP PUSH2 0x657 JUMP JUMPDEST DUP4 DUP2 GT ISZERO PUSH2 0x681 JUMPI PUSH1 0x0 DUP5 DUP5 ADD MSTORE JUMPDEST POP POP POP POP JUMP JUMPDEST PUSH1 0x0 PUSH1 0x1F NOT PUSH1 0x1F DUP4 ADD AND SWAP1 POP SWAP2 SWAP1 POP JUMP JUMPDEST PUSH1 0x0 PUSH2 0x6A3 DUP3 PUSH2 0x638 JUMP JUMPDEST PUSH2 0x6AD DUP2 DUP6 PUSH2 0x643 JUMP JUMPDEST SWAP4 POP PUSH2 0x6BD DUP2 DUP6 PUSH1 0x20 DUP7 ADD PUSH2 0x654 JUMP JUMPDEST PUSH2 0x6C6 DUP2 PUSH2 0x687 JUMP JUMPDEST DUP5 ADD SWAP2 POP POP SWAP3 SWAP2 POP POP JUMP JUMPDEST PUSH1 0x0 PUSH1 0x20 DUP3 ADD SWAP1 POP DUP2 DUP2 SUB PUSH1 0x0 DUP4 ADD MSTORE PUSH2 0x6EB DUP2 DUP5 PUSH2 0x698 JUMP JUMPDEST SWAP1 POP SWAP3 SWAP2 POP POP JUMP JUMPDEST PUSH1 0x0 DUP1 REVERT JUMPDEST PUSH1 0x0 DUP1 REVERT JUMPDEST PUSH32 0x4E487B7100000000000000000000000000000000000000000000000000000000 PUSH1 0x0 MSTORE PUSH1 0x41 PUSH1 0x4 MSTORE PUSH1 0x24 PUSH1 0x0 REVERT JUMPDEST PUSH2 0x735 DUP3 PUSH2 0x687 JUMP JUMPDEST DUP2 ADD DUP2 DUP2 LT PUSH8 0xFFFFFFFFFFFFFFFF DUP3 GT OR ISZERO PUSH2 0x754 JUMPI PUSH2 0x753 PUSH2 0x6FD JUMP JUMPDEST JUMPDEST DUP1 PUSH1 0x40 MSTORE POP POP POP JUMP JUMPDEST PUSH1 0x0 PUSH2 0x767 PUSH2 0x597 JUMP JUMPDEST SWAP1 POP PUSH2 0x773 DUP3 DUP3 PUSH2 0x72C JUMP JUMPDEST SWAP2 SWAP1 POP JUMP JUMPDEST PUSH1 0x0 PUSH8 0xFFFFFFFFFFFFFFFF DUP3 GT ISZERO PUSH2 0x793 JUMPI PUSH2 0x792 PUSH2 0x6FD JUMP JUMPDEST JUMPDEST PUSH2 0x79C DUP3 PUSH2 0x687 JUMP JUMPDEST SWAP1 POP PUSH1 0x20 DUP2 ADD SWAP1 POP SWAP2 SWAP1 POP JUMP JUMPDEST DUP3 DUP2 DUP4 CALLDATACOPY PUSH1 0x0 DUP4 DUP4 ADD MSTORE POP POP POP JUMP JUMPDEST PUSH1 0x0 PUSH2 0x7CB PUSH2 0x7C6 DUP5 PUSH2 0x778 JUMP JUMPDEST PUSH2 0x75D JUMP JUMPDEST SWAP1 POP DUP3 DUP2 MSTORE PUSH1 0x20 DUP2 ADD DUP5 DUP5 DUP5 ADD GT ISZERO PUSH2 0x7E7 JUMPI PUSH2 0x7E6 PUSH2 0x6F8 JUMP JUMPDEST JUMPDEST PUSH2 0x7F2 DUP5 DUP3 DUP6 PUSH2 0x7A9 JUMP JUMPDEST POP SWAP4 SWAP3 POP POP POP JUMP JUMPDEST PUSH1 0x0 DUP3 PUSH1 0x1F DUP4 ADD SLT PUSH2 0x80F JUMPI PUSH2 0x80E PUSH2 0x6F3 JUMP JUMPDEST JUMPDEST DUP2 CALLDATALOAD PUSH2 0x81F DUP5 DUP3 PUSH1 0x20 DUP7 ADD PUSH2 0x7B8 JUMP JUMPDEST SWAP2 POP POP SWAP3 SWAP2 POP POP JUMP JUMPDEST PUSH1 0x0 PUSH1 0x20 DUP3 DUP5 SUB SLT ISZERO PUSH2 0x83E JUMPI PUSH2 0x83D PUSH2 0x5A1 JUMP JUMPDEST JUMPDEST PUSH1 0x0 DUP3 ADD CALLDATALOAD PUSH8 0xFFFFFFFFFFFFFFFF DUP2 GT ISZERO PUSH2 0x85C JUMPI PUSH2 0x85B PUSH2 0x5A6 JUMP JUMPDEST JUMPDEST PUSH2 0x868 DUP5 DUP3 DUP6 ADD PUSH2 0x7FA JUMP JUMPDEST SWAP2 POP POP SWAP3 SWAP2 POP POP JUMP JUMPDEST PUSH32 0x4E487B7100000000000000000000000000000000000000000000000000000000 PUSH1 0x0 MSTORE PUSH1 0x22 PUSH1 0x4 MSTORE PUSH1 0x24 PUSH1 0x0 REVERT JUMPDEST PUSH1 0x0 PUSH1 0x2 DUP3 DIV SWAP1 POP PUSH1 0x1 DUP3 AND DUP1 PUSH2 0x8B8 JUMPI PUSH1 0x7F DUP3 AND SWAP2 POP JUMPDEST PUSH1 0x20 DUP3 LT DUP2 SUB PUSH2 0x8CB JUMPI PUSH2 0x8CA PUSH2 0x871 JUMP JUMPDEST JUMPDEST POP SWAP2 SWAP1 POP JUMP JUMPDEST PUSH1 0x0 DUP2 SWAP1 POP DUP2 PUSH1 0x0 MSTORE PUSH1 0x20 PUSH1 0x0 KECCAK256 SWAP1 POP SWAP2 SWAP1 POP JUMP JUMPDEST PUSH1 0x0 PUSH1 0x20 PUSH1 0x1F DUP4 ADD DIV SWAP1 POP SWAP2 SWAP1 POP JUMP JUMPDEST PUSH1 0x0 DUP3 DUP3 SHL SWAP1 POP SWAP3 SWAP2 POP POP JUMP JUMPDEST PUSH1 0x0 PUSH1 0x8 DUP4 MUL PUSH2 0x933 PUSH32 0xFFFFFFFFFFFFFFFFFFFFFFFFFFFFFFFFFFFFFFFFFFFFFFFFFFFFFFFFFFFFFFFF DUP3 PUSH2 0x8F6 JUMP JUMPDEST PUSH2 0x93D DUP7 DUP4 PUSH2 0x8F6 JUMP JUMPDEST SWAP6 POP DUP1 NOT DUP5 AND SWAP4 POP DUP1 DUP7 AND DUP5 OR SWAP3 POP POP POP SWAP4 SWAP3 POP POP POP JUMP JUMPDEST PUSH1 0x0 DUP2 SWAP1 POP SWAP2 SWAP1 POP JUMP JUMPDEST PUSH1 0x0 PUSH2 0x97A PUSH2 0x975 PUSH2 0x970 DUP5 PUSH2 0x5AB JUMP JUMPDEST PUSH2 0x955 JUMP JUMPDEST PUSH2 0x5AB JUMP JUMPDEST SWAP1 POP SWAP2 SWAP1 POP JUMP JUMPDEST PUSH1 0x0 DUP2 SWAP1 POP SWAP2 SWAP1 POP JUMP JUMPDEST PUSH2 0x994 DUP4 PUSH2 0x95F JUMP JUMPDEST PUSH2 0x9A8 PUSH2 0x9A0 DUP3 PUSH2 0x981 JUMP JUMPDEST DUP5 DUP5 SLOAD PUSH2 0x903 JUMP JUMPDEST DUP3 SSTORE POP POP POP POP JUMP JUMPDEST PUSH1 0x0 SWAP1 JUMP JUMPDEST PUSH2 0x9BD PUSH2 0x9B0 JUMP JUMPDEST PUSH2 0x9C8 DUP2 DUP5 DUP5 PUSH2 0x98B JUMP JUMPDEST POP POP POP JUMP JUMPDEST JUMPDEST DUP2 DUP2 LT ISZERO PUSH2 0x9EC JUMPI PUSH2 0x9E1 PUSH1 0x0 DUP3 PUSH2 0x9B5 JUMP JUMPDEST PUSH1 0x1 DUP2 ADD SWAP1 POP PUSH2 0x9CE JUMP JUMPDEST POP POP JUMP JUMPDEST PUSH1 0x1F DUP3 GT ISZERO PUSH2 0xA31 JUMPI PUSH2 0xA02 DUP2 PUSH2 0x8D1 JUMP JUMPDEST PUSH2 0xA0B DUP5 PUSH2 0x8E6 JUMP JUMPDEST DUP2 ADD PUSH1 0x20 DUP6 LT ISZERO PUSH2 0xA1A JUMPI DUP2 SWAP1 POP JUMPDEST PUSH2 0xA2E PUSH2 0xA26 DUP6 PUSH2 0x8E6 JUMP JUMPDEST DUP4 ADD DUP3 PUSH2 0x9CD JUMP JUMPDEST POP POP JUMPDEST POP POP POP JUMP JUMPDEST PUSH1 0x0 DUP3 DUP3 SHR SWAP1 POP SWAP3 SWAP2 POP POP JUMP JUMPDEST PUSH1 0x0 PUSH2 0xA54 PUSH1 0x0 NOT DUP5 PUSH1 0x8 MUL PUSH2 0xA36 JUMP JUMPDEST NOT DUP1 DUP4 AND SWAP2 POP POP SWAP3 SWAP2 POP POP JUMP JUMPDEST PUSH1 0x0 PUSH2 0xA6D DUP4 DUP4 PUSH2 0xA43 JUMP JUMPDEST SWAP2 POP DUP3 PUSH1 0x2 MUL DUP3 OR SWAP1 POP SWAP3 SWAP2 POP POP JUMP JUMPDEST PUSH2 0xA86 DUP3 PUSH2 0x638 JUMP JUMPDEST PUSH8 0xFFFFFFFFFFFFFFFF DUP2 GT ISZERO PUSH2 0xA9F JUMPI PUSH2 0xA9E PUSH2 0x6FD JUMP JUMPDEST JUMPDEST PUSH2 0xAA9 DUP3 SLOAD PUSH2 0x8A0 JUMP JUMPDEST PUSH2 0xAB4 DUP3 DUP3 DUP6 PUSH2 0x9F0 JUMP JUMPDEST PUSH1 0x0 PUSH1 0x20 SWAP1 POP PUSH1 0x1F DUP4 GT PUSH1 0x1 DUP2 EQ PUSH2 0xAE7 JUMPI PUSH1 0x0 DUP5 ISZERO PUSH2 0xAD5 JUMPI DUP3 DUP8 ADD MLOAD SWAP1 POP JUMPDEST PUSH2 0xADF DUP6 DUP3 PUSH2 0xA61 JUMP JUMPDEST DUP7 SSTORE POP PUSH2 0xB47 JUMP JUMPDEST PUSH1 0x1F NOT DUP5 AND PUSH2 0xAF5 DUP7 PUSH2 0x8D1 JUMP JUMPDEST PUSH1 0x0 JUMPDEST DUP3 DUP2 LT ISZERO PUSH2 0xB1D JUMPI DUP5 DUP10 ADD MLOAD DUP3 SSTORE PUSH1 0x1 DUP3 ADD SWAP2 POP PUSH1 0x20 DUP6 ADD SWAP5 POP PUSH1 0x20 DUP2 ADD SWAP1 POP PUSH2 0xAF8 JUMP JUMPDEST DUP7 DUP4 LT ISZERO PUSH2 0xB3A JUMPI DUP5 DUP10 ADD MLOAD PUSH2 0xB36 PUSH1 0x1F DUP10 AND DUP3 PUSH2 0xA43 JUMP JUMPDEST DUP4 SSTORE POP JUMPDEST PUSH1 0x1 PUSH1 0x2 DUP9 MUL ADD DUP9 SSTORE POP POP POP JUMPDEST POP POP POP POP POP POP JUMP INVALID LOG2 PUSH5 0x6970667358 0x22 SLT KECCAK256 0xAD POP 0xB8 0x2D 0x2B SUB 0xCC 0xC2 LT 0x2B DUP4 PUSH20 0xDE14CB8F3C5817AD2777EC8AB32FF7EC3D36BBC5 PUSH5 0x736F6C6343 STOP ADDMOD 0xF STOP CALLER "},"gasEstimates":{"creation":{"codeDepositCost":"589800","executionCost":"625","totalCost":"590425"},"external":{"bloodGlucose()":"2497","dbp()":"2475","gender()":"infinite","oxygenSaturation()":"2518","phone()":"2452","pulse()":"2451","pulsePressure()":"2519","respiratoryRate()":"2561","sbp()":"2452","setBloodGlucose(uint256)":"22586","setDbp(uint256)":"22544","setGender(string)":"infinite","setOxygenSaturation(uint256)":"22565","setPhone(uint256)":"22564","setPulse(uint256)":"22609","setPulsePressure(uint256)":"22631","setRespiratoryRate(uint256)":"22632","setSbp(uint256)":"22587","setTemperature(uint256)":"22565","setUsername(string)":"infinite","temperature()":"2496","username()":"infinite"}},"methodIdentifiers":{"bloodGlucose()":"0b1b6e93","dbp()":"05ec5f51","gender()":"79caad86","oxygenSaturation()":"b89a64e8","phone()":"9284f497","pulse()":"deb189b5","pulsePressure()":"1c59a288","respiratoryRate()":"fb14326f","sbp()":"467621c6","setBloodGlucose(uint256)":"e42b0f2b","setDbp(uint256)":"04740594","setGender(string)":"f212e265","setOxygenSaturation(uint256)":"a0abadbe","setPhone(uint256)":"e211552d","setPulse(uint256)":"60696643","setPulsePressure(uint256)":"bbe63ad8","setRespiratoryRate(uint256)":"333f4362","setSbp(uint256)":"586b8a56","setTemperature(uint256)":"48f14470","setUsername(string)":"ed59313a","temperature()":"adccea12","username()":"61fac54d"}},"storageLayout":{"storage":[{"astId":47,"contract":"hmsb.sol:Patient","label":"username","offset":0,"slot":"0","type":"t_string_storage"},{"astId":49,"contract":"hmsb.sol:Patient","label":"gender","offset":0,"slot":"1","type":"t_string_storage"},{"astId":51,"contract":"hmsb.sol:Patient","label":"phone","offset":0,"slot":"2","type":"t_uint256"},{"astId":53,"contract":"hmsb.sol:Patient","label":"sbp","offset":0,"slot":"3","type":"t_uint256"},{"astId":55,"contract":"hmsb.sol:Patient","label":"dbp","offset":0,"slot":"4","type":"t_uint256"},{"astId":57,"contract":"hmsb.sol:Patient","label":"pulsePressure","offset":0,"slot":"5","type":"t_uint256"},{"astId":59,"contract":"hmsb.sol:Patient","label":"pulse","offset":0,"slot":"6","type":"t_uint256"},{"astId":61,"contract":"hmsb.sol:Patient","label":"respiratoryRate","offset":0,"slot":"7","type":"t_uint256"},{"astId":63,"contract":"hmsb.sol:Patient","label":"temperature","offset":0,"slot":"8","type":"t_uint256"},{"astId":65,"contract":"hmsb.sol:Patient","label":"oxygenSaturation","offset":0,"slot":"9","type":"t_uint256"},{"astId":67,"contract":"hmsb.sol:Patient","label":"bloodGlucose","offset":0,"slot":"10","type":"t_uint256"}],"types":{"t_string_storage":{"encoding":"bytes","label":"string","numberOfBytes":"32"},"t_uint256":{"encoding":"inplace","label":"uint256","numberOfBytes":"32"}}},"userdoc":{"kind":"user","methods":{},"version":1}}