{"abi":[{"inputs":[{"internalType":"string","name":"_username","type":"string"},{"internalType":"string","name":"_gender","type":"string"},{"internalType":"uint256","name":"_phone","type":"uint256"},{"internalType":"uint256","name":"_age","type":"uint256"},{"internalType":"uint256","name":"_sbp","type":"uint256"},{"internalType":"uint256","name":"_dbp","type":"uint256"},{"internalType":"uint256","name":"_pulse","type":"uint256"},{"internalType":"uint256","name":"_respiratoryRate","type":"uint256"},{"internalType":"uint256","name":"_temperature","type":"uint256"},{"internalType":"uint256","name":"_oxygenSaturation","type":"uint256"},{"internalType":"uint256","name":"_bloodGlucose","type":"uint256"}],"stateMutability":"nonpayable","type":"constructor"},{"inputs":[],"name":"age","outputs":[{"internalType":"uint256","name":"","type":"uint256"}],"stateMutability":"view","type":"function"},{"inputs":[],"name":"bloodGlucose","outputs":[{"internalType":"uint256","name":"","type":"uint256"}],"stateMutability":"view","type":"function"},{"inputs":[],"name":"dbp","outputs":[{"internalType":"uint256","name":"","type":"uint256"}],"stateMutability":"view","type":"function"},{"inputs":[],"name":"gender","outputs":[{"internalType":"string","name":"","type":"string"}],"stateMutability":"view","type":"function"},{"inputs":[],"name":"oxygenSaturation","outputs":[{"internalType":"uint256","name":"","type":"uint256"}],"stateMutability":"view","type":"function"},{"inputs":[],"name":"phone","outputs":[{"internalType":"uint256","name":"","type":"uint256"}],"stateMutability":"view","type":"function"},{"inputs":[],"name":"pulse","outputs":[{"internalType":"uint256","name":"","type":"uint256"}],"stateMutability":"view","type":"function"},{"inputs":[],"name":"respiratoryRate","outputs":[{"internalType":"uint256","name":"","type":"uint256"}],"stateMutability":"view","type":"function"},{"inputs":[],"name":"sbp","outputs":[{"internalType":"uint256","name":"","type":"uint256"}],"stateMutability":"view","type":"function"},{"inputs":[],"name":"temperature","outputs":[{"internalType":"uint256","name":"","type":"uint256"}],"stateMutability":"view","type":"function"},{"inputs":[],"name":"username","outputs":[{"internalType":"string","name":"","type":"string"}],"stateMutability":"view","type":"function"}],"devdoc":{"kind":"dev","methods":{},"version":1},"evm":{"assembly":"    /* \"hmsb.sol\":1086:2073  contract Patient {... */\n  mstore(0x40, 0x80)\n    /* \"hmsb.sol\":1412:2070  constructor(... */\n  callvalue\n  dup1\n  iszero\n  tag_1\n  jumpi\n  0x00\n  dup1\n  revert\ntag_1:\n  pop\n  mload(0x40)\n  sub(codesize, bytecodeSize)\n  dup1\n  bytecodeSize\n  dup4\n  codecopy\n  dup2\n  dup2\n  add\n  0x40\n  mstore\n  dup2\n  add\n  swap1\n  tag_2\n  swap2\n  swap1\n  tag_3\n  jump\t// in\ntag_2:\n    /* \"hmsb.sol\":1745:1754  _username */\n  dup11\n    /* \"hmsb.sol\":1734:1742  username */\n  0x00\n    /* \"hmsb.sol\":1734:1754  username = _username */\n  swap1\n  dup2\n  tag_6\n  swap2\n  swap1\n  tag_7\n  jump\t// in\ntag_6:\n  pop\n    /* \"hmsb.sol\":1774:1781  _gender */\n  dup10\n    /* \"hmsb.sol\":1765:1771  gender */\n  0x01\n    /* \"hmsb.sol\":1765:1781  gender = _gender */\n  swap1\n  dup2\n  tag_8\n  swap2\n  swap1\n  tag_7\n  jump\t// in\ntag_8:\n  pop\n    /* \"hmsb.sol\":1800:1806  _phone */\n  dup9\n    /* \"hmsb.sol\":1792:1797  phone */\n  0x02\n    /* \"hmsb.sol\":1792:1806  phone = _phone */\n  dup2\n  swap1\n  sstore\n  pop\n    /* \"hmsb.sol\":1823:1827  _age */\n  dup8\n    /* \"hmsb.sol\":1817:1820  age */\n  0x03\n    /* \"hmsb.sol\":1817:1827  age = _age */\n  dup2\n  swap1\n  sstore\n  pop\n    /* \"hmsb.sol\":1844:1848  _sbp */\n  dup7\n    /* \"hmsb.sol\":1838:1841  sbp */\n  0x04\n    /* \"hmsb.sol\":1838:1848  sbp = _sbp */\n  dup2\n  swap1\n  sstore\n  pop\n    /* \"hmsb.sol\":1865:1869  _dbp */\n  dup6\n    /* \"hmsb.sol\":1859:1862  dbp */\n  0x05\n    /* \"hmsb.sol\":1859:1869  dbp = _dbp */\n  dup2\n  swap1\n  sstore\n  pop\n    /* \"hmsb.sol\":1888:1894  _pulse */\n  dup5\n    /* \"hmsb.sol\":1880:1885  pulse */\n  0x06\n    /* \"hmsb.sol\":1880:1894  pulse = _pulse */\n  dup2\n  swap1\n  sstore\n  pop\n    /* \"hmsb.sol\":1923:1939  _respiratoryRate */\n  dup4\n    /* \"hmsb.sol\":1905:1920  respiratoryRate */\n  0x07\n    /* \"hmsb.sol\":1905:1939  respiratoryRate = _respiratoryRate */\n  dup2\n  swap1\n  sstore\n  pop\n    /* \"hmsb.sol\":1964:1976  _temperature */\n  dup3\n    /* \"hmsb.sol\":1950:1961  temperature */\n  0x08\n    /* \"hmsb.sol\":1950:1976  temperature = _temperature */\n  dup2\n  swap1\n  sstore\n  pop\n    /* \"hmsb.sol\":2006:2023  _oxygenSaturation */\n  dup2\n    /* \"hmsb.sol\":1987:2003  oxygenSaturation */\n  0x09\n    /* \"hmsb.sol\":1987:2023  oxygenSaturation = _oxygenSaturation */\n  dup2\n  swap1\n  sstore\n  pop\n    /* \"hmsb.sol\":2049:2062  _bloodGlucose */\n  dup1\n    /* \"hmsb.sol\":2034:2046  bloodGlucose */\n  0x0a\n    /* \"hmsb.sol\":2034:2062  bloodGlucose = _bloodGlucose */\n  dup2\n  swap1\n  sstore\n  pop\n    /* \"hmsb.sol\":1412:2070  constructor(... */\n  pop\n  pop\n  pop\n  pop\n  pop\n  pop\n  pop\n  pop\n  pop\n  pop\n  pop\n    /* \"hmsb.sol\":1086:2073  contract Patient {... */\n  jump(tag_9)\n    /* \"#utility.yul\":7:82   */\ntag_10:\n    /* \"#utility.yul\":40:46   */\n  0x00\n    /* \"#utility.yul\":73:75   */\n  0x40\n    /* \"#utility.yul\":67:76   */\n  mload\n    /* \"#utility.yul\":57:76   */\n  swap1\n  pop\n    /* \"#utility.yul\":7:82   */\n  swap1\n  jump\t// out\n    /* \"#utility.yul\":88:205   */\ntag_11:\n    /* \"#utility.yul\":197:198   */\n  0x00\n    /* \"#utility.yul\":194:195   */\n  dup1\n    /* \"#utility.yul\":187:199   */\n  revert\n    /* \"#utility.yul\":211:328   */\ntag_12:\n    /* \"#utility.yul\":320:321   */\n  0x00\n    /* \"#utility.yul\":317:318   */\n  dup1\n    /* \"#utility.yul\":310:322   */\n  revert\n    /* \"#utility.yul\":334:451   */\ntag_13:\n    /* \"#utility.yul\":443:444   */\n  0x00\n    /* \"#utility.yul\":440:441   */\n  dup1\n    /* \"#utility.yul\":433:445   */\n  revert\n    /* \"#utility.yul\":457:574   */\ntag_14:\n    /* \"#utility.yul\":566:567   */\n  0x00\n    /* \"#utility.yul\":563:564   */\n  dup1\n    /* \"#utility.yul\":556:568   */\n  revert\n    /* \"#utility.yul\":580:682   */\ntag_15:\n    /* \"#utility.yul\":621:627   */\n  0x00\n    /* \"#utility.yul\":672:674   */\n  0x1f\n    /* \"#utility.yul\":668:675   */\n  not\n    /* \"#utility.yul\":663:665   */\n  0x1f\n    /* \"#utility.yul\":656:661   */\n  dup4\n    /* \"#utility.yul\":652:666   */\n  add\n    /* \"#utility.yul\":648:676   */\n  and\n    /* \"#utility.yul\":638:676   */\n  swap1\n  pop\n    /* \"#utility.yul\":580:682   */\n  swap2\n  swap1\n  pop\n  jump\t// out\n    /* \"#utility.yul\":688:868   */\ntag_16:\n    /* \"#utility.yul\":736:813   */\n  0x4e487b7100000000000000000000000000000000000000000000000000000000\n    /* \"#utility.yul\":733:734   */\n  0x00\n    /* \"#utility.yul\":726:814   */\n  mstore\n    /* \"#utility.yul\":833:837   */\n  0x41\n    /* \"#utility.yul\":830:831   */\n  0x04\n    /* \"#utility.yul\":823:838   */\n  mstore\n    /* \"#utility.yul\":857:861   */\n  0x24\n    /* \"#utility.yul\":854:855   */\n  0x00\n    /* \"#utility.yul\":847:862   */\n  revert\n    /* \"#utility.yul\":874:1155   */\ntag_17:\n    /* \"#utility.yul\":957:984   */\n  tag_53\n    /* \"#utility.yul\":979:983   */\n  dup3\n    /* \"#utility.yul\":957:984   */\n  tag_15\n  jump\t// in\ntag_53:\n    /* \"#utility.yul\":949:955   */\n  dup2\n    /* \"#utility.yul\":945:985   */\n  add\n    /* \"#utility.yul\":1087:1093   */\n  dup2\n    /* \"#utility.yul\":1075:1085   */\n  dup2\n    /* \"#utility.yul\":1072:1094   */\n  lt\n    /* \"#utility.yul\":1051:1069   */\n  0xffffffffffffffff\n    /* \"#utility.yul\":1039:1049   */\n  dup3\n    /* \"#utility.yul\":1036:1070   */\n  gt\n    /* \"#utility.yul\":1033:1095   */\n  or\n    /* \"#utility.yul\":1030:1118   */\n  iszero\n  tag_54\n  jumpi\n    /* \"#utility.yul\":1098:1116   */\n  tag_55\n  tag_16\n  jump\t// in\ntag_55:\n    /* \"#utility.yul\":1030:1118   */\ntag_54:\n    /* \"#utility.yul\":1138:1148   */\n  dup1\n    /* \"#utility.yul\":1134:1136   */\n  0x40\n    /* \"#utility.yul\":1127:1149   */\n  mstore\n    /* \"#utility.yul\":917:1155   */\n  pop\n    /* \"#utility.yul\":874:1155   */\n  pop\n  pop\n  jump\t// out\n    /* \"#utility.yul\":1161:1290   */\ntag_18:\n    /* \"#utility.yul\":1195:1201   */\n  0x00\n    /* \"#utility.yul\":1222:1242   */\n  tag_57\n  tag_10\n  jump\t// in\ntag_57:\n    /* \"#utility.yul\":1212:1242   */\n  swap1\n  pop\n    /* \"#utility.yul\":1251:1284   */\n  tag_58\n    /* \"#utility.yul\":1279:1283   */\n  dup3\n    /* \"#utility.yul\":1271:1277   */\n  dup3\n    /* \"#utility.yul\":1251:1284   */\n  tag_17\n  jump\t// in\ntag_58:\n    /* \"#utility.yul\":1161:1290   */\n  swap2\n  swap1\n  pop\n  jump\t// out\n    /* \"#utility.yul\":1296:1604   */\ntag_19:\n    /* \"#utility.yul\":1358:1362   */\n  0x00\n    /* \"#utility.yul\":1448:1466   */\n  0xffffffffffffffff\n    /* \"#utility.yul\":1440:1446   */\n  dup3\n    /* \"#utility.yul\":1437:1467   */\n  gt\n    /* \"#utility.yul\":1434:1490   */\n  iszero\n  tag_60\n  jumpi\n    /* \"#utility.yul\":1470:1488   */\n  tag_61\n  tag_16\n  jump\t// in\ntag_61:\n    /* \"#utility.yul\":1434:1490   */\ntag_60:\n    /* \"#utility.yul\":1508:1537   */\n  tag_62\n    /* \"#utility.yul\":1530:1536   */\n  dup3\n    /* \"#utility.yul\":1508:1537   */\n  tag_15\n  jump\t// in\ntag_62:\n    /* \"#utility.yul\":1500:1537   */\n  swap1\n  pop\n    /* \"#utility.yul\":1592:1596   */\n  0x20\n    /* \"#utility.yul\":1586:1590   */\n  dup2\n    /* \"#utility.yul\":1582:1597   */\n  add\n    /* \"#utility.yul\":1574:1597   */\n  swap1\n  pop\n    /* \"#utility.yul\":1296:1604   */\n  swap2\n  swap1\n  pop\n  jump\t// out\n    /* \"#utility.yul\":1610:1856   */\ntag_20:\n    /* \"#utility.yul\":1691:1692   */\n  0x00\n    /* \"#utility.yul\":1701:1814   */\ntag_64:\n    /* \"#utility.yul\":1715:1721   */\n  dup4\n    /* \"#utility.yul\":1712:1713   */\n  dup2\n    /* \"#utility.yul\":1709:1722   */\n  lt\n    /* \"#utility.yul\":1701:1814   */\n  iszero\n  tag_66\n  jumpi\n    /* \"#utility.yul\":1800:1801   */\n  dup1\n    /* \"#utility.yul\":1795:1798   */\n  dup3\n    /* \"#utility.yul\":1791:1802   */\n  add\n    /* \"#utility.yul\":1785:1803   */\n  mload\n    /* \"#utility.yul\":1781:1782   */\n  dup2\n    /* \"#utility.yul\":1776:1779   */\n  dup5\n    /* \"#utility.yul\":1772:1783   */\n  add\n    /* \"#utility.yul\":1765:1804   */\n  mstore\n    /* \"#utility.yul\":1737:1739   */\n  0x20\n    /* \"#utility.yul\":1734:1735   */\n  dup2\n    /* \"#utility.yul\":1730:1740   */\n  add\n    /* \"#utility.yul\":1725:1740   */\n  swap1\n  pop\n    /* \"#utility.yul\":1701:1814   */\n  jump(tag_64)\ntag_66:\n    /* \"#utility.yul\":1848:1849   */\n  0x00\n    /* \"#utility.yul\":1839:1845   */\n  dup5\n    /* \"#utility.yul\":1834:1837   */\n  dup5\n    /* \"#utility.yul\":1830:1846   */\n  add\n    /* \"#utility.yul\":1823:1850   */\n  mstore\n    /* \"#utility.yul\":1672:1856   */\n  pop\n    /* \"#utility.yul\":1610:1856   */\n  pop\n  pop\n  pop\n  jump\t// out\n    /* \"#utility.yul\":1862:2296   */\ntag_21:\n    /* \"#utility.yul\":1951:1956   */\n  0x00\n    /* \"#utility.yul\":1976:2042   */\n  tag_68\n    /* \"#utility.yul\":1992:2041   */\n  tag_69\n    /* \"#utility.yul\":2034:2040   */\n  dup5\n    /* \"#utility.yul\":1992:2041   */\n  tag_19\n  jump\t// in\ntag_69:\n    /* \"#utility.yul\":1976:2042   */\n  tag_18\n  jump\t// in\ntag_68:\n    /* \"#utility.yul\":1967:2042   */\n  swap1\n  pop\n    /* \"#utility.yul\":2065:2071   */\n  dup3\n    /* \"#utility.yul\":2058:2063   */\n  dup2\n    /* \"#utility.yul\":2051:2072   */\n  mstore\n    /* \"#utility.yul\":2103:2107   */\n  0x20\n    /* \"#utility.yul\":2096:2101   */\n  dup2\n    /* \"#utility.yul\":2092:2108   */\n  add\n    /* \"#utility.yul\":2141:2144   */\n  dup5\n    /* \"#utility.yul\":2132:2138   */\n  dup5\n    /* \"#utility.yul\":2127:2130   */\n  dup5\n    /* \"#utility.yul\":2123:2139   */\n  add\n    /* \"#utility.yul\":2120:2145   */\n  gt\n    /* \"#utility.yul\":2117:2229   */\n  iszero\n  tag_70\n  jumpi\n    /* \"#utility.yul\":2148:2227   */\n  tag_71\n  tag_14\n  jump\t// in\ntag_71:\n    /* \"#utility.yul\":2117:2229   */\ntag_70:\n    /* \"#utility.yul\":2238:2290   */\n  tag_72\n    /* \"#utility.yul\":2283:2289   */\n  dup5\n    /* \"#utility.yul\":2278:2281   */\n  dup3\n    /* \"#utility.yul\":2273:2276   */\n  dup6\n    /* \"#utility.yul\":2238:2290   */\n  tag_20\n  jump\t// in\ntag_72:\n    /* \"#utility.yul\":1957:2296   */\n  pop\n    /* \"#utility.yul\":1862:2296   */\n  swap4\n  swap3\n  pop\n  pop\n  pop\n  jump\t// out\n    /* \"#utility.yul\":2316:2671   */\ntag_22:\n    /* \"#utility.yul\":2383:2388   */\n  0x00\n    /* \"#utility.yul\":2432:2435   */\n  dup3\n    /* \"#utility.yul\":2425:2429   */\n  0x1f\n    /* \"#utility.yul\":2417:2423   */\n  dup4\n    /* \"#utility.yul\":2413:2430   */\n  add\n    /* \"#utility.yul\":2409:2436   */\n  slt\n    /* \"#utility.yul\":2399:2521   */\n  tag_74\n  jumpi\n    /* \"#utility.yul\":2440:2519   */\n  tag_75\n  tag_13\n  jump\t// in\ntag_75:\n    /* \"#utility.yul\":2399:2521   */\ntag_74:\n    /* \"#utility.yul\":2550:2556   */\n  dup2\n    /* \"#utility.yul\":2544:2557   */\n  mload\n    /* \"#utility.yul\":2575:2665   */\n  tag_76\n    /* \"#utility.yul\":2661:2664   */\n  dup5\n    /* \"#utility.yul\":2653:2659   */\n  dup3\n    /* \"#utility.yul\":2646:2650   */\n  0x20\n    /* \"#utility.yul\":2638:2644   */\n  dup7\n    /* \"#utility.yul\":2634:2651   */\n  add\n    /* \"#utility.yul\":2575:2665   */\n  tag_21\n  jump\t// in\ntag_76:\n    /* \"#utility.yul\":2566:2665   */\n  swap2\n  pop\n    /* \"#utility.yul\":2389:2671   */\n  pop\n    /* \"#utility.yul\":2316:2671   */\n  swap3\n  swap2\n  pop\n  pop\n  jump\t// out\n    /* \"#utility.yul\":2677:2754   */\ntag_23:\n    /* \"#utility.yul\":2714:2721   */\n  0x00\n    /* \"#utility.yul\":2743:2748   */\n  dup2\n    /* \"#utility.yul\":2732:2748   */\n  swap1\n  pop\n    /* \"#utility.yul\":2677:2754   */\n  swap2\n  swap1\n  pop\n  jump\t// out\n    /* \"#utility.yul\":2760:2882   */\ntag_24:\n    /* \"#utility.yul\":2833:2857   */\n  tag_79\n    /* \"#utility.yul\":2851:2856   */\n  dup2\n    /* \"#utility.yul\":2833:2857   */\n  tag_23\n  jump\t// in\ntag_79:\n    /* \"#utility.yul\":2826:2831   */\n  dup2\n    /* \"#utility.yul\":2823:2858   */\n  eq\n    /* \"#utility.yul\":2813:2876   */\n  tag_80\n  jumpi\n    /* \"#utility.yul\":2872:2873   */\n  0x00\n    /* \"#utility.yul\":2869:2870   */\n  dup1\n    /* \"#utility.yul\":2862:2874   */\n  revert\n    /* \"#utility.yul\":2813:2876   */\ntag_80:\n    /* \"#utility.yul\":2760:2882   */\n  pop\n  jump\t// out\n    /* \"#utility.yul\":2888:3031   */\ntag_25:\n    /* \"#utility.yul\":2945:2950   */\n  0x00\n    /* \"#utility.yul\":2976:2982   */\n  dup2\n    /* \"#utility.yul\":2970:2983   */\n  mload\n    /* \"#utility.yul\":2961:2983   */\n  swap1\n  pop\n    /* \"#utility.yul\":2992:3025   */\n  tag_82\n    /* \"#utility.yul\":3019:3024   */\n  dup2\n    /* \"#utility.yul\":2992:3025   */\n  tag_24\n  jump\t// in\ntag_82:\n    /* \"#utility.yul\":2888:3031   */\n  swap3\n  swap2\n  pop\n  pop\n  jump\t// out\n    /* \"#utility.yul\":3037:5304   */\ntag_3:\n    /* \"#utility.yul\":3217:3223   */\n  0x00\n    /* \"#utility.yul\":3225:3231   */\n  dup1\n    /* \"#utility.yul\":3233:3239   */\n  0x00\n    /* \"#utility.yul\":3241:3247   */\n  dup1\n    /* \"#utility.yul\":3249:3255   */\n  0x00\n    /* \"#utility.yul\":3257:3263   */\n  dup1\n    /* \"#utility.yul\":3265:3271   */\n  0x00\n    /* \"#utility.yul\":3273:3279   */\n  dup1\n    /* \"#utility.yul\":3281:3287   */\n  0x00\n    /* \"#utility.yul\":3289:3295   */\n  dup1\n    /* \"#utility.yul\":3297:3304   */\n  0x00\n    /* \"#utility.yul\":3347:3350   */\n  0x0160\n    /* \"#utility.yul\":3335:3344   */\n  dup13\n    /* \"#utility.yul\":3326:3333   */\n  dup15\n    /* \"#utility.yul\":3322:3345   */\n  sub\n    /* \"#utility.yul\":3318:3351   */\n  slt\n    /* \"#utility.yul\":3315:3435   */\n  iszero\n  tag_84\n  jumpi\n    /* \"#utility.yul\":3354:3433   */\n  tag_85\n  tag_11\n  jump\t// in\ntag_85:\n    /* \"#utility.yul\":3315:3435   */\ntag_84:\n    /* \"#utility.yul\":3495:3496   */\n  0x00\n    /* \"#utility.yul\":3484:3493   */\n  dup13\n    /* \"#utility.yul\":3480:3497   */\n  add\n    /* \"#utility.yul\":3474:3498   */\n  mload\n    /* \"#utility.yul\":3525:3543   */\n  0xffffffffffffffff\n    /* \"#utility.yul\":3517:3523   */\n  dup2\n    /* \"#utility.yul\":3514:3544   */\n  gt\n    /* \"#utility.yul\":3511:3628   */\n  iszero\n  tag_86\n  jumpi\n    /* \"#utility.yul\":3547:3626   */\n  tag_87\n  tag_12\n  jump\t// in\ntag_87:\n    /* \"#utility.yul\":3511:3628   */\ntag_86:\n    /* \"#utility.yul\":3652:3726   */\n  tag_88\n    /* \"#utility.yul\":3718:3725   */\n  dup15\n    /* \"#utility.yul\":3709:3715   */\n  dup3\n    /* \"#utility.yul\":3698:3707   */\n  dup16\n    /* \"#utility.yul\":3694:3716   */\n  add\n    /* \"#utility.yul\":3652:3726   */\n  tag_22\n  jump\t// in\ntag_88:\n    /* \"#utility.yul\":3642:3726   */\n  swap12\n  pop\n    /* \"#utility.yul\":3445:3736   */\n  pop\n    /* \"#utility.yul\":3796:3798   */\n  0x20\n    /* \"#utility.yul\":3785:3794   */\n  dup13\n    /* \"#utility.yul\":3781:3799   */\n  add\n    /* \"#utility.yul\":3775:3800   */\n  mload\n    /* \"#utility.yul\":3827:3845   */\n  0xffffffffffffffff\n    /* \"#utility.yul\":3819:3825   */\n  dup2\n    /* \"#utility.yul\":3816:3846   */\n  gt\n    /* \"#utility.yul\":3813:3930   */\n  iszero\n  tag_89\n  jumpi\n    /* \"#utility.yul\":3849:3928   */\n  tag_90\n  tag_12\n  jump\t// in\ntag_90:\n    /* \"#utility.yul\":3813:3930   */\ntag_89:\n    /* \"#utility.yul\":3954:4028   */\n  tag_91\n    /* \"#utility.yul\":4020:4027   */\n  dup15\n    /* \"#utility.yul\":4011:4017   */\n  dup3\n    /* \"#utility.yul\":4000:4009   */\n  dup16\n    /* \"#utility.yul\":3996:4018   */\n  add\n    /* \"#utility.yul\":3954:4028   */\n  tag_22\n  jump\t// in\ntag_91:\n    /* \"#utility.yul\":3944:4028   */\n  swap11\n  pop\n    /* \"#utility.yul\":3746:4038   */\n  pop\n    /* \"#utility.yul\":4077:4079   */\n  0x40\n    /* \"#utility.yul\":4103:4167   */\n  tag_92\n    /* \"#utility.yul\":4159:4166   */\n  dup15\n    /* \"#utility.yul\":4150:4156   */\n  dup3\n    /* \"#utility.yul\":4139:4148   */\n  dup16\n    /* \"#utility.yul\":4135:4157   */\n  add\n    /* \"#utility.yul\":4103:4167   */\n  tag_25\n  jump\t// in\ntag_92:\n    /* \"#utility.yul\":4093:4167   */\n  swap10\n  pop\n    /* \"#utility.yul\":4048:4177   */\n  pop\n    /* \"#utility.yul\":4216:4218   */\n  0x60\n    /* \"#utility.yul\":4242:4306   */\n  tag_93\n    /* \"#utility.yul\":4298:4305   */\n  dup15\n    /* \"#utility.yul\":4289:4295   */\n  dup3\n    /* \"#utility.yul\":4278:4287   */\n  dup16\n    /* \"#utility.yul\":4274:4296   */\n  add\n    /* \"#utility.yul\":4242:4306   */\n  tag_25\n  jump\t// in\ntag_93:\n    /* \"#utility.yul\":4232:4306   */\n  swap9\n  pop\n    /* \"#utility.yul\":4187:4316   */\n  pop\n    /* \"#utility.yul\":4355:4358   */\n  0x80\n    /* \"#utility.yul\":4382:4446   */\n  tag_94\n    /* \"#utility.yul\":4438:4445   */\n  dup15\n    /* \"#utility.yul\":4429:4435   */\n  dup3\n    /* \"#utility.yul\":4418:4427   */\n  dup16\n    /* \"#utility.yul\":4414:4436   */\n  add\n    /* \"#utility.yul\":4382:4446   */\n  tag_25\n  jump\t// in\ntag_94:\n    /* \"#utility.yul\":4372:4446   */\n  swap8\n  pop\n    /* \"#utility.yul\":4326:4456   */\n  pop\n    /* \"#utility.yul\":4495:4498   */\n  0xa0\n    /* \"#utility.yul\":4522:4586   */\n  tag_95\n    /* \"#utility.yul\":4578:4585   */\n  dup15\n    /* \"#utility.yul\":4569:4575   */\n  dup3\n    /* \"#utility.yul\":4558:4567   */\n  dup16\n    /* \"#utility.yul\":4554:4576   */\n  add\n    /* \"#utility.yul\":4522:4586   */\n  tag_25\n  jump\t// in\ntag_95:\n    /* \"#utility.yul\":4512:4586   */\n  swap7\n  pop\n    /* \"#utility.yul\":4466:4596   */\n  pop\n    /* \"#utility.yul\":4635:4638   */\n  0xc0\n    /* \"#utility.yul\":4662:4726   */\n  tag_96\n    /* \"#utility.yul\":4718:4725   */\n  dup15\n    /* \"#utility.yul\":4709:4715   */\n  dup3\n    /* \"#utility.yul\":4698:4707   */\n  dup16\n    /* \"#utility.yul\":4694:4716   */\n  add\n    /* \"#utility.yul\":4662:4726   */\n  tag_25\n  jump\t// in\ntag_96:\n    /* \"#utility.yul\":4652:4726   */\n  swap6\n  pop\n    /* \"#utility.yul\":4606:4736   */\n  pop\n    /* \"#utility.yul\":4775:4778   */\n  0xe0\n    /* \"#utility.yul\":4802:4866   */\n  tag_97\n    /* \"#utility.yul\":4858:4865   */\n  dup15\n    /* \"#utility.yul\":4849:4855   */\n  dup3\n    /* \"#utility.yul\":4838:4847   */\n  dup16\n    /* \"#utility.yul\":4834:4856   */\n  add\n    /* \"#utility.yul\":4802:4866   */\n  tag_25\n  jump\t// in\ntag_97:\n    /* \"#utility.yul\":4792:4866   */\n  swap5\n  pop\n    /* \"#utility.yul\":4746:4876   */\n  pop\n    /* \"#utility.yul\":4915:4918   */\n  0x0100\n    /* \"#utility.yul\":4942:5006   */\n  tag_98\n    /* \"#utility.yul\":4998:5005   */\n  dup15\n    /* \"#utility.yul\":4989:4995   */\n  dup3\n    /* \"#utility.yul\":4978:4987   */\n  dup16\n    /* \"#utility.yul\":4974:4996   */\n  add\n    /* \"#utility.yul\":4942:5006   */\n  tag_25\n  jump\t// in\ntag_98:\n    /* \"#utility.yul\":4932:5006   */\n  swap4\n  pop\n    /* \"#utility.yul\":4886:5016   */\n  pop\n    /* \"#utility.yul\":5055:5058   */\n  0x0120\n    /* \"#utility.yul\":5082:5146   */\n  tag_99\n    /* \"#utility.yul\":5138:5145   */\n  dup15\n    /* \"#utility.yul\":5129:5135   */\n  dup3\n    /* \"#utility.yul\":5118:5127   */\n  dup16\n    /* \"#utility.yul\":5114:5136   */\n  add\n    /* \"#utility.yul\":5082:5146   */\n  tag_25\n  jump\t// in\ntag_99:\n    /* \"#utility.yul\":5072:5146   */\n  swap3\n  pop\n    /* \"#utility.yul\":5026:5156   */\n  pop\n    /* \"#utility.yul\":5195:5198   */\n  0x0140\n    /* \"#utility.yul\":5223:5287   */\n  tag_100\n    /* \"#utility.yul\":5279:5286   */\n  dup15\n    /* \"#utility.yul\":5270:5276   */\n  dup3\n    /* \"#utility.yul\":5259:5268   */\n  dup16\n    /* \"#utility.yul\":5255:5277   */\n  add\n    /* \"#utility.yul\":5223:5287   */\n  tag_25\n  jump\t// in\ntag_100:\n    /* \"#utility.yul\":5212:5287   */\n  swap2\n  pop\n    /* \"#utility.yul\":5166:5297   */\n  pop\n    /* \"#utility.yul\":3037:5304   */\n  swap3\n  swap6\n  swap9\n  swap12\n  pop\n  swap3\n  swap6\n  swap9\n  swap12\n  swap1\n  swap4\n  swap7\n  swap10\n  pop\n  jump\t// out\n    /* \"#utility.yul\":5310:5409   */\ntag_26:\n    /* \"#utility.yul\":5362:5368   */\n  0x00\n    /* \"#utility.yul\":5396:5401   */\n  dup2\n    /* \"#utility.yul\":5390:5402   */\n  mload\n    /* \"#utility.yul\":5380:5402   */\n  swap1\n  pop\n    /* \"#utility.yul\":5310:5409   */\n  swap2\n  swap1\n  pop\n  jump\t// out\n    /* \"#utility.yul\":5415:5595   */\ntag_27:\n    /* \"#utility.yul\":5463:5540   */\n  0x4e487b7100000000000000000000000000000000000000000000000000000000\n    /* \"#utility.yul\":5460:5461   */\n  0x00\n    /* \"#utility.yul\":5453:5541   */\n  mstore\n    /* \"#utility.yul\":5560:5564   */\n  0x22\n    /* \"#utility.yul\":5557:5558   */\n  0x04\n    /* \"#utility.yul\":5550:5565   */\n  mstore\n    /* \"#utility.yul\":5584:5588   */\n  0x24\n    /* \"#utility.yul\":5581:5582   */\n  0x00\n    /* \"#utility.yul\":5574:5589   */\n  revert\n    /* \"#utility.yul\":5601:5921   */\ntag_28:\n    /* \"#utility.yul\":5645:5651   */\n  0x00\n    /* \"#utility.yul\":5682:5683   */\n  0x02\n    /* \"#utility.yul\":5676:5680   */\n  dup3\n    /* \"#utility.yul\":5672:5684   */\n  div\n    /* \"#utility.yul\":5662:5684   */\n  swap1\n  pop\n    /* \"#utility.yul\":5729:5730   */\n  0x01\n    /* \"#utility.yul\":5723:5727   */\n  dup3\n    /* \"#utility.yul\":5719:5731   */\n  and\n    /* \"#utility.yul\":5750:5768   */\n  dup1\n    /* \"#utility.yul\":5740:5821   */\n  tag_104\n  jumpi\n    /* \"#utility.yul\":5806:5810   */\n  0x7f\n    /* \"#utility.yul\":5798:5804   */\n  dup3\n    /* \"#utility.yul\":5794:5811   */\n  and\n    /* \"#utility.yul\":5784:5811   */\n  swap2\n  pop\n    /* \"#utility.yul\":5740:5821   */\ntag_104:\n    /* \"#utility.yul\":5868:5870   */\n  0x20\n    /* \"#utility.yul\":5860:5866   */\n  dup3\n    /* \"#utility.yul\":5857:5871   */\n  lt\n    /* \"#utility.yul\":5837:5855   */\n  dup2\n    /* \"#utility.yul\":5834:5872   */\n  sub\n    /* \"#utility.yul\":5831:5915   */\n  tag_105\n  jumpi\n    /* \"#utility.yul\":5887:5905   */\n  tag_106\n  tag_27\n  jump\t// in\ntag_106:\n    /* \"#utility.yul\":5831:5915   */\ntag_105:\n    /* \"#utility.yul\":5652:5921   */\n  pop\n    /* \"#utility.yul\":5601:5921   */\n  swap2\n  swap1\n  pop\n  jump\t// out\n    /* \"#utility.yul\":5927:6068   */\ntag_29:\n    /* \"#utility.yul\":5976:5980   */\n  0x00\n    /* \"#utility.yul\":5999:6002   */\n  dup2\n    /* \"#utility.yul\":5991:6002   */\n  swap1\n  pop\n    /* \"#utility.yul\":6022:6025   */\n  dup2\n    /* \"#utility.yul\":6019:6020   */\n  0x00\n    /* \"#utility.yul\":6012:6026   */\n  mstore\n    /* \"#utility.yul\":6056:6060   */\n  0x20\n    /* \"#utility.yul\":6053:6054   */\n  0x00\n    /* \"#utility.yul\":6043:6061   */\n  keccak256\n    /* \"#utility.yul\":6035:6061   */\n  swap1\n  pop\n    /* \"#utility.yul\":5927:6068   */\n  swap2\n  swap1\n  pop\n  jump\t// out\n    /* \"#utility.yul\":6074:6167   */\ntag_30:\n    /* \"#utility.yul\":6111:6117   */\n  0x00\n    /* \"#utility.yul\":6158:6160   */\n  0x20\n    /* \"#utility.yul\":6153:6155   */\n  0x1f\n    /* \"#utility.yul\":6146:6151   */\n  dup4\n    /* \"#utility.yul\":6142:6156   */\n  add\n    /* \"#utility.yul\":6138:6161   */\n  div\n    /* \"#utility.yul\":6128:6161   */\n  swap1\n  pop\n    /* \"#utility.yul\":6074:6167   */\n  swap2\n  swap1\n  pop\n  jump\t// out\n    /* \"#utility.yul\":6173:6280   */\ntag_31:\n    /* \"#utility.yul\":6217:6225   */\n  0x00\n    /* \"#utility.yul\":6267:6272   */\n  dup3\n    /* \"#utility.yul\":6261:6265   */\n  dup3\n    /* \"#utility.yul\":6257:6273   */\n  shl\n    /* \"#utility.yul\":6236:6273   */\n  swap1\n  pop\n    /* \"#utility.yul\":6173:6280   */\n  swap3\n  swap2\n  pop\n  pop\n  jump\t// out\n    /* \"#utility.yul\":6286:6679   */\ntag_32:\n    /* \"#utility.yul\":6355:6361   */\n  0x00\n    /* \"#utility.yul\":6405:6406   */\n  0x08\n    /* \"#utility.yul\":6393:6403   */\n  dup4\n    /* \"#utility.yul\":6389:6407   */\n  mul\n    /* \"#utility.yul\":6428:6525   */\n  tag_111\n    /* \"#utility.yul\":6458:6524   */\n  0xffffffffffffffffffffffffffffffffffffffffffffffffffffffffffffffff\n    /* \"#utility.yul\":6447:6456   */\n  dup3\n    /* \"#utility.yul\":6428:6525   */\n  tag_31\n  jump\t// in\ntag_111:\n    /* \"#utility.yul\":6546:6585   */\n  tag_112\n    /* \"#utility.yul\":6576:6584   */\n  dup7\n    /* \"#utility.yul\":6565:6574   */\n  dup4\n    /* \"#utility.yul\":6546:6585   */\n  tag_31\n  jump\t// in\ntag_112:\n    /* \"#utility.yul\":6534:6585   */\n  swap6\n  pop\n    /* \"#utility.yul\":6618:6622   */\n  dup1\n    /* \"#utility.yul\":6614:6623   */\n  not\n    /* \"#utility.yul\":6607:6612   */\n  dup5\n    /* \"#utility.yul\":6603:6624   */\n  and\n    /* \"#utility.yul\":6594:6624   */\n  swap4\n  pop\n    /* \"#utility.yul\":6667:6671   */\n  dup1\n    /* \"#utility.yul\":6657:6665   */\n  dup7\n    /* \"#utility.yul\":6653:6672   */\n  and\n    /* \"#utility.yul\":6646:6651   */\n  dup5\n    /* \"#utility.yul\":6643:6673   */\n  or\n    /* \"#utility.yul\":6633:6673   */\n  swap3\n  pop\n    /* \"#utility.yul\":6362:6679   */\n  pop\n  pop\n    /* \"#utility.yul\":6286:6679   */\n  swap4\n  swap3\n  pop\n  pop\n  pop\n  jump\t// out\n    /* \"#utility.yul\":6685:6745   */\ntag_33:\n    /* \"#utility.yul\":6713:6716   */\n  0x00\n    /* \"#utility.yul\":6734:6739   */\n  dup2\n    /* \"#utility.yul\":6727:6739   */\n  swap1\n  pop\n    /* \"#utility.yul\":6685:6745   */\n  swap2\n  swap1\n  pop\n  jump\t// out\n    /* \"#utility.yul\":6751:6893   */\ntag_34:\n    /* \"#utility.yul\":6801:6810   */\n  0x00\n    /* \"#utility.yul\":6834:6887   */\n  tag_115\n    /* \"#utility.yul\":6852:6886   */\n  tag_116\n    /* \"#utility.yul\":6861:6885   */\n  tag_117\n    /* \"#utility.yul\":6879:6884   */\n  dup5\n    /* \"#utility.yul\":6861:6885   */\n  tag_23\n  jump\t// in\ntag_117:\n    /* \"#utility.yul\":6852:6886   */\n  tag_33\n  jump\t// in\ntag_116:\n    /* \"#utility.yul\":6834:6887   */\n  tag_23\n  jump\t// in\ntag_115:\n    /* \"#utility.yul\":6821:6887   */\n  swap1\n  pop\n    /* \"#utility.yul\":6751:6893   */\n  swap2\n  swap1\n  pop\n  jump\t// out\n    /* \"#utility.yul\":6899:6974   */\ntag_35:\n    /* \"#utility.yul\":6942:6945   */\n  0x00\n    /* \"#utility.yul\":6963:6968   */\n  dup2\n    /* \"#utility.yul\":6956:6968   */\n  swap1\n  pop\n    /* \"#utility.yul\":6899:6974   */\n  swap2\n  swap1\n  pop\n  jump\t// out\n    /* \"#utility.yul\":6980:7249   */\ntag_36:\n    /* \"#utility.yul\":7090:7129   */\n  tag_120\n    /* \"#utility.yul\":7121:7128   */\n  dup4\n    /* \"#utility.yul\":7090:7129   */\n  tag_34\n  jump\t// in\ntag_120:\n    /* \"#utility.yul\":7151:7242   */\n  tag_121\n    /* \"#utility.yul\":7200:7241   */\n  tag_122\n    /* \"#utility.yul\":7224:7240   */\n  dup3\n    /* \"#utility.yul\":7200:7241   */\n  tag_35\n  jump\t// in\ntag_122:\n    /* \"#utility.yul\":7192:7198   */\n  dup5\n    /* \"#utility.yul\":7185:7189   */\n  dup5\n    /* \"#utility.yul\":7179:7190   */\n  sload\n    /* \"#utility.yul\":7151:7242   */\n  tag_32\n  jump\t// in\ntag_121:\n    /* \"#utility.yul\":7145:7149   */\n  dup3\n    /* \"#utility.yul\":7138:7243   */\n  sstore\n    /* \"#utility.yul\":7056:7249   */\n  pop\n    /* \"#utility.yul\":6980:7249   */\n  pop\n  pop\n  pop\n  jump\t// out\n    /* \"#utility.yul\":7255:7328   */\ntag_37:\n    /* \"#utility.yul\":7300:7303   */\n  0x00\n    /* \"#utility.yul\":7255:7328   */\n  swap1\n  jump\t// out\n    /* \"#utility.yul\":7334:7523   */\ntag_38:\n    /* \"#utility.yul\":7411:7443   */\n  tag_125\n  tag_37\n  jump\t// in\ntag_125:\n    /* \"#utility.yul\":7452:7517   */\n  tag_126\n    /* \"#utility.yul\":7510:7516   */\n  dup2\n    /* \"#utility.yul\":7502:7508   */\n  dup5\n    /* \"#utility.yul\":7496:7500   */\n  dup5\n    /* \"#utility.yul\":7452:7517   */\n  tag_36\n  jump\t// in\ntag_126:\n    /* \"#utility.yul\":7387:7523   */\n  pop\n    /* \"#utility.yul\":7334:7523   */\n  pop\n  pop\n  jump\t// out\n    /* \"#utility.yul\":7529:7715   */\ntag_39:\n    /* \"#utility.yul\":7589:7709   */\ntag_128:\n    /* \"#utility.yul\":7606:7609   */\n  dup2\n    /* \"#utility.yul\":7599:7604   */\n  dup2\n    /* \"#utility.yul\":7596:7610   */\n  lt\n    /* \"#utility.yul\":7589:7709   */\n  iszero\n  tag_130\n  jumpi\n    /* \"#utility.yul\":7660:7699   */\n  tag_131\n    /* \"#utility.yul\":7697:7698   */\n  0x00\n    /* \"#utility.yul\":7690:7695   */\n  dup3\n    /* \"#utility.yul\":7660:7699   */\n  tag_38\n  jump\t// in\ntag_131:\n    /* \"#utility.yul\":7633:7634   */\n  0x01\n    /* \"#utility.yul\":7626:7631   */\n  dup2\n    /* \"#utility.yul\":7622:7635   */\n  add\n    /* \"#utility.yul\":7613:7635   */\n  swap1\n  pop\n    /* \"#utility.yul\":7589:7709   */\n  jump(tag_128)\ntag_130:\n    /* \"#utility.yul\":7529:7715   */\n  pop\n  pop\n  jump\t// out\n    /* \"#utility.yul\":7721:8264   */\ntag_40:\n    /* \"#utility.yul\":7822:7824   */\n  0x1f\n    /* \"#utility.yul\":7817:7820   */\n  dup3\n    /* \"#utility.yul\":7814:7825   */\n  gt\n    /* \"#utility.yul\":7811:8257   */\n  iszero\n  tag_133\n  jumpi\n    /* \"#utility.yul\":7856:7894   */\n  tag_134\n    /* \"#utility.yul\":7888:7893   */\n  dup2\n    /* \"#utility.yul\":7856:7894   */\n  tag_29\n  jump\t// in\ntag_134:\n    /* \"#utility.yul\":7940:7969   */\n  tag_135\n    /* \"#utility.yul\":7958:7968   */\n  dup5\n    /* \"#utility.yul\":7940:7969   */\n  tag_30\n  jump\t// in\ntag_135:\n    /* \"#utility.yul\":7930:7938   */\n  dup2\n    /* \"#utility.yul\":7926:7970   */\n  add\n    /* \"#utility.yul\":8123:8125   */\n  0x20\n    /* \"#utility.yul\":8111:8121   */\n  dup6\n    /* \"#utility.yul\":8108:8126   */\n  lt\n    /* \"#utility.yul\":8105:8154   */\n  iszero\n  tag_136\n  jumpi\n    /* \"#utility.yul\":8144:8152   */\n  dup2\n    /* \"#utility.yul\":8129:8152   */\n  swap1\n  pop\n    /* \"#utility.yul\":8105:8154   */\ntag_136:\n    /* \"#utility.yul\":8167:8247   */\n  tag_137\n    /* \"#utility.yul\":8223:8245   */\n  tag_138\n    /* \"#utility.yul\":8241:8244   */\n  dup6\n    /* \"#utility.yul\":8223:8245   */\n  tag_30\n  jump\t// in\ntag_138:\n    /* \"#utility.yul\":8213:8221   */\n  dup4\n    /* \"#utility.yul\":8209:8246   */\n  add\n    /* \"#utility.yul\":8196:8207   */\n  dup3\n    /* \"#utility.yul\":8167:8247   */\n  tag_39\n  jump\t// in\ntag_137:\n    /* \"#utility.yul\":7826:8257   */\n  pop\n  pop\n    /* \"#utility.yul\":7811:8257   */\ntag_133:\n    /* \"#utility.yul\":7721:8264   */\n  pop\n  pop\n  pop\n  jump\t// out\n    /* \"#utility.yul\":8270:8387   */\ntag_41:\n    /* \"#utility.yul\":8324:8332   */\n  0x00\n    /* \"#utility.yul\":8374:8379   */\n  dup3\n    /* \"#utility.yul\":8368:8372   */\n  dup3\n    /* \"#utility.yul\":8364:8380   */\n  shr\n    /* \"#utility.yul\":8343:8380   */\n  swap1\n  pop\n    /* \"#utility.yul\":8270:8387   */\n  swap3\n  swap2\n  pop\n  pop\n  jump\t// out\n    /* \"#utility.yul\":8393:8562   */\ntag_42:\n    /* \"#utility.yul\":8437:8443   */\n  0x00\n    /* \"#utility.yul\":8470:8521   */\n  tag_141\n    /* \"#utility.yul\":8518:8519   */\n  0x00\n    /* \"#utility.yul\":8514:8520   */\n  not\n    /* \"#utility.yul\":8506:8511   */\n  dup5\n    /* \"#utility.yul\":8503:8504   */\n  0x08\n    /* \"#utility.yul\":8499:8512   */\n  mul\n    /* \"#utility.yul\":8470:8521   */\n  tag_41\n  jump\t// in\ntag_141:\n    /* \"#utility.yul\":8466:8522   */\n  not\n    /* \"#utility.yul\":8551:8555   */\n  dup1\n    /* \"#utility.yul\":8545:8549   */\n  dup4\n    /* \"#utility.yul\":8541:8556   */\n  and\n    /* \"#utility.yul\":8531:8556   */\n  swap2\n  pop\n    /* \"#utility.yul\":8444:8562   */\n  pop\n    /* \"#utility.yul\":8393:8562   */\n  swap3\n  swap2\n  pop\n  pop\n  jump\t// out\n    /* \"#utility.yul\":8567:8862   */\ntag_43:\n    /* \"#utility.yul\":8643:8647   */\n  0x00\n    /* \"#utility.yul\":8789:8818   */\n  tag_143\n    /* \"#utility.yul\":8814:8817   */\n  dup4\n    /* \"#utility.yul\":8808:8812   */\n  dup4\n    /* \"#utility.yul\":8789:8818   */\n  tag_42\n  jump\t// in\ntag_143:\n    /* \"#utility.yul\":8781:8818   */\n  swap2\n  pop\n    /* \"#utility.yul\":8851:8854   */\n  dup3\n    /* \"#utility.yul\":8848:8849   */\n  0x02\n    /* \"#utility.yul\":8844:8855   */\n  mul\n    /* \"#utility.yul\":8838:8842   */\n  dup3\n    /* \"#utility.yul\":8835:8856   */\n  or\n    /* \"#utility.yul\":8827:8856   */\n  swap1\n  pop\n    /* \"#utility.yul\":8567:8862   */\n  swap3\n  swap2\n  pop\n  pop\n  jump\t// out\n    /* \"#utility.yul\":8867:10262   */\ntag_7:\n    /* \"#utility.yul\":8984:9021   */\n  tag_145\n    /* \"#utility.yul\":9017:9020   */\n  dup3\n    /* \"#utility.yul\":8984:9021   */\n  tag_26\n  jump\t// in\ntag_145:\n    /* \"#utility.yul\":9086:9104   */\n  0xffffffffffffffff\n    /* \"#utility.yul\":9078:9084   */\n  dup2\n    /* \"#utility.yul\":9075:9105   */\n  gt\n    /* \"#utility.yul\":9072:9128   */\n  iszero\n  tag_146\n  jumpi\n    /* \"#utility.yul\":9108:9126   */\n  tag_147\n  tag_16\n  jump\t// in\ntag_147:\n    /* \"#utility.yul\":9072:9128   */\ntag_146:\n    /* \"#utility.yul\":9152:9190   */\n  tag_148\n    /* \"#utility.yul\":9184:9188   */\n  dup3\n    /* \"#utility.yul\":9178:9189   */\n  sload\n    /* \"#utility.yul\":9152:9190   */\n  tag_28\n  jump\t// in\ntag_148:\n    /* \"#utility.yul\":9237:9304   */\n  tag_149\n    /* \"#utility.yul\":9297:9303   */\n  dup3\n    /* \"#utility.yul\":9289:9295   */\n  dup3\n    /* \"#utility.yul\":9283:9287   */\n  dup6\n    /* \"#utility.yul\":9237:9304   */\n  tag_40\n  jump\t// in\ntag_149:\n    /* \"#utility.yul\":9331:9332   */\n  0x00\n    /* \"#utility.yul\":9355:9359   */\n  0x20\n    /* \"#utility.yul\":9342:9359   */\n  swap1\n  pop\n    /* \"#utility.yul\":9387:9389   */\n  0x1f\n    /* \"#utility.yul\":9379:9385   */\n  dup4\n    /* \"#utility.yul\":9376:9390   */\n  gt\n    /* \"#utility.yul\":9404:9405   */\n  0x01\n    /* \"#utility.yul\":9399:10017   */\n  dup2\n  eq\n  tag_151\n  jumpi\n    /* \"#utility.yul\":10061:10062   */\n  0x00\n    /* \"#utility.yul\":10078:10084   */\n  dup5\n    /* \"#utility.yul\":10075:10152   */\n  iszero\n  tag_152\n  jumpi\n    /* \"#utility.yul\":10127:10136   */\n  dup3\n    /* \"#utility.yul\":10122:10125   */\n  dup8\n    /* \"#utility.yul\":10118:10137   */\n  add\n    /* \"#utility.yul\":10112:10138   */\n  mload\n    /* \"#utility.yul\":10103:10138   */\n  swap1\n  pop\n    /* \"#utility.yul\":10075:10152   */\ntag_152:\n    /* \"#utility.yul\":10178:10245   */\n  tag_153\n    /* \"#utility.yul\":10238:10244   */\n  dup6\n    /* \"#utility.yul\":10231:10236   */\n  dup3\n    /* \"#utility.yul\":10178:10245   */\n  tag_43\n  jump\t// in\ntag_153:\n    /* \"#utility.yul\":10172:10176   */\n  dup7\n    /* \"#utility.yul\":10165:10246   */\n  sstore\n    /* \"#utility.yul\":10034:10256   */\n  pop\n    /* \"#utility.yul\":9369:10256   */\n  jump(tag_150)\n    /* \"#utility.yul\":9399:10017   */\ntag_151:\n    /* \"#utility.yul\":9451:9455   */\n  0x1f\n    /* \"#utility.yul\":9447:9456   */\n  not\n    /* \"#utility.yul\":9439:9445   */\n  dup5\n    /* \"#utility.yul\":9435:9457   */\n  and\n    /* \"#utility.yul\":9485:9522   */\n  tag_154\n    /* \"#utility.yul\":9517:9521   */\n  dup7\n    /* \"#utility.yul\":9485:9522   */\n  tag_29\n  jump\t// in\ntag_154:\n    /* \"#utility.yul\":9544:9545   */\n  0x00\n    /* \"#utility.yul\":9558:9766   */\ntag_155:\n    /* \"#utility.yul\":9572:9579   */\n  dup3\n    /* \"#utility.yul\":9569:9570   */\n  dup2\n    /* \"#utility.yul\":9566:9580   */\n  lt\n    /* \"#utility.yul\":9558:9766   */\n  iszero\n  tag_157\n  jumpi\n    /* \"#utility.yul\":9651:9660   */\n  dup5\n    /* \"#utility.yul\":9646:9649   */\n  dup10\n    /* \"#utility.yul\":9642:9661   */\n  add\n    /* \"#utility.yul\":9636:9662   */\n  mload\n    /* \"#utility.yul\":9628:9634   */\n  dup3\n    /* \"#utility.yul\":9621:9663   */\n  sstore\n    /* \"#utility.yul\":9702:9703   */\n  0x01\n    /* \"#utility.yul\":9694:9700   */\n  dup3\n    /* \"#utility.yul\":9690:9704   */\n  add\n    /* \"#utility.yul\":9680:9704   */\n  swap2\n  pop\n    /* \"#utility.yul\":9749:9751   */\n  0x20\n    /* \"#utility.yul\":9738:9747   */\n  dup6\n    /* \"#utility.yul\":9734:9752   */\n  add\n    /* \"#utility.yul\":9721:9752   */\n  swap5\n  pop\n    /* \"#utility.yul\":9595:9599   */\n  0x20\n    /* \"#utility.yul\":9592:9593   */\n  dup2\n    /* \"#utility.yul\":9588:9600   */\n  add\n    /* \"#utility.yul\":9583:9600   */\n  swap1\n  pop\n    /* \"#utility.yul\":9558:9766   */\n  jump(tag_155)\ntag_157:\n    /* \"#utility.yul\":9794:9800   */\n  dup7\n    /* \"#utility.yul\":9785:9792   */\n  dup4\n    /* \"#utility.yul\":9782:9801   */\n  lt\n    /* \"#utility.yul\":9779:9958   */\n  iszero\n  tag_158\n  jumpi\n    /* \"#utility.yul\":9852:9861   */\n  dup5\n    /* \"#utility.yul\":9847:9850   */\n  dup10\n    /* \"#utility.yul\":9843:9862   */\n  add\n    /* \"#utility.yul\":9837:9863   */\n  mload\n    /* \"#utility.yul\":9895:9943   */\n  tag_159\n    /* \"#utility.yul\":9937:9941   */\n  0x1f\n    /* \"#utility.yul\":9929:9935   */\n  dup10\n    /* \"#utility.yul\":9925:9942   */\n  and\n    /* \"#utility.yul\":9914:9923   */\n  dup3\n    /* \"#utility.yul\":9895:9943   */\n  tag_42\n  jump\t// in\ntag_159:\n    /* \"#utility.yul\":9887:9893   */\n  dup4\n    /* \"#utility.yul\":9880:9944   */\n  sstore\n    /* \"#utility.yul\":9802:9958   */\n  pop\n    /* \"#utility.yul\":9779:9958   */\ntag_158:\n    /* \"#utility.yul\":10004:10005   */\n  0x01\n    /* \"#utility.yul\":10000:10001   */\n  0x02\n    /* \"#utility.yul\":9992:9998   */\n  dup9\n    /* \"#utility.yul\":9988:10002   */\n  mul\n    /* \"#utility.yul\":9984:10006   */\n  add\n    /* \"#utility.yul\":9978:9982   */\n  dup9\n    /* \"#utility.yul\":9971:10007   */\n  sstore\n    /* \"#utility.yul\":9406:10017   */\n  pop\n  pop\n  pop\n    /* \"#utility.yul\":9369:10256   */\ntag_150:\n  pop\n    /* \"#utility.yul\":8959:10262   */\n  pop\n  pop\n  pop\n    /* \"#utility.yul\":8867:10262   */\n  pop\n  pop\n  jump\t// out\n    /* \"hmsb.sol\":1086:2073  contract Patient {... */\ntag_9:\n  dataSize(sub_0)\n  dup1\n  dataOffset(sub_0)\n  0x00\n  codecopy\n  0x00\n  return\nstop\n\nsub_0: assembly {\n        /* \"hmsb.sol\":1086:2073  contract Patient {... */\n      mstore(0x40, 0x80)\n      callvalue\n      dup1\n      iszero\n      tag_1\n      jumpi\n      0x00\n      dup1\n      revert\n    tag_1:\n      pop\n      jumpi(tag_2, lt(calldatasize, 0x04))\n      shr(0xe0, calldataload(0x00))\n      dup1\n      0x79caad86\n      gt\n      tag_14\n      jumpi\n      dup1\n      0x79caad86\n      eq\n      tag_8\n      jumpi\n      dup1\n      0x9284f497\n      eq\n      tag_9\n      jumpi\n      dup1\n      0xadccea12\n      eq\n      tag_10\n      jumpi\n      dup1\n      0xb89a64e8\n      eq\n      tag_11\n      jumpi\n      dup1\n      0xdeb189b5\n      eq\n      tag_12\n      jumpi\n      dup1\n      0xfb14326f\n      eq\n      tag_13\n      jumpi\n      jump(tag_2)\n    tag_14:\n      dup1\n      0x05ec5f51\n      eq\n      tag_3\n      jumpi\n      dup1\n      0x0b1b6e93\n      eq\n      tag_4\n      jumpi\n      dup1\n      0x262a9dff\n      eq\n      tag_5\n      jumpi\n      dup1\n      0x467621c6\n      eq\n      tag_6\n      jumpi\n      dup1\n      0x61fac54d\n      eq\n      tag_7\n      jumpi\n    tag_2:\n      0x00\n      dup1\n      revert\n        /* \"hmsb.sol\":1234:1249  uint public dbp */\n    tag_3:\n      tag_15\n      tag_16\n      jump\t// in\n    tag_15:\n      mload(0x40)\n      tag_17\n      swap2\n      swap1\n      tag_18\n      jump\t// in\n    tag_17:\n      mload(0x40)\n      dup1\n      swap2\n      sub\n      swap1\n      return\n        /* \"hmsb.sol\":1379:1403  uint public bloodGlucose */\n    tag_4:\n      tag_19\n      tag_20\n      jump\t// in\n    tag_19:\n      mload(0x40)\n      tag_21\n      swap2\n      swap1\n      tag_18\n      jump\t// in\n    tag_21:\n      mload(0x40)\n      dup1\n      swap2\n      sub\n      swap1\n      return\n        /* \"hmsb.sol\":1190:1205  uint public age */\n    tag_5:\n      tag_22\n      tag_23\n      jump\t// in\n    tag_22:\n      mload(0x40)\n      tag_24\n      swap2\n      swap1\n      tag_18\n      jump\t// in\n    tag_24:\n      mload(0x40)\n      dup1\n      swap2\n      sub\n      swap1\n      return\n        /* \"hmsb.sol\":1212:1227  uint public sbp */\n    tag_6:\n      tag_25\n      tag_26\n      jump\t// in\n    tag_25:\n      mload(0x40)\n      tag_27\n      swap2\n      swap1\n      tag_18\n      jump\t// in\n    tag_27:\n      mload(0x40)\n      dup1\n      swap2\n      sub\n      swap1\n      return\n        /* \"hmsb.sol\":1110:1132  string public username */\n    tag_7:\n      tag_28\n      tag_29\n      jump\t// in\n    tag_28:\n      mload(0x40)\n      tag_30\n      swap2\n      swap1\n      tag_31\n      jump\t// in\n    tag_30:\n      mload(0x40)\n      dup1\n      swap2\n      sub\n      swap1\n      return\n        /* \"hmsb.sol\":1139:1159  string public gender */\n    tag_8:\n      tag_32\n      tag_33\n      jump\t// in\n    tag_32:\n      mload(0x40)\n      tag_34\n      swap2\n      swap1\n      tag_31\n      jump\t// in\n    tag_34:\n      mload(0x40)\n      dup1\n      swap2\n      sub\n      swap1\n      return\n        /* \"hmsb.sol\":1166:1183  uint public phone */\n    tag_9:\n      tag_35\n      tag_36\n      jump\t// in\n    tag_35:\n      mload(0x40)\n      tag_37\n      swap2\n      swap1\n      tag_18\n      jump\t// in\n    tag_37:\n      mload(0x40)\n      dup1\n      swap2\n      sub\n      swap1\n      return\n        /* \"hmsb.sol\":1314:1337  uint public temperature */\n    tag_10:\n      tag_38\n      tag_39\n      jump\t// in\n    tag_38:\n      mload(0x40)\n      tag_40\n      swap2\n      swap1\n      tag_18\n      jump\t// in\n    tag_40:\n      mload(0x40)\n      dup1\n      swap2\n      sub\n      swap1\n      return\n        /* \"hmsb.sol\":1344:1372  uint public oxygenSaturation */\n    tag_11:\n      tag_41\n      tag_42\n      jump\t// in\n    tag_41:\n      mload(0x40)\n      tag_43\n      swap2\n      swap1\n      tag_18\n      jump\t// in\n    tag_43:\n      mload(0x40)\n      dup1\n      swap2\n      sub\n      swap1\n      return\n        /* \"hmsb.sol\":1256:1273  uint public pulse */\n    tag_12:\n      tag_44\n      tag_45\n      jump\t// in\n    tag_44:\n      mload(0x40)\n      tag_46\n      swap2\n      swap1\n      tag_18\n      jump\t// in\n    tag_46:\n      mload(0x40)\n      dup1\n      swap2\n      sub\n      swap1\n      return\n        /* \"hmsb.sol\":1280:1307  uint public respiratoryRate */\n    tag_13:\n      tag_47\n      tag_48\n      jump\t// in\n    tag_47:\n      mload(0x40)\n      tag_49\n      swap2\n      swap1\n      tag_18\n      jump\t// in\n    tag_49:\n      mload(0x40)\n      dup1\n      swap2\n      sub\n      swap1\n      return\n        /* \"hmsb.sol\":1234:1249  uint public dbp */\n    tag_16:\n      sload(0x05)\n      dup2\n      jump\t// out\n        /* \"hmsb.sol\":1379:1403  uint public bloodGlucose */\n    tag_20:\n      sload(0x0a)\n      dup2\n      jump\t// out\n        /* \"hmsb.sol\":1190:1205  uint public age */\n    tag_23:\n      sload(0x03)\n      dup2\n      jump\t// out\n        /* \"hmsb.sol\":1212:1227  uint public sbp */\n    tag_26:\n      sload(0x04)\n      dup2\n      jump\t// out\n        /* \"hmsb.sol\":1110:1132  string public username */\n    tag_29:\n      0x00\n      dup1\n      sload\n      tag_50\n      swap1\n      tag_51\n      jump\t// in\n    tag_50:\n      dup1\n      0x1f\n      add\n      0x20\n      dup1\n      swap2\n      div\n      mul\n      0x20\n      add\n      mload(0x40)\n      swap1\n      dup2\n      add\n      0x40\n      mstore\n      dup1\n      swap3\n      swap2\n      swap1\n      dup2\n      dup2\n      mstore\n      0x20\n      add\n      dup3\n      dup1\n      sload\n      tag_52\n      swap1\n      tag_51\n      jump\t// in\n    tag_52:\n      dup1\n      iszero\n      tag_53\n      jumpi\n      dup1\n      0x1f\n      lt\n      tag_54\n      jumpi\n      0x0100\n      dup1\n      dup4\n      sload\n      div\n      mul\n      dup4\n      mstore\n      swap2\n      0x20\n      add\n      swap2\n      jump(tag_53)\n    tag_54:\n      dup3\n      add\n      swap2\n      swap1\n      0x00\n      mstore\n      keccak256(0x00, 0x20)\n      swap1\n    tag_55:\n      dup2\n      sload\n      dup2\n      mstore\n      swap1\n      0x01\n      add\n      swap1\n      0x20\n      add\n      dup1\n      dup4\n      gt\n      tag_55\n      jumpi\n      dup3\n      swap1\n      sub\n      0x1f\n      and\n      dup3\n      add\n      swap2\n    tag_53:\n      pop\n      pop\n      pop\n      pop\n      pop\n      dup2\n      jump\t// out\n        /* \"hmsb.sol\":1139:1159  string public gender */\n    tag_33:\n      0x01\n      dup1\n      sload\n      tag_56\n      swap1\n      tag_51\n      jump\t// in\n    tag_56:\n      dup1\n      0x1f\n      add\n      0x20\n      dup1\n      swap2\n      div\n      mul\n      0x20\n      add\n      mload(0x40)\n      swap1\n      dup2\n      add\n      0x40\n      mstore\n      dup1\n      swap3\n      swap2\n      swap1\n      dup2\n      dup2\n      mstore\n      0x20\n      add\n      dup3\n      dup1\n      sload\n      tag_57\n      swap1\n      tag_51\n      jump\t// in\n    tag_57:\n      dup1\n      iszero\n      tag_58\n      jumpi\n      dup1\n      0x1f\n      lt\n      tag_59\n      jumpi\n      0x0100\n      dup1\n      dup4\n      sload\n      div\n      mul\n      dup4\n      mstore\n      swap2\n      0x20\n      add\n      swap2\n      jump(tag_58)\n    tag_59:\n      dup3\n      add\n      swap2\n      swap1\n      0x00\n      mstore\n      keccak256(0x00, 0x20)\n      swap1\n    tag_60:\n      dup2\n      sload\n      dup2\n      mstore\n      swap1\n      0x01\n      add\n      swap1\n      0x20\n      add\n      dup1\n      dup4\n      gt\n      tag_60\n      jumpi\n      dup3\n      swap1\n      sub\n      0x1f\n      and\n      dup3\n      add\n      swap2\n    tag_58:\n      pop\n      pop\n      pop\n      pop\n      pop\n      dup2\n      jump\t// out\n        /* \"hmsb.sol\":1166:1183  uint public phone */\n    tag_36:\n      sload(0x02)\n      dup2\n      jump\t// out\n        /* \"hmsb.sol\":1314:1337  uint public temperature */\n    tag_39:\n      sload(0x08)\n      dup2\n      jump\t// out\n        /* \"hmsb.sol\":1344:1372  uint public oxygenSaturation */\n    tag_42:\n      sload(0x09)\n      dup2\n      jump\t// out\n        /* \"hmsb.sol\":1256:1273  uint public pulse */\n    tag_45:\n      sload(0x06)\n      dup2\n      jump\t// out\n        /* \"hmsb.sol\":1280:1307  uint public respiratoryRate */\n    tag_48:\n      sload(0x07)\n      dup2\n      jump\t// out\n        /* \"#utility.yul\":7:84   */\n    tag_61:\n        /* \"#utility.yul\":44:51   */\n      0x00\n        /* \"#utility.yul\":73:78   */\n      dup2\n        /* \"#utility.yul\":62:78   */\n      swap1\n      pop\n        /* \"#utility.yul\":7:84   */\n      swap2\n      swap1\n      pop\n      jump\t// out\n        /* \"#utility.yul\":90:208   */\n    tag_62:\n        /* \"#utility.yul\":177:201   */\n      tag_72\n        /* \"#utility.yul\":195:200   */\n      dup2\n        /* \"#utility.yul\":177:201   */\n      tag_61\n      jump\t// in\n    tag_72:\n        /* \"#utility.yul\":172:175   */\n      dup3\n        /* \"#utility.yul\":165:202   */\n      mstore\n        /* \"#utility.yul\":90:208   */\n      pop\n      pop\n      jump\t// out\n        /* \"#utility.yul\":214:436   */\n    tag_18:\n        /* \"#utility.yul\":307:311   */\n      0x00\n        /* \"#utility.yul\":345:347   */\n      0x20\n        /* \"#utility.yul\":334:343   */\n      dup3\n        /* \"#utility.yul\":330:348   */\n      add\n        /* \"#utility.yul\":322:348   */\n      swap1\n      pop\n        /* \"#utility.yul\":358:429   */\n      tag_74\n        /* \"#utility.yul\":426:427   */\n      0x00\n        /* \"#utility.yul\":415:424   */\n      dup4\n        /* \"#utility.yul\":411:428   */\n      add\n        /* \"#utility.yul\":402:408   */\n      dup5\n        /* \"#utility.yul\":358:429   */\n      tag_62\n      jump\t// in\n    tag_74:\n        /* \"#utility.yul\":214:436   */\n      swap3\n      swap2\n      pop\n      pop\n      jump\t// out\n        /* \"#utility.yul\":442:541   */\n    tag_63:\n        /* \"#utility.yul\":494:500   */\n      0x00\n        /* \"#utility.yul\":528:533   */\n      dup2\n        /* \"#utility.yul\":522:534   */\n      mload\n        /* \"#utility.yul\":512:534   */\n      swap1\n      pop\n        /* \"#utility.yul\":442:541   */\n      swap2\n      swap1\n      pop\n      jump\t// out\n        /* \"#utility.yul\":547:716   */\n    tag_64:\n        /* \"#utility.yul\":631:642   */\n      0x00\n        /* \"#utility.yul\":665:671   */\n      dup3\n        /* \"#utility.yul\":660:663   */\n      dup3\n        /* \"#utility.yul\":653:672   */\n      mstore\n        /* \"#utility.yul\":705:709   */\n      0x20\n        /* \"#utility.yul\":700:703   */\n      dup3\n        /* \"#utility.yul\":696:710   */\n      add\n        /* \"#utility.yul\":681:710   */\n      swap1\n      pop\n        /* \"#utility.yul\":547:716   */\n      swap3\n      swap2\n      pop\n      pop\n      jump\t// out\n        /* \"#utility.yul\":722:968   */\n    tag_65:\n        /* \"#utility.yul\":803:804   */\n      0x00\n        /* \"#utility.yul\":813:926   */\n    tag_78:\n        /* \"#utility.yul\":827:833   */\n      dup4\n        /* \"#utility.yul\":824:825   */\n      dup2\n        /* \"#utility.yul\":821:834   */\n      lt\n        /* \"#utility.yul\":813:926   */\n      iszero\n      tag_80\n      jumpi\n        /* \"#utility.yul\":912:913   */\n      dup1\n        /* \"#utility.yul\":907:910   */\n      dup3\n        /* \"#utility.yul\":903:914   */\n      add\n        /* \"#utility.yul\":897:915   */\n      mload\n        /* \"#utility.yul\":893:894   */\n      dup2\n        /* \"#utility.yul\":888:891   */\n      dup5\n        /* \"#utility.yul\":884:895   */\n      add\n        /* \"#utility.yul\":877:916   */\n      mstore\n        /* \"#utility.yul\":849:851   */\n      0x20\n        /* \"#utility.yul\":846:847   */\n      dup2\n        /* \"#utility.yul\":842:852   */\n      add\n        /* \"#utility.yul\":837:852   */\n      swap1\n      pop\n        /* \"#utility.yul\":813:926   */\n      jump(tag_78)\n    tag_80:\n        /* \"#utility.yul\":960:961   */\n      0x00\n        /* \"#utility.yul\":951:957   */\n      dup5\n        /* \"#utility.yul\":946:949   */\n      dup5\n        /* \"#utility.yul\":942:958   */\n      add\n        /* \"#utility.yul\":935:962   */\n      mstore\n        /* \"#utility.yul\":784:968   */\n      pop\n        /* \"#utility.yul\":722:968   */\n      pop\n      pop\n      pop\n      jump\t// out\n        /* \"#utility.yul\":974:1076   */\n    tag_66:\n        /* \"#utility.yul\":1015:1021   */\n      0x00\n        /* \"#utility.yul\":1066:1068   */\n      0x1f\n        /* \"#utility.yul\":1062:1069   */\n      not\n        /* \"#utility.yul\":1057:1059   */\n      0x1f\n        /* \"#utility.yul\":1050:1055   */\n      dup4\n        /* \"#utility.yul\":1046:1060   */\n      add\n        /* \"#utility.yul\":1042:1070   */\n      and\n        /* \"#utility.yul\":1032:1070   */\n      swap1\n      pop\n        /* \"#utility.yul\":974:1076   */\n      swap2\n      swap1\n      pop\n      jump\t// out\n        /* \"#utility.yul\":1082:1459   */\n    tag_67:\n        /* \"#utility.yul\":1170:1173   */\n      0x00\n        /* \"#utility.yul\":1198:1237   */\n      tag_83\n        /* \"#utility.yul\":1231:1236   */\n      dup3\n        /* \"#utility.yul\":1198:1237   */\n      tag_63\n      jump\t// in\n    tag_83:\n        /* \"#utility.yul\":1253:1324   */\n      tag_84\n        /* \"#utility.yul\":1317:1323   */\n      dup2\n        /* \"#utility.yul\":1312:1315   */\n      dup6\n        /* \"#utility.yul\":1253:1324   */\n      tag_64\n      jump\t// in\n    tag_84:\n        /* \"#utility.yul\":1246:1324   */\n      swap4\n      pop\n        /* \"#utility.yul\":1333:1398   */\n      tag_85\n        /* \"#utility.yul\":1391:1397   */\n      dup2\n        /* \"#utility.yul\":1386:1389   */\n      dup6\n        /* \"#utility.yul\":1379:1383   */\n      0x20\n        /* \"#utility.yul\":1372:1377   */\n      dup7\n        /* \"#utility.yul\":1368:1384   */\n      add\n        /* \"#utility.yul\":1333:1398   */\n      tag_65\n      jump\t// in\n    tag_85:\n        /* \"#utility.yul\":1423:1452   */\n      tag_86\n        /* \"#utility.yul\":1445:1451   */\n      dup2\n        /* \"#utility.yul\":1423:1452   */\n      tag_66\n      jump\t// in\n    tag_86:\n        /* \"#utility.yul\":1418:1421   */\n      dup5\n        /* \"#utility.yul\":1414:1453   */\n      add\n        /* \"#utility.yul\":1407:1453   */\n      swap2\n      pop\n        /* \"#utility.yul\":1174:1459   */\n      pop\n        /* \"#utility.yul\":1082:1459   */\n      swap3\n      swap2\n      pop\n      pop\n      jump\t// out\n        /* \"#utility.yul\":1465:1778   */\n    tag_31:\n        /* \"#utility.yul\":1578:1582   */\n      0x00\n        /* \"#utility.yul\":1616:1618   */\n      0x20\n        /* \"#utility.yul\":1605:1614   */\n      dup3\n        /* \"#utility.yul\":1601:1619   */\n      add\n        /* \"#utility.yul\":1593:1619   */\n      swap1\n      pop\n        /* \"#utility.yul\":1665:1674   */\n      dup2\n        /* \"#utility.yul\":1659:1663   */\n      dup2\n        /* \"#utility.yul\":1655:1675   */\n      sub\n        /* \"#utility.yul\":1651:1652   */\n      0x00\n        /* \"#utility.yul\":1640:1649   */\n      dup4\n        /* \"#utility.yul\":1636:1653   */\n      add\n        /* \"#utility.yul\":1629:1676   */\n      mstore\n        /* \"#utility.yul\":1693:1771   */\n      tag_88\n        /* \"#utility.yul\":1766:1770   */\n      dup2\n        /* \"#utility.yul\":1757:1763   */\n      dup5\n        /* \"#utility.yul\":1693:1771   */\n      tag_67\n      jump\t// in\n    tag_88:\n        /* \"#utility.yul\":1685:1771   */\n      swap1\n      pop\n        /* \"#utility.yul\":1465:1778   */\n      swap3\n      swap2\n      pop\n      pop\n      jump\t// out\n        /* \"#utility.yul\":1784:1964   */\n    tag_68:\n        /* \"#utility.yul\":1832:1909   */\n      0x4e487b7100000000000000000000000000000000000000000000000000000000\n        /* \"#utility.yul\":1829:1830   */\n      0x00\n        /* \"#utility.yul\":1822:1910   */\n      mstore\n        /* \"#utility.yul\":1929:1933   */\n      0x22\n        /* \"#utility.yul\":1926:1927   */\n      0x04\n        /* \"#utility.yul\":1919:1934   */\n      mstore\n        /* \"#utility.yul\":1953:1957   */\n      0x24\n        /* \"#utility.yul\":1950:1951   */\n      0x00\n        /* \"#utility.yul\":1943:1958   */\n      revert\n        /* \"#utility.yul\":1970:2290   */\n    tag_51:\n        /* \"#utility.yul\":2014:2020   */\n      0x00\n        /* \"#utility.yul\":2051:2052   */\n      0x02\n        /* \"#utility.yul\":2045:2049   */\n      dup3\n        /* \"#utility.yul\":2041:2053   */\n      div\n        /* \"#utility.yul\":2031:2053   */\n      swap1\n      pop\n        /* \"#utility.yul\":2098:2099   */\n      0x01\n        /* \"#utility.yul\":2092:2096   */\n      dup3\n        /* \"#utility.yul\":2088:2100   */\n      and\n        /* \"#utility.yul\":2119:2137   */\n      dup1\n        /* \"#utility.yul\":2109:2190   */\n      tag_91\n      jumpi\n        /* \"#utility.yul\":2175:2179   */\n      0x7f\n        /* \"#utility.yul\":2167:2173   */\n      dup3\n        /* \"#utility.yul\":2163:2180   */\n      and\n        /* \"#utility.yul\":2153:2180   */\n      swap2\n      pop\n        /* \"#utility.yul\":2109:2190   */\n    tag_91:\n        /* \"#utility.yul\":2237:2239   */\n      0x20\n        /* \"#utility.yul\":2229:2235   */\n      dup3\n        /* \"#utility.yul\":2226:2240   */\n      lt\n        /* \"#utility.yul\":2206:2224   */\n      dup2\n        /* \"#utility.yul\":2203:2241   */\n      sub\n        /* \"#utility.yul\":2200:2284   */\n      tag_92\n      jumpi\n        /* \"#utility.yul\":2256:2274   */\n      tag_93\n      tag_68\n      jump\t// in\n    tag_93:\n        /* \"#utility.yul\":2200:2284   */\n    tag_92:\n        /* \"#utility.yul\":2021:2290   */\n      pop\n        /* \"#utility.yul\":1970:2290   */\n      swap2\n      swap1\n      pop\n      jump\t// out\n\n    auxdata: 0xa26469706673582212200f991d2adc91d0df1d061d9d7ad71c74f9e31cd3b4f11bbb36e9ccc94a6ed92164736f6c63430008150033\n}\n","bytecode":{"linkReferences":{},"object":"608060405234801562000010575f80fd5b5060405162000b7a38038062000b7a833981810160405281019062000036919062000266565b8a5f9081620000469190620005d8565b508960019081620000589190620005d8565b50886002819055508760038190555086600481905550856005819055508460068190555083600781905550826008819055508160098190555080600a819055505050505050505050505050620006bc565b5f604051905090565b5f80fd5b5f80fd5b5f80fd5b5f80fd5b5f601f19601f8301169050919050565b7f4e487b71000000000000000000000000000000000000000000000000000000005f52604160045260245ffd5b6200010a82620000c2565b810181811067ffffffffffffffff821117156200012c576200012b620000d2565b5b80604052505050565b5f62000140620000a9565b90506200014e8282620000ff565b919050565b5f67ffffffffffffffff82111562000170576200016f620000d2565b5b6200017b82620000c2565b9050602081019050919050565b5f5b83811015620001a75780820151818401526020810190506200018a565b5f8484015250505050565b5f620001c8620001c28462000153565b62000135565b905082815260208101848484011115620001e757620001e6620000be565b5b620001f484828562000188565b509392505050565b5f82601f830112620002135762000212620000ba565b5b815162000225848260208601620001b2565b91505092915050565b5f819050919050565b62000242816200022e565b81146200024d575f80fd5b50565b5f81519050620002608162000237565b92915050565b5f805f805f805f805f805f6101608c8e031215620002895762000288620000b2565b5b5f8c015167ffffffffffffffff811115620002a957620002a8620000b6565b5b620002b78e828f01620001fc565b9b505060208c015167ffffffffffffffff811115620002db57620002da620000b6565b5b620002e98e828f01620001fc565b9a50506040620002fc8e828f0162000250565b99505060606200030f8e828f0162000250565b9850506080620003228e828f0162000250565b97505060a0620003358e828f0162000250565b96505060c0620003488e828f0162000250565b95505060e06200035b8e828f0162000250565b9450506101006200036f8e828f0162000250565b935050610120620003838e828f0162000250565b925050610140620003978e828f0162000250565b9150509295989b509295989b9093969950565b5f81519050919050565b7f4e487b71000000000000000000000000000000000000000000000000000000005f52602260045260245ffd5b5f6002820490506001821680620003f957607f821691505b6020821081036200040f576200040e620003b4565b5b50919050565b5f819050815f5260205f209050919050565b5f6020601f8301049050919050565b5f82821b905092915050565b5f60088302620004737fffffffffffffffffffffffffffffffffffffffffffffffffffffffffffffffff8262000436565b6200047f868362000436565b95508019841693508086168417925050509392505050565b5f819050919050565b5f620004c0620004ba620004b4846200022e565b62000497565b6200022e565b9050919050565b5f819050919050565b620004db83620004a0565b620004f3620004ea82620004c7565b84845462000442565b825550505050565b5f90565b62000509620004fb565b62000516818484620004d0565b505050565b5b818110156200053d57620005315f82620004ff565b6001810190506200051c565b5050565b601f8211156200058c57620005568162000415565b620005618462000427565b8101602085101562000571578190505b62000589620005808562000427565b8301826200051b565b50505b505050565b5f82821c905092915050565b5f620005ae5f198460080262000591565b1980831691505092915050565b5f620005c883836200059d565b9150826002028217905092915050565b620005e382620003aa565b67ffffffffffffffff811115620005ff57620005fe620000d2565b5b6200060b8254620003e1565b6200061882828562000541565b5f60209050601f8311600181146200064e575f841562000639578287015190505b620006458582620005bb565b865550620006b4565b601f1984166200065e8662000415565b5f5b82811015620006875784890151825560018201915060208501945060208101905062000660565b86831015620006a75784890151620006a3601f8916826200059d565b8355505b6001600288020188555050505b505050505050565b6104b080620006ca5f395ff3fe608060405234801561000f575f80fd5b50600436106100a7575f3560e01c806379caad861161006f57806379caad86146101415780639284f4971461015f578063adccea121461017d578063b89a64e81461019b578063deb189b5146101b9578063fb14326f146101d7576100a7565b806305ec5f51146100ab5780630b1b6e93146100c9578063262a9dff146100e7578063467621c61461010557806361fac54d14610123575b5f80fd5b6100b36101f5565b6040516100c0919061035a565b60405180910390f35b6100d16101fb565b6040516100de919061035a565b60405180910390f35b6100ef610201565b6040516100fc919061035a565b60405180910390f35b61010d610207565b60405161011a919061035a565b60405180910390f35b61012b61020d565b60405161013891906103fd565b60405180910390f35b610149610298565b60405161015691906103fd565b60405180910390f35b610167610324565b604051610174919061035a565b60405180910390f35b61018561032a565b604051610192919061035a565b60405180910390f35b6101a3610330565b6040516101b0919061035a565b60405180910390f35b6101c1610336565b6040516101ce919061035a565b60405180910390f35b6101df61033c565b6040516101ec919061035a565b60405180910390f35b60055481565b600a5481565b60035481565b60045481565b5f80546102199061044a565b80601f01602080910402602001604051908101604052809291908181526020018280546102459061044a565b80156102905780601f1061026757610100808354040283529160200191610290565b820191905f5260205f20905b81548152906001019060200180831161027357829003601f168201915b505050505081565b600180546102a59061044a565b80601f01602080910402602001604051908101604052809291908181526020018280546102d19061044a565b801561031c5780601f106102f35761010080835404028352916020019161031c565b820191905f5260205f20905b8154815290600101906020018083116102ff57829003601f168201915b505050505081565b60025481565b60085481565b60095481565b60065481565b60075481565b5f819050919050565b61035481610342565b82525050565b5f60208201905061036d5f83018461034b565b92915050565b5f81519050919050565b5f82825260208201905092915050565b5f5b838110156103aa57808201518184015260208101905061038f565b5f8484015250505050565b5f601f19601f8301169050919050565b5f6103cf82610373565b6103d9818561037d565b93506103e981856020860161038d565b6103f2816103b5565b840191505092915050565b5f6020820190508181035f83015261041581846103c5565b905092915050565b7f4e487b71000000000000000000000000000000000000000000000000000000005f52602260045260245ffd5b5f600282049050600182168061046157607f821691505b6020821081036104745761047361041d565b5b5091905056fea26469706673582212200f991d2adc91d0df1d061d9d7ad71c74f9e31cd3b4f11bbb36e9ccc94a6ed92164736f6c63430008150033","opcodes":"PUSH1 0x80 PUSH1 0x40 MSTORE CALLVALUE DUP1 ISZERO PUSH3 0x10 JUMPI PUSH0 DUP1 REVERT JUMPDEST POP PUSH1 0x40 MLOAD PUSH3 0xB7A CODESIZE SUB DUP1 PUSH3 0xB7A DUP4 CODECOPY DUP2 DUP2 ADD PUSH1 0x40 MSTORE DUP2 ADD SWAP1 PUSH3 0x36 SWAP2 SWAP1 PUSH3 0x266 JUMP JUMPDEST DUP11 PUSH0 SWAP1 DUP2 PUSH3 0x46 SWAP2 SWAP1 PUSH3 0x5D8 JUMP JUMPDEST POP DUP10 PUSH1 0x1 SWAP1 DUP2 PUSH3 0x58 SWAP2 SWAP1 PUSH3 0x5D8 JUMP JUMPDEST POP DUP9 PUSH1 0x2 DUP2 SWAP1 SSTORE POP DUP8 PUSH1 0x3 DUP2 SWAP1 SSTORE POP DUP7 PUSH1 0x4 DUP2 SWAP1 SSTORE POP DUP6 PUSH1 0x5 DUP2 SWAP1 SSTORE POP DUP5 PUSH1 0x6 DUP2 SWAP1 SSTORE POP DUP4 PUSH1 0x7 DUP2 SWAP1 SSTORE POP DUP3 PUSH1 0x8 DUP2 SWAP1 SSTORE POP DUP2 PUSH1 0x9 DUP2 SWAP1 SSTORE POP DUP1 PUSH1 0xA DUP2 SWAP1 SSTORE POP POP POP POP POP POP POP POP POP POP POP POP PUSH3 0x6BC JUMP JUMPDEST PUSH0 PUSH1 0x40 MLOAD SWAP1 POP SWAP1 JUMP JUMPDEST PUSH0 DUP1 REVERT JUMPDEST PUSH0 DUP1 REVERT JUMPDEST PUSH0 DUP1 REVERT JUMPDEST PUSH0 DUP1 REVERT JUMPDEST PUSH0 PUSH1 0x1F NOT PUSH1 0x1F DUP4 ADD AND SWAP1 POP SWAP2 SWAP1 POP JUMP JUMPDEST PUSH32 0x4E487B7100000000000000000000000000000000000000000000000000000000 PUSH0 MSTORE PUSH1 0x41 PUSH1 0x4 MSTORE PUSH1 0x24 PUSH0 REVERT JUMPDEST PUSH3 0x10A DUP3 PUSH3 0xC2 JUMP JUMPDEST DUP2 ADD DUP2 DUP2 LT PUSH8 0xFFFFFFFFFFFFFFFF DUP3 GT OR ISZERO PUSH3 0x12C JUMPI PUSH3 0x12B PUSH3 0xD2 JUMP JUMPDEST JUMPDEST DUP1 PUSH1 0x40 MSTORE POP POP POP JUMP JUMPDEST PUSH0 PUSH3 0x140 PUSH3 0xA9 JUMP JUMPDEST SWAP1 POP PUSH3 0x14E DUP3 DUP3 PUSH3 0xFF JUMP JUMPDEST SWAP2 SWAP1 POP JUMP JUMPDEST PUSH0 PUSH8 0xFFFFFFFFFFFFFFFF DUP3 GT ISZERO PUSH3 0x170 JUMPI PUSH3 0x16F PUSH3 0xD2 JUMP JUMPDEST JUMPDEST PUSH3 0x17B DUP3 PUSH3 0xC2 JUMP JUMPDEST SWAP1 POP PUSH1 0x20 DUP2 ADD SWAP1 POP SWAP2 SWAP1 POP JUMP JUMPDEST PUSH0 JUMPDEST DUP4 DUP2 LT ISZERO PUSH3 0x1A7 JUMPI DUP1 DUP3 ADD MLOAD DUP2 DUP5 ADD MSTORE PUSH1 0x20 DUP2 ADD SWAP1 POP PUSH3 0x18A JUMP JUMPDEST PUSH0 DUP5 DUP5 ADD MSTORE POP POP POP POP JUMP JUMPDEST PUSH0 PUSH3 0x1C8 PUSH3 0x1C2 DUP5 PUSH3 0x153 JUMP JUMPDEST PUSH3 0x135 JUMP JUMPDEST SWAP1 POP DUP3 DUP2 MSTORE PUSH1 0x20 DUP2 ADD DUP5 DUP5 DUP5 ADD GT ISZERO PUSH3 0x1E7 JUMPI PUSH3 0x1E6 PUSH3 0xBE JUMP JUMPDEST JUMPDEST PUSH3 0x1F4 DUP5 DUP3 DUP6 PUSH3 0x188 JUMP JUMPDEST POP SWAP4 SWAP3 POP POP POP JUMP JUMPDEST PUSH0 DUP3 PUSH1 0x1F DUP4 ADD SLT PUSH3 0x213 JUMPI PUSH3 0x212 PUSH3 0xBA JUMP JUMPDEST JUMPDEST DUP2 MLOAD PUSH3 0x225 DUP5 DUP3 PUSH1 0x20 DUP7 ADD PUSH3 0x1B2 JUMP JUMPDEST SWAP2 POP POP SWAP3 SWAP2 POP POP JUMP JUMPDEST PUSH0 DUP2 SWAP1 POP SWAP2 SWAP1 POP JUMP JUMPDEST PUSH3 0x242 DUP2 PUSH3 0x22E JUMP JUMPDEST DUP2 EQ PUSH3 0x24D JUMPI PUSH0 DUP1 REVERT JUMPDEST POP JUMP JUMPDEST PUSH0 DUP2 MLOAD SWAP1 POP PUSH3 0x260 DUP2 PUSH3 0x237 JUMP JUMPDEST SWAP3 SWAP2 POP POP JUMP JUMPDEST PUSH0 DUP1 PUSH0 DUP1 PUSH0 DUP1 PUSH0 DUP1 PUSH0 DUP1 PUSH0 PUSH2 0x160 DUP13 DUP15 SUB SLT ISZERO PUSH3 0x289 JUMPI PUSH3 0x288 PUSH3 0xB2 JUMP JUMPDEST JUMPDEST PUSH0 DUP13 ADD MLOAD PUSH8 0xFFFFFFFFFFFFFFFF DUP2 GT ISZERO PUSH3 0x2A9 JUMPI PUSH3 0x2A8 PUSH3 0xB6 JUMP JUMPDEST JUMPDEST PUSH3 0x2B7 DUP15 DUP3 DUP16 ADD PUSH3 0x1FC JUMP JUMPDEST SWAP12 POP POP PUSH1 0x20 DUP13 ADD MLOAD PUSH8 0xFFFFFFFFFFFFFFFF DUP2 GT ISZERO PUSH3 0x2DB JUMPI PUSH3 0x2DA PUSH3 0xB6 JUMP JUMPDEST JUMPDEST PUSH3 0x2E9 DUP15 DUP3 DUP16 ADD PUSH3 0x1FC JUMP JUMPDEST SWAP11 POP POP PUSH1 0x40 PUSH3 0x2FC DUP15 DUP3 DUP16 ADD PUSH3 0x250 JUMP JUMPDEST SWAP10 POP POP PUSH1 0x60 PUSH3 0x30F DUP15 DUP3 DUP16 ADD PUSH3 0x250 JUMP JUMPDEST SWAP9 POP POP PUSH1 0x80 PUSH3 0x322 DUP15 DUP3 DUP16 ADD PUSH3 0x250 JUMP JUMPDEST SWAP8 POP POP PUSH1 0xA0 PUSH3 0x335 DUP15 DUP3 DUP16 ADD PUSH3 0x250 JUMP JUMPDEST SWAP7 POP POP PUSH1 0xC0 PUSH3 0x348 DUP15 DUP3 DUP16 ADD PUSH3 0x250 JUMP JUMPDEST SWAP6 POP POP PUSH1 0xE0 PUSH3 0x35B DUP15 DUP3 DUP16 ADD PUSH3 0x250 JUMP JUMPDEST SWAP5 POP POP PUSH2 0x100 PUSH3 0x36F DUP15 DUP3 DUP16 ADD PUSH3 0x250 JUMP JUMPDEST SWAP4 POP POP PUSH2 0x120 PUSH3 0x383 DUP15 DUP3 DUP16 ADD PUSH3 0x250 JUMP JUMPDEST SWAP3 POP POP PUSH2 0x140 PUSH3 0x397 DUP15 DUP3 DUP16 ADD PUSH3 0x250 JUMP JUMPDEST SWAP2 POP POP SWAP3 SWAP6 SWAP9 SWAP12 POP SWAP3 SWAP6 SWAP9 SWAP12 SWAP1 SWAP4 SWAP7 SWAP10 POP JUMP JUMPDEST PUSH0 DUP2 MLOAD SWAP1 POP SWAP2 SWAP1 POP JUMP JUMPDEST PUSH32 0x4E487B7100000000000000000000000000000000000000000000000000000000 PUSH0 MSTORE PUSH1 0x22 PUSH1 0x4 MSTORE PUSH1 0x24 PUSH0 REVERT JUMPDEST PUSH0 PUSH1 0x2 DUP3 DIV SWAP1 POP PUSH1 0x1 DUP3 AND DUP1 PUSH3 0x3F9 JUMPI PUSH1 0x7F DUP3 AND SWAP2 POP JUMPDEST PUSH1 0x20 DUP3 LT DUP2 SUB PUSH3 0x40F JUMPI PUSH3 0x40E PUSH3 0x3B4 JUMP JUMPDEST JUMPDEST POP SWAP2 SWAP1 POP JUMP JUMPDEST PUSH0 DUP2 SWAP1 POP DUP2 PUSH0 MSTORE PUSH1 0x20 PUSH0 KECCAK256 SWAP1 POP SWAP2 SWAP1 POP JUMP JUMPDEST PUSH0 PUSH1 0x20 PUSH1 0x1F DUP4 ADD DIV SWAP1 POP SWAP2 SWAP1 POP JUMP JUMPDEST PUSH0 DUP3 DUP3 SHL SWAP1 POP SWAP3 SWAP2 POP POP JUMP JUMPDEST PUSH0 PUSH1 0x8 DUP4 MUL PUSH3 0x473 PUSH32 0xFFFFFFFFFFFFFFFFFFFFFFFFFFFFFFFFFFFFFFFFFFFFFFFFFFFFFFFFFFFFFFFF DUP3 PUSH3 0x436 JUMP JUMPDEST PUSH3 0x47F DUP7 DUP4 PUSH3 0x436 JUMP JUMPDEST SWAP6 POP DUP1 NOT DUP5 AND SWAP4 POP DUP1 DUP7 AND DUP5 OR SWAP3 POP POP POP SWAP4 SWAP3 POP POP POP JUMP JUMPDEST PUSH0 DUP2 SWAP1 POP SWAP2 SWAP1 POP JUMP JUMPDEST PUSH0 PUSH3 0x4C0 PUSH3 0x4BA PUSH3 0x4B4 DUP5 PUSH3 0x22E JUMP JUMPDEST PUSH3 0x497 JUMP JUMPDEST PUSH3 0x22E JUMP JUMPDEST SWAP1 POP SWAP2 SWAP1 POP JUMP JUMPDEST PUSH0 DUP2 SWAP1 POP SWAP2 SWAP1 POP JUMP JUMPDEST PUSH3 0x4DB DUP4 PUSH3 0x4A0 JUMP JUMPDEST PUSH3 0x4F3 PUSH3 0x4EA DUP3 PUSH3 0x4C7 JUMP JUMPDEST DUP5 DUP5 SLOAD PUSH3 0x442 JUMP JUMPDEST DUP3 SSTORE POP POP POP POP JUMP JUMPDEST PUSH0 SWAP1 JUMP JUMPDEST PUSH3 0x509 PUSH3 0x4FB JUMP JUMPDEST PUSH3 0x516 DUP2 DUP5 DUP5 PUSH3 0x4D0 JUMP JUMPDEST POP POP POP JUMP JUMPDEST JUMPDEST DUP2 DUP2 LT ISZERO PUSH3 0x53D JUMPI PUSH3 0x531 PUSH0 DUP3 PUSH3 0x4FF JUMP JUMPDEST PUSH1 0x1 DUP2 ADD SWAP1 POP PUSH3 0x51C JUMP JUMPDEST POP POP JUMP JUMPDEST PUSH1 0x1F DUP3 GT ISZERO PUSH3 0x58C JUMPI PUSH3 0x556 DUP2 PUSH3 0x415 JUMP JUMPDEST PUSH3 0x561 DUP5 PUSH3 0x427 JUMP JUMPDEST DUP2 ADD PUSH1 0x20 DUP6 LT ISZERO PUSH3 0x571 JUMPI DUP2 SWAP1 POP JUMPDEST PUSH3 0x589 PUSH3 0x580 DUP6 PUSH3 0x427 JUMP JUMPDEST DUP4 ADD DUP3 PUSH3 0x51B JUMP JUMPDEST POP POP JUMPDEST POP POP POP JUMP JUMPDEST PUSH0 DUP3 DUP3 SHR SWAP1 POP SWAP3 SWAP2 POP POP JUMP JUMPDEST PUSH0 PUSH3 0x5AE PUSH0 NOT DUP5 PUSH1 0x8 MUL PUSH3 0x591 JUMP JUMPDEST NOT DUP1 DUP4 AND SWAP2 POP POP SWAP3 SWAP2 POP POP JUMP JUMPDEST PUSH0 PUSH3 0x5C8 DUP4 DUP4 PUSH3 0x59D JUMP JUMPDEST SWAP2 POP DUP3 PUSH1 0x2 MUL DUP3 OR SWAP1 POP SWAP3 SWAP2 POP POP JUMP JUMPDEST PUSH3 0x5E3 DUP3 PUSH3 0x3AA JUMP JUMPDEST PUSH8 0xFFFFFFFFFFFFFFFF DUP2 GT ISZERO PUSH3 0x5FF JUMPI PUSH3 0x5FE PUSH3 0xD2 JUMP JUMPDEST JUMPDEST PUSH3 0x60B DUP3 SLOAD PUSH3 0x3E1 JUMP JUMPDEST PUSH3 0x618 DUP3 DUP3 DUP6 PUSH3 0x541 JUMP JUMPDEST PUSH0 PUSH1 0x20 SWAP1 POP PUSH1 0x1F DUP4 GT PUSH1 0x1 DUP2 EQ PUSH3 0x64E JUMPI PUSH0 DUP5 ISZERO PUSH3 0x639 JUMPI DUP3 DUP8 ADD MLOAD SWAP1 POP JUMPDEST PUSH3 0x645 DUP6 DUP3 PUSH3 0x5BB JUMP JUMPDEST DUP7 SSTORE POP PUSH3 0x6B4 JUMP JUMPDEST PUSH1 0x1F NOT DUP5 AND PUSH3 0x65E DUP7 PUSH3 0x415 JUMP JUMPDEST PUSH0 JUMPDEST DUP3 DUP2 LT ISZERO PUSH3 0x687 JUMPI DUP5 DUP10 ADD MLOAD DUP3 SSTORE PUSH1 0x1 DUP3 ADD SWAP2 POP PUSH1 0x20 DUP6 ADD SWAP5 POP PUSH1 0x20 DUP2 ADD SWAP1 POP PUSH3 0x660 JUMP JUMPDEST DUP7 DUP4 LT ISZERO PUSH3 0x6A7 JUMPI DUP5 DUP10 ADD MLOAD PUSH3 0x6A3 PUSH1 0x1F DUP10 AND DUP3 PUSH3 0x59D JUMP JUMPDEST DUP4 SSTORE POP JUMPDEST PUSH1 0x1 PUSH1 0x2 DUP9 MUL ADD DUP9 SSTORE POP POP POP JUMPDEST POP POP POP POP POP POP JUMP JUMPDEST PUSH2 0x4B0 DUP1 PUSH3 0x6CA PUSH0 CODECOPY PUSH0 RETURN INVALID PUSH1 0x80 PUSH1 0x40 MSTORE CALLVALUE DUP1 ISZERO PUSH2 0xF JUMPI PUSH0 DUP1 REVERT JUMPDEST POP PUSH1 0x4 CALLDATASIZE LT PUSH2 0xA7 JUMPI PUSH0 CALLDATALOAD PUSH1 0xE0 SHR DUP1 PUSH4 0x79CAAD86 GT PUSH2 0x6F JUMPI DUP1 PUSH4 0x79CAAD86 EQ PUSH2 0x141 JUMPI DUP1 PUSH4 0x9284F497 EQ PUSH2 0x15F JUMPI DUP1 PUSH4 0xADCCEA12 EQ PUSH2 0x17D JUMPI DUP1 PUSH4 0xB89A64E8 EQ PUSH2 0x19B JUMPI DUP1 PUSH4 0xDEB189B5 EQ PUSH2 0x1B9 JUMPI DUP1 PUSH4 0xFB14326F EQ PUSH2 0x1D7 JUMPI PUSH2 0xA7 JUMP JUMPDEST DUP1 PUSH4 0x5EC5F51 EQ PUSH2 0xAB JUMPI DUP1 PUSH4 0xB1B6E93 EQ PUSH2 0xC9 JUMPI DUP1 PUSH4 0x262A9DFF EQ PUSH2 0xE7 JUMPI DUP1 PUSH4 0x467621C6 EQ PUSH2 0x105 JUMPI DUP1 PUSH4 0x61FAC54D EQ PUSH2 0x123 JUMPI JUMPDEST PUSH0 DUP1 REVERT JUMPDEST PUSH2 0xB3 PUSH2 0x1F5 JUMP JUMPDEST PUSH1 0x40 MLOAD PUSH2 0xC0 SWAP2 SWAP1 PUSH2 0x35A JUMP JUMPDEST PUSH1 0x40 MLOAD DUP1 SWAP2 SUB SWAP1 RETURN JUMPDEST PUSH2 0xD1 PUSH2 0x1FB JUMP JUMPDEST PUSH1 0x40 MLOAD PUSH2 0xDE SWAP2 SWAP1 PUSH2 0x35A JUMP JUMPDEST PUSH1 0x40 MLOAD DUP1 SWAP2 SUB SWAP1 RETURN JUMPDEST PUSH2 0xEF PUSH2 0x201 JUMP JUMPDEST PUSH1 0x40 MLOAD PUSH2 0xFC SWAP2 SWAP1 PUSH2 0x35A JUMP JUMPDEST PUSH1 0x40 MLOAD DUP1 SWAP2 SUB SWAP1 RETURN JUMPDEST PUSH2 0x10D PUSH2 0x207 JUMP JUMPDEST PUSH1 0x40 MLOAD PUSH2 0x11A SWAP2 SWAP1 PUSH2 0x35A JUMP JUMPDEST PUSH1 0x40 MLOAD DUP1 SWAP2 SUB SWAP1 RETURN JUMPDEST PUSH2 0x12B PUSH2 0x20D JUMP JUMPDEST PUSH1 0x40 MLOAD PUSH2 0x138 SWAP2 SWAP1 PUSH2 0x3FD JUMP JUMPDEST PUSH1 0x40 MLOAD DUP1 SWAP2 SUB SWAP1 RETURN JUMPDEST PUSH2 0x149 PUSH2 0x298 JUMP JUMPDEST PUSH1 0x40 MLOAD PUSH2 0x156 SWAP2 SWAP1 PUSH2 0x3FD JUMP JUMPDEST PUSH1 0x40 MLOAD DUP1 SWAP2 SUB SWAP1 RETURN JUMPDEST PUSH2 0x167 PUSH2 0x324 JUMP JUMPDEST PUSH1 0x40 MLOAD PUSH2 0x174 SWAP2 SWAP1 PUSH2 0x35A JUMP JUMPDEST PUSH1 0x40 MLOAD DUP1 SWAP2 SUB SWAP1 RETURN JUMPDEST PUSH2 0x185 PUSH2 0x32A JUMP JUMPDEST PUSH1 0x40 MLOAD PUSH2 0x192 SWAP2 SWAP1 PUSH2 0x35A JUMP JUMPDEST PUSH1 0x40 MLOAD DUP1 SWAP2 SUB SWAP1 RETURN JUMPDEST PUSH2 0x1A3 PUSH2 0x330 JUMP JUMPDEST PUSH1 0x40 MLOAD PUSH2 0x1B0 SWAP2 SWAP1 PUSH2 0x35A JUMP JUMPDEST PUSH1 0x40 MLOAD DUP1 SWAP2 SUB SWAP1 RETURN JUMPDEST PUSH2 0x1C1 PUSH2 0x336 JUMP JUMPDEST PUSH1 0x40 MLOAD PUSH2 0x1CE SWAP2 SWAP1 PUSH2 0x35A JUMP JUMPDEST PUSH1 0x40 MLOAD DUP1 SWAP2 SUB SWAP1 RETURN JUMPDEST PUSH2 0x1DF PUSH2 0x33C JUMP JUMPDEST PUSH1 0x40 MLOAD PUSH2 0x1EC SWAP2 SWAP1 PUSH2 0x35A JUMP JUMPDEST PUSH1 0x40 MLOAD DUP1 SWAP2 SUB SWAP1 RETURN JUMPDEST PUSH1 0x5 SLOAD DUP2 JUMP JUMPDEST PUSH1 0xA SLOAD DUP2 JUMP JUMPDEST PUSH1 0x3 SLOAD DUP2 JUMP JUMPDEST PUSH1 0x4 SLOAD DUP2 JUMP JUMPDEST PUSH0 DUP1 SLOAD PUSH2 0x219 SWAP1 PUSH2 0x44A JUMP JUMPDEST DUP1 PUSH1 0x1F ADD PUSH1 0x20 DUP1 SWAP2 DIV MUL PUSH1 0x20 ADD PUSH1 0x40 MLOAD SWAP1 DUP2 ADD PUSH1 0x40 MSTORE DUP1 SWAP3 SWAP2 SWAP1 DUP2 DUP2 MSTORE PUSH1 0x20 ADD DUP3 DUP1 SLOAD PUSH2 0x245 SWAP1 PUSH2 0x44A JUMP JUMPDEST DUP1 ISZERO PUSH2 0x290 JUMPI DUP1 PUSH1 0x1F LT PUSH2 0x267 JUMPI PUSH2 0x100 DUP1 DUP4 SLOAD DIV MUL DUP4 MSTORE SWAP2 PUSH1 0x20 ADD SWAP2 PUSH2 0x290 JUMP JUMPDEST DUP3 ADD SWAP2 SWAP1 PUSH0 MSTORE PUSH1 0x20 PUSH0 KECCAK256 SWAP1 JUMPDEST DUP2 SLOAD DUP2 MSTORE SWAP1 PUSH1 0x1 ADD SWAP1 PUSH1 0x20 ADD DUP1 DUP4 GT PUSH2 0x273 JUMPI DUP3 SWAP1 SUB PUSH1 0x1F AND DUP3 ADD SWAP2 JUMPDEST POP POP POP POP POP DUP2 JUMP JUMPDEST PUSH1 0x1 DUP1 SLOAD PUSH2 0x2A5 SWAP1 PUSH2 0x44A JUMP JUMPDEST DUP1 PUSH1 0x1F ADD PUSH1 0x20 DUP1 SWAP2 DIV MUL PUSH1 0x20 ADD PUSH1 0x40 MLOAD SWAP1 DUP2 ADD PUSH1 0x40 MSTORE DUP1 SWAP3 SWAP2 SWAP1 DUP2 DUP2 MSTORE PUSH1 0x20 ADD DUP3 DUP1 SLOAD PUSH2 0x2D1 SWAP1 PUSH2 0x44A JUMP JUMPDEST DUP1 ISZERO PUSH2 0x31C JUMPI DUP1 PUSH1 0x1F LT PUSH2 0x2F3 JUMPI PUSH2 0x100 DUP1 DUP4 SLOAD DIV MUL DUP4 MSTORE SWAP2 PUSH1 0x20 ADD SWAP2 PUSH2 0x31C JUMP JUMPDEST DUP3 ADD SWAP2 SWAP1 PUSH0 MSTORE PUSH1 0x20 PUSH0 KECCAK256 SWAP1 JUMPDEST DUP2 SLOAD DUP2 MSTORE SWAP1 PUSH1 0x1 ADD SWAP1 PUSH1 0x20 ADD DUP1 DUP4 GT PUSH2 0x2FF JUMPI DUP3 SWAP1 SUB PUSH1 0x1F AND DUP3 ADD SWAP2 JUMPDEST POP POP POP POP POP DUP2 JUMP JUMPDEST PUSH1 0x2 SLOAD DUP2 JUMP JUMPDEST PUSH1 0x8 SLOAD DUP2 JUMP JUMPDEST PUSH1 0x9 SLOAD DUP2 JUMP JUMPDEST PUSH1 0x6 SLOAD DUP2 JUMP JUMPDEST PUSH1 0x7 SLOAD DUP2 JUMP JUMPDEST PUSH0 DUP2 SWAP1 POP SWAP2 SWAP1 POP JUMP JUMPDEST PUSH2 0x354 DUP2 PUSH2 0x342 JUMP JUMPDEST DUP3 MSTORE POP POP JUMP JUMPDEST PUSH0 PUSH1 0x20 DUP3 ADD SWAP1 POP PUSH2 0x36D PUSH0 DUP4 ADD DUP5 PUSH2 0x34B JUMP JUMPDEST SWAP3 SWAP2 POP POP JUMP JUMPDEST PUSH0 DUP2 MLOAD SWAP1 POP SWAP2 SWAP1 POP JUMP JUMPDEST PUSH0 DUP3 DUP3 MSTORE PUSH1 0x20 DUP3 ADD SWAP1 POP SWAP3 SWAP2 POP POP JUMP JUMPDEST PUSH0 JUMPDEST DUP4 DUP2 LT ISZERO PUSH2 0x3AA JUMPI DUP1 DUP3 ADD MLOAD DUP2 DUP5 ADD MSTORE PUSH1 0x20 DUP2 ADD SWAP1 POP PUSH2 0x38F JUMP JUMPDEST PUSH0 DUP5 DUP5 ADD MSTORE POP POP POP POP JUMP JUMPDEST PUSH0 PUSH1 0x1F NOT PUSH1 0x1F DUP4 ADD AND SWAP1 POP SWAP2 SWAP1 POP JUMP JUMPDEST PUSH0 PUSH2 0x3CF DUP3 PUSH2 0x373 JUMP JUMPDEST PUSH2 0x3D9 DUP2 DUP6 PUSH2 0x37D JUMP JUMPDEST SWAP4 POP PUSH2 0x3E9 DUP2 DUP6 PUSH1 0x20 DUP7 ADD PUSH2 0x38D JUMP JUMPDEST PUSH2 0x3F2 DUP2 PUSH2 0x3B5 JUMP JUMPDEST DUP5 ADD SWAP2 POP POP SWAP3 SWAP2 POP POP JUMP JUMPDEST PUSH0 PUSH1 0x20 DUP3 ADD SWAP1 POP DUP2 DUP2 SUB PUSH0 DUP4 ADD MSTORE PUSH2 0x415 DUP2 DUP5 PUSH2 0x3C5 JUMP JUMPDEST SWAP1 POP SWAP3 SWAP2 POP POP JUMP JUMPDEST PUSH32 0x4E487B7100000000000000000000000000000000000000000000000000000000 PUSH0 MSTORE PUSH1 0x22 PUSH1 0x4 MSTORE PUSH1 0x24 PUSH0 REVERT JUMPDEST PUSH0 PUSH1 0x2 DUP3 DIV SWAP1 POP PUSH1 0x1 DUP3 AND DUP1 PUSH2 0x461 JUMPI PUSH1 0x7F DUP3 AND SWAP2 POP JUMPDEST PUSH1 0x20 DUP3 LT DUP2 SUB PUSH2 0x474 JUMPI PUSH2 0x473 PUSH2 0x41D JUMP JUMPDEST JUMPDEST POP SWAP2 SWAP1 POP JUMP INVALID LOG2 PUSH5 0x6970667358 0x22 SLT KECCAK256 0xF SWAP10 SAR 0x2A 0xDC SWAP2 0xD0 0xDF SAR MOD SAR SWAP14 PUSH27 0xD71C74F9E31CD3B4F11BBB36E9CCC94A6ED92164736F6C63430008 ISZERO STOP CALLER "},"gasEstimates":{"creation":{"codeDepositCost":"240000","executionCost":"infinite","totalCost":"infinite"},"external":{"age()":"2470","bloodGlucose()":"2448","dbp()":"2426","gender()":"infinite","oxygenSaturation()":"2491","phone()":"2447","pulse()":"2513","respiratoryRate()":"2535","sbp()":"2492","temperature()":"2469","username()":"infinite"}},"methodIdentifiers":{"age()":"262a9dff","bloodGlucose()":"0b1b6e93","dbp()":"05ec5f51","gender()":"79caad86","oxygenSaturation()":"b89a64e8","phone()":"9284f497","pulse()":"deb189b5","respiratoryRate()":"fb14326f","sbp()":"467621c6","temperature()":"adccea12","username()":"61fac54d"}},"storageLayout":{"storage":[{"astId":76,"contract":"hmsb.sol:Patient","label":"username","offset":0,"slot":"0","type":"t_string_storage"},{"astId":78,"contract":"hmsb.sol:Patient","label":"gender","offset":0,"slot":"1","type":"t_string_storage"},{"astId":80,"contract":"hmsb.sol:Patient","label":"phone","offset":0,"slot":"2","type":"t_uint256"},{"astId":82,"contract":"hmsb.sol:Patient","label":"age","offset":0,"slot":"3","type":"t_uint256"},{"astId":84,"contract":"hmsb.sol:Patient","label":"sbp","offset":0,"slot":"4","type":"t_uint256"},{"astId":86,"contract":"hmsb.sol:Patient","label":"dbp","offset":0,"slot":"5","type":"t_uint256"},{"astId":88,"contract":"hmsb.sol:Patient","label":"pulse","offset":0,"slot":"6","type":"t_uint256"},{"astId":90,"contract":"hmsb.sol:Patient","label":"respiratoryRate","offset":0,"slot":"7","type":"t_uint256"},{"astId":92,"contract":"hmsb.sol:Patient","label":"temperature","offset":0,"slot":"8","type":"t_uint256"},{"astId":94,"contract":"hmsb.sol:Patient","label":"oxygenSaturation","offset":0,"slot":"9","type":"t_uint256"},{"astId":96,"contract":"hmsb.sol:Patient","label":"bloodGlucose","offset":0,"slot":"10","type":"t_uint256"}],"types":{"t_string_storage":{"encoding":"bytes","label":"string","numberOfBytes":"32"},"t_uint256":{"encoding":"inplace","label":"uint256","numberOfBytes":"32"}}},"userdoc":{"kind":"user","methods":{},"version":1}}